{
	"contracts/zone_calculation.sol": {
		"ShortestPath": {
			"abi": [
				{
					"inputs": [],
					"name": "getShortestPath",
					"outputs": [
						{
							"internalType": "uint256",
							"name": "",
							"type": "uint256"
						}
					],
					"stateMutability": "pure",
					"type": "function"
				}
			],
			"devdoc": {
				"kind": "dev",
				"methods": {},
				"version": 1
			},
			"evm": {
				"assembly": "    /* \"contracts/zone_calculation.sol\":25:2066  contract ShortestPath {... */\n  mstore(0x40, 0x80)\n  callvalue\n  dup1\n  iszero\n  tag_1\n  jumpi\n  0x00\n  dup1\n  revert\ntag_1:\n  pop\n  dataSize(sub_0)\n  dup1\n  dataOffset(sub_0)\n  0x00\n  codecopy\n  0x00\n  return\nstop\n\nsub_0: assembly {\n        /* \"contracts/zone_calculation.sol\":25:2066  contract ShortestPath {... */\n      mstore(0x40, 0x80)\n      callvalue\n      dup1\n      iszero\n      tag_1\n      jumpi\n      0x00\n      dup1\n      revert\n    tag_1:\n      pop\n      jumpi(tag_2, lt(calldatasize, 0x04))\n      shr(0xe0, calldataload(0x00))\n      dup1\n      0x8f9b7d7a\n      eq\n      tag_3\n      jumpi\n    tag_2:\n      0x00\n      dup1\n      revert\n        /* \"contracts/zone_calculation.sol\":986:2062  function getShortestPath() public pure returns (uint) {... */\n    tag_3:\n      tag_4\n      tag_5\n      jump\t// in\n    tag_4:\n      mload(0x40)\n      tag_6\n      swap2\n      swap1\n      tag_7\n      jump\t// in\n    tag_6:\n      mload(0x40)\n      dup1\n      swap2\n      sub\n      swap1\n      return\n    tag_5:\n        /* \"contracts/zone_calculation.sol\":1034:1038  uint */\n      0x00\n        /* \"contracts/zone_calculation.sol\":1046:1068  uint256[][] memory adj */\n      dup1\n        /* \"contracts/zone_calculation.sol\":1087:1088  6 */\n      0x06\n        /* \"contracts/zone_calculation.sol\":1071:1089  new uint256[][](6) */\n      0xffffffffffffffff\n      dup2\n      gt\n      iszero\n      tag_9\n      jumpi\n      tag_10\n      tag_11\n      jump\t// in\n    tag_10:\n    tag_9:\n      mload(0x40)\n      swap1\n      dup1\n      dup3\n      mstore\n      dup1\n      0x20\n      mul\n      0x20\n      add\n      dup3\n      add\n      0x40\n      mstore\n      dup1\n      iszero\n      tag_12\n      jumpi\n      dup2\n      0x20\n      add\n    tag_13:\n      0x60\n      dup2\n      mstore\n      0x20\n      add\n      swap1\n      0x01\n      swap1\n      sub\n      swap1\n      dup2\n      tag_13\n      jumpi\n      swap1\n      pop\n    tag_12:\n      pop\n        /* \"contracts/zone_calculation.sol\":1046:1089  uint256[][] memory adj = new uint256[][](6) */\n      swap1\n      pop\n        /* \"contracts/zone_calculation.sol\":1118:1119  6 */\n      0x06\n        /* \"contracts/zone_calculation.sol\":1104:1120  new uint256[](6) */\n      0xffffffffffffffff\n      dup2\n      gt\n      iszero\n      tag_14\n      jumpi\n      tag_15\n      tag_11\n      jump\t// in\n    tag_15:\n    tag_14:\n      mload(0x40)\n      swap1\n      dup1\n      dup3\n      mstore\n      dup1\n      0x20\n      mul\n      0x20\n      add\n      dup3\n      add\n      0x40\n      mstore\n      dup1\n      iszero\n      tag_16\n      jumpi\n      dup2\n      0x20\n      add\n      0x20\n      dup3\n      mul\n      dup1\n      calldatasize\n      dup4\n      calldatacopy\n      dup1\n      dup3\n      add\n      swap2\n      pop\n      pop\n      swap1\n      pop\n    tag_16:\n      pop\n        /* \"contracts/zone_calculation.sol\":1095:1098  adj */\n      dup2\n        /* \"contracts/zone_calculation.sol\":1099:1100  0 */\n      0x00\n        /* \"contracts/zone_calculation.sol\":1095:1101  adj[0] */\n      dup2\n      mload\n      dup2\n      lt\n      tag_17\n      jumpi\n      tag_18\n      tag_19\n      jump\t// in\n    tag_18:\n    tag_17:\n      0x20\n      mul\n      0x20\n      add\n      add\n        /* \"contracts/zone_calculation.sol\":1095:1120  adj[0] = new uint256[](6) */\n      dup2\n      swap1\n      mstore\n      pop\n        /* \"contracts/zone_calculation.sol\":1138:1139  0 */\n      0x00\n        /* \"contracts/zone_calculation.sol\":1126:1129  adj */\n      dup2\n        /* \"contracts/zone_calculation.sol\":1130:1131  0 */\n      0x00\n        /* \"contracts/zone_calculation.sol\":1126:1132  adj[0] */\n      dup2\n      mload\n      dup2\n      lt\n      tag_20\n      jumpi\n      tag_21\n      tag_19\n      jump\t// in\n    tag_21:\n    tag_20:\n      0x20\n      mul\n      0x20\n      add\n      add\n      mload\n        /* \"contracts/zone_calculation.sol\":1133:1134  0 */\n      0x00\n        /* \"contracts/zone_calculation.sol\":1126:1135  adj[0][0] */\n      dup2\n      mload\n      dup2\n      lt\n      tag_22\n      jumpi\n      tag_23\n      tag_19\n      jump\t// in\n    tag_23:\n    tag_22:\n      0x20\n      mul\n      0x20\n      add\n      add\n        /* \"contracts/zone_calculation.sol\":1126:1139  adj[0][0] = 0 */\n      dup2\n      dup2\n      mstore\n      pop\n      pop\n        /* \"contracts/zone_calculation.sol\":1157:1158  1 */\n      0x01\n        /* \"contracts/zone_calculation.sol\":1145:1148  adj */\n      dup2\n        /* \"contracts/zone_calculation.sol\":1149:1150  0 */\n      0x00\n        /* \"contracts/zone_calculation.sol\":1145:1151  adj[0] */\n      dup2\n      mload\n      dup2\n      lt\n      tag_24\n      jumpi\n      tag_25\n      tag_19\n      jump\t// in\n    tag_25:\n    tag_24:\n      0x20\n      mul\n      0x20\n      add\n      add\n      mload\n        /* \"contracts/zone_calculation.sol\":1152:1153  1 */\n      0x01\n        /* \"contracts/zone_calculation.sol\":1145:1154  adj[0][1] */\n      dup2\n      mload\n      dup2\n      lt\n      tag_26\n      jumpi\n      tag_27\n      tag_19\n      jump\t// in\n    tag_27:\n    tag_26:\n      0x20\n      mul\n      0x20\n      add\n      add\n        /* \"contracts/zone_calculation.sol\":1145:1158  adj[0][1] = 1 */\n      dup2\n      dup2\n      mstore\n      pop\n      pop\n        /* \"contracts/zone_calculation.sol\":1176:1177  1 */\n      0x01\n        /* \"contracts/zone_calculation.sol\":1164:1167  adj */\n      dup2\n        /* \"contracts/zone_calculation.sol\":1168:1169  0 */\n      0x00\n        /* \"contracts/zone_calculation.sol\":1164:1170  adj[0] */\n      dup2\n      mload\n      dup2\n      lt\n      tag_28\n      jumpi\n      tag_29\n      tag_19\n      jump\t// in\n    tag_29:\n    tag_28:\n      0x20\n      mul\n      0x20\n      add\n      add\n      mload\n        /* \"contracts/zone_calculation.sol\":1171:1172  2 */\n      0x02\n        /* \"contracts/zone_calculation.sol\":1164:1173  adj[0][2] */\n      dup2\n      mload\n      dup2\n      lt\n      tag_30\n      jumpi\n      tag_31\n      tag_19\n      jump\t// in\n    tag_31:\n    tag_30:\n      0x20\n      mul\n      0x20\n      add\n      add\n        /* \"contracts/zone_calculation.sol\":1164:1177  adj[0][2] = 1 */\n      dup2\n      dup2\n      mstore\n      pop\n      pop\n        /* \"contracts/zone_calculation.sol\":1195:1196  0 */\n      0x00\n        /* \"contracts/zone_calculation.sol\":1183:1186  adj */\n      dup2\n        /* \"contracts/zone_calculation.sol\":1187:1188  0 */\n      0x00\n        /* \"contracts/zone_calculation.sol\":1183:1189  adj[0] */\n      dup2\n      mload\n      dup2\n      lt\n      tag_32\n      jumpi\n      tag_33\n      tag_19\n      jump\t// in\n    tag_33:\n    tag_32:\n      0x20\n      mul\n      0x20\n      add\n      add\n      mload\n        /* \"contracts/zone_calculation.sol\":1190:1191  3 */\n      0x03\n        /* \"contracts/zone_calculation.sol\":1183:1192  adj[0][3] */\n      dup2\n      mload\n      dup2\n      lt\n      tag_34\n      jumpi\n      tag_35\n      tag_19\n      jump\t// in\n    tag_35:\n    tag_34:\n      0x20\n      mul\n      0x20\n      add\n      add\n        /* \"contracts/zone_calculation.sol\":1183:1196  adj[0][3] = 0 */\n      dup2\n      dup2\n      mstore\n      pop\n      pop\n        /* \"contracts/zone_calculation.sol\":1214:1215  0 */\n      0x00\n        /* \"contracts/zone_calculation.sol\":1202:1205  adj */\n      dup2\n        /* \"contracts/zone_calculation.sol\":1206:1207  0 */\n      0x00\n        /* \"contracts/zone_calculation.sol\":1202:1208  adj[0] */\n      dup2\n      mload\n      dup2\n      lt\n      tag_36\n      jumpi\n      tag_37\n      tag_19\n      jump\t// in\n    tag_37:\n    tag_36:\n      0x20\n      mul\n      0x20\n      add\n      add\n      mload\n        /* \"contracts/zone_calculation.sol\":1209:1210  4 */\n      0x04\n        /* \"contracts/zone_calculation.sol\":1202:1211  adj[0][4] */\n      dup2\n      mload\n      dup2\n      lt\n      tag_38\n      jumpi\n      tag_39\n      tag_19\n      jump\t// in\n    tag_39:\n    tag_38:\n      0x20\n      mul\n      0x20\n      add\n      add\n        /* \"contracts/zone_calculation.sol\":1202:1215  adj[0][4] = 0 */\n      dup2\n      dup2\n      mstore\n      pop\n      pop\n        /* \"contracts/zone_calculation.sol\":1233:1234  0 */\n      0x00\n        /* \"contracts/zone_calculation.sol\":1221:1224  adj */\n      dup2\n        /* \"contracts/zone_calculation.sol\":1225:1226  0 */\n      0x00\n        /* \"contracts/zone_calculation.sol\":1221:1227  adj[0] */\n      dup2\n      mload\n      dup2\n      lt\n      tag_40\n      jumpi\n      tag_41\n      tag_19\n      jump\t// in\n    tag_41:\n    tag_40:\n      0x20\n      mul\n      0x20\n      add\n      add\n      mload\n        /* \"contracts/zone_calculation.sol\":1228:1229  5 */\n      0x05\n        /* \"contracts/zone_calculation.sol\":1221:1230  adj[0][5] */\n      dup2\n      mload\n      dup2\n      lt\n      tag_42\n      jumpi\n      tag_43\n      tag_19\n      jump\t// in\n    tag_43:\n    tag_42:\n      0x20\n      mul\n      0x20\n      add\n      add\n        /* \"contracts/zone_calculation.sol\":1221:1234  adj[0][5] = 0 */\n      dup2\n      dup2\n      mstore\n      pop\n      pop\n        /* \"contracts/zone_calculation.sol\":1264:1265  6 */\n      0x06\n        /* \"contracts/zone_calculation.sol\":1250:1266  new uint256[](6) */\n      0xffffffffffffffff\n      dup2\n      gt\n      iszero\n      tag_44\n      jumpi\n      tag_45\n      tag_11\n      jump\t// in\n    tag_45:\n    tag_44:\n      mload(0x40)\n      swap1\n      dup1\n      dup3\n      mstore\n      dup1\n      0x20\n      mul\n      0x20\n      add\n      dup3\n      add\n      0x40\n      mstore\n      dup1\n      iszero\n      tag_46\n      jumpi\n      dup2\n      0x20\n      add\n      0x20\n      dup3\n      mul\n      dup1\n      calldatasize\n      dup4\n      calldatacopy\n      dup1\n      dup3\n      add\n      swap2\n      pop\n      pop\n      swap1\n      pop\n    tag_46:\n      pop\n        /* \"contracts/zone_calculation.sol\":1241:1244  adj */\n      dup2\n        /* \"contracts/zone_calculation.sol\":1245:1246  1 */\n      0x01\n        /* \"contracts/zone_calculation.sol\":1241:1247  adj[1] */\n      dup2\n      mload\n      dup2\n      lt\n      tag_47\n      jumpi\n      tag_48\n      tag_19\n      jump\t// in\n    tag_48:\n    tag_47:\n      0x20\n      mul\n      0x20\n      add\n      add\n        /* \"contracts/zone_calculation.sol\":1241:1266  adj[1] = new uint256[](6) */\n      dup2\n      swap1\n      mstore\n      pop\n        /* \"contracts/zone_calculation.sol\":1284:1285  1 */\n      0x01\n        /* \"contracts/zone_calculation.sol\":1272:1275  adj */\n      dup2\n        /* \"contracts/zone_calculation.sol\":1276:1277  1 */\n      0x01\n        /* \"contracts/zone_calculation.sol\":1272:1278  adj[1] */\n      dup2\n      mload\n      dup2\n      lt\n      tag_49\n      jumpi\n      tag_50\n      tag_19\n      jump\t// in\n    tag_50:\n    tag_49:\n      0x20\n      mul\n      0x20\n      add\n      add\n      mload\n        /* \"contracts/zone_calculation.sol\":1279:1280  0 */\n      0x00\n        /* \"contracts/zone_calculation.sol\":1272:1281  adj[1][0] */\n      dup2\n      mload\n      dup2\n      lt\n      tag_51\n      jumpi\n      tag_52\n      tag_19\n      jump\t// in\n    tag_52:\n    tag_51:\n      0x20\n      mul\n      0x20\n      add\n      add\n        /* \"contracts/zone_calculation.sol\":1272:1285  adj[1][0] = 1 */\n      dup2\n      dup2\n      mstore\n      pop\n      pop\n        /* \"contracts/zone_calculation.sol\":1303:1304  0 */\n      0x00\n        /* \"contracts/zone_calculation.sol\":1291:1294  adj */\n      dup2\n        /* \"contracts/zone_calculation.sol\":1295:1296  1 */\n      0x01\n        /* \"contracts/zone_calculation.sol\":1291:1297  adj[1] */\n      dup2\n      mload\n      dup2\n      lt\n      tag_53\n      jumpi\n      tag_54\n      tag_19\n      jump\t// in\n    tag_54:\n    tag_53:\n      0x20\n      mul\n      0x20\n      add\n      add\n      mload\n        /* \"contracts/zone_calculation.sol\":1298:1299  1 */\n      0x01\n        /* \"contracts/zone_calculation.sol\":1291:1300  adj[1][1] */\n      dup2\n      mload\n      dup2\n      lt\n      tag_55\n      jumpi\n      tag_56\n      tag_19\n      jump\t// in\n    tag_56:\n    tag_55:\n      0x20\n      mul\n      0x20\n      add\n      add\n        /* \"contracts/zone_calculation.sol\":1291:1304  adj[1][1] = 0 */\n      dup2\n      dup2\n      mstore\n      pop\n      pop\n        /* \"contracts/zone_calculation.sol\":1322:1323  0 */\n      0x00\n        /* \"contracts/zone_calculation.sol\":1310:1313  adj */\n      dup2\n        /* \"contracts/zone_calculation.sol\":1314:1315  1 */\n      0x01\n        /* \"contracts/zone_calculation.sol\":1310:1316  adj[1] */\n      dup2\n      mload\n      dup2\n      lt\n      tag_57\n      jumpi\n      tag_58\n      tag_19\n      jump\t// in\n    tag_58:\n    tag_57:\n      0x20\n      mul\n      0x20\n      add\n      add\n      mload\n        /* \"contracts/zone_calculation.sol\":1317:1318  2 */\n      0x02\n        /* \"contracts/zone_calculation.sol\":1310:1319  adj[1][2] */\n      dup2\n      mload\n      dup2\n      lt\n      tag_59\n      jumpi\n      tag_60\n      tag_19\n      jump\t// in\n    tag_60:\n    tag_59:\n      0x20\n      mul\n      0x20\n      add\n      add\n        /* \"contracts/zone_calculation.sol\":1310:1323  adj[1][2] = 0 */\n      dup2\n      dup2\n      mstore\n      pop\n      pop\n        /* \"contracts/zone_calculation.sol\":1341:1342  1 */\n      0x01\n        /* \"contracts/zone_calculation.sol\":1329:1332  adj */\n      dup2\n        /* \"contracts/zone_calculation.sol\":1333:1334  1 */\n      0x01\n        /* \"contracts/zone_calculation.sol\":1329:1335  adj[1] */\n      dup2\n      mload\n      dup2\n      lt\n      tag_61\n      jumpi\n      tag_62\n      tag_19\n      jump\t// in\n    tag_62:\n    tag_61:\n      0x20\n      mul\n      0x20\n      add\n      add\n      mload\n        /* \"contracts/zone_calculation.sol\":1336:1337  3 */\n      0x03\n        /* \"contracts/zone_calculation.sol\":1329:1338  adj[1][3] */\n      dup2\n      mload\n      dup2\n      lt\n      tag_63\n      jumpi\n      tag_64\n      tag_19\n      jump\t// in\n    tag_64:\n    tag_63:\n      0x20\n      mul\n      0x20\n      add\n      add\n        /* \"contracts/zone_calculation.sol\":1329:1342  adj[1][3] = 1 */\n      dup2\n      dup2\n      mstore\n      pop\n      pop\n        /* \"contracts/zone_calculation.sol\":1360:1361  1 */\n      0x01\n        /* \"contracts/zone_calculation.sol\":1348:1351  adj */\n      dup2\n        /* \"contracts/zone_calculation.sol\":1352:1353  1 */\n      0x01\n        /* \"contracts/zone_calculation.sol\":1348:1354  adj[1] */\n      dup2\n      mload\n      dup2\n      lt\n      tag_65\n      jumpi\n      tag_66\n      tag_19\n      jump\t// in\n    tag_66:\n    tag_65:\n      0x20\n      mul\n      0x20\n      add\n      add\n      mload\n        /* \"contracts/zone_calculation.sol\":1355:1356  4 */\n      0x04\n        /* \"contracts/zone_calculation.sol\":1348:1357  adj[1][4] */\n      dup2\n      mload\n      dup2\n      lt\n      tag_67\n      jumpi\n      tag_68\n      tag_19\n      jump\t// in\n    tag_68:\n    tag_67:\n      0x20\n      mul\n      0x20\n      add\n      add\n        /* \"contracts/zone_calculation.sol\":1348:1361  adj[1][4] = 1 */\n      dup2\n      dup2\n      mstore\n      pop\n      pop\n        /* \"contracts/zone_calculation.sol\":1379:1380  0 */\n      0x00\n        /* \"contracts/zone_calculation.sol\":1367:1370  adj */\n      dup2\n        /* \"contracts/zone_calculation.sol\":1371:1372  1 */\n      0x01\n        /* \"contracts/zone_calculation.sol\":1367:1373  adj[1] */\n      dup2\n      mload\n      dup2\n      lt\n      tag_69\n      jumpi\n      tag_70\n      tag_19\n      jump\t// in\n    tag_70:\n    tag_69:\n      0x20\n      mul\n      0x20\n      add\n      add\n      mload\n        /* \"contracts/zone_calculation.sol\":1374:1375  5 */\n      0x05\n        /* \"contracts/zone_calculation.sol\":1367:1376  adj[1][5] */\n      dup2\n      mload\n      dup2\n      lt\n      tag_71\n      jumpi\n      tag_72\n      tag_19\n      jump\t// in\n    tag_72:\n    tag_71:\n      0x20\n      mul\n      0x20\n      add\n      add\n        /* \"contracts/zone_calculation.sol\":1367:1380  adj[1][5] = 0 */\n      dup2\n      dup2\n      mstore\n      pop\n      pop\n        /* \"contracts/zone_calculation.sol\":1410:1411  6 */\n      0x06\n        /* \"contracts/zone_calculation.sol\":1396:1412  new uint256[](6) */\n      0xffffffffffffffff\n      dup2\n      gt\n      iszero\n      tag_73\n      jumpi\n      tag_74\n      tag_11\n      jump\t// in\n    tag_74:\n    tag_73:\n      mload(0x40)\n      swap1\n      dup1\n      dup3\n      mstore\n      dup1\n      0x20\n      mul\n      0x20\n      add\n      dup3\n      add\n      0x40\n      mstore\n      dup1\n      iszero\n      tag_75\n      jumpi\n      dup2\n      0x20\n      add\n      0x20\n      dup3\n      mul\n      dup1\n      calldatasize\n      dup4\n      calldatacopy\n      dup1\n      dup3\n      add\n      swap2\n      pop\n      pop\n      swap1\n      pop\n    tag_75:\n      pop\n        /* \"contracts/zone_calculation.sol\":1387:1390  adj */\n      dup2\n        /* \"contracts/zone_calculation.sol\":1391:1392  2 */\n      0x02\n        /* \"contracts/zone_calculation.sol\":1387:1393  adj[2] */\n      dup2\n      mload\n      dup2\n      lt\n      tag_76\n      jumpi\n      tag_77\n      tag_19\n      jump\t// in\n    tag_77:\n    tag_76:\n      0x20\n      mul\n      0x20\n      add\n      add\n        /* \"contracts/zone_calculation.sol\":1387:1412  adj[2] = new uint256[](6) */\n      dup2\n      swap1\n      mstore\n      pop\n        /* \"contracts/zone_calculation.sol\":1430:1431  1 */\n      0x01\n        /* \"contracts/zone_calculation.sol\":1418:1421  adj */\n      dup2\n        /* \"contracts/zone_calculation.sol\":1422:1423  2 */\n      0x02\n        /* \"contracts/zone_calculation.sol\":1418:1424  adj[2] */\n      dup2\n      mload\n      dup2\n      lt\n      tag_78\n      jumpi\n      tag_79\n      tag_19\n      jump\t// in\n    tag_79:\n    tag_78:\n      0x20\n      mul\n      0x20\n      add\n      add\n      mload\n        /* \"contracts/zone_calculation.sol\":1425:1426  0 */\n      0x00\n        /* \"contracts/zone_calculation.sol\":1418:1427  adj[2][0] */\n      dup2\n      mload\n      dup2\n      lt\n      tag_80\n      jumpi\n      tag_81\n      tag_19\n      jump\t// in\n    tag_81:\n    tag_80:\n      0x20\n      mul\n      0x20\n      add\n      add\n        /* \"contracts/zone_calculation.sol\":1418:1431  adj[2][0] = 1 */\n      dup2\n      dup2\n      mstore\n      pop\n      pop\n        /* \"contracts/zone_calculation.sol\":1449:1450  0 */\n      0x00\n        /* \"contracts/zone_calculation.sol\":1437:1440  adj */\n      dup2\n        /* \"contracts/zone_calculation.sol\":1441:1442  2 */\n      0x02\n        /* \"contracts/zone_calculation.sol\":1437:1443  adj[2] */\n      dup2\n      mload\n      dup2\n      lt\n      tag_82\n      jumpi\n      tag_83\n      tag_19\n      jump\t// in\n    tag_83:\n    tag_82:\n      0x20\n      mul\n      0x20\n      add\n      add\n      mload\n        /* \"contracts/zone_calculation.sol\":1444:1445  1 */\n      0x01\n        /* \"contracts/zone_calculation.sol\":1437:1446  adj[2][1] */\n      dup2\n      mload\n      dup2\n      lt\n      tag_84\n      jumpi\n      tag_85\n      tag_19\n      jump\t// in\n    tag_85:\n    tag_84:\n      0x20\n      mul\n      0x20\n      add\n      add\n        /* \"contracts/zone_calculation.sol\":1437:1450  adj[2][1] = 0 */\n      dup2\n      dup2\n      mstore\n      pop\n      pop\n        /* \"contracts/zone_calculation.sol\":1468:1469  0 */\n      0x00\n        /* \"contracts/zone_calculation.sol\":1456:1459  adj */\n      dup2\n        /* \"contracts/zone_calculation.sol\":1460:1461  2 */\n      0x02\n        /* \"contracts/zone_calculation.sol\":1456:1462  adj[2] */\n      dup2\n      mload\n      dup2\n      lt\n      tag_86\n      jumpi\n      tag_87\n      tag_19\n      jump\t// in\n    tag_87:\n    tag_86:\n      0x20\n      mul\n      0x20\n      add\n      add\n      mload\n        /* \"contracts/zone_calculation.sol\":1463:1464  2 */\n      0x02\n        /* \"contracts/zone_calculation.sol\":1456:1465  adj[2][2] */\n      dup2\n      mload\n      dup2\n      lt\n      tag_88\n      jumpi\n      tag_89\n      tag_19\n      jump\t// in\n    tag_89:\n    tag_88:\n      0x20\n      mul\n      0x20\n      add\n      add\n        /* \"contracts/zone_calculation.sol\":1456:1469  adj[2][2] = 0 */\n      dup2\n      dup2\n      mstore\n      pop\n      pop\n        /* \"contracts/zone_calculation.sol\":1487:1488  0 */\n      0x00\n        /* \"contracts/zone_calculation.sol\":1475:1478  adj */\n      dup2\n        /* \"contracts/zone_calculation.sol\":1479:1480  2 */\n      0x02\n        /* \"contracts/zone_calculation.sol\":1475:1481  adj[2] */\n      dup2\n      mload\n      dup2\n      lt\n      tag_90\n      jumpi\n      tag_91\n      tag_19\n      jump\t// in\n    tag_91:\n    tag_90:\n      0x20\n      mul\n      0x20\n      add\n      add\n      mload\n        /* \"contracts/zone_calculation.sol\":1482:1483  3 */\n      0x03\n        /* \"contracts/zone_calculation.sol\":1475:1484  adj[2][3] */\n      dup2\n      mload\n      dup2\n      lt\n      tag_92\n      jumpi\n      tag_93\n      tag_19\n      jump\t// in\n    tag_93:\n    tag_92:\n      0x20\n      mul\n      0x20\n      add\n      add\n        /* \"contracts/zone_calculation.sol\":1475:1488  adj[2][3] = 0 */\n      dup2\n      dup2\n      mstore\n      pop\n      pop\n        /* \"contracts/zone_calculation.sol\":1506:1507  0 */\n      0x00\n        /* \"contracts/zone_calculation.sol\":1494:1497  adj */\n      dup2\n        /* \"contracts/zone_calculation.sol\":1498:1499  2 */\n      0x02\n        /* \"contracts/zone_calculation.sol\":1494:1500  adj[2] */\n      dup2\n      mload\n      dup2\n      lt\n      tag_94\n      jumpi\n      tag_95\n      tag_19\n      jump\t// in\n    tag_95:\n    tag_94:\n      0x20\n      mul\n      0x20\n      add\n      add\n      mload\n        /* \"contracts/zone_calculation.sol\":1501:1502  4 */\n      0x04\n        /* \"contracts/zone_calculation.sol\":1494:1503  adj[2][4] */\n      dup2\n      mload\n      dup2\n      lt\n      tag_96\n      jumpi\n      tag_97\n      tag_19\n      jump\t// in\n    tag_97:\n    tag_96:\n      0x20\n      mul\n      0x20\n      add\n      add\n        /* \"contracts/zone_calculation.sol\":1494:1507  adj[2][4] = 0 */\n      dup2\n      dup2\n      mstore\n      pop\n      pop\n        /* \"contracts/zone_calculation.sol\":1525:1526  1 */\n      0x01\n        /* \"contracts/zone_calculation.sol\":1513:1516  adj */\n      dup2\n        /* \"contracts/zone_calculation.sol\":1517:1518  2 */\n      0x02\n        /* \"contracts/zone_calculation.sol\":1513:1519  adj[2] */\n      dup2\n      mload\n      dup2\n      lt\n      tag_98\n      jumpi\n      tag_99\n      tag_19\n      jump\t// in\n    tag_99:\n    tag_98:\n      0x20\n      mul\n      0x20\n      add\n      add\n      mload\n        /* \"contracts/zone_calculation.sol\":1520:1521  5 */\n      0x05\n        /* \"contracts/zone_calculation.sol\":1513:1522  adj[2][5] */\n      dup2\n      mload\n      dup2\n      lt\n      tag_100\n      jumpi\n      tag_101\n      tag_19\n      jump\t// in\n    tag_101:\n    tag_100:\n      0x20\n      mul\n      0x20\n      add\n      add\n        /* \"contracts/zone_calculation.sol\":1513:1526  adj[2][5] = 1 */\n      dup2\n      dup2\n      mstore\n      pop\n      pop\n        /* \"contracts/zone_calculation.sol\":1556:1557  6 */\n      0x06\n        /* \"contracts/zone_calculation.sol\":1542:1558  new uint256[](6) */\n      0xffffffffffffffff\n      dup2\n      gt\n      iszero\n      tag_102\n      jumpi\n      tag_103\n      tag_11\n      jump\t// in\n    tag_103:\n    tag_102:\n      mload(0x40)\n      swap1\n      dup1\n      dup3\n      mstore\n      dup1\n      0x20\n      mul\n      0x20\n      add\n      dup3\n      add\n      0x40\n      mstore\n      dup1\n      iszero\n      tag_104\n      jumpi\n      dup2\n      0x20\n      add\n      0x20\n      dup3\n      mul\n      dup1\n      calldatasize\n      dup4\n      calldatacopy\n      dup1\n      dup3\n      add\n      swap2\n      pop\n      pop\n      swap1\n      pop\n    tag_104:\n      pop\n        /* \"contracts/zone_calculation.sol\":1533:1536  adj */\n      dup2\n        /* \"contracts/zone_calculation.sol\":1537:1538  3 */\n      0x03\n        /* \"contracts/zone_calculation.sol\":1533:1539  adj[3] */\n      dup2\n      mload\n      dup2\n      lt\n      tag_105\n      jumpi\n      tag_106\n      tag_19\n      jump\t// in\n    tag_106:\n    tag_105:\n      0x20\n      mul\n      0x20\n      add\n      add\n        /* \"contracts/zone_calculation.sol\":1533:1558  adj[3] = new uint256[](6) */\n      dup2\n      swap1\n      mstore\n      pop\n        /* \"contracts/zone_calculation.sol\":1576:1577  0 */\n      0x00\n        /* \"contracts/zone_calculation.sol\":1564:1567  adj */\n      dup2\n        /* \"contracts/zone_calculation.sol\":1568:1569  3 */\n      0x03\n        /* \"contracts/zone_calculation.sol\":1564:1570  adj[3] */\n      dup2\n      mload\n      dup2\n      lt\n      tag_107\n      jumpi\n      tag_108\n      tag_19\n      jump\t// in\n    tag_108:\n    tag_107:\n      0x20\n      mul\n      0x20\n      add\n      add\n      mload\n        /* \"contracts/zone_calculation.sol\":1571:1572  0 */\n      0x00\n        /* \"contracts/zone_calculation.sol\":1564:1573  adj[3][0] */\n      dup2\n      mload\n      dup2\n      lt\n      tag_109\n      jumpi\n      tag_110\n      tag_19\n      jump\t// in\n    tag_110:\n    tag_109:\n      0x20\n      mul\n      0x20\n      add\n      add\n        /* \"contracts/zone_calculation.sol\":1564:1577  adj[3][0] = 0 */\n      dup2\n      dup2\n      mstore\n      pop\n      pop\n        /* \"contracts/zone_calculation.sol\":1595:1596  1 */\n      0x01\n        /* \"contracts/zone_calculation.sol\":1583:1586  adj */\n      dup2\n        /* \"contracts/zone_calculation.sol\":1587:1588  3 */\n      0x03\n        /* \"contracts/zone_calculation.sol\":1583:1589  adj[3] */\n      dup2\n      mload\n      dup2\n      lt\n      tag_111\n      jumpi\n      tag_112\n      tag_19\n      jump\t// in\n    tag_112:\n    tag_111:\n      0x20\n      mul\n      0x20\n      add\n      add\n      mload\n        /* \"contracts/zone_calculation.sol\":1590:1591  1 */\n      0x01\n        /* \"contracts/zone_calculation.sol\":1583:1592  adj[3][1] */\n      dup2\n      mload\n      dup2\n      lt\n      tag_113\n      jumpi\n      tag_114\n      tag_19\n      jump\t// in\n    tag_114:\n    tag_113:\n      0x20\n      mul\n      0x20\n      add\n      add\n        /* \"contracts/zone_calculation.sol\":1583:1596  adj[3][1] = 1 */\n      dup2\n      dup2\n      mstore\n      pop\n      pop\n        /* \"contracts/zone_calculation.sol\":1614:1615  0 */\n      0x00\n        /* \"contracts/zone_calculation.sol\":1602:1605  adj */\n      dup2\n        /* \"contracts/zone_calculation.sol\":1606:1607  3 */\n      0x03\n        /* \"contracts/zone_calculation.sol\":1602:1608  adj[3] */\n      dup2\n      mload\n      dup2\n      lt\n      tag_115\n      jumpi\n      tag_116\n      tag_19\n      jump\t// in\n    tag_116:\n    tag_115:\n      0x20\n      mul\n      0x20\n      add\n      add\n      mload\n        /* \"contracts/zone_calculation.sol\":1609:1610  2 */\n      0x02\n        /* \"contracts/zone_calculation.sol\":1602:1611  adj[3][2] */\n      dup2\n      mload\n      dup2\n      lt\n      tag_117\n      jumpi\n      tag_118\n      tag_19\n      jump\t// in\n    tag_118:\n    tag_117:\n      0x20\n      mul\n      0x20\n      add\n      add\n        /* \"contracts/zone_calculation.sol\":1602:1615  adj[3][2] = 0 */\n      dup2\n      dup2\n      mstore\n      pop\n      pop\n        /* \"contracts/zone_calculation.sol\":1633:1634  0 */\n      0x00\n        /* \"contracts/zone_calculation.sol\":1621:1624  adj */\n      dup2\n        /* \"contracts/zone_calculation.sol\":1625:1626  3 */\n      0x03\n        /* \"contracts/zone_calculation.sol\":1621:1627  adj[3] */\n      dup2\n      mload\n      dup2\n      lt\n      tag_119\n      jumpi\n      tag_120\n      tag_19\n      jump\t// in\n    tag_120:\n    tag_119:\n      0x20\n      mul\n      0x20\n      add\n      add\n      mload\n        /* \"contracts/zone_calculation.sol\":1628:1629  3 */\n      0x03\n        /* \"contracts/zone_calculation.sol\":1621:1630  adj[3][3] */\n      dup2\n      mload\n      dup2\n      lt\n      tag_121\n      jumpi\n      tag_122\n      tag_19\n      jump\t// in\n    tag_122:\n    tag_121:\n      0x20\n      mul\n      0x20\n      add\n      add\n        /* \"contracts/zone_calculation.sol\":1621:1634  adj[3][3] = 0 */\n      dup2\n      dup2\n      mstore\n      pop\n      pop\n        /* \"contracts/zone_calculation.sol\":1652:1653  1 */\n      0x01\n        /* \"contracts/zone_calculation.sol\":1640:1643  adj */\n      dup2\n        /* \"contracts/zone_calculation.sol\":1644:1645  3 */\n      0x03\n        /* \"contracts/zone_calculation.sol\":1640:1646  adj[3] */\n      dup2\n      mload\n      dup2\n      lt\n      tag_123\n      jumpi\n      tag_124\n      tag_19\n      jump\t// in\n    tag_124:\n    tag_123:\n      0x20\n      mul\n      0x20\n      add\n      add\n      mload\n        /* \"contracts/zone_calculation.sol\":1647:1648  4 */\n      0x04\n        /* \"contracts/zone_calculation.sol\":1640:1649  adj[3][4] */\n      dup2\n      mload\n      dup2\n      lt\n      tag_125\n      jumpi\n      tag_126\n      tag_19\n      jump\t// in\n    tag_126:\n    tag_125:\n      0x20\n      mul\n      0x20\n      add\n      add\n        /* \"contracts/zone_calculation.sol\":1640:1653  adj[3][4] = 1 */\n      dup2\n      dup2\n      mstore\n      pop\n      pop\n        /* \"contracts/zone_calculation.sol\":1671:1672  0 */\n      0x00\n        /* \"contracts/zone_calculation.sol\":1659:1662  adj */\n      dup2\n        /* \"contracts/zone_calculation.sol\":1663:1664  3 */\n      0x03\n        /* \"contracts/zone_calculation.sol\":1659:1665  adj[3] */\n      dup2\n      mload\n      dup2\n      lt\n      tag_127\n      jumpi\n      tag_128\n      tag_19\n      jump\t// in\n    tag_128:\n    tag_127:\n      0x20\n      mul\n      0x20\n      add\n      add\n      mload\n        /* \"contracts/zone_calculation.sol\":1666:1667  5 */\n      0x05\n        /* \"contracts/zone_calculation.sol\":1659:1668  adj[3][5] */\n      dup2\n      mload\n      dup2\n      lt\n      tag_129\n      jumpi\n      tag_130\n      tag_19\n      jump\t// in\n    tag_130:\n    tag_129:\n      0x20\n      mul\n      0x20\n      add\n      add\n        /* \"contracts/zone_calculation.sol\":1659:1672  adj[3][5] = 0 */\n      dup2\n      dup2\n      mstore\n      pop\n      pop\n        /* \"contracts/zone_calculation.sol\":1702:1703  6 */\n      0x06\n        /* \"contracts/zone_calculation.sol\":1688:1704  new uint256[](6) */\n      0xffffffffffffffff\n      dup2\n      gt\n      iszero\n      tag_131\n      jumpi\n      tag_132\n      tag_11\n      jump\t// in\n    tag_132:\n    tag_131:\n      mload(0x40)\n      swap1\n      dup1\n      dup3\n      mstore\n      dup1\n      0x20\n      mul\n      0x20\n      add\n      dup3\n      add\n      0x40\n      mstore\n      dup1\n      iszero\n      tag_133\n      jumpi\n      dup2\n      0x20\n      add\n      0x20\n      dup3\n      mul\n      dup1\n      calldatasize\n      dup4\n      calldatacopy\n      dup1\n      dup3\n      add\n      swap2\n      pop\n      pop\n      swap1\n      pop\n    tag_133:\n      pop\n        /* \"contracts/zone_calculation.sol\":1679:1682  adj */\n      dup2\n        /* \"contracts/zone_calculation.sol\":1683:1684  4 */\n      0x04\n        /* \"contracts/zone_calculation.sol\":1679:1685  adj[4] */\n      dup2\n      mload\n      dup2\n      lt\n      tag_134\n      jumpi\n      tag_135\n      tag_19\n      jump\t// in\n    tag_135:\n    tag_134:\n      0x20\n      mul\n      0x20\n      add\n      add\n        /* \"contracts/zone_calculation.sol\":1679:1704  adj[4] = new uint256[](6) */\n      dup2\n      swap1\n      mstore\n      pop\n        /* \"contracts/zone_calculation.sol\":1722:1723  0 */\n      0x00\n        /* \"contracts/zone_calculation.sol\":1710:1713  adj */\n      dup2\n        /* \"contracts/zone_calculation.sol\":1714:1715  4 */\n      0x04\n        /* \"contracts/zone_calculation.sol\":1710:1716  adj[4] */\n      dup2\n      mload\n      dup2\n      lt\n      tag_136\n      jumpi\n      tag_137\n      tag_19\n      jump\t// in\n    tag_137:\n    tag_136:\n      0x20\n      mul\n      0x20\n      add\n      add\n      mload\n        /* \"contracts/zone_calculation.sol\":1717:1718  0 */\n      0x00\n        /* \"contracts/zone_calculation.sol\":1710:1719  adj[4][0] */\n      dup2\n      mload\n      dup2\n      lt\n      tag_138\n      jumpi\n      tag_139\n      tag_19\n      jump\t// in\n    tag_139:\n    tag_138:\n      0x20\n      mul\n      0x20\n      add\n      add\n        /* \"contracts/zone_calculation.sol\":1710:1723  adj[4][0] = 0 */\n      dup2\n      dup2\n      mstore\n      pop\n      pop\n        /* \"contracts/zone_calculation.sol\":1741:1742  1 */\n      0x01\n        /* \"contracts/zone_calculation.sol\":1729:1732  adj */\n      dup2\n        /* \"contracts/zone_calculation.sol\":1733:1734  4 */\n      0x04\n        /* \"contracts/zone_calculation.sol\":1729:1735  adj[4] */\n      dup2\n      mload\n      dup2\n      lt\n      tag_140\n      jumpi\n      tag_141\n      tag_19\n      jump\t// in\n    tag_141:\n    tag_140:\n      0x20\n      mul\n      0x20\n      add\n      add\n      mload\n        /* \"contracts/zone_calculation.sol\":1736:1737  1 */\n      0x01\n        /* \"contracts/zone_calculation.sol\":1729:1738  adj[4][1] */\n      dup2\n      mload\n      dup2\n      lt\n      tag_142\n      jumpi\n      tag_143\n      tag_19\n      jump\t// in\n    tag_143:\n    tag_142:\n      0x20\n      mul\n      0x20\n      add\n      add\n        /* \"contracts/zone_calculation.sol\":1729:1742  adj[4][1] = 1 */\n      dup2\n      dup2\n      mstore\n      pop\n      pop\n        /* \"contracts/zone_calculation.sol\":1760:1761  0 */\n      0x00\n        /* \"contracts/zone_calculation.sol\":1748:1751  adj */\n      dup2\n        /* \"contracts/zone_calculation.sol\":1752:1753  4 */\n      0x04\n        /* \"contracts/zone_calculation.sol\":1748:1754  adj[4] */\n      dup2\n      mload\n      dup2\n      lt\n      tag_144\n      jumpi\n      tag_145\n      tag_19\n      jump\t// in\n    tag_145:\n    tag_144:\n      0x20\n      mul\n      0x20\n      add\n      add\n      mload\n        /* \"contracts/zone_calculation.sol\":1755:1756  2 */\n      0x02\n        /* \"contracts/zone_calculation.sol\":1748:1757  adj[4][2] */\n      dup2\n      mload\n      dup2\n      lt\n      tag_146\n      jumpi\n      tag_147\n      tag_19\n      jump\t// in\n    tag_147:\n    tag_146:\n      0x20\n      mul\n      0x20\n      add\n      add\n        /* \"contracts/zone_calculation.sol\":1748:1761  adj[4][2] = 0 */\n      dup2\n      dup2\n      mstore\n      pop\n      pop\n        /* \"contracts/zone_calculation.sol\":1779:1780  1 */\n      0x01\n        /* \"contracts/zone_calculation.sol\":1767:1770  adj */\n      dup2\n        /* \"contracts/zone_calculation.sol\":1771:1772  4 */\n      0x04\n        /* \"contracts/zone_calculation.sol\":1767:1773  adj[4] */\n      dup2\n      mload\n      dup2\n      lt\n      tag_148\n      jumpi\n      tag_149\n      tag_19\n      jump\t// in\n    tag_149:\n    tag_148:\n      0x20\n      mul\n      0x20\n      add\n      add\n      mload\n        /* \"contracts/zone_calculation.sol\":1774:1775  3 */\n      0x03\n        /* \"contracts/zone_calculation.sol\":1767:1776  adj[4][3] */\n      dup2\n      mload\n      dup2\n      lt\n      tag_150\n      jumpi\n      tag_151\n      tag_19\n      jump\t// in\n    tag_151:\n    tag_150:\n      0x20\n      mul\n      0x20\n      add\n      add\n        /* \"contracts/zone_calculation.sol\":1767:1780  adj[4][3] = 1 */\n      dup2\n      dup2\n      mstore\n      pop\n      pop\n        /* \"contracts/zone_calculation.sol\":1798:1799  0 */\n      0x00\n        /* \"contracts/zone_calculation.sol\":1786:1789  adj */\n      dup2\n        /* \"contracts/zone_calculation.sol\":1790:1791  4 */\n      0x04\n        /* \"contracts/zone_calculation.sol\":1786:1792  adj[4] */\n      dup2\n      mload\n      dup2\n      lt\n      tag_152\n      jumpi\n      tag_153\n      tag_19\n      jump\t// in\n    tag_153:\n    tag_152:\n      0x20\n      mul\n      0x20\n      add\n      add\n      mload\n        /* \"contracts/zone_calculation.sol\":1793:1794  4 */\n      0x04\n        /* \"contracts/zone_calculation.sol\":1786:1795  adj[4][4] */\n      dup2\n      mload\n      dup2\n      lt\n      tag_154\n      jumpi\n      tag_155\n      tag_19\n      jump\t// in\n    tag_155:\n    tag_154:\n      0x20\n      mul\n      0x20\n      add\n      add\n        /* \"contracts/zone_calculation.sol\":1786:1799  adj[4][4] = 0 */\n      dup2\n      dup2\n      mstore\n      pop\n      pop\n        /* \"contracts/zone_calculation.sol\":1817:1818  0 */\n      0x00\n        /* \"contracts/zone_calculation.sol\":1805:1808  adj */\n      dup2\n        /* \"contracts/zone_calculation.sol\":1809:1810  4 */\n      0x04\n        /* \"contracts/zone_calculation.sol\":1805:1811  adj[4] */\n      dup2\n      mload\n      dup2\n      lt\n      tag_156\n      jumpi\n      tag_157\n      tag_19\n      jump\t// in\n    tag_157:\n    tag_156:\n      0x20\n      mul\n      0x20\n      add\n      add\n      mload\n        /* \"contracts/zone_calculation.sol\":1812:1813  5 */\n      0x05\n        /* \"contracts/zone_calculation.sol\":1805:1814  adj[4][5] */\n      dup2\n      mload\n      dup2\n      lt\n      tag_158\n      jumpi\n      tag_159\n      tag_19\n      jump\t// in\n    tag_159:\n    tag_158:\n      0x20\n      mul\n      0x20\n      add\n      add\n        /* \"contracts/zone_calculation.sol\":1805:1818  adj[4][5] = 0 */\n      dup2\n      dup2\n      mstore\n      pop\n      pop\n        /* \"contracts/zone_calculation.sol\":1848:1849  6 */\n      0x06\n        /* \"contracts/zone_calculation.sol\":1834:1850  new uint256[](6) */\n      0xffffffffffffffff\n      dup2\n      gt\n      iszero\n      tag_160\n      jumpi\n      tag_161\n      tag_11\n      jump\t// in\n    tag_161:\n    tag_160:\n      mload(0x40)\n      swap1\n      dup1\n      dup3\n      mstore\n      dup1\n      0x20\n      mul\n      0x20\n      add\n      dup3\n      add\n      0x40\n      mstore\n      dup1\n      iszero\n      tag_162\n      jumpi\n      dup2\n      0x20\n      add\n      0x20\n      dup3\n      mul\n      dup1\n      calldatasize\n      dup4\n      calldatacopy\n      dup1\n      dup3\n      add\n      swap2\n      pop\n      pop\n      swap1\n      pop\n    tag_162:\n      pop\n        /* \"contracts/zone_calculation.sol\":1825:1828  adj */\n      dup2\n        /* \"contracts/zone_calculation.sol\":1829:1830  5 */\n      0x05\n        /* \"contracts/zone_calculation.sol\":1825:1831  adj[5] */\n      dup2\n      mload\n      dup2\n      lt\n      tag_163\n      jumpi\n      tag_164\n      tag_19\n      jump\t// in\n    tag_164:\n    tag_163:\n      0x20\n      mul\n      0x20\n      add\n      add\n        /* \"contracts/zone_calculation.sol\":1825:1850  adj[5] = new uint256[](6) */\n      dup2\n      swap1\n      mstore\n      pop\n        /* \"contracts/zone_calculation.sol\":1868:1869  0 */\n      0x00\n        /* \"contracts/zone_calculation.sol\":1856:1859  adj */\n      dup2\n        /* \"contracts/zone_calculation.sol\":1860:1861  5 */\n      0x05\n        /* \"contracts/zone_calculation.sol\":1856:1862  adj[5] */\n      dup2\n      mload\n      dup2\n      lt\n      tag_165\n      jumpi\n      tag_166\n      tag_19\n      jump\t// in\n    tag_166:\n    tag_165:\n      0x20\n      mul\n      0x20\n      add\n      add\n      mload\n        /* \"contracts/zone_calculation.sol\":1863:1864  0 */\n      0x00\n        /* \"contracts/zone_calculation.sol\":1856:1865  adj[5][0] */\n      dup2\n      mload\n      dup2\n      lt\n      tag_167\n      jumpi\n      tag_168\n      tag_19\n      jump\t// in\n    tag_168:\n    tag_167:\n      0x20\n      mul\n      0x20\n      add\n      add\n        /* \"contracts/zone_calculation.sol\":1856:1869  adj[5][0] = 0 */\n      dup2\n      dup2\n      mstore\n      pop\n      pop\n        /* \"contracts/zone_calculation.sol\":1887:1888  0 */\n      0x00\n        /* \"contracts/zone_calculation.sol\":1875:1878  adj */\n      dup2\n        /* \"contracts/zone_calculation.sol\":1879:1880  5 */\n      0x05\n        /* \"contracts/zone_calculation.sol\":1875:1881  adj[5] */\n      dup2\n      mload\n      dup2\n      lt\n      tag_169\n      jumpi\n      tag_170\n      tag_19\n      jump\t// in\n    tag_170:\n    tag_169:\n      0x20\n      mul\n      0x20\n      add\n      add\n      mload\n        /* \"contracts/zone_calculation.sol\":1882:1883  1 */\n      0x01\n        /* \"contracts/zone_calculation.sol\":1875:1884  adj[5][1] */\n      dup2\n      mload\n      dup2\n      lt\n      tag_171\n      jumpi\n      tag_172\n      tag_19\n      jump\t// in\n    tag_172:\n    tag_171:\n      0x20\n      mul\n      0x20\n      add\n      add\n        /* \"contracts/zone_calculation.sol\":1875:1888  adj[5][1] = 0 */\n      dup2\n      dup2\n      mstore\n      pop\n      pop\n        /* \"contracts/zone_calculation.sol\":1906:1907  1 */\n      0x01\n        /* \"contracts/zone_calculation.sol\":1894:1897  adj */\n      dup2\n        /* \"contracts/zone_calculation.sol\":1898:1899  5 */\n      0x05\n        /* \"contracts/zone_calculation.sol\":1894:1900  adj[5] */\n      dup2\n      mload\n      dup2\n      lt\n      tag_173\n      jumpi\n      tag_174\n      tag_19\n      jump\t// in\n    tag_174:\n    tag_173:\n      0x20\n      mul\n      0x20\n      add\n      add\n      mload\n        /* \"contracts/zone_calculation.sol\":1901:1902  2 */\n      0x02\n        /* \"contracts/zone_calculation.sol\":1894:1903  adj[5][2] */\n      dup2\n      mload\n      dup2\n      lt\n      tag_175\n      jumpi\n      tag_176\n      tag_19\n      jump\t// in\n    tag_176:\n    tag_175:\n      0x20\n      mul\n      0x20\n      add\n      add\n        /* \"contracts/zone_calculation.sol\":1894:1907  adj[5][2] = 1 */\n      dup2\n      dup2\n      mstore\n      pop\n      pop\n        /* \"contracts/zone_calculation.sol\":1925:1926  0 */\n      0x00\n        /* \"contracts/zone_calculation.sol\":1913:1916  adj */\n      dup2\n        /* \"contracts/zone_calculation.sol\":1917:1918  5 */\n      0x05\n        /* \"contracts/zone_calculation.sol\":1913:1919  adj[5] */\n      dup2\n      mload\n      dup2\n      lt\n      tag_177\n      jumpi\n      tag_178\n      tag_19\n      jump\t// in\n    tag_178:\n    tag_177:\n      0x20\n      mul\n      0x20\n      add\n      add\n      mload\n        /* \"contracts/zone_calculation.sol\":1920:1921  3 */\n      0x03\n        /* \"contracts/zone_calculation.sol\":1913:1922  adj[5][3] */\n      dup2\n      mload\n      dup2\n      lt\n      tag_179\n      jumpi\n      tag_180\n      tag_19\n      jump\t// in\n    tag_180:\n    tag_179:\n      0x20\n      mul\n      0x20\n      add\n      add\n        /* \"contracts/zone_calculation.sol\":1913:1926  adj[5][3] = 0 */\n      dup2\n      dup2\n      mstore\n      pop\n      pop\n        /* \"contracts/zone_calculation.sol\":1944:1945  0 */\n      0x00\n        /* \"contracts/zone_calculation.sol\":1932:1935  adj */\n      dup2\n        /* \"contracts/zone_calculation.sol\":1936:1937  5 */\n      0x05\n        /* \"contracts/zone_calculation.sol\":1932:1938  adj[5] */\n      dup2\n      mload\n      dup2\n      lt\n      tag_181\n      jumpi\n      tag_182\n      tag_19\n      jump\t// in\n    tag_182:\n    tag_181:\n      0x20\n      mul\n      0x20\n      add\n      add\n      mload\n        /* \"contracts/zone_calculation.sol\":1939:1940  4 */\n      0x04\n        /* \"contracts/zone_calculation.sol\":1932:1941  adj[5][4] */\n      dup2\n      mload\n      dup2\n      lt\n      tag_183\n      jumpi\n      tag_184\n      tag_19\n      jump\t// in\n    tag_184:\n    tag_183:\n      0x20\n      mul\n      0x20\n      add\n      add\n        /* \"contracts/zone_calculation.sol\":1932:1945  adj[5][4] = 0 */\n      dup2\n      dup2\n      mstore\n      pop\n      pop\n        /* \"contracts/zone_calculation.sol\":1963:1964  0 */\n      0x00\n        /* \"contracts/zone_calculation.sol\":1951:1954  adj */\n      dup2\n        /* \"contracts/zone_calculation.sol\":1955:1956  5 */\n      0x05\n        /* \"contracts/zone_calculation.sol\":1951:1957  adj[5] */\n      dup2\n      mload\n      dup2\n      lt\n      tag_185\n      jumpi\n      tag_186\n      tag_19\n      jump\t// in\n    tag_186:\n    tag_185:\n      0x20\n      mul\n      0x20\n      add\n      add\n      mload\n        /* \"contracts/zone_calculation.sol\":1958:1959  5 */\n      0x05\n        /* \"contracts/zone_calculation.sol\":1951:1960  adj[5][5] */\n      dup2\n      mload\n      dup2\n      lt\n      tag_187\n      jumpi\n      tag_188\n      tag_19\n      jump\t// in\n    tag_188:\n    tag_187:\n      0x20\n      mul\n      0x20\n      add\n      add\n        /* \"contracts/zone_calculation.sol\":1951:1964  adj[5][5] = 0 */\n      dup2\n      dup2\n      mstore\n      pop\n      pop\n        /* \"contracts/zone_calculation.sol\":1971:1980  uint256 s */\n      0x00\n        /* \"contracts/zone_calculation.sol\":1990:2002  uint256 dest */\n      dup1\n        /* \"contracts/zone_calculation.sol\":2005:2006  5 */\n      0x05\n        /* \"contracts/zone_calculation.sol\":1990:2006  uint256 dest = 5 */\n      swap1\n      pop\n        /* \"contracts/zone_calculation.sol\":2012:2021  uint256 v */\n      0x00\n        /* \"contracts/zone_calculation.sol\":2024:2025  6 */\n      0x06\n        /* \"contracts/zone_calculation.sol\":2012:2025  uint256 v = 6 */\n      swap1\n      pop\n        /* \"contracts/zone_calculation.sol\":2039:2059  BFS(adj, s, dest, v) */\n      tag_189\n        /* \"contracts/zone_calculation.sol\":2043:2046  adj */\n      dup5\n        /* \"contracts/zone_calculation.sol\":2048:2049  s */\n      dup5\n        /* \"contracts/zone_calculation.sol\":2051:2055  dest */\n      dup5\n        /* \"contracts/zone_calculation.sol\":2057:2058  v */\n      dup5\n        /* \"contracts/zone_calculation.sol\":2039:2042  BFS */\n      tag_190\n        /* \"contracts/zone_calculation.sol\":2039:2059  BFS(adj, s, dest, v) */\n      jump\t// in\n    tag_189:\n        /* \"contracts/zone_calculation.sol\":2032:2059  return BFS(adj, s, dest, v) */\n      swap5\n      pop\n      pop\n      pop\n      pop\n      pop\n        /* \"contracts/zone_calculation.sol\":986:2062  function getShortestPath() public pure returns (uint) {... */\n      swap1\n      jump\t// out\n        /* \"contracts/zone_calculation.sol\":53:985  function BFS(... */\n    tag_190:\n        /* \"contracts/zone_calculation.sol\":190:194  uint */\n      0x00\n        /* \"contracts/zone_calculation.sol\":206:227  bool[] memory visited */\n      dup1\n        /* \"contracts/zone_calculation.sol\":241:242  v */\n      dup3\n        /* \"contracts/zone_calculation.sol\":230:243  new bool[](v) */\n      0xffffffffffffffff\n      dup2\n      gt\n      iszero\n      tag_192\n      jumpi\n      tag_193\n      tag_11\n      jump\t// in\n    tag_193:\n    tag_192:\n      mload(0x40)\n      swap1\n      dup1\n      dup3\n      mstore\n      dup1\n      0x20\n      mul\n      0x20\n      add\n      dup3\n      add\n      0x40\n      mstore\n      dup1\n      iszero\n      tag_194\n      jumpi\n      dup2\n      0x20\n      add\n      0x20\n      dup3\n      mul\n      dup1\n      calldatasize\n      dup4\n      calldatacopy\n      dup1\n      dup3\n      add\n      swap2\n      pop\n      pop\n      swap1\n      pop\n    tag_194:\n      pop\n        /* \"contracts/zone_calculation.sol\":206:243  bool[] memory visited = new bool[](v) */\n      swap1\n      pop\n        /* \"contracts/zone_calculation.sol\":258:267  uint256 i */\n      0x00\n        /* \"contracts/zone_calculation.sol\":253:328  for (uint256 i = 0; i < v; i++) {... */\n    tag_195:\n        /* \"contracts/zone_calculation.sol\":277:278  v */\n      dup4\n        /* \"contracts/zone_calculation.sol\":273:274  i */\n      dup2\n        /* \"contracts/zone_calculation.sol\":273:278  i < v */\n      lt\n        /* \"contracts/zone_calculation.sol\":253:328  for (uint256 i = 0; i < v; i++) {... */\n      iszero\n      tag_196\n      jumpi\n        /* \"contracts/zone_calculation.sol\":312:317  false */\n      0x00\n        /* \"contracts/zone_calculation.sol\":299:306  visited */\n      dup3\n        /* \"contracts/zone_calculation.sol\":307:308  i */\n      dup3\n        /* \"contracts/zone_calculation.sol\":299:309  visited[i] */\n      dup2\n      mload\n      dup2\n      lt\n      tag_198\n      jumpi\n      tag_199\n      tag_19\n      jump\t// in\n    tag_199:\n    tag_198:\n      0x20\n      mul\n      0x20\n      add\n      add\n        /* \"contracts/zone_calculation.sol\":299:317  visited[i] = false */\n      swap1\n      iszero\n      iszero\n      swap1\n      dup2\n      iszero\n      iszero\n      dup2\n      mstore\n      pop\n      pop\n        /* \"contracts/zone_calculation.sol\":280:283  i++ */\n      dup1\n      dup1\n      tag_200\n      swap1\n      tag_201\n      jump\t// in\n    tag_200:\n      swap2\n      pop\n      pop\n        /* \"contracts/zone_calculation.sol\":253:328  for (uint256 i = 0; i < v; i++) {... */\n      jump(tag_195)\n    tag_196:\n      pop\n        /* \"contracts/zone_calculation.sol\":353:357  true */\n      0x01\n        /* \"contracts/zone_calculation.sol\":338:345  visited */\n      dup2\n        /* \"contracts/zone_calculation.sol\":346:349  src */\n      dup7\n        /* \"contracts/zone_calculation.sol\":338:350  visited[src] */\n      dup2\n      mload\n      dup2\n      lt\n      tag_202\n      jumpi\n      tag_203\n      tag_19\n      jump\t// in\n    tag_203:\n    tag_202:\n      0x20\n      mul\n      0x20\n      add\n      add\n        /* \"contracts/zone_calculation.sol\":338:357  visited[src] = true */\n      swap1\n      iszero\n      iszero\n      swap1\n      dup2\n      iszero\n      iszero\n      dup2\n      mstore\n      pop\n      pop\n        /* \"contracts/zone_calculation.sol\":368:390  uint256[] memory queue */\n      0x00\n        /* \"contracts/zone_calculation.sol\":407:408  v */\n      dup4\n        /* \"contracts/zone_calculation.sol\":393:409  new uint256[](v) */\n      0xffffffffffffffff\n      dup2\n      gt\n      iszero\n      tag_204\n      jumpi\n      tag_205\n      tag_11\n      jump\t// in\n    tag_205:\n    tag_204:\n      mload(0x40)\n      swap1\n      dup1\n      dup3\n      mstore\n      dup1\n      0x20\n      mul\n      0x20\n      add\n      dup3\n      add\n      0x40\n      mstore\n      dup1\n      iszero\n      tag_206\n      jumpi\n      dup2\n      0x20\n      add\n      0x20\n      dup3\n      mul\n      dup1\n      calldatasize\n      dup4\n      calldatacopy\n      dup1\n      dup3\n      add\n      swap2\n      pop\n      pop\n      swap1\n      pop\n    tag_206:\n      pop\n        /* \"contracts/zone_calculation.sol\":368:409  uint256[] memory queue = new uint256[](v) */\n      swap1\n      pop\n        /* \"contracts/zone_calculation.sol\":419:432  uint256 front */\n      0x00\n        /* \"contracts/zone_calculation.sol\":446:458  uint256 rear */\n      dup1\n        /* \"contracts/zone_calculation.sol\":488:491  src */\n      dup8\n        /* \"contracts/zone_calculation.sol\":472:477  queue */\n      dup4\n        /* \"contracts/zone_calculation.sol\":478:484  rear++ */\n      dup3\n      dup1\n      tag_207\n      swap1\n      tag_201\n      jump\t// in\n    tag_207:\n      swap4\n      pop\n        /* \"contracts/zone_calculation.sol\":472:485  queue[rear++] */\n      dup2\n      mload\n      dup2\n      lt\n      tag_208\n      jumpi\n      tag_209\n      tag_19\n      jump\t// in\n    tag_209:\n    tag_208:\n      0x20\n      mul\n      0x20\n      add\n      add\n        /* \"contracts/zone_calculation.sol\":472:491  queue[rear++] = src */\n      dup2\n      dup2\n      mstore\n      pop\n      pop\n        /* \"contracts/zone_calculation.sol\":501:512  uint result */\n      0x00\n        /* \"contracts/zone_calculation.sol\":528:960  while (front != rear) {... */\n    tag_210:\n        /* \"contracts/zone_calculation.sol\":544:548  rear */\n      dup2\n        /* \"contracts/zone_calculation.sol\":535:540  front */\n      dup4\n        /* \"contracts/zone_calculation.sol\":535:548  front != rear */\n      eq\n        /* \"contracts/zone_calculation.sol\":528:960  while (front != rear) {... */\n      tag_211\n      jumpi\n        /* \"contracts/zone_calculation.sol\":564:573  uint256 u */\n      0x00\n        /* \"contracts/zone_calculation.sol\":576:581  queue */\n      dup5\n        /* \"contracts/zone_calculation.sol\":582:589  front++ */\n      dup5\n      dup1\n      tag_212\n      swap1\n      tag_201\n      jump\t// in\n    tag_212:\n      swap6\n      pop\n        /* \"contracts/zone_calculation.sol\":576:590  queue[front++] */\n      dup2\n      mload\n      dup2\n      lt\n      tag_213\n      jumpi\n      tag_214\n      tag_19\n      jump\t// in\n    tag_214:\n    tag_213:\n      0x20\n      mul\n      0x20\n      add\n      add\n      mload\n        /* \"contracts/zone_calculation.sol\":564:590  uint256 u = queue[front++] */\n      swap1\n      pop\n        /* \"contracts/zone_calculation.sol\":604:613  result ++ */\n      dup2\n      dup1\n      tag_215\n      swap1\n      tag_201\n      jump\t// in\n    tag_215:\n      swap3\n      pop\n      pop\n        /* \"contracts/zone_calculation.sol\":634:643  uint256 i */\n      0x00\n        /* \"contracts/zone_calculation.sol\":629:950  for (uint256 i = 0; i < adj[u].length; i++) {... */\n    tag_216:\n        /* \"contracts/zone_calculation.sol\":653:656  adj */\n      dup12\n        /* \"contracts/zone_calculation.sol\":657:658  u */\n      dup3\n        /* \"contracts/zone_calculation.sol\":653:659  adj[u] */\n      dup2\n      mload\n      dup2\n      lt\n      tag_219\n      jumpi\n      tag_220\n      tag_19\n      jump\t// in\n    tag_220:\n    tag_219:\n      0x20\n      mul\n      0x20\n      add\n      add\n      mload\n        /* \"contracts/zone_calculation.sol\":653:666  adj[u].length */\n      mload\n        /* \"contracts/zone_calculation.sol\":649:650  i */\n      dup2\n        /* \"contracts/zone_calculation.sol\":649:666  i < adj[u].length */\n      lt\n        /* \"contracts/zone_calculation.sol\":629:950  for (uint256 i = 0; i < adj[u].length; i++) {... */\n      iszero\n      tag_217\n      jumpi\n        /* \"contracts/zone_calculation.sol\":696:703  visited */\n      dup7\n        /* \"contracts/zone_calculation.sol\":704:707  adj */\n      dup13\n        /* \"contracts/zone_calculation.sol\":708:709  u */\n      dup4\n        /* \"contracts/zone_calculation.sol\":704:710  adj[u] */\n      dup2\n      mload\n      dup2\n      lt\n      tag_221\n      jumpi\n      tag_222\n      tag_19\n      jump\t// in\n    tag_222:\n    tag_221:\n      0x20\n      mul\n      0x20\n      add\n      add\n      mload\n        /* \"contracts/zone_calculation.sol\":711:712  i */\n      dup3\n        /* \"contracts/zone_calculation.sol\":704:713  adj[u][i] */\n      dup2\n      mload\n      dup2\n      lt\n      tag_223\n      jumpi\n      tag_224\n      tag_19\n      jump\t// in\n    tag_224:\n    tag_223:\n      0x20\n      mul\n      0x20\n      add\n      add\n      mload\n        /* \"contracts/zone_calculation.sol\":696:714  visited[adj[u][i]] */\n      dup2\n      mload\n      dup2\n      lt\n      tag_225\n      jumpi\n      tag_226\n      tag_19\n      jump\t// in\n    tag_226:\n    tag_225:\n      0x20\n      mul\n      0x20\n      add\n      add\n      mload\n        /* \"contracts/zone_calculation.sol\":691:936  if (!visited[adj[u][i]]) {... */\n      tag_227\n      jumpi\n        /* \"contracts/zone_calculation.sol\":759:763  true */\n      0x01\n        /* \"contracts/zone_calculation.sol\":738:745  visited */\n      dup8\n        /* \"contracts/zone_calculation.sol\":746:749  adj */\n      dup14\n        /* \"contracts/zone_calculation.sol\":750:751  u */\n      dup5\n        /* \"contracts/zone_calculation.sol\":746:752  adj[u] */\n      dup2\n      mload\n      dup2\n      lt\n      tag_228\n      jumpi\n      tag_229\n      tag_19\n      jump\t// in\n    tag_229:\n    tag_228:\n      0x20\n      mul\n      0x20\n      add\n      add\n      mload\n        /* \"contracts/zone_calculation.sol\":753:754  i */\n      dup4\n        /* \"contracts/zone_calculation.sol\":746:755  adj[u][i] */\n      dup2\n      mload\n      dup2\n      lt\n      tag_230\n      jumpi\n      tag_231\n      tag_19\n      jump\t// in\n    tag_231:\n    tag_230:\n      0x20\n      mul\n      0x20\n      add\n      add\n      mload\n        /* \"contracts/zone_calculation.sol\":738:756  visited[adj[u][i]] */\n      dup2\n      mload\n      dup2\n      lt\n      tag_232\n      jumpi\n      tag_233\n      tag_19\n      jump\t// in\n    tag_233:\n    tag_232:\n      0x20\n      mul\n      0x20\n      add\n      add\n        /* \"contracts/zone_calculation.sol\":738:763  visited[adj[u][i]] = true */\n      swap1\n      iszero\n      iszero\n      swap1\n      dup2\n      iszero\n      iszero\n      dup2\n      mstore\n      pop\n      pop\n        /* \"contracts/zone_calculation.sol\":801:804  adj */\n      dup12\n        /* \"contracts/zone_calculation.sol\":805:806  u */\n      dup3\n        /* \"contracts/zone_calculation.sol\":801:807  adj[u] */\n      dup2\n      mload\n      dup2\n      lt\n      tag_234\n      jumpi\n      tag_235\n      tag_19\n      jump\t// in\n    tag_235:\n    tag_234:\n      0x20\n      mul\n      0x20\n      add\n      add\n      mload\n        /* \"contracts/zone_calculation.sol\":808:809  i */\n      dup2\n        /* \"contracts/zone_calculation.sol\":801:810  adj[u][i] */\n      dup2\n      mload\n      dup2\n      lt\n      tag_236\n      jumpi\n      tag_237\n      tag_19\n      jump\t// in\n    tag_237:\n    tag_236:\n      0x20\n      mul\n      0x20\n      add\n      add\n      mload\n        /* \"contracts/zone_calculation.sol\":785:790  queue */\n      dup7\n        /* \"contracts/zone_calculation.sol\":791:797  rear++ */\n      dup6\n      dup1\n      tag_238\n      swap1\n      tag_201\n      jump\t// in\n    tag_238:\n      swap7\n      pop\n        /* \"contracts/zone_calculation.sol\":785:798  queue[rear++] */\n      dup2\n      mload\n      dup2\n      lt\n      tag_239\n      jumpi\n      tag_240\n      tag_19\n      jump\t// in\n    tag_240:\n    tag_239:\n      0x20\n      mul\n      0x20\n      add\n      add\n        /* \"contracts/zone_calculation.sol\":785:810  queue[rear++] = adj[u][i] */\n      dup2\n      dup2\n      mstore\n      pop\n      pop\n        /* \"contracts/zone_calculation.sol\":850:854  dest */\n      dup10\n        /* \"contracts/zone_calculation.sol\":837:840  adj */\n      dup13\n        /* \"contracts/zone_calculation.sol\":841:842  u */\n      dup4\n        /* \"contracts/zone_calculation.sol\":837:843  adj[u] */\n      dup2\n      mload\n      dup2\n      lt\n      tag_241\n      jumpi\n      tag_242\n      tag_19\n      jump\t// in\n    tag_242:\n    tag_241:\n      0x20\n      mul\n      0x20\n      add\n      add\n      mload\n        /* \"contracts/zone_calculation.sol\":844:845  i */\n      dup3\n        /* \"contracts/zone_calculation.sol\":837:846  adj[u][i] */\n      dup2\n      mload\n      dup2\n      lt\n      tag_243\n      jumpi\n      tag_244\n      tag_19\n      jump\t// in\n    tag_244:\n    tag_243:\n      0x20\n      mul\n      0x20\n      add\n      add\n      mload\n        /* \"contracts/zone_calculation.sol\":837:854  adj[u][i] == dest */\n      sub\n        /* \"contracts/zone_calculation.sol\":833:918  if (adj[u][i] == dest) {... */\n      tag_245\n      jumpi\n        /* \"contracts/zone_calculation.sol\":889:895  result */\n      dup3\n        /* \"contracts/zone_calculation.sol\":882:895  return result */\n      swap8\n      pop\n      pop\n      pop\n      pop\n      pop\n      pop\n      pop\n      pop\n      jump(tag_191)\n        /* \"contracts/zone_calculation.sol\":833:918  if (adj[u][i] == dest) {... */\n    tag_245:\n        /* \"contracts/zone_calculation.sol\":691:936  if (!visited[adj[u][i]]) {... */\n    tag_227:\n        /* \"contracts/zone_calculation.sol\":668:671  i++ */\n      dup1\n      dup1\n      tag_246\n      swap1\n      tag_201\n      jump\t// in\n    tag_246:\n      swap2\n      pop\n      pop\n        /* \"contracts/zone_calculation.sol\":629:950  for (uint256 i = 0; i < adj[u].length; i++) {... */\n      jump(tag_216)\n    tag_217:\n      pop\n        /* \"contracts/zone_calculation.sol\":550:960  {... */\n      pop\n        /* \"contracts/zone_calculation.sol\":528:960  while (front != rear) {... */\n      jump(tag_210)\n    tag_211:\n        /* \"contracts/zone_calculation.sol\":977:978  0 */\n      0x00\n        /* \"contracts/zone_calculation.sol\":970:978  return 0 */\n      swap6\n      pop\n      pop\n      pop\n      pop\n      pop\n      pop\n        /* \"contracts/zone_calculation.sol\":53:985  function BFS(... */\n    tag_191:\n      swap5\n      swap4\n      pop\n      pop\n      pop\n      pop\n      jump\t// out\n        /* \"#utility.yul\":7:84   */\n    tag_247:\n        /* \"#utility.yul\":44:51   */\n      0x00\n        /* \"#utility.yul\":73:78   */\n      dup2\n        /* \"#utility.yul\":62:78   */\n      swap1\n      pop\n        /* \"#utility.yul\":7:84   */\n      swap2\n      swap1\n      pop\n      jump\t// out\n        /* \"#utility.yul\":90:208   */\n    tag_248:\n        /* \"#utility.yul\":177:201   */\n      tag_253\n        /* \"#utility.yul\":195:200   */\n      dup2\n        /* \"#utility.yul\":177:201   */\n      tag_247\n      jump\t// in\n    tag_253:\n        /* \"#utility.yul\":172:175   */\n      dup3\n        /* \"#utility.yul\":165:202   */\n      mstore\n        /* \"#utility.yul\":90:208   */\n      pop\n      pop\n      jump\t// out\n        /* \"#utility.yul\":214:436   */\n    tag_7:\n        /* \"#utility.yul\":307:311   */\n      0x00\n        /* \"#utility.yul\":345:347   */\n      0x20\n        /* \"#utility.yul\":334:343   */\n      dup3\n        /* \"#utility.yul\":330:348   */\n      add\n        /* \"#utility.yul\":322:348   */\n      swap1\n      pop\n        /* \"#utility.yul\":358:429   */\n      tag_255\n        /* \"#utility.yul\":426:427   */\n      0x00\n        /* \"#utility.yul\":415:424   */\n      dup4\n        /* \"#utility.yul\":411:428   */\n      add\n        /* \"#utility.yul\":402:408   */\n      dup5\n        /* \"#utility.yul\":358:429   */\n      tag_248\n      jump\t// in\n    tag_255:\n        /* \"#utility.yul\":214:436   */\n      swap3\n      swap2\n      pop\n      pop\n      jump\t// out\n        /* \"#utility.yul\":442:622   */\n    tag_11:\n        /* \"#utility.yul\":490:567   */\n      0x4e487b7100000000000000000000000000000000000000000000000000000000\n        /* \"#utility.yul\":487:488   */\n      0x00\n        /* \"#utility.yul\":480:568   */\n      mstore\n        /* \"#utility.yul\":587:591   */\n      0x41\n        /* \"#utility.yul\":584:585   */\n      0x04\n        /* \"#utility.yul\":577:592   */\n      mstore\n        /* \"#utility.yul\":611:615   */\n      0x24\n        /* \"#utility.yul\":608:609   */\n      0x00\n        /* \"#utility.yul\":601:616   */\n      revert\n        /* \"#utility.yul\":628:808   */\n    tag_19:\n        /* \"#utility.yul\":676:753   */\n      0x4e487b7100000000000000000000000000000000000000000000000000000000\n        /* \"#utility.yul\":673:674   */\n      0x00\n        /* \"#utility.yul\":666:754   */\n      mstore\n        /* \"#utility.yul\":773:777   */\n      0x32\n        /* \"#utility.yul\":770:771   */\n      0x04\n        /* \"#utility.yul\":763:778   */\n      mstore\n        /* \"#utility.yul\":797:801   */\n      0x24\n        /* \"#utility.yul\":794:795   */\n      0x00\n        /* \"#utility.yul\":787:802   */\n      revert\n        /* \"#utility.yul\":814:994   */\n    tag_249:\n        /* \"#utility.yul\":862:939   */\n      0x4e487b7100000000000000000000000000000000000000000000000000000000\n        /* \"#utility.yul\":859:860   */\n      0x00\n        /* \"#utility.yul\":852:940   */\n      mstore\n        /* \"#utility.yul\":959:963   */\n      0x11\n        /* \"#utility.yul\":956:957   */\n      0x04\n        /* \"#utility.yul\":949:964   */\n      mstore\n        /* \"#utility.yul\":983:987   */\n      0x24\n        /* \"#utility.yul\":980:981   */\n      0x00\n        /* \"#utility.yul\":973:988   */\n      revert\n        /* \"#utility.yul\":1000:1233   */\n    tag_201:\n        /* \"#utility.yul\":1039:1042   */\n      0x00\n        /* \"#utility.yul\":1062:1086   */\n      tag_260\n        /* \"#utility.yul\":1080:1085   */\n      dup3\n        /* \"#utility.yul\":1062:1086   */\n      tag_247\n      jump\t// in\n    tag_260:\n        /* \"#utility.yul\":1053:1086   */\n      swap2\n      pop\n        /* \"#utility.yul\":1108:1174   */\n      0xffffffffffffffffffffffffffffffffffffffffffffffffffffffffffffffff\n        /* \"#utility.yul\":1101:1106   */\n      dup3\n        /* \"#utility.yul\":1098:1175   */\n      sub\n        /* \"#utility.yul\":1095:1198   */\n      tag_261\n      jumpi\n        /* \"#utility.yul\":1178:1196   */\n      tag_262\n      tag_249\n      jump\t// in\n    tag_262:\n        /* \"#utility.yul\":1095:1198   */\n    tag_261:\n        /* \"#utility.yul\":1225:1226   */\n      0x01\n        /* \"#utility.yul\":1218:1223   */\n      dup3\n        /* \"#utility.yul\":1214:1227   */\n      add\n        /* \"#utility.yul\":1207:1227   */\n      swap1\n      pop\n        /* \"#utility.yul\":1000:1233   */\n      swap2\n      swap1\n      pop\n      jump\t// out\n\n    auxdata: 0xa26469706673582212209f364daed27bcde4b3308bdd575b2433724fef0822055248518685dc55f177b364736f6c63430008120033\n}\n",
				"bytecode": {
					"linkReferences": {},
					"object": "608060405234801561001057600080fd5b50611032806100206000396000f3fe608060405234801561001057600080fd5b506004361061002b5760003560e01c80638f9b7d7a14610030575b600080fd5b61003861004e565b6040516100459190610f0c565b60405180910390f35b600080600667ffffffffffffffff81111561006c5761006b610f27565b5b60405190808252806020026020018201604052801561009f57816020015b606081526020019060019003908161008a5790505b509050600667ffffffffffffffff8111156100bd576100bc610f27565b5b6040519080825280602002602001820160405280156100eb5781602001602082028036833780820191505090505b5081600081518110610100576100ff610f56565b5b602002602001018190525060008160008151811061012157610120610f56565b5b602002602001015160008151811061013c5761013b610f56565b5b60200260200101818152505060018160008151811061015e5761015d610f56565b5b602002602001015160018151811061017957610178610f56565b5b60200260200101818152505060018160008151811061019b5761019a610f56565b5b60200260200101516002815181106101b6576101b5610f56565b5b6020026020010181815250506000816000815181106101d8576101d7610f56565b5b60200260200101516003815181106101f3576101f2610f56565b5b60200260200101818152505060008160008151811061021557610214610f56565b5b60200260200101516004815181106102305761022f610f56565b5b60200260200101818152505060008160008151811061025257610251610f56565b5b602002602001015160058151811061026d5761026c610f56565b5b602002602001018181525050600667ffffffffffffffff81111561029457610293610f27565b5b6040519080825280602002602001820160405280156102c25781602001602082028036833780820191505090505b50816001815181106102d7576102d6610f56565b5b60200260200101819052506001816001815181106102f8576102f7610f56565b5b602002602001015160008151811061031357610312610f56565b5b60200260200101818152505060008160018151811061033557610334610f56565b5b60200260200101516001815181106103505761034f610f56565b5b60200260200101818152505060008160018151811061037257610371610f56565b5b602002602001015160028151811061038d5761038c610f56565b5b6020026020010181815250506001816001815181106103af576103ae610f56565b5b60200260200101516003815181106103ca576103c9610f56565b5b6020026020010181815250506001816001815181106103ec576103eb610f56565b5b602002602001015160048151811061040757610406610f56565b5b60200260200101818152505060008160018151811061042957610428610f56565b5b602002602001015160058151811061044457610443610f56565b5b602002602001018181525050600667ffffffffffffffff81111561046b5761046a610f27565b5b6040519080825280602002602001820160405280156104995781602001602082028036833780820191505090505b50816002815181106104ae576104ad610f56565b5b60200260200101819052506001816002815181106104cf576104ce610f56565b5b60200260200101516000815181106104ea576104e9610f56565b5b60200260200101818152505060008160028151811061050c5761050b610f56565b5b602002602001015160018151811061052757610526610f56565b5b60200260200101818152505060008160028151811061054957610548610f56565b5b602002602001015160028151811061056457610563610f56565b5b60200260200101818152505060008160028151811061058657610585610f56565b5b60200260200101516003815181106105a1576105a0610f56565b5b6020026020010181815250506000816002815181106105c3576105c2610f56565b5b60200260200101516004815181106105de576105dd610f56565b5b602002602001018181525050600181600281518110610600576105ff610f56565b5b602002602001015160058151811061061b5761061a610f56565b5b602002602001018181525050600667ffffffffffffffff81111561064257610641610f27565b5b6040519080825280602002602001820160405280156106705781602001602082028036833780820191505090505b508160038151811061068557610684610f56565b5b60200260200101819052506000816003815181106106a6576106a5610f56565b5b60200260200101516000815181106106c1576106c0610f56565b5b6020026020010181815250506001816003815181106106e3576106e2610f56565b5b60200260200101516001815181106106fe576106fd610f56565b5b6020026020010181815250506000816003815181106107205761071f610f56565b5b602002602001015160028151811061073b5761073a610f56565b5b60200260200101818152505060008160038151811061075d5761075c610f56565b5b602002602001015160038151811061077857610777610f56565b5b60200260200101818152505060018160038151811061079a57610799610f56565b5b60200260200101516004815181106107b5576107b4610f56565b5b6020026020010181815250506000816003815181106107d7576107d6610f56565b5b60200260200101516005815181106107f2576107f1610f56565b5b602002602001018181525050600667ffffffffffffffff81111561081957610818610f27565b5b6040519080825280602002602001820160405280156108475781602001602082028036833780820191505090505b508160048151811061085c5761085b610f56565b5b602002602001018190525060008160048151811061087d5761087c610f56565b5b602002602001015160008151811061089857610897610f56565b5b6020026020010181815250506001816004815181106108ba576108b9610f56565b5b60200260200101516001815181106108d5576108d4610f56565b5b6020026020010181815250506000816004815181106108f7576108f6610f56565b5b602002602001015160028151811061091257610911610f56565b5b60200260200101818152505060018160048151811061093457610933610f56565b5b602002602001015160038151811061094f5761094e610f56565b5b60200260200101818152505060008160048151811061097157610970610f56565b5b602002602001015160048151811061098c5761098b610f56565b5b6020026020010181815250506000816004815181106109ae576109ad610f56565b5b60200260200101516005815181106109c9576109c8610f56565b5b602002602001018181525050600667ffffffffffffffff8111156109f0576109ef610f27565b5b604051908082528060200260200182016040528015610a1e5781602001602082028036833780820191505090505b5081600581518110610a3357610a32610f56565b5b6020026020010181905250600081600581518110610a5457610a53610f56565b5b6020026020010151600081518110610a6f57610a6e610f56565b5b602002602001018181525050600081600581518110610a9157610a90610f56565b5b6020026020010151600181518110610aac57610aab610f56565b5b602002602001018181525050600181600581518110610ace57610acd610f56565b5b6020026020010151600281518110610ae957610ae8610f56565b5b602002602001018181525050600081600581518110610b0b57610b0a610f56565b5b6020026020010151600381518110610b2657610b25610f56565b5b602002602001018181525050600081600581518110610b4857610b47610f56565b5b6020026020010151600481518110610b6357610b62610f56565b5b602002602001018181525050600081600581518110610b8557610b84610f56565b5b6020026020010151600581518110610ba057610b9f610f56565b5b60200260200101818152505060008060059050600060069050610bc584848484610bce565b94505050505090565b6000808267ffffffffffffffff811115610beb57610bea610f27565b5b604051908082528060200260200182016040528015610c195781602001602082028036833780820191505090505b50905060005b83811015610c61576000828281518110610c3c57610c3b610f56565b5b6020026020010190151590811515815250508080610c5990610fb4565b915050610c1f565b506001818681518110610c7757610c76610f56565b5b60200260200101901515908115158152505060008367ffffffffffffffff811115610ca557610ca4610f27565b5b604051908082528060200260200182016040528015610cd35781602001602082028036833780820191505090505b50905060008087838280610ce690610fb4565b935081518110610cf957610cf8610f56565b5b60200260200101818152505060005b818314610ee1576000848480610d1d90610fb4565b955081518110610d3057610d2f610f56565b5b602002602001015190508180610d4590610fb4565b92505060005b8b8281518110610d5e57610d5d610f56565b5b602002602001015151811015610eda57868c8381518110610d8257610d81610f56565b5b60200260200101518281518110610d9c57610d9b610f56565b5b602002602001015181518110610db557610db4610f56565b5b6020026020010151610ec7576001878d8481518110610dd757610dd6610f56565b5b60200260200101518381518110610df157610df0610f56565b5b602002602001015181518110610e0a57610e09610f56565b5b6020026020010190151590811515815250508b8281518110610e2f57610e2e610f56565b5b60200260200101518181518110610e4957610e48610f56565b5b6020026020010151868580610e5d90610fb4565b965081518110610e7057610e6f610f56565b5b602002602001018181525050898c8381518110610e9057610e8f610f56565b5b60200260200101518281518110610eaa57610ea9610f56565b5b602002602001015103610ec65782975050505050505050610eeb565b5b8080610ed290610fb4565b915050610d4b565b5050610d08565b6000955050505050505b949350505050565b6000819050919050565b610f0681610ef3565b82525050565b6000602082019050610f216000830184610efd565b92915050565b7f4e487b7100000000000000000000000000000000000000000000000000000000600052604160045260246000fd5b7f4e487b7100000000000000000000000000000000000000000000000000000000600052603260045260246000fd5b7f4e487b7100000000000000000000000000000000000000000000000000000000600052601160045260246000fd5b6000610fbf82610ef3565b91507fffffffffffffffffffffffffffffffffffffffffffffffffffffffffffffffff8203610ff157610ff0610f85565b5b60018201905091905056fea26469706673582212209f364daed27bcde4b3308bdd575b2433724fef0822055248518685dc55f177b364736f6c63430008120033",
					"opcodes": "PUSH1 0x80 PUSH1 0x40 MSTORE CALLVALUE DUP1 ISZERO PUSH2 0x10 JUMPI PUSH1 0x0 DUP1 REVERT JUMPDEST POP PUSH2 0x1032 DUP1 PUSH2 0x20 PUSH1 0x0 CODECOPY PUSH1 0x0 RETURN INVALID PUSH1 0x80 PUSH1 0x40 MSTORE CALLVALUE DUP1 ISZERO PUSH2 0x10 JUMPI PUSH1 0x0 DUP1 REVERT JUMPDEST POP PUSH1 0x4 CALLDATASIZE LT PUSH2 0x2B JUMPI PUSH1 0x0 CALLDATALOAD PUSH1 0xE0 SHR DUP1 PUSH4 0x8F9B7D7A EQ PUSH2 0x30 JUMPI JUMPDEST PUSH1 0x0 DUP1 REVERT JUMPDEST PUSH2 0x38 PUSH2 0x4E JUMP JUMPDEST PUSH1 0x40 MLOAD PUSH2 0x45 SWAP2 SWAP1 PUSH2 0xF0C JUMP JUMPDEST PUSH1 0x40 MLOAD DUP1 SWAP2 SUB SWAP1 RETURN JUMPDEST PUSH1 0x0 DUP1 PUSH1 0x6 PUSH8 0xFFFFFFFFFFFFFFFF DUP2 GT ISZERO PUSH2 0x6C JUMPI PUSH2 0x6B PUSH2 0xF27 JUMP JUMPDEST JUMPDEST PUSH1 0x40 MLOAD SWAP1 DUP1 DUP3 MSTORE DUP1 PUSH1 0x20 MUL PUSH1 0x20 ADD DUP3 ADD PUSH1 0x40 MSTORE DUP1 ISZERO PUSH2 0x9F JUMPI DUP2 PUSH1 0x20 ADD JUMPDEST PUSH1 0x60 DUP2 MSTORE PUSH1 0x20 ADD SWAP1 PUSH1 0x1 SWAP1 SUB SWAP1 DUP2 PUSH2 0x8A JUMPI SWAP1 POP JUMPDEST POP SWAP1 POP PUSH1 0x6 PUSH8 0xFFFFFFFFFFFFFFFF DUP2 GT ISZERO PUSH2 0xBD JUMPI PUSH2 0xBC PUSH2 0xF27 JUMP JUMPDEST JUMPDEST PUSH1 0x40 MLOAD SWAP1 DUP1 DUP3 MSTORE DUP1 PUSH1 0x20 MUL PUSH1 0x20 ADD DUP3 ADD PUSH1 0x40 MSTORE DUP1 ISZERO PUSH2 0xEB JUMPI DUP2 PUSH1 0x20 ADD PUSH1 0x20 DUP3 MUL DUP1 CALLDATASIZE DUP4 CALLDATACOPY DUP1 DUP3 ADD SWAP2 POP POP SWAP1 POP JUMPDEST POP DUP2 PUSH1 0x0 DUP2 MLOAD DUP2 LT PUSH2 0x100 JUMPI PUSH2 0xFF PUSH2 0xF56 JUMP JUMPDEST JUMPDEST PUSH1 0x20 MUL PUSH1 0x20 ADD ADD DUP2 SWAP1 MSTORE POP PUSH1 0x0 DUP2 PUSH1 0x0 DUP2 MLOAD DUP2 LT PUSH2 0x121 JUMPI PUSH2 0x120 PUSH2 0xF56 JUMP JUMPDEST JUMPDEST PUSH1 0x20 MUL PUSH1 0x20 ADD ADD MLOAD PUSH1 0x0 DUP2 MLOAD DUP2 LT PUSH2 0x13C JUMPI PUSH2 0x13B PUSH2 0xF56 JUMP JUMPDEST JUMPDEST PUSH1 0x20 MUL PUSH1 0x20 ADD ADD DUP2 DUP2 MSTORE POP POP PUSH1 0x1 DUP2 PUSH1 0x0 DUP2 MLOAD DUP2 LT PUSH2 0x15E JUMPI PUSH2 0x15D PUSH2 0xF56 JUMP JUMPDEST JUMPDEST PUSH1 0x20 MUL PUSH1 0x20 ADD ADD MLOAD PUSH1 0x1 DUP2 MLOAD DUP2 LT PUSH2 0x179 JUMPI PUSH2 0x178 PUSH2 0xF56 JUMP JUMPDEST JUMPDEST PUSH1 0x20 MUL PUSH1 0x20 ADD ADD DUP2 DUP2 MSTORE POP POP PUSH1 0x1 DUP2 PUSH1 0x0 DUP2 MLOAD DUP2 LT PUSH2 0x19B JUMPI PUSH2 0x19A PUSH2 0xF56 JUMP JUMPDEST JUMPDEST PUSH1 0x20 MUL PUSH1 0x20 ADD ADD MLOAD PUSH1 0x2 DUP2 MLOAD DUP2 LT PUSH2 0x1B6 JUMPI PUSH2 0x1B5 PUSH2 0xF56 JUMP JUMPDEST JUMPDEST PUSH1 0x20 MUL PUSH1 0x20 ADD ADD DUP2 DUP2 MSTORE POP POP PUSH1 0x0 DUP2 PUSH1 0x0 DUP2 MLOAD DUP2 LT PUSH2 0x1D8 JUMPI PUSH2 0x1D7 PUSH2 0xF56 JUMP JUMPDEST JUMPDEST PUSH1 0x20 MUL PUSH1 0x20 ADD ADD MLOAD PUSH1 0x3 DUP2 MLOAD DUP2 LT PUSH2 0x1F3 JUMPI PUSH2 0x1F2 PUSH2 0xF56 JUMP JUMPDEST JUMPDEST PUSH1 0x20 MUL PUSH1 0x20 ADD ADD DUP2 DUP2 MSTORE POP POP PUSH1 0x0 DUP2 PUSH1 0x0 DUP2 MLOAD DUP2 LT PUSH2 0x215 JUMPI PUSH2 0x214 PUSH2 0xF56 JUMP JUMPDEST JUMPDEST PUSH1 0x20 MUL PUSH1 0x20 ADD ADD MLOAD PUSH1 0x4 DUP2 MLOAD DUP2 LT PUSH2 0x230 JUMPI PUSH2 0x22F PUSH2 0xF56 JUMP JUMPDEST JUMPDEST PUSH1 0x20 MUL PUSH1 0x20 ADD ADD DUP2 DUP2 MSTORE POP POP PUSH1 0x0 DUP2 PUSH1 0x0 DUP2 MLOAD DUP2 LT PUSH2 0x252 JUMPI PUSH2 0x251 PUSH2 0xF56 JUMP JUMPDEST JUMPDEST PUSH1 0x20 MUL PUSH1 0x20 ADD ADD MLOAD PUSH1 0x5 DUP2 MLOAD DUP2 LT PUSH2 0x26D JUMPI PUSH2 0x26C PUSH2 0xF56 JUMP JUMPDEST JUMPDEST PUSH1 0x20 MUL PUSH1 0x20 ADD ADD DUP2 DUP2 MSTORE POP POP PUSH1 0x6 PUSH8 0xFFFFFFFFFFFFFFFF DUP2 GT ISZERO PUSH2 0x294 JUMPI PUSH2 0x293 PUSH2 0xF27 JUMP JUMPDEST JUMPDEST PUSH1 0x40 MLOAD SWAP1 DUP1 DUP3 MSTORE DUP1 PUSH1 0x20 MUL PUSH1 0x20 ADD DUP3 ADD PUSH1 0x40 MSTORE DUP1 ISZERO PUSH2 0x2C2 JUMPI DUP2 PUSH1 0x20 ADD PUSH1 0x20 DUP3 MUL DUP1 CALLDATASIZE DUP4 CALLDATACOPY DUP1 DUP3 ADD SWAP2 POP POP SWAP1 POP JUMPDEST POP DUP2 PUSH1 0x1 DUP2 MLOAD DUP2 LT PUSH2 0x2D7 JUMPI PUSH2 0x2D6 PUSH2 0xF56 JUMP JUMPDEST JUMPDEST PUSH1 0x20 MUL PUSH1 0x20 ADD ADD DUP2 SWAP1 MSTORE POP PUSH1 0x1 DUP2 PUSH1 0x1 DUP2 MLOAD DUP2 LT PUSH2 0x2F8 JUMPI PUSH2 0x2F7 PUSH2 0xF56 JUMP JUMPDEST JUMPDEST PUSH1 0x20 MUL PUSH1 0x20 ADD ADD MLOAD PUSH1 0x0 DUP2 MLOAD DUP2 LT PUSH2 0x313 JUMPI PUSH2 0x312 PUSH2 0xF56 JUMP JUMPDEST JUMPDEST PUSH1 0x20 MUL PUSH1 0x20 ADD ADD DUP2 DUP2 MSTORE POP POP PUSH1 0x0 DUP2 PUSH1 0x1 DUP2 MLOAD DUP2 LT PUSH2 0x335 JUMPI PUSH2 0x334 PUSH2 0xF56 JUMP JUMPDEST JUMPDEST PUSH1 0x20 MUL PUSH1 0x20 ADD ADD MLOAD PUSH1 0x1 DUP2 MLOAD DUP2 LT PUSH2 0x350 JUMPI PUSH2 0x34F PUSH2 0xF56 JUMP JUMPDEST JUMPDEST PUSH1 0x20 MUL PUSH1 0x20 ADD ADD DUP2 DUP2 MSTORE POP POP PUSH1 0x0 DUP2 PUSH1 0x1 DUP2 MLOAD DUP2 LT PUSH2 0x372 JUMPI PUSH2 0x371 PUSH2 0xF56 JUMP JUMPDEST JUMPDEST PUSH1 0x20 MUL PUSH1 0x20 ADD ADD MLOAD PUSH1 0x2 DUP2 MLOAD DUP2 LT PUSH2 0x38D JUMPI PUSH2 0x38C PUSH2 0xF56 JUMP JUMPDEST JUMPDEST PUSH1 0x20 MUL PUSH1 0x20 ADD ADD DUP2 DUP2 MSTORE POP POP PUSH1 0x1 DUP2 PUSH1 0x1 DUP2 MLOAD DUP2 LT PUSH2 0x3AF JUMPI PUSH2 0x3AE PUSH2 0xF56 JUMP JUMPDEST JUMPDEST PUSH1 0x20 MUL PUSH1 0x20 ADD ADD MLOAD PUSH1 0x3 DUP2 MLOAD DUP2 LT PUSH2 0x3CA JUMPI PUSH2 0x3C9 PUSH2 0xF56 JUMP JUMPDEST JUMPDEST PUSH1 0x20 MUL PUSH1 0x20 ADD ADD DUP2 DUP2 MSTORE POP POP PUSH1 0x1 DUP2 PUSH1 0x1 DUP2 MLOAD DUP2 LT PUSH2 0x3EC JUMPI PUSH2 0x3EB PUSH2 0xF56 JUMP JUMPDEST JUMPDEST PUSH1 0x20 MUL PUSH1 0x20 ADD ADD MLOAD PUSH1 0x4 DUP2 MLOAD DUP2 LT PUSH2 0x407 JUMPI PUSH2 0x406 PUSH2 0xF56 JUMP JUMPDEST JUMPDEST PUSH1 0x20 MUL PUSH1 0x20 ADD ADD DUP2 DUP2 MSTORE POP POP PUSH1 0x0 DUP2 PUSH1 0x1 DUP2 MLOAD DUP2 LT PUSH2 0x429 JUMPI PUSH2 0x428 PUSH2 0xF56 JUMP JUMPDEST JUMPDEST PUSH1 0x20 MUL PUSH1 0x20 ADD ADD MLOAD PUSH1 0x5 DUP2 MLOAD DUP2 LT PUSH2 0x444 JUMPI PUSH2 0x443 PUSH2 0xF56 JUMP JUMPDEST JUMPDEST PUSH1 0x20 MUL PUSH1 0x20 ADD ADD DUP2 DUP2 MSTORE POP POP PUSH1 0x6 PUSH8 0xFFFFFFFFFFFFFFFF DUP2 GT ISZERO PUSH2 0x46B JUMPI PUSH2 0x46A PUSH2 0xF27 JUMP JUMPDEST JUMPDEST PUSH1 0x40 MLOAD SWAP1 DUP1 DUP3 MSTORE DUP1 PUSH1 0x20 MUL PUSH1 0x20 ADD DUP3 ADD PUSH1 0x40 MSTORE DUP1 ISZERO PUSH2 0x499 JUMPI DUP2 PUSH1 0x20 ADD PUSH1 0x20 DUP3 MUL DUP1 CALLDATASIZE DUP4 CALLDATACOPY DUP1 DUP3 ADD SWAP2 POP POP SWAP1 POP JUMPDEST POP DUP2 PUSH1 0x2 DUP2 MLOAD DUP2 LT PUSH2 0x4AE JUMPI PUSH2 0x4AD PUSH2 0xF56 JUMP JUMPDEST JUMPDEST PUSH1 0x20 MUL PUSH1 0x20 ADD ADD DUP2 SWAP1 MSTORE POP PUSH1 0x1 DUP2 PUSH1 0x2 DUP2 MLOAD DUP2 LT PUSH2 0x4CF JUMPI PUSH2 0x4CE PUSH2 0xF56 JUMP JUMPDEST JUMPDEST PUSH1 0x20 MUL PUSH1 0x20 ADD ADD MLOAD PUSH1 0x0 DUP2 MLOAD DUP2 LT PUSH2 0x4EA JUMPI PUSH2 0x4E9 PUSH2 0xF56 JUMP JUMPDEST JUMPDEST PUSH1 0x20 MUL PUSH1 0x20 ADD ADD DUP2 DUP2 MSTORE POP POP PUSH1 0x0 DUP2 PUSH1 0x2 DUP2 MLOAD DUP2 LT PUSH2 0x50C JUMPI PUSH2 0x50B PUSH2 0xF56 JUMP JUMPDEST JUMPDEST PUSH1 0x20 MUL PUSH1 0x20 ADD ADD MLOAD PUSH1 0x1 DUP2 MLOAD DUP2 LT PUSH2 0x527 JUMPI PUSH2 0x526 PUSH2 0xF56 JUMP JUMPDEST JUMPDEST PUSH1 0x20 MUL PUSH1 0x20 ADD ADD DUP2 DUP2 MSTORE POP POP PUSH1 0x0 DUP2 PUSH1 0x2 DUP2 MLOAD DUP2 LT PUSH2 0x549 JUMPI PUSH2 0x548 PUSH2 0xF56 JUMP JUMPDEST JUMPDEST PUSH1 0x20 MUL PUSH1 0x20 ADD ADD MLOAD PUSH1 0x2 DUP2 MLOAD DUP2 LT PUSH2 0x564 JUMPI PUSH2 0x563 PUSH2 0xF56 JUMP JUMPDEST JUMPDEST PUSH1 0x20 MUL PUSH1 0x20 ADD ADD DUP2 DUP2 MSTORE POP POP PUSH1 0x0 DUP2 PUSH1 0x2 DUP2 MLOAD DUP2 LT PUSH2 0x586 JUMPI PUSH2 0x585 PUSH2 0xF56 JUMP JUMPDEST JUMPDEST PUSH1 0x20 MUL PUSH1 0x20 ADD ADD MLOAD PUSH1 0x3 DUP2 MLOAD DUP2 LT PUSH2 0x5A1 JUMPI PUSH2 0x5A0 PUSH2 0xF56 JUMP JUMPDEST JUMPDEST PUSH1 0x20 MUL PUSH1 0x20 ADD ADD DUP2 DUP2 MSTORE POP POP PUSH1 0x0 DUP2 PUSH1 0x2 DUP2 MLOAD DUP2 LT PUSH2 0x5C3 JUMPI PUSH2 0x5C2 PUSH2 0xF56 JUMP JUMPDEST JUMPDEST PUSH1 0x20 MUL PUSH1 0x20 ADD ADD MLOAD PUSH1 0x4 DUP2 MLOAD DUP2 LT PUSH2 0x5DE JUMPI PUSH2 0x5DD PUSH2 0xF56 JUMP JUMPDEST JUMPDEST PUSH1 0x20 MUL PUSH1 0x20 ADD ADD DUP2 DUP2 MSTORE POP POP PUSH1 0x1 DUP2 PUSH1 0x2 DUP2 MLOAD DUP2 LT PUSH2 0x600 JUMPI PUSH2 0x5FF PUSH2 0xF56 JUMP JUMPDEST JUMPDEST PUSH1 0x20 MUL PUSH1 0x20 ADD ADD MLOAD PUSH1 0x5 DUP2 MLOAD DUP2 LT PUSH2 0x61B JUMPI PUSH2 0x61A PUSH2 0xF56 JUMP JUMPDEST JUMPDEST PUSH1 0x20 MUL PUSH1 0x20 ADD ADD DUP2 DUP2 MSTORE POP POP PUSH1 0x6 PUSH8 0xFFFFFFFFFFFFFFFF DUP2 GT ISZERO PUSH2 0x642 JUMPI PUSH2 0x641 PUSH2 0xF27 JUMP JUMPDEST JUMPDEST PUSH1 0x40 MLOAD SWAP1 DUP1 DUP3 MSTORE DUP1 PUSH1 0x20 MUL PUSH1 0x20 ADD DUP3 ADD PUSH1 0x40 MSTORE DUP1 ISZERO PUSH2 0x670 JUMPI DUP2 PUSH1 0x20 ADD PUSH1 0x20 DUP3 MUL DUP1 CALLDATASIZE DUP4 CALLDATACOPY DUP1 DUP3 ADD SWAP2 POP POP SWAP1 POP JUMPDEST POP DUP2 PUSH1 0x3 DUP2 MLOAD DUP2 LT PUSH2 0x685 JUMPI PUSH2 0x684 PUSH2 0xF56 JUMP JUMPDEST JUMPDEST PUSH1 0x20 MUL PUSH1 0x20 ADD ADD DUP2 SWAP1 MSTORE POP PUSH1 0x0 DUP2 PUSH1 0x3 DUP2 MLOAD DUP2 LT PUSH2 0x6A6 JUMPI PUSH2 0x6A5 PUSH2 0xF56 JUMP JUMPDEST JUMPDEST PUSH1 0x20 MUL PUSH1 0x20 ADD ADD MLOAD PUSH1 0x0 DUP2 MLOAD DUP2 LT PUSH2 0x6C1 JUMPI PUSH2 0x6C0 PUSH2 0xF56 JUMP JUMPDEST JUMPDEST PUSH1 0x20 MUL PUSH1 0x20 ADD ADD DUP2 DUP2 MSTORE POP POP PUSH1 0x1 DUP2 PUSH1 0x3 DUP2 MLOAD DUP2 LT PUSH2 0x6E3 JUMPI PUSH2 0x6E2 PUSH2 0xF56 JUMP JUMPDEST JUMPDEST PUSH1 0x20 MUL PUSH1 0x20 ADD ADD MLOAD PUSH1 0x1 DUP2 MLOAD DUP2 LT PUSH2 0x6FE JUMPI PUSH2 0x6FD PUSH2 0xF56 JUMP JUMPDEST JUMPDEST PUSH1 0x20 MUL PUSH1 0x20 ADD ADD DUP2 DUP2 MSTORE POP POP PUSH1 0x0 DUP2 PUSH1 0x3 DUP2 MLOAD DUP2 LT PUSH2 0x720 JUMPI PUSH2 0x71F PUSH2 0xF56 JUMP JUMPDEST JUMPDEST PUSH1 0x20 MUL PUSH1 0x20 ADD ADD MLOAD PUSH1 0x2 DUP2 MLOAD DUP2 LT PUSH2 0x73B JUMPI PUSH2 0x73A PUSH2 0xF56 JUMP JUMPDEST JUMPDEST PUSH1 0x20 MUL PUSH1 0x20 ADD ADD DUP2 DUP2 MSTORE POP POP PUSH1 0x0 DUP2 PUSH1 0x3 DUP2 MLOAD DUP2 LT PUSH2 0x75D JUMPI PUSH2 0x75C PUSH2 0xF56 JUMP JUMPDEST JUMPDEST PUSH1 0x20 MUL PUSH1 0x20 ADD ADD MLOAD PUSH1 0x3 DUP2 MLOAD DUP2 LT PUSH2 0x778 JUMPI PUSH2 0x777 PUSH2 0xF56 JUMP JUMPDEST JUMPDEST PUSH1 0x20 MUL PUSH1 0x20 ADD ADD DUP2 DUP2 MSTORE POP POP PUSH1 0x1 DUP2 PUSH1 0x3 DUP2 MLOAD DUP2 LT PUSH2 0x79A JUMPI PUSH2 0x799 PUSH2 0xF56 JUMP JUMPDEST JUMPDEST PUSH1 0x20 MUL PUSH1 0x20 ADD ADD MLOAD PUSH1 0x4 DUP2 MLOAD DUP2 LT PUSH2 0x7B5 JUMPI PUSH2 0x7B4 PUSH2 0xF56 JUMP JUMPDEST JUMPDEST PUSH1 0x20 MUL PUSH1 0x20 ADD ADD DUP2 DUP2 MSTORE POP POP PUSH1 0x0 DUP2 PUSH1 0x3 DUP2 MLOAD DUP2 LT PUSH2 0x7D7 JUMPI PUSH2 0x7D6 PUSH2 0xF56 JUMP JUMPDEST JUMPDEST PUSH1 0x20 MUL PUSH1 0x20 ADD ADD MLOAD PUSH1 0x5 DUP2 MLOAD DUP2 LT PUSH2 0x7F2 JUMPI PUSH2 0x7F1 PUSH2 0xF56 JUMP JUMPDEST JUMPDEST PUSH1 0x20 MUL PUSH1 0x20 ADD ADD DUP2 DUP2 MSTORE POP POP PUSH1 0x6 PUSH8 0xFFFFFFFFFFFFFFFF DUP2 GT ISZERO PUSH2 0x819 JUMPI PUSH2 0x818 PUSH2 0xF27 JUMP JUMPDEST JUMPDEST PUSH1 0x40 MLOAD SWAP1 DUP1 DUP3 MSTORE DUP1 PUSH1 0x20 MUL PUSH1 0x20 ADD DUP3 ADD PUSH1 0x40 MSTORE DUP1 ISZERO PUSH2 0x847 JUMPI DUP2 PUSH1 0x20 ADD PUSH1 0x20 DUP3 MUL DUP1 CALLDATASIZE DUP4 CALLDATACOPY DUP1 DUP3 ADD SWAP2 POP POP SWAP1 POP JUMPDEST POP DUP2 PUSH1 0x4 DUP2 MLOAD DUP2 LT PUSH2 0x85C JUMPI PUSH2 0x85B PUSH2 0xF56 JUMP JUMPDEST JUMPDEST PUSH1 0x20 MUL PUSH1 0x20 ADD ADD DUP2 SWAP1 MSTORE POP PUSH1 0x0 DUP2 PUSH1 0x4 DUP2 MLOAD DUP2 LT PUSH2 0x87D JUMPI PUSH2 0x87C PUSH2 0xF56 JUMP JUMPDEST JUMPDEST PUSH1 0x20 MUL PUSH1 0x20 ADD ADD MLOAD PUSH1 0x0 DUP2 MLOAD DUP2 LT PUSH2 0x898 JUMPI PUSH2 0x897 PUSH2 0xF56 JUMP JUMPDEST JUMPDEST PUSH1 0x20 MUL PUSH1 0x20 ADD ADD DUP2 DUP2 MSTORE POP POP PUSH1 0x1 DUP2 PUSH1 0x4 DUP2 MLOAD DUP2 LT PUSH2 0x8BA JUMPI PUSH2 0x8B9 PUSH2 0xF56 JUMP JUMPDEST JUMPDEST PUSH1 0x20 MUL PUSH1 0x20 ADD ADD MLOAD PUSH1 0x1 DUP2 MLOAD DUP2 LT PUSH2 0x8D5 JUMPI PUSH2 0x8D4 PUSH2 0xF56 JUMP JUMPDEST JUMPDEST PUSH1 0x20 MUL PUSH1 0x20 ADD ADD DUP2 DUP2 MSTORE POP POP PUSH1 0x0 DUP2 PUSH1 0x4 DUP2 MLOAD DUP2 LT PUSH2 0x8F7 JUMPI PUSH2 0x8F6 PUSH2 0xF56 JUMP JUMPDEST JUMPDEST PUSH1 0x20 MUL PUSH1 0x20 ADD ADD MLOAD PUSH1 0x2 DUP2 MLOAD DUP2 LT PUSH2 0x912 JUMPI PUSH2 0x911 PUSH2 0xF56 JUMP JUMPDEST JUMPDEST PUSH1 0x20 MUL PUSH1 0x20 ADD ADD DUP2 DUP2 MSTORE POP POP PUSH1 0x1 DUP2 PUSH1 0x4 DUP2 MLOAD DUP2 LT PUSH2 0x934 JUMPI PUSH2 0x933 PUSH2 0xF56 JUMP JUMPDEST JUMPDEST PUSH1 0x20 MUL PUSH1 0x20 ADD ADD MLOAD PUSH1 0x3 DUP2 MLOAD DUP2 LT PUSH2 0x94F JUMPI PUSH2 0x94E PUSH2 0xF56 JUMP JUMPDEST JUMPDEST PUSH1 0x20 MUL PUSH1 0x20 ADD ADD DUP2 DUP2 MSTORE POP POP PUSH1 0x0 DUP2 PUSH1 0x4 DUP2 MLOAD DUP2 LT PUSH2 0x971 JUMPI PUSH2 0x970 PUSH2 0xF56 JUMP JUMPDEST JUMPDEST PUSH1 0x20 MUL PUSH1 0x20 ADD ADD MLOAD PUSH1 0x4 DUP2 MLOAD DUP2 LT PUSH2 0x98C JUMPI PUSH2 0x98B PUSH2 0xF56 JUMP JUMPDEST JUMPDEST PUSH1 0x20 MUL PUSH1 0x20 ADD ADD DUP2 DUP2 MSTORE POP POP PUSH1 0x0 DUP2 PUSH1 0x4 DUP2 MLOAD DUP2 LT PUSH2 0x9AE JUMPI PUSH2 0x9AD PUSH2 0xF56 JUMP JUMPDEST JUMPDEST PUSH1 0x20 MUL PUSH1 0x20 ADD ADD MLOAD PUSH1 0x5 DUP2 MLOAD DUP2 LT PUSH2 0x9C9 JUMPI PUSH2 0x9C8 PUSH2 0xF56 JUMP JUMPDEST JUMPDEST PUSH1 0x20 MUL PUSH1 0x20 ADD ADD DUP2 DUP2 MSTORE POP POP PUSH1 0x6 PUSH8 0xFFFFFFFFFFFFFFFF DUP2 GT ISZERO PUSH2 0x9F0 JUMPI PUSH2 0x9EF PUSH2 0xF27 JUMP JUMPDEST JUMPDEST PUSH1 0x40 MLOAD SWAP1 DUP1 DUP3 MSTORE DUP1 PUSH1 0x20 MUL PUSH1 0x20 ADD DUP3 ADD PUSH1 0x40 MSTORE DUP1 ISZERO PUSH2 0xA1E JUMPI DUP2 PUSH1 0x20 ADD PUSH1 0x20 DUP3 MUL DUP1 CALLDATASIZE DUP4 CALLDATACOPY DUP1 DUP3 ADD SWAP2 POP POP SWAP1 POP JUMPDEST POP DUP2 PUSH1 0x5 DUP2 MLOAD DUP2 LT PUSH2 0xA33 JUMPI PUSH2 0xA32 PUSH2 0xF56 JUMP JUMPDEST JUMPDEST PUSH1 0x20 MUL PUSH1 0x20 ADD ADD DUP2 SWAP1 MSTORE POP PUSH1 0x0 DUP2 PUSH1 0x5 DUP2 MLOAD DUP2 LT PUSH2 0xA54 JUMPI PUSH2 0xA53 PUSH2 0xF56 JUMP JUMPDEST JUMPDEST PUSH1 0x20 MUL PUSH1 0x20 ADD ADD MLOAD PUSH1 0x0 DUP2 MLOAD DUP2 LT PUSH2 0xA6F JUMPI PUSH2 0xA6E PUSH2 0xF56 JUMP JUMPDEST JUMPDEST PUSH1 0x20 MUL PUSH1 0x20 ADD ADD DUP2 DUP2 MSTORE POP POP PUSH1 0x0 DUP2 PUSH1 0x5 DUP2 MLOAD DUP2 LT PUSH2 0xA91 JUMPI PUSH2 0xA90 PUSH2 0xF56 JUMP JUMPDEST JUMPDEST PUSH1 0x20 MUL PUSH1 0x20 ADD ADD MLOAD PUSH1 0x1 DUP2 MLOAD DUP2 LT PUSH2 0xAAC JUMPI PUSH2 0xAAB PUSH2 0xF56 JUMP JUMPDEST JUMPDEST PUSH1 0x20 MUL PUSH1 0x20 ADD ADD DUP2 DUP2 MSTORE POP POP PUSH1 0x1 DUP2 PUSH1 0x5 DUP2 MLOAD DUP2 LT PUSH2 0xACE JUMPI PUSH2 0xACD PUSH2 0xF56 JUMP JUMPDEST JUMPDEST PUSH1 0x20 MUL PUSH1 0x20 ADD ADD MLOAD PUSH1 0x2 DUP2 MLOAD DUP2 LT PUSH2 0xAE9 JUMPI PUSH2 0xAE8 PUSH2 0xF56 JUMP JUMPDEST JUMPDEST PUSH1 0x20 MUL PUSH1 0x20 ADD ADD DUP2 DUP2 MSTORE POP POP PUSH1 0x0 DUP2 PUSH1 0x5 DUP2 MLOAD DUP2 LT PUSH2 0xB0B JUMPI PUSH2 0xB0A PUSH2 0xF56 JUMP JUMPDEST JUMPDEST PUSH1 0x20 MUL PUSH1 0x20 ADD ADD MLOAD PUSH1 0x3 DUP2 MLOAD DUP2 LT PUSH2 0xB26 JUMPI PUSH2 0xB25 PUSH2 0xF56 JUMP JUMPDEST JUMPDEST PUSH1 0x20 MUL PUSH1 0x20 ADD ADD DUP2 DUP2 MSTORE POP POP PUSH1 0x0 DUP2 PUSH1 0x5 DUP2 MLOAD DUP2 LT PUSH2 0xB48 JUMPI PUSH2 0xB47 PUSH2 0xF56 JUMP JUMPDEST JUMPDEST PUSH1 0x20 MUL PUSH1 0x20 ADD ADD MLOAD PUSH1 0x4 DUP2 MLOAD DUP2 LT PUSH2 0xB63 JUMPI PUSH2 0xB62 PUSH2 0xF56 JUMP JUMPDEST JUMPDEST PUSH1 0x20 MUL PUSH1 0x20 ADD ADD DUP2 DUP2 MSTORE POP POP PUSH1 0x0 DUP2 PUSH1 0x5 DUP2 MLOAD DUP2 LT PUSH2 0xB85 JUMPI PUSH2 0xB84 PUSH2 0xF56 JUMP JUMPDEST JUMPDEST PUSH1 0x20 MUL PUSH1 0x20 ADD ADD MLOAD PUSH1 0x5 DUP2 MLOAD DUP2 LT PUSH2 0xBA0 JUMPI PUSH2 0xB9F PUSH2 0xF56 JUMP JUMPDEST JUMPDEST PUSH1 0x20 MUL PUSH1 0x20 ADD ADD DUP2 DUP2 MSTORE POP POP PUSH1 0x0 DUP1 PUSH1 0x5 SWAP1 POP PUSH1 0x0 PUSH1 0x6 SWAP1 POP PUSH2 0xBC5 DUP5 DUP5 DUP5 DUP5 PUSH2 0xBCE JUMP JUMPDEST SWAP5 POP POP POP POP POP SWAP1 JUMP JUMPDEST PUSH1 0x0 DUP1 DUP3 PUSH8 0xFFFFFFFFFFFFFFFF DUP2 GT ISZERO PUSH2 0xBEB JUMPI PUSH2 0xBEA PUSH2 0xF27 JUMP JUMPDEST JUMPDEST PUSH1 0x40 MLOAD SWAP1 DUP1 DUP3 MSTORE DUP1 PUSH1 0x20 MUL PUSH1 0x20 ADD DUP3 ADD PUSH1 0x40 MSTORE DUP1 ISZERO PUSH2 0xC19 JUMPI DUP2 PUSH1 0x20 ADD PUSH1 0x20 DUP3 MUL DUP1 CALLDATASIZE DUP4 CALLDATACOPY DUP1 DUP3 ADD SWAP2 POP POP SWAP1 POP JUMPDEST POP SWAP1 POP PUSH1 0x0 JUMPDEST DUP4 DUP2 LT ISZERO PUSH2 0xC61 JUMPI PUSH1 0x0 DUP3 DUP3 DUP2 MLOAD DUP2 LT PUSH2 0xC3C JUMPI PUSH2 0xC3B PUSH2 0xF56 JUMP JUMPDEST JUMPDEST PUSH1 0x20 MUL PUSH1 0x20 ADD ADD SWAP1 ISZERO ISZERO SWAP1 DUP2 ISZERO ISZERO DUP2 MSTORE POP POP DUP1 DUP1 PUSH2 0xC59 SWAP1 PUSH2 0xFB4 JUMP JUMPDEST SWAP2 POP POP PUSH2 0xC1F JUMP JUMPDEST POP PUSH1 0x1 DUP2 DUP7 DUP2 MLOAD DUP2 LT PUSH2 0xC77 JUMPI PUSH2 0xC76 PUSH2 0xF56 JUMP JUMPDEST JUMPDEST PUSH1 0x20 MUL PUSH1 0x20 ADD ADD SWAP1 ISZERO ISZERO SWAP1 DUP2 ISZERO ISZERO DUP2 MSTORE POP POP PUSH1 0x0 DUP4 PUSH8 0xFFFFFFFFFFFFFFFF DUP2 GT ISZERO PUSH2 0xCA5 JUMPI PUSH2 0xCA4 PUSH2 0xF27 JUMP JUMPDEST JUMPDEST PUSH1 0x40 MLOAD SWAP1 DUP1 DUP3 MSTORE DUP1 PUSH1 0x20 MUL PUSH1 0x20 ADD DUP3 ADD PUSH1 0x40 MSTORE DUP1 ISZERO PUSH2 0xCD3 JUMPI DUP2 PUSH1 0x20 ADD PUSH1 0x20 DUP3 MUL DUP1 CALLDATASIZE DUP4 CALLDATACOPY DUP1 DUP3 ADD SWAP2 POP POP SWAP1 POP JUMPDEST POP SWAP1 POP PUSH1 0x0 DUP1 DUP8 DUP4 DUP3 DUP1 PUSH2 0xCE6 SWAP1 PUSH2 0xFB4 JUMP JUMPDEST SWAP4 POP DUP2 MLOAD DUP2 LT PUSH2 0xCF9 JUMPI PUSH2 0xCF8 PUSH2 0xF56 JUMP JUMPDEST JUMPDEST PUSH1 0x20 MUL PUSH1 0x20 ADD ADD DUP2 DUP2 MSTORE POP POP PUSH1 0x0 JUMPDEST DUP2 DUP4 EQ PUSH2 0xEE1 JUMPI PUSH1 0x0 DUP5 DUP5 DUP1 PUSH2 0xD1D SWAP1 PUSH2 0xFB4 JUMP JUMPDEST SWAP6 POP DUP2 MLOAD DUP2 LT PUSH2 0xD30 JUMPI PUSH2 0xD2F PUSH2 0xF56 JUMP JUMPDEST JUMPDEST PUSH1 0x20 MUL PUSH1 0x20 ADD ADD MLOAD SWAP1 POP DUP2 DUP1 PUSH2 0xD45 SWAP1 PUSH2 0xFB4 JUMP JUMPDEST SWAP3 POP POP PUSH1 0x0 JUMPDEST DUP12 DUP3 DUP2 MLOAD DUP2 LT PUSH2 0xD5E JUMPI PUSH2 0xD5D PUSH2 0xF56 JUMP JUMPDEST JUMPDEST PUSH1 0x20 MUL PUSH1 0x20 ADD ADD MLOAD MLOAD DUP2 LT ISZERO PUSH2 0xEDA JUMPI DUP7 DUP13 DUP4 DUP2 MLOAD DUP2 LT PUSH2 0xD82 JUMPI PUSH2 0xD81 PUSH2 0xF56 JUMP JUMPDEST JUMPDEST PUSH1 0x20 MUL PUSH1 0x20 ADD ADD MLOAD DUP3 DUP2 MLOAD DUP2 LT PUSH2 0xD9C JUMPI PUSH2 0xD9B PUSH2 0xF56 JUMP JUMPDEST JUMPDEST PUSH1 0x20 MUL PUSH1 0x20 ADD ADD MLOAD DUP2 MLOAD DUP2 LT PUSH2 0xDB5 JUMPI PUSH2 0xDB4 PUSH2 0xF56 JUMP JUMPDEST JUMPDEST PUSH1 0x20 MUL PUSH1 0x20 ADD ADD MLOAD PUSH2 0xEC7 JUMPI PUSH1 0x1 DUP8 DUP14 DUP5 DUP2 MLOAD DUP2 LT PUSH2 0xDD7 JUMPI PUSH2 0xDD6 PUSH2 0xF56 JUMP JUMPDEST JUMPDEST PUSH1 0x20 MUL PUSH1 0x20 ADD ADD MLOAD DUP4 DUP2 MLOAD DUP2 LT PUSH2 0xDF1 JUMPI PUSH2 0xDF0 PUSH2 0xF56 JUMP JUMPDEST JUMPDEST PUSH1 0x20 MUL PUSH1 0x20 ADD ADD MLOAD DUP2 MLOAD DUP2 LT PUSH2 0xE0A JUMPI PUSH2 0xE09 PUSH2 0xF56 JUMP JUMPDEST JUMPDEST PUSH1 0x20 MUL PUSH1 0x20 ADD ADD SWAP1 ISZERO ISZERO SWAP1 DUP2 ISZERO ISZERO DUP2 MSTORE POP POP DUP12 DUP3 DUP2 MLOAD DUP2 LT PUSH2 0xE2F JUMPI PUSH2 0xE2E PUSH2 0xF56 JUMP JUMPDEST JUMPDEST PUSH1 0x20 MUL PUSH1 0x20 ADD ADD MLOAD DUP2 DUP2 MLOAD DUP2 LT PUSH2 0xE49 JUMPI PUSH2 0xE48 PUSH2 0xF56 JUMP JUMPDEST JUMPDEST PUSH1 0x20 MUL PUSH1 0x20 ADD ADD MLOAD DUP7 DUP6 DUP1 PUSH2 0xE5D SWAP1 PUSH2 0xFB4 JUMP JUMPDEST SWAP7 POP DUP2 MLOAD DUP2 LT PUSH2 0xE70 JUMPI PUSH2 0xE6F PUSH2 0xF56 JUMP JUMPDEST JUMPDEST PUSH1 0x20 MUL PUSH1 0x20 ADD ADD DUP2 DUP2 MSTORE POP POP DUP10 DUP13 DUP4 DUP2 MLOAD DUP2 LT PUSH2 0xE90 JUMPI PUSH2 0xE8F PUSH2 0xF56 JUMP JUMPDEST JUMPDEST PUSH1 0x20 MUL PUSH1 0x20 ADD ADD MLOAD DUP3 DUP2 MLOAD DUP2 LT PUSH2 0xEAA JUMPI PUSH2 0xEA9 PUSH2 0xF56 JUMP JUMPDEST JUMPDEST PUSH1 0x20 MUL PUSH1 0x20 ADD ADD MLOAD SUB PUSH2 0xEC6 JUMPI DUP3 SWAP8 POP POP POP POP POP POP POP POP PUSH2 0xEEB JUMP JUMPDEST JUMPDEST DUP1 DUP1 PUSH2 0xED2 SWAP1 PUSH2 0xFB4 JUMP JUMPDEST SWAP2 POP POP PUSH2 0xD4B JUMP JUMPDEST POP POP PUSH2 0xD08 JUMP JUMPDEST PUSH1 0x0 SWAP6 POP POP POP POP POP POP JUMPDEST SWAP5 SWAP4 POP POP POP POP JUMP JUMPDEST PUSH1 0x0 DUP2 SWAP1 POP SWAP2 SWAP1 POP JUMP JUMPDEST PUSH2 0xF06 DUP2 PUSH2 0xEF3 JUMP JUMPDEST DUP3 MSTORE POP POP JUMP JUMPDEST PUSH1 0x0 PUSH1 0x20 DUP3 ADD SWAP1 POP PUSH2 0xF21 PUSH1 0x0 DUP4 ADD DUP5 PUSH2 0xEFD JUMP JUMPDEST SWAP3 SWAP2 POP POP JUMP JUMPDEST PUSH32 0x4E487B7100000000000000000000000000000000000000000000000000000000 PUSH1 0x0 MSTORE PUSH1 0x41 PUSH1 0x4 MSTORE PUSH1 0x24 PUSH1 0x0 REVERT JUMPDEST PUSH32 0x4E487B7100000000000000000000000000000000000000000000000000000000 PUSH1 0x0 MSTORE PUSH1 0x32 PUSH1 0x4 MSTORE PUSH1 0x24 PUSH1 0x0 REVERT JUMPDEST PUSH32 0x4E487B7100000000000000000000000000000000000000000000000000000000 PUSH1 0x0 MSTORE PUSH1 0x11 PUSH1 0x4 MSTORE PUSH1 0x24 PUSH1 0x0 REVERT JUMPDEST PUSH1 0x0 PUSH2 0xFBF DUP3 PUSH2 0xEF3 JUMP JUMPDEST SWAP2 POP PUSH32 0xFFFFFFFFFFFFFFFFFFFFFFFFFFFFFFFFFFFFFFFFFFFFFFFFFFFFFFFFFFFFFFFF DUP3 SUB PUSH2 0xFF1 JUMPI PUSH2 0xFF0 PUSH2 0xF85 JUMP JUMPDEST JUMPDEST PUSH1 0x1 DUP3 ADD SWAP1 POP SWAP2 SWAP1 POP JUMP INVALID LOG2 PUSH5 0x6970667358 0x22 SLT KECCAK256 SWAP16 CALLDATASIZE 0x4D 0xAE 0xD2 PUSH28 0xCDE4B3308BDD575B2433724FEF0822055248518685DC55F177B36473 PUSH16 0x6C634300081200330000000000000000 "
				},
				"gasEstimates": {
					"creation": {
						"codeDepositCost": "829200",
						"executionCost": "864",
						"totalCost": "830064"
					},
					"external": {
						"getShortestPath()": "infinite"
					},
					"internal": {
						"BFS(uint256[] memory[] memory,uint256,uint256,uint256)": "infinite"
					}
				},
				"methodIdentifiers": {
					"getShortestPath()": "8f9b7d7a"
				}
			},
			"storageLayout": {
				"storage": [],
				"types": null
			},
			"userdoc": {
				"kind": "user",
				"methods": {},
				"version": 1
			}
		}
	}
}