{
	"contracts/posterior_probability_cal.sol": {
		"PosteriorProbabilityCalculator": {
			"abi": [
				{
					"inputs": [
						{
							"internalType": "int256",
							"name": "P_e",
							"type": "int256"
						},
						{
							"internalType": "int256[]",
							"name": "credibilityScores",
							"type": "int256[]"
						},
						{
							"internalType": "bool",
							"name": "eventOccurred",
							"type": "bool"
						}
					],
					"name": "calculatePosteriorProbability",
					"outputs": [
						{
							"internalType": "int256",
							"name": "",
							"type": "int256"
						}
					],
					"stateMutability": "pure",
					"type": "function"
				}
			],
			"devdoc": {
				"kind": "dev",
				"methods": {},
				"version": 1
			},
			"evm": {
				"assembly": "    /* \"contracts/posterior_probability_cal.sol\":65:975  contract PosteriorProbabilityCalculator {... */\n  mstore(0x40, 0x80)\n    /* \"contracts/posterior_probability_cal.sol\":125:128  100 */\n  0x64\n    /* \"contracts/posterior_probability_cal.sol\":111:128  int PADDING = 100 */\n  0x00\n  sstore\n    /* \"contracts/posterior_probability_cal.sol\":65:975  contract PosteriorProbabilityCalculator {... */\n  callvalue\n  dup1\n  iszero\n  tag_1\n  jumpi\n  0x00\n  dup1\n  revert\ntag_1:\n  pop\n  dataSize(sub_0)\n  dup1\n  dataOffset(sub_0)\n  0x00\n  codecopy\n  0x00\n  return\nstop\n\nsub_0: assembly {\n        /* \"contracts/posterior_probability_cal.sol\":65:975  contract PosteriorProbabilityCalculator {... */\n      mstore(0x40, 0x80)\n      callvalue\n      dup1\n      iszero\n      tag_1\n      jumpi\n      0x00\n      dup1\n      revert\n    tag_1:\n      pop\n      jumpi(tag_2, lt(calldatasize, 0x04))\n      shr(0xe0, calldataload(0x00))\n      dup1\n      0x6d99cc9c\n      eq\n      tag_3\n      jumpi\n    tag_2:\n      0x00\n      dup1\n      revert\n        /* \"contracts/posterior_probability_cal.sol\":136:973  function calculatePosteriorProbability(int P_e, int[] memory credibilityScores, bool eventOccurred) public pure returns (int) {... */\n    tag_3:\n      tag_4\n      0x04\n      dup1\n      calldatasize\n      sub\n      dup2\n      add\n      swap1\n      tag_5\n      swap2\n      swap1\n      tag_6\n      jump\t// in\n    tag_5:\n      tag_7\n      jump\t// in\n    tag_4:\n      mload(0x40)\n      tag_8\n      swap2\n      swap1\n      tag_9\n      jump\t// in\n    tag_8:\n      mload(0x40)\n      dup1\n      swap2\n      sub\n      swap1\n      return\n    tag_7:\n        /* \"contracts/posterior_probability_cal.sol\":257:260  int */\n      0x00\n        /* \"contracts/posterior_probability_cal.sol\":272:285  int numerator */\n      dup1\n        /* \"contracts/posterior_probability_cal.sol\":288:289  1 */\n      0x01\n        /* \"contracts/posterior_probability_cal.sol\":272:289  int numerator = 1 */\n      swap1\n      pop\n        /* \"contracts/posterior_probability_cal.sol\":300:315  int denominator */\n      0x00\n        /* \"contracts/posterior_probability_cal.sol\":318:319  1 */\n      0x01\n        /* \"contracts/posterior_probability_cal.sol\":300:319  int denominator = 1 */\n      swap1\n      pop\n        /* \"contracts/posterior_probability_cal.sol\":343:349  uint i */\n      0x00\n        /* \"contracts/posterior_probability_cal.sol\":338:843  for (uint i = 0; i < credibilityScores.length; i++) {... */\n    tag_11:\n        /* \"contracts/posterior_probability_cal.sol\":359:376  credibilityScores */\n      dup6\n        /* \"contracts/posterior_probability_cal.sol\":359:383  credibilityScores.length */\n      mload\n        /* \"contracts/posterior_probability_cal.sol\":355:356  i */\n      dup2\n        /* \"contracts/posterior_probability_cal.sol\":355:383  i < credibilityScores.length */\n      lt\n        /* \"contracts/posterior_probability_cal.sol\":338:843  for (uint i = 0; i < credibilityScores.length; i++) {... */\n      iszero\n      tag_12\n      jumpi\n        /* \"contracts/posterior_probability_cal.sol\":408:421  eventOccurred */\n      dup5\n        /* \"contracts/posterior_probability_cal.sol\":404:833  if (eventOccurred) {... */\n      iszero\n      tag_14\n      jumpi\n        /* \"contracts/posterior_probability_cal.sol\":460:477  credibilityScores */\n      dup6\n        /* \"contracts/posterior_probability_cal.sol\":478:479  i */\n      dup2\n        /* \"contracts/posterior_probability_cal.sol\":460:480  credibilityScores[i] */\n      dup2\n      mload\n      dup2\n      lt\n      tag_15\n      jumpi\n      tag_16\n      tag_17\n      jump\t// in\n    tag_16:\n    tag_15:\n      0x20\n      mul\n      0x20\n      add\n      add\n      mload\n        /* \"contracts/posterior_probability_cal.sol\":454:457  P_e */\n      dup8\n        /* \"contracts/posterior_probability_cal.sol\":454:480  P_e * credibilityScores[i] */\n      tag_18\n      swap2\n      swap1\n      tag_19\n      jump\t// in\n    tag_18:\n        /* \"contracts/posterior_probability_cal.sol\":441:480  numerator *= P_e * credibilityScores[i] */\n      dup4\n      tag_20\n      swap2\n      swap1\n      tag_19\n      jump\t// in\n    tag_20:\n      swap3\n      pop\n        /* \"contracts/posterior_probability_cal.sol\":519:536  credibilityScores */\n      dup6\n        /* \"contracts/posterior_probability_cal.sol\":537:538  i */\n      dup2\n        /* \"contracts/posterior_probability_cal.sol\":519:539  credibilityScores[i] */\n      dup2\n      mload\n      dup2\n      lt\n      tag_21\n      jumpi\n      tag_22\n      tag_17\n      jump\t// in\n    tag_22:\n    tag_21:\n      0x20\n      mul\n      0x20\n      add\n      add\n      mload\n        /* \"contracts/posterior_probability_cal.sol\":513:516  P_e */\n      dup8\n        /* \"contracts/posterior_probability_cal.sol\":513:539  P_e * credibilityScores[i] */\n      tag_23\n      swap2\n      swap1\n      tag_19\n      jump\t// in\n    tag_23:\n        /* \"contracts/posterior_probability_cal.sol\":498:539  denominator *= P_e * credibilityScores[i] */\n      dup3\n      tag_24\n      swap2\n      swap1\n      tag_19\n      jump\t// in\n    tag_24:\n      swap2\n      pop\n        /* \"contracts/posterior_probability_cal.sol\":585:602  credibilityScores */\n      dup6\n        /* \"contracts/posterior_probability_cal.sol\":603:604  i */\n      dup2\n        /* \"contracts/posterior_probability_cal.sol\":585:605  credibilityScores[i] */\n      dup2\n      mload\n      dup2\n      lt\n      tag_25\n      jumpi\n      tag_26\n      tag_17\n      jump\t// in\n    tag_26:\n    tag_25:\n      0x20\n      mul\n      0x20\n      add\n      add\n      mload\n        /* \"contracts/posterior_probability_cal.sol\":579:582  1.0 */\n      0x01\n        /* \"contracts/posterior_probability_cal.sol\":579:605  1.0 - credibilityScores[i] */\n      tag_27\n      swap2\n      swap1\n      tag_28\n      jump\t// in\n    tag_27:\n        /* \"contracts/posterior_probability_cal.sol\":572:575  P_e */\n      dup8\n        /* \"contracts/posterior_probability_cal.sol\":572:606  P_e * (1.0 - credibilityScores[i]) */\n      tag_29\n      swap2\n      swap1\n      tag_19\n      jump\t// in\n    tag_29:\n        /* \"contracts/posterior_probability_cal.sol\":557:606  denominator += P_e * (1.0 - credibilityScores[i]) */\n      dup3\n      tag_30\n      swap2\n      swap1\n      tag_31\n      jump\t// in\n    tag_30:\n      swap2\n      pop\n        /* \"contracts/posterior_probability_cal.sol\":404:833  if (eventOccurred) {... */\n      jump(tag_32)\n    tag_14:\n        /* \"contracts/posterior_probability_cal.sol\":671:688  credibilityScores */\n      dup6\n        /* \"contracts/posterior_probability_cal.sol\":689:690  i */\n      dup2\n        /* \"contracts/posterior_probability_cal.sol\":671:691  credibilityScores[i] */\n      dup2\n      mload\n      dup2\n      lt\n      tag_33\n      jumpi\n      tag_34\n      tag_17\n      jump\t// in\n    tag_34:\n    tag_33:\n      0x20\n      mul\n      0x20\n      add\n      add\n      mload\n        /* \"contracts/posterior_probability_cal.sol\":665:668  1.0 */\n      0x01\n        /* \"contracts/posterior_probability_cal.sol\":665:691  1.0 - credibilityScores[i] */\n      tag_35\n      swap2\n      swap1\n      tag_28\n      jump\t// in\n    tag_35:\n        /* \"contracts/posterior_probability_cal.sol\":658:661  P_e */\n      dup8\n        /* \"contracts/posterior_probability_cal.sol\":658:692  P_e * (1.0 - credibilityScores[i]) */\n      tag_36\n      swap2\n      swap1\n      tag_19\n      jump\t// in\n    tag_36:\n        /* \"contracts/posterior_probability_cal.sol\":645:692  numerator *= P_e * (1.0 - credibilityScores[i]) */\n      dup4\n      tag_37\n      swap2\n      swap1\n      tag_19\n      jump\t// in\n    tag_37:\n      swap3\n      pop\n        /* \"contracts/posterior_probability_cal.sol\":738:755  credibilityScores */\n      dup6\n        /* \"contracts/posterior_probability_cal.sol\":756:757  i */\n      dup2\n        /* \"contracts/posterior_probability_cal.sol\":738:758  credibilityScores[i] */\n      dup2\n      mload\n      dup2\n      lt\n      tag_38\n      jumpi\n      tag_39\n      tag_17\n      jump\t// in\n    tag_39:\n    tag_38:\n      0x20\n      mul\n      0x20\n      add\n      add\n      mload\n        /* \"contracts/posterior_probability_cal.sol\":732:735  1.0 */\n      0x01\n        /* \"contracts/posterior_probability_cal.sol\":732:758  1.0 - credibilityScores[i] */\n      tag_40\n      swap2\n      swap1\n      tag_28\n      jump\t// in\n    tag_40:\n        /* \"contracts/posterior_probability_cal.sol\":725:728  P_e */\n      dup8\n        /* \"contracts/posterior_probability_cal.sol\":725:759  P_e * (1.0 - credibilityScores[i]) */\n      tag_41\n      swap2\n      swap1\n      tag_19\n      jump\t// in\n    tag_41:\n        /* \"contracts/posterior_probability_cal.sol\":710:759  denominator *= P_e * (1.0 - credibilityScores[i]) */\n      dup3\n      tag_42\n      swap2\n      swap1\n      tag_19\n      jump\t// in\n    tag_42:\n      swap2\n      pop\n        /* \"contracts/posterior_probability_cal.sol\":798:815  credibilityScores */\n      dup6\n        /* \"contracts/posterior_probability_cal.sol\":816:817  i */\n      dup2\n        /* \"contracts/posterior_probability_cal.sol\":798:818  credibilityScores[i] */\n      dup2\n      mload\n      dup2\n      lt\n      tag_43\n      jumpi\n      tag_44\n      tag_17\n      jump\t// in\n    tag_44:\n    tag_43:\n      0x20\n      mul\n      0x20\n      add\n      add\n      mload\n        /* \"contracts/posterior_probability_cal.sol\":792:795  P_e */\n      dup8\n        /* \"contracts/posterior_probability_cal.sol\":792:818  P_e * credibilityScores[i] */\n      tag_45\n      swap2\n      swap1\n      tag_19\n      jump\t// in\n    tag_45:\n        /* \"contracts/posterior_probability_cal.sol\":777:818  denominator += P_e * credibilityScores[i] */\n      dup3\n      tag_46\n      swap2\n      swap1\n      tag_31\n      jump\t// in\n    tag_46:\n      swap2\n      pop\n        /* \"contracts/posterior_probability_cal.sol\":404:833  if (eventOccurred) {... */\n    tag_32:\n        /* \"contracts/posterior_probability_cal.sol\":385:388  i++ */\n      dup1\n      dup1\n      tag_47\n      swap1\n      tag_48\n      jump\t// in\n    tag_47:\n      swap2\n      pop\n      pop\n        /* \"contracts/posterior_probability_cal.sol\":338:843  for (uint i = 0; i < credibilityScores.length; i++) {... */\n      jump(tag_11)\n    tag_12:\n      pop\n        /* \"contracts/posterior_probability_cal.sol\":861:885  int posteriorProbability */\n      0x00\n        /* \"contracts/posterior_probability_cal.sol\":909:920  denominator */\n      dup2\n        /* \"contracts/posterior_probability_cal.sol\":900:906  10**18 */\n      0x0de0b6b3a7640000\n        /* \"contracts/posterior_probability_cal.sol\":888:897  numerator */\n      dup5\n        /* \"contracts/posterior_probability_cal.sol\":888:906  numerator * 10**18 */\n      tag_49\n      swap2\n      swap1\n      tag_19\n      jump\t// in\n    tag_49:\n        /* \"contracts/posterior_probability_cal.sol\":888:920  numerator * 10**18 / denominator */\n      tag_50\n      swap2\n      swap1\n      tag_51\n      jump\t// in\n    tag_50:\n        /* \"contracts/posterior_probability_cal.sol\":861:920  int posteriorProbability = numerator * 10**18 / denominator */\n      swap1\n      pop\n        /* \"contracts/posterior_probability_cal.sol\":946:966  posteriorProbability */\n      dup1\n        /* \"contracts/posterior_probability_cal.sol\":939:966  return posteriorProbability */\n      swap4\n      pop\n      pop\n      pop\n      pop\n        /* \"contracts/posterior_probability_cal.sol\":136:973  function calculatePosteriorProbability(int P_e, int[] memory credibilityScores, bool eventOccurred) public pure returns (int) {... */\n      swap4\n      swap3\n      pop\n      pop\n      pop\n      jump\t// out\n        /* \"#utility.yul\":7:82   */\n    tag_52:\n        /* \"#utility.yul\":40:46   */\n      0x00\n        /* \"#utility.yul\":73:75   */\n      0x40\n        /* \"#utility.yul\":67:76   */\n      mload\n        /* \"#utility.yul\":57:76   */\n      swap1\n      pop\n        /* \"#utility.yul\":7:82   */\n      swap1\n      jump\t// out\n        /* \"#utility.yul\":88:205   */\n    tag_53:\n        /* \"#utility.yul\":197:198   */\n      0x00\n        /* \"#utility.yul\":194:195   */\n      dup1\n        /* \"#utility.yul\":187:199   */\n      revert\n        /* \"#utility.yul\":211:328   */\n    tag_54:\n        /* \"#utility.yul\":320:321   */\n      0x00\n        /* \"#utility.yul\":317:318   */\n      dup1\n        /* \"#utility.yul\":310:322   */\n      revert\n        /* \"#utility.yul\":334:410   */\n    tag_55:\n        /* \"#utility.yul\":370:377   */\n      0x00\n        /* \"#utility.yul\":399:404   */\n      dup2\n        /* \"#utility.yul\":388:404   */\n      swap1\n      pop\n        /* \"#utility.yul\":334:410   */\n      swap2\n      swap1\n      pop\n      jump\t// out\n        /* \"#utility.yul\":416:536   */\n    tag_56:\n        /* \"#utility.yul\":488:511   */\n      tag_80\n        /* \"#utility.yul\":505:510   */\n      dup2\n        /* \"#utility.yul\":488:511   */\n      tag_55\n      jump\t// in\n    tag_80:\n        /* \"#utility.yul\":481:486   */\n      dup2\n        /* \"#utility.yul\":478:512   */\n      eq\n        /* \"#utility.yul\":468:530   */\n      tag_81\n      jumpi\n        /* \"#utility.yul\":526:527   */\n      0x00\n        /* \"#utility.yul\":523:524   */\n      dup1\n        /* \"#utility.yul\":516:528   */\n      revert\n        /* \"#utility.yul\":468:530   */\n    tag_81:\n        /* \"#utility.yul\":416:536   */\n      pop\n      jump\t// out\n        /* \"#utility.yul\":542:679   */\n    tag_57:\n        /* \"#utility.yul\":587:592   */\n      0x00\n        /* \"#utility.yul\":625:631   */\n      dup2\n        /* \"#utility.yul\":612:632   */\n      calldataload\n        /* \"#utility.yul\":603:632   */\n      swap1\n      pop\n        /* \"#utility.yul\":641:673   */\n      tag_83\n        /* \"#utility.yul\":667:672   */\n      dup2\n        /* \"#utility.yul\":641:673   */\n      tag_56\n      jump\t// in\n    tag_83:\n        /* \"#utility.yul\":542:679   */\n      swap3\n      swap2\n      pop\n      pop\n      jump\t// out\n        /* \"#utility.yul\":685:802   */\n    tag_58:\n        /* \"#utility.yul\":794:795   */\n      0x00\n        /* \"#utility.yul\":791:792   */\n      dup1\n        /* \"#utility.yul\":784:796   */\n      revert\n        /* \"#utility.yul\":808:910   */\n    tag_59:\n        /* \"#utility.yul\":849:855   */\n      0x00\n        /* \"#utility.yul\":900:902   */\n      0x1f\n        /* \"#utility.yul\":896:903   */\n      not\n        /* \"#utility.yul\":891:893   */\n      0x1f\n        /* \"#utility.yul\":884:889   */\n      dup4\n        /* \"#utility.yul\":880:894   */\n      add\n        /* \"#utility.yul\":876:904   */\n      and\n        /* \"#utility.yul\":866:904   */\n      swap1\n      pop\n        /* \"#utility.yul\":808:910   */\n      swap2\n      swap1\n      pop\n      jump\t// out\n        /* \"#utility.yul\":916:1096   */\n    tag_60:\n        /* \"#utility.yul\":964:1041   */\n      0x4e487b7100000000000000000000000000000000000000000000000000000000\n        /* \"#utility.yul\":961:962   */\n      0x00\n        /* \"#utility.yul\":954:1042   */\n      mstore\n        /* \"#utility.yul\":1061:1065   */\n      0x41\n        /* \"#utility.yul\":1058:1059   */\n      0x04\n        /* \"#utility.yul\":1051:1066   */\n      mstore\n        /* \"#utility.yul\":1085:1089   */\n      0x24\n        /* \"#utility.yul\":1082:1083   */\n      0x00\n        /* \"#utility.yul\":1075:1090   */\n      revert\n        /* \"#utility.yul\":1102:1383   */\n    tag_61:\n        /* \"#utility.yul\":1185:1212   */\n      tag_88\n        /* \"#utility.yul\":1207:1211   */\n      dup3\n        /* \"#utility.yul\":1185:1212   */\n      tag_59\n      jump\t// in\n    tag_88:\n        /* \"#utility.yul\":1177:1183   */\n      dup2\n        /* \"#utility.yul\":1173:1213   */\n      add\n        /* \"#utility.yul\":1315:1321   */\n      dup2\n        /* \"#utility.yul\":1303:1313   */\n      dup2\n        /* \"#utility.yul\":1300:1322   */\n      lt\n        /* \"#utility.yul\":1279:1297   */\n      0xffffffffffffffff\n        /* \"#utility.yul\":1267:1277   */\n      dup3\n        /* \"#utility.yul\":1264:1298   */\n      gt\n        /* \"#utility.yul\":1261:1323   */\n      or\n        /* \"#utility.yul\":1258:1346   */\n      iszero\n      tag_89\n      jumpi\n        /* \"#utility.yul\":1326:1344   */\n      tag_90\n      tag_60\n      jump\t// in\n    tag_90:\n        /* \"#utility.yul\":1258:1346   */\n    tag_89:\n        /* \"#utility.yul\":1366:1376   */\n      dup1\n        /* \"#utility.yul\":1362:1364   */\n      0x40\n        /* \"#utility.yul\":1355:1377   */\n      mstore\n        /* \"#utility.yul\":1145:1383   */\n      pop\n        /* \"#utility.yul\":1102:1383   */\n      pop\n      pop\n      jump\t// out\n        /* \"#utility.yul\":1389:1518   */\n    tag_62:\n        /* \"#utility.yul\":1423:1429   */\n      0x00\n        /* \"#utility.yul\":1450:1470   */\n      tag_92\n      tag_52\n      jump\t// in\n    tag_92:\n        /* \"#utility.yul\":1440:1470   */\n      swap1\n      pop\n        /* \"#utility.yul\":1479:1512   */\n      tag_93\n        /* \"#utility.yul\":1507:1511   */\n      dup3\n        /* \"#utility.yul\":1499:1505   */\n      dup3\n        /* \"#utility.yul\":1479:1512   */\n      tag_61\n      jump\t// in\n    tag_93:\n        /* \"#utility.yul\":1389:1518   */\n      swap2\n      swap1\n      pop\n      jump\t// out\n        /* \"#utility.yul\":1524:1834   */\n    tag_63:\n        /* \"#utility.yul\":1600:1604   */\n      0x00\n        /* \"#utility.yul\":1690:1708   */\n      0xffffffffffffffff\n        /* \"#utility.yul\":1682:1688   */\n      dup3\n        /* \"#utility.yul\":1679:1709   */\n      gt\n        /* \"#utility.yul\":1676:1732   */\n      iszero\n      tag_95\n      jumpi\n        /* \"#utility.yul\":1712:1730   */\n      tag_96\n      tag_60\n      jump\t// in\n    tag_96:\n        /* \"#utility.yul\":1676:1732   */\n    tag_95:\n        /* \"#utility.yul\":1762:1766   */\n      0x20\n        /* \"#utility.yul\":1754:1760   */\n      dup3\n        /* \"#utility.yul\":1750:1767   */\n      mul\n        /* \"#utility.yul\":1742:1767   */\n      swap1\n      pop\n        /* \"#utility.yul\":1822:1826   */\n      0x20\n        /* \"#utility.yul\":1816:1820   */\n      dup2\n        /* \"#utility.yul\":1812:1827   */\n      add\n        /* \"#utility.yul\":1804:1827   */\n      swap1\n      pop\n        /* \"#utility.yul\":1524:1834   */\n      swap2\n      swap1\n      pop\n      jump\t// out\n        /* \"#utility.yul\":1840:1957   */\n    tag_64:\n        /* \"#utility.yul\":1949:1950   */\n      0x00\n        /* \"#utility.yul\":1946:1947   */\n      dup1\n        /* \"#utility.yul\":1939:1951   */\n      revert\n        /* \"#utility.yul\":1979:2686   */\n    tag_65:\n        /* \"#utility.yul\":2074:2079   */\n      0x00\n        /* \"#utility.yul\":2099:2179   */\n      tag_99\n        /* \"#utility.yul\":2115:2178   */\n      tag_100\n        /* \"#utility.yul\":2171:2177   */\n      dup5\n        /* \"#utility.yul\":2115:2178   */\n      tag_63\n      jump\t// in\n    tag_100:\n        /* \"#utility.yul\":2099:2179   */\n      tag_62\n      jump\t// in\n    tag_99:\n        /* \"#utility.yul\":2090:2179   */\n      swap1\n      pop\n        /* \"#utility.yul\":2199:2204   */\n      dup1\n        /* \"#utility.yul\":2228:2234   */\n      dup4\n        /* \"#utility.yul\":2221:2226   */\n      dup3\n        /* \"#utility.yul\":2214:2235   */\n      mstore\n        /* \"#utility.yul\":2262:2266   */\n      0x20\n        /* \"#utility.yul\":2255:2260   */\n      dup3\n        /* \"#utility.yul\":2251:2267   */\n      add\n        /* \"#utility.yul\":2244:2267   */\n      swap1\n      pop\n        /* \"#utility.yul\":2315:2319   */\n      0x20\n        /* \"#utility.yul\":2307:2313   */\n      dup5\n        /* \"#utility.yul\":2303:2320   */\n      mul\n        /* \"#utility.yul\":2295:2301   */\n      dup4\n        /* \"#utility.yul\":2291:2321   */\n      add\n        /* \"#utility.yul\":2344:2347   */\n      dup6\n        /* \"#utility.yul\":2336:2342   */\n      dup2\n        /* \"#utility.yul\":2333:2348   */\n      gt\n        /* \"#utility.yul\":2330:2452   */\n      iszero\n      tag_101\n      jumpi\n        /* \"#utility.yul\":2363:2442   */\n      tag_102\n      tag_64\n      jump\t// in\n    tag_102:\n        /* \"#utility.yul\":2330:2452   */\n    tag_101:\n        /* \"#utility.yul\":2478:2484   */\n      dup4\n        /* \"#utility.yul\":2461:2680   */\n    tag_103:\n        /* \"#utility.yul\":2495:2501   */\n      dup2\n        /* \"#utility.yul\":2490:2493   */\n      dup2\n        /* \"#utility.yul\":2487:2502   */\n      lt\n        /* \"#utility.yul\":2461:2680   */\n      iszero\n      tag_105\n      jumpi\n        /* \"#utility.yul\":2570:2573   */\n      dup1\n        /* \"#utility.yul\":2599:2635   */\n      tag_106\n        /* \"#utility.yul\":2631:2634   */\n      dup9\n        /* \"#utility.yul\":2619:2629   */\n      dup3\n        /* \"#utility.yul\":2599:2635   */\n      tag_57\n      jump\t// in\n    tag_106:\n        /* \"#utility.yul\":2594:2597   */\n      dup5\n        /* \"#utility.yul\":2587:2636   */\n      mstore\n        /* \"#utility.yul\":2665:2669   */\n      0x20\n        /* \"#utility.yul\":2660:2663   */\n      dup5\n        /* \"#utility.yul\":2656:2670   */\n      add\n        /* \"#utility.yul\":2649:2670   */\n      swap4\n      pop\n        /* \"#utility.yul\":2537:2680   */\n      pop\n        /* \"#utility.yul\":2521:2525   */\n      0x20\n        /* \"#utility.yul\":2516:2519   */\n      dup2\n        /* \"#utility.yul\":2512:2526   */\n      add\n        /* \"#utility.yul\":2505:2526   */\n      swap1\n      pop\n        /* \"#utility.yul\":2461:2680   */\n      jump(tag_103)\n    tag_105:\n        /* \"#utility.yul\":2465:2486   */\n      pop\n        /* \"#utility.yul\":2080:2686   */\n      pop\n      pop\n        /* \"#utility.yul\":1979:2686   */\n      swap4\n      swap3\n      pop\n      pop\n      pop\n      jump\t// out\n        /* \"#utility.yul\":2708:3076   */\n    tag_66:\n        /* \"#utility.yul\":2778:2783   */\n      0x00\n        /* \"#utility.yul\":2827:2830   */\n      dup3\n        /* \"#utility.yul\":2820:2824   */\n      0x1f\n        /* \"#utility.yul\":2812:2818   */\n      dup4\n        /* \"#utility.yul\":2808:2825   */\n      add\n        /* \"#utility.yul\":2804:2831   */\n      slt\n        /* \"#utility.yul\":2794:2916   */\n      tag_108\n      jumpi\n        /* \"#utility.yul\":2835:2914   */\n      tag_109\n      tag_58\n      jump\t// in\n    tag_109:\n        /* \"#utility.yul\":2794:2916   */\n    tag_108:\n        /* \"#utility.yul\":2952:2958   */\n      dup2\n        /* \"#utility.yul\":2939:2959   */\n      calldataload\n        /* \"#utility.yul\":2977:3070   */\n      tag_110\n        /* \"#utility.yul\":3066:3069   */\n      dup5\n        /* \"#utility.yul\":3058:3064   */\n      dup3\n        /* \"#utility.yul\":3051:3055   */\n      0x20\n        /* \"#utility.yul\":3043:3049   */\n      dup7\n        /* \"#utility.yul\":3039:3056   */\n      add\n        /* \"#utility.yul\":2977:3070   */\n      tag_65\n      jump\t// in\n    tag_110:\n        /* \"#utility.yul\":2968:3070   */\n      swap2\n      pop\n        /* \"#utility.yul\":2784:3076   */\n      pop\n        /* \"#utility.yul\":2708:3076   */\n      swap3\n      swap2\n      pop\n      pop\n      jump\t// out\n        /* \"#utility.yul\":3082:3172   */\n    tag_67:\n        /* \"#utility.yul\":3116:3123   */\n      0x00\n        /* \"#utility.yul\":3159:3164   */\n      dup2\n        /* \"#utility.yul\":3152:3165   */\n      iszero\n        /* \"#utility.yul\":3145:3166   */\n      iszero\n        /* \"#utility.yul\":3134:3166   */\n      swap1\n      pop\n        /* \"#utility.yul\":3082:3172   */\n      swap2\n      swap1\n      pop\n      jump\t// out\n        /* \"#utility.yul\":3178:3294   */\n    tag_68:\n        /* \"#utility.yul\":3248:3269   */\n      tag_113\n        /* \"#utility.yul\":3263:3268   */\n      dup2\n        /* \"#utility.yul\":3248:3269   */\n      tag_67\n      jump\t// in\n    tag_113:\n        /* \"#utility.yul\":3241:3246   */\n      dup2\n        /* \"#utility.yul\":3238:3270   */\n      eq\n        /* \"#utility.yul\":3228:3288   */\n      tag_114\n      jumpi\n        /* \"#utility.yul\":3284:3285   */\n      0x00\n        /* \"#utility.yul\":3281:3282   */\n      dup1\n        /* \"#utility.yul\":3274:3286   */\n      revert\n        /* \"#utility.yul\":3228:3288   */\n    tag_114:\n        /* \"#utility.yul\":3178:3294   */\n      pop\n      jump\t// out\n        /* \"#utility.yul\":3300:3433   */\n    tag_69:\n        /* \"#utility.yul\":3343:3348   */\n      0x00\n        /* \"#utility.yul\":3381:3387   */\n      dup2\n        /* \"#utility.yul\":3368:3388   */\n      calldataload\n        /* \"#utility.yul\":3359:3388   */\n      swap1\n      pop\n        /* \"#utility.yul\":3397:3427   */\n      tag_116\n        /* \"#utility.yul\":3421:3426   */\n      dup2\n        /* \"#utility.yul\":3397:3427   */\n      tag_68\n      jump\t// in\n    tag_116:\n        /* \"#utility.yul\":3300:3433   */\n      swap3\n      swap2\n      pop\n      pop\n      jump\t// out\n        /* \"#utility.yul\":3439:4258   */\n    tag_6:\n        /* \"#utility.yul\":3536:3542   */\n      0x00\n        /* \"#utility.yul\":3544:3550   */\n      dup1\n        /* \"#utility.yul\":3552:3558   */\n      0x00\n        /* \"#utility.yul\":3601:3603   */\n      0x60\n        /* \"#utility.yul\":3589:3598   */\n      dup5\n        /* \"#utility.yul\":3580:3587   */\n      dup7\n        /* \"#utility.yul\":3576:3599   */\n      sub\n        /* \"#utility.yul\":3572:3604   */\n      slt\n        /* \"#utility.yul\":3569:3688   */\n      iszero\n      tag_118\n      jumpi\n        /* \"#utility.yul\":3607:3686   */\n      tag_119\n      tag_53\n      jump\t// in\n    tag_119:\n        /* \"#utility.yul\":3569:3688   */\n    tag_118:\n        /* \"#utility.yul\":3727:3728   */\n      0x00\n        /* \"#utility.yul\":3752:3804   */\n      tag_120\n        /* \"#utility.yul\":3796:3803   */\n      dup7\n        /* \"#utility.yul\":3787:3793   */\n      dup3\n        /* \"#utility.yul\":3776:3785   */\n      dup8\n        /* \"#utility.yul\":3772:3794   */\n      add\n        /* \"#utility.yul\":3752:3804   */\n      tag_57\n      jump\t// in\n    tag_120:\n        /* \"#utility.yul\":3742:3804   */\n      swap4\n      pop\n        /* \"#utility.yul\":3698:3814   */\n      pop\n        /* \"#utility.yul\":3881:3883   */\n      0x20\n        /* \"#utility.yul\":3870:3879   */\n      dup5\n        /* \"#utility.yul\":3866:3884   */\n      add\n        /* \"#utility.yul\":3853:3885   */\n      calldataload\n        /* \"#utility.yul\":3912:3930   */\n      0xffffffffffffffff\n        /* \"#utility.yul\":3904:3910   */\n      dup2\n        /* \"#utility.yul\":3901:3931   */\n      gt\n        /* \"#utility.yul\":3898:4015   */\n      iszero\n      tag_121\n      jumpi\n        /* \"#utility.yul\":3934:4013   */\n      tag_122\n      tag_54\n      jump\t// in\n    tag_122:\n        /* \"#utility.yul\":3898:4015   */\n    tag_121:\n        /* \"#utility.yul\":4039:4116   */\n      tag_123\n        /* \"#utility.yul\":4108:4115   */\n      dup7\n        /* \"#utility.yul\":4099:4105   */\n      dup3\n        /* \"#utility.yul\":4088:4097   */\n      dup8\n        /* \"#utility.yul\":4084:4106   */\n      add\n        /* \"#utility.yul\":4039:4116   */\n      tag_66\n      jump\t// in\n    tag_123:\n        /* \"#utility.yul\":4029:4116   */\n      swap3\n      pop\n        /* \"#utility.yul\":3824:4126   */\n      pop\n        /* \"#utility.yul\":4165:4167   */\n      0x40\n        /* \"#utility.yul\":4191:4241   */\n      tag_124\n        /* \"#utility.yul\":4233:4240   */\n      dup7\n        /* \"#utility.yul\":4224:4230   */\n      dup3\n        /* \"#utility.yul\":4213:4222   */\n      dup8\n        /* \"#utility.yul\":4209:4231   */\n      add\n        /* \"#utility.yul\":4191:4241   */\n      tag_69\n      jump\t// in\n    tag_124:\n        /* \"#utility.yul\":4181:4241   */\n      swap2\n      pop\n        /* \"#utility.yul\":4136:4251   */\n      pop\n        /* \"#utility.yul\":3439:4258   */\n      swap3\n      pop\n      swap3\n      pop\n      swap3\n      jump\t// out\n        /* \"#utility.yul\":4264:4379   */\n    tag_70:\n        /* \"#utility.yul\":4349:4372   */\n      tag_126\n        /* \"#utility.yul\":4366:4371   */\n      dup2\n        /* \"#utility.yul\":4349:4372   */\n      tag_55\n      jump\t// in\n    tag_126:\n        /* \"#utility.yul\":4344:4347   */\n      dup3\n        /* \"#utility.yul\":4337:4373   */\n      mstore\n        /* \"#utility.yul\":4264:4379   */\n      pop\n      pop\n      jump\t// out\n        /* \"#utility.yul\":4385:4603   */\n    tag_9:\n        /* \"#utility.yul\":4476:4480   */\n      0x00\n        /* \"#utility.yul\":4514:4516   */\n      0x20\n        /* \"#utility.yul\":4503:4512   */\n      dup3\n        /* \"#utility.yul\":4499:4517   */\n      add\n        /* \"#utility.yul\":4491:4517   */\n      swap1\n      pop\n        /* \"#utility.yul\":4527:4596   */\n      tag_128\n        /* \"#utility.yul\":4593:4594   */\n      0x00\n        /* \"#utility.yul\":4582:4591   */\n      dup4\n        /* \"#utility.yul\":4578:4595   */\n      add\n        /* \"#utility.yul\":4569:4575   */\n      dup5\n        /* \"#utility.yul\":4527:4596   */\n      tag_70\n      jump\t// in\n    tag_128:\n        /* \"#utility.yul\":4385:4603   */\n      swap3\n      swap2\n      pop\n      pop\n      jump\t// out\n        /* \"#utility.yul\":4609:4789   */\n    tag_17:\n        /* \"#utility.yul\":4657:4734   */\n      0x4e487b7100000000000000000000000000000000000000000000000000000000\n        /* \"#utility.yul\":4654:4655   */\n      0x00\n        /* \"#utility.yul\":4647:4735   */\n      mstore\n        /* \"#utility.yul\":4754:4758   */\n      0x32\n        /* \"#utility.yul\":4751:4752   */\n      0x04\n        /* \"#utility.yul\":4744:4759   */\n      mstore\n        /* \"#utility.yul\":4778:4782   */\n      0x24\n        /* \"#utility.yul\":4775:4776   */\n      0x00\n        /* \"#utility.yul\":4768:4783   */\n      revert\n        /* \"#utility.yul\":4795:4975   */\n    tag_71:\n        /* \"#utility.yul\":4843:4920   */\n      0x4e487b7100000000000000000000000000000000000000000000000000000000\n        /* \"#utility.yul\":4840:4841   */\n      0x00\n        /* \"#utility.yul\":4833:4921   */\n      mstore\n        /* \"#utility.yul\":4940:4944   */\n      0x11\n        /* \"#utility.yul\":4937:4938   */\n      0x04\n        /* \"#utility.yul\":4930:4945   */\n      mstore\n        /* \"#utility.yul\":4964:4968   */\n      0x24\n        /* \"#utility.yul\":4961:4962   */\n      0x00\n        /* \"#utility.yul\":4954:4969   */\n      revert\n        /* \"#utility.yul\":4981:5537   */\n    tag_19:\n        /* \"#utility.yul\":5020:5027   */\n      0x00\n        /* \"#utility.yul\":5043:5062   */\n      tag_132\n        /* \"#utility.yul\":5060:5061   */\n      dup3\n        /* \"#utility.yul\":5043:5062   */\n      tag_55\n      jump\t// in\n    tag_132:\n        /* \"#utility.yul\":5038:5062   */\n      swap2\n      pop\n        /* \"#utility.yul\":5076:5095   */\n      tag_133\n        /* \"#utility.yul\":5093:5094   */\n      dup4\n        /* \"#utility.yul\":5076:5095   */\n      tag_55\n      jump\t// in\n    tag_133:\n        /* \"#utility.yul\":5071:5095   */\n      swap3\n      pop\n        /* \"#utility.yul\":5130:5131   */\n      dup3\n        /* \"#utility.yul\":5127:5128   */\n      dup3\n        /* \"#utility.yul\":5123:5132   */\n      mul\n        /* \"#utility.yul\":5152:5181   */\n      tag_134\n        /* \"#utility.yul\":5169:5180   */\n      dup2\n        /* \"#utility.yul\":5152:5181   */\n      tag_55\n      jump\t// in\n    tag_134:\n        /* \"#utility.yul\":5141:5181   */\n      swap2\n      pop\n        /* \"#utility.yul\":5239:5305   */\n      0x8000000000000000000000000000000000000000000000000000000000000000\n        /* \"#utility.yul\":5236:5237   */\n      dup5\n        /* \"#utility.yul\":5233:5306   */\n      eq\n        /* \"#utility.yul\":5229:5230   */\n      0x00\n        /* \"#utility.yul\":5226:5227   */\n      dup5\n        /* \"#utility.yul\":5222:5231   */\n      slt\n        /* \"#utility.yul\":5218:5307   */\n      and\n        /* \"#utility.yul\":5215:5330   */\n      iszero\n      tag_135\n      jumpi\n        /* \"#utility.yul\":5310:5328   */\n      tag_136\n      tag_71\n      jump\t// in\n    tag_136:\n        /* \"#utility.yul\":5215:5330   */\n    tag_135:\n        /* \"#utility.yul\":5480:5481   */\n      dup3\n        /* \"#utility.yul\":5471:5478   */\n      dup3\n        /* \"#utility.yul\":5466:5482   */\n      sdiv\n        /* \"#utility.yul\":5463:5464   */\n      dup5\n        /* \"#utility.yul\":5460:5483   */\n      eq\n        /* \"#utility.yul\":5440:5441   */\n      dup4\n        /* \"#utility.yul\":5433:5442   */\n      iszero\n        /* \"#utility.yul\":5413:5497   */\n      or\n        /* \"#utility.yul\":5390:5530   */\n      tag_137\n      jumpi\n        /* \"#utility.yul\":5510:5528   */\n      tag_138\n      tag_71\n      jump\t// in\n    tag_138:\n        /* \"#utility.yul\":5390:5530   */\n    tag_137:\n        /* \"#utility.yul\":5028:5537   */\n      pop\n        /* \"#utility.yul\":4981:5537   */\n      swap3\n      swap2\n      pop\n      pop\n      jump\t// out\n        /* \"#utility.yul\":5543:5915   */\n    tag_28:\n        /* \"#utility.yul\":5582:5586   */\n      0x00\n        /* \"#utility.yul\":5602:5621   */\n      tag_140\n        /* \"#utility.yul\":5619:5620   */\n      dup3\n        /* \"#utility.yul\":5602:5621   */\n      tag_55\n      jump\t// in\n    tag_140:\n        /* \"#utility.yul\":5597:5621   */\n      swap2\n      pop\n        /* \"#utility.yul\":5635:5654   */\n      tag_141\n        /* \"#utility.yul\":5652:5653   */\n      dup4\n        /* \"#utility.yul\":5635:5654   */\n      tag_55\n      jump\t// in\n    tag_141:\n        /* \"#utility.yul\":5630:5654   */\n      swap3\n      pop\n        /* \"#utility.yul\":5678:5679   */\n      dup3\n        /* \"#utility.yul\":5675:5676   */\n      dup3\n        /* \"#utility.yul\":5671:5680   */\n      sub\n        /* \"#utility.yul\":5663:5680   */\n      swap1\n      pop\n        /* \"#utility.yul\":5872:5873   */\n      dup2\n        /* \"#utility.yul\":5866:5870   */\n      dup2\n        /* \"#utility.yul\":5862:5874   */\n      slt\n        /* \"#utility.yul\":5858:5859   */\n      0x00\n        /* \"#utility.yul\":5855:5856   */\n      dup5\n        /* \"#utility.yul\":5851:5860   */\n      slt\n        /* \"#utility.yul\":5847:5875   */\n      and\n        /* \"#utility.yul\":5830:5831   */\n      dup3\n        /* \"#utility.yul\":5824:5828   */\n      dup3\n        /* \"#utility.yul\":5820:5832   */\n      sgt\n        /* \"#utility.yul\":5815:5816   */\n      0x00\n        /* \"#utility.yul\":5812:5813   */\n      dup6\n        /* \"#utility.yul\":5808:5817   */\n      slt\n        /* \"#utility.yul\":5801:5818   */\n      iszero\n        /* \"#utility.yul\":5797:5833   */\n      and\n        /* \"#utility.yul\":5781:5885   */\n      or\n        /* \"#utility.yul\":5778:5908   */\n      iszero\n      tag_142\n      jumpi\n        /* \"#utility.yul\":5888:5906   */\n      tag_143\n      tag_71\n      jump\t// in\n    tag_143:\n        /* \"#utility.yul\":5778:5908   */\n    tag_142:\n        /* \"#utility.yul\":5543:5915   */\n      swap3\n      swap2\n      pop\n      pop\n      jump\t// out\n        /* \"#utility.yul\":5921:6296   */\n    tag_31:\n        /* \"#utility.yul\":5960:5963   */\n      0x00\n        /* \"#utility.yul\":5979:5998   */\n      tag_145\n        /* \"#utility.yul\":5996:5997   */\n      dup3\n        /* \"#utility.yul\":5979:5998   */\n      tag_55\n      jump\t// in\n    tag_145:\n        /* \"#utility.yul\":5974:5998   */\n      swap2\n      pop\n        /* \"#utility.yul\":6012:6031   */\n      tag_146\n        /* \"#utility.yul\":6029:6030   */\n      dup4\n        /* \"#utility.yul\":6012:6031   */\n      tag_55\n      jump\t// in\n    tag_146:\n        /* \"#utility.yul\":6007:6031   */\n      swap3\n      pop\n        /* \"#utility.yul\":6054:6055   */\n      dup3\n        /* \"#utility.yul\":6051:6052   */\n      dup3\n        /* \"#utility.yul\":6047:6056   */\n      add\n        /* \"#utility.yul\":6040:6056   */\n      swap1\n      pop\n        /* \"#utility.yul\":6252:6253   */\n      dup3\n        /* \"#utility.yul\":6247:6250   */\n      dup2\n        /* \"#utility.yul\":6243:6254   */\n      slt\n        /* \"#utility.yul\":6236:6255   */\n      iszero\n        /* \"#utility.yul\":6232:6233   */\n      0x00\n        /* \"#utility.yul\":6229:6230   */\n      dup4\n        /* \"#utility.yul\":6225:6234   */\n      slt\n        /* \"#utility.yul\":6221:6256   */\n      and\n        /* \"#utility.yul\":6204:6205   */\n      dup4\n        /* \"#utility.yul\":6199:6202   */\n      dup3\n        /* \"#utility.yul\":6195:6206   */\n      slt\n        /* \"#utility.yul\":6190:6191   */\n      0x00\n        /* \"#utility.yul\":6187:6188   */\n      dup5\n        /* \"#utility.yul\":6183:6192   */\n      slt\n        /* \"#utility.yul\":6176:6193   */\n      iszero\n        /* \"#utility.yul\":6172:6207   */\n      and\n        /* \"#utility.yul\":6156:6266   */\n      or\n        /* \"#utility.yul\":6153:6289   */\n      iszero\n      tag_147\n      jumpi\n        /* \"#utility.yul\":6269:6287   */\n      tag_148\n      tag_71\n      jump\t// in\n    tag_148:\n        /* \"#utility.yul\":6153:6289   */\n    tag_147:\n        /* \"#utility.yul\":5921:6296   */\n      swap3\n      swap2\n      pop\n      pop\n      jump\t// out\n        /* \"#utility.yul\":6302:6379   */\n    tag_72:\n        /* \"#utility.yul\":6339:6346   */\n      0x00\n        /* \"#utility.yul\":6368:6373   */\n      dup2\n        /* \"#utility.yul\":6357:6373   */\n      swap1\n      pop\n        /* \"#utility.yul\":6302:6379   */\n      swap2\n      swap1\n      pop\n      jump\t// out\n        /* \"#utility.yul\":6385:6618   */\n    tag_48:\n        /* \"#utility.yul\":6424:6427   */\n      0x00\n        /* \"#utility.yul\":6447:6471   */\n      tag_151\n        /* \"#utility.yul\":6465:6470   */\n      dup3\n        /* \"#utility.yul\":6447:6471   */\n      tag_72\n      jump\t// in\n    tag_151:\n        /* \"#utility.yul\":6438:6471   */\n      swap2\n      pop\n        /* \"#utility.yul\":6493:6559   */\n      0xffffffffffffffffffffffffffffffffffffffffffffffffffffffffffffffff\n        /* \"#utility.yul\":6486:6491   */\n      dup3\n        /* \"#utility.yul\":6483:6560   */\n      sub\n        /* \"#utility.yul\":6480:6583   */\n      tag_152\n      jumpi\n        /* \"#utility.yul\":6563:6581   */\n      tag_153\n      tag_71\n      jump\t// in\n    tag_153:\n        /* \"#utility.yul\":6480:6583   */\n    tag_152:\n        /* \"#utility.yul\":6610:6611   */\n      0x01\n        /* \"#utility.yul\":6603:6608   */\n      dup3\n        /* \"#utility.yul\":6599:6612   */\n      add\n        /* \"#utility.yul\":6592:6612   */\n      swap1\n      pop\n        /* \"#utility.yul\":6385:6618   */\n      swap2\n      swap1\n      pop\n      jump\t// out\n        /* \"#utility.yul\":6624:6804   */\n    tag_73:\n        /* \"#utility.yul\":6672:6749   */\n      0x4e487b7100000000000000000000000000000000000000000000000000000000\n        /* \"#utility.yul\":6669:6670   */\n      0x00\n        /* \"#utility.yul\":6662:6750   */\n      mstore\n        /* \"#utility.yul\":6769:6773   */\n      0x12\n        /* \"#utility.yul\":6766:6767   */\n      0x04\n        /* \"#utility.yul\":6759:6774   */\n      mstore\n        /* \"#utility.yul\":6793:6797   */\n      0x24\n        /* \"#utility.yul\":6790:6791   */\n      0x00\n        /* \"#utility.yul\":6783:6798   */\n      revert\n        /* \"#utility.yul\":6810:7195   */\n    tag_51:\n        /* \"#utility.yul\":6849:6850   */\n      0x00\n        /* \"#utility.yul\":6866:6885   */\n      tag_156\n        /* \"#utility.yul\":6883:6884   */\n      dup3\n        /* \"#utility.yul\":6866:6885   */\n      tag_55\n      jump\t// in\n    tag_156:\n        /* \"#utility.yul\":6861:6885   */\n      swap2\n      pop\n        /* \"#utility.yul\":6899:6918   */\n      tag_157\n        /* \"#utility.yul\":6916:6917   */\n      dup4\n        /* \"#utility.yul\":6899:6918   */\n      tag_55\n      jump\t// in\n    tag_157:\n        /* \"#utility.yul\":6894:6918   */\n      swap3\n      pop\n        /* \"#utility.yul\":6937:6938   */\n      dup3\n        /* \"#utility.yul\":6927:6962   */\n      tag_158\n      jumpi\n        /* \"#utility.yul\":6942:6960   */\n      tag_159\n      tag_73\n      jump\t// in\n    tag_159:\n        /* \"#utility.yul\":6927:6962   */\n    tag_158:\n        /* \"#utility.yul\":7128:7129   */\n      0x01\n        /* \"#utility.yul\":7125:7126   */\n      0x00\n        /* \"#utility.yul\":7121:7130   */\n      sub\n        /* \"#utility.yul\":7118:7119   */\n      dup4\n        /* \"#utility.yul\":7115:7131   */\n      eq\n        /* \"#utility.yul\":7034:7100   */\n      0x8000000000000000000000000000000000000000000000000000000000000000\n        /* \"#utility.yul\":7031:7032   */\n      dup4\n        /* \"#utility.yul\":7028:7101   */\n      eq\n        /* \"#utility.yul\":7011:7141   */\n      and\n        /* \"#utility.yul\":7008:7164   */\n      iszero\n      tag_160\n      jumpi\n        /* \"#utility.yul\":7144:7162   */\n      tag_161\n      tag_71\n      jump\t// in\n    tag_161:\n        /* \"#utility.yul\":7008:7164   */\n    tag_160:\n        /* \"#utility.yul\":7187:7188   */\n      dup3\n        /* \"#utility.yul\":7184:7185   */\n      dup3\n        /* \"#utility.yul\":7179:7189   */\n      sdiv\n        /* \"#utility.yul\":7174:7189   */\n      swap1\n      pop\n        /* \"#utility.yul\":6810:7195   */\n      swap3\n      swap2\n      pop\n      pop\n      jump\t// out\n\n    auxdata: 0xa26469706673582212201364095b2e255a77f23f11f1ea4c0af283793ae430eb3f73d3c2c3bd0ab85f0564736f6c63430008120033\n}\n",
				"bytecode": {
					"linkReferences": {},
					"object": "6080604052606460005534801561001557600080fd5b50610711806100256000396000f3fe608060405234801561001057600080fd5b506004361061002b5760003560e01c80636d99cc9c14610030575b600080fd5b61004a600480360381019061004591906103fa565b610060565b6040516100579190610478565b60405180910390f35b6000806001905060006001905060005b85518110156101ee5784156101295785818151811061009257610091610493565b5b6020026020010151876100a591906104f1565b836100b091906104f1565b92508581815181106100c5576100c4610493565b5b6020026020010151876100d891906104f1565b826100e391906104f1565b91508581815181106100f8576100f7610493565b5b6020026020010151600161010c9190610569565b8761011791906104f1565b8261012291906105ac565b91506101db565b85818151811061013c5761013b610493565b5b602002602001015160016101509190610569565b8761015b91906104f1565b8361016691906104f1565b925085818151811061017b5761017a610493565b5b6020026020010151600161018f9190610569565b8761019a91906104f1565b826101a591906104f1565b91508581815181106101ba576101b9610493565b5b6020026020010151876101cd91906104f1565b826101d891906105ac565b91505b80806101e6906105fa565b915050610070565b50600081670de0b6b3a76400008461020691906104f1565b6102109190610671565b90508093505050509392505050565b6000604051905090565b600080fd5b600080fd5b6000819050919050565b61024681610233565b811461025157600080fd5b50565b6000813590506102638161023d565b92915050565b600080fd5b6000601f19601f8301169050919050565b7f4e487b7100000000000000000000000000000000000000000000000000000000600052604160045260246000fd5b6102b78261026e565b810181811067ffffffffffffffff821117156102d6576102d561027f565b5b80604052505050565b60006102e961021f565b90506102f582826102ae565b919050565b600067ffffffffffffffff8211156103155761031461027f565b5b602082029050602081019050919050565b600080fd5b600061033e610339846102fa565b6102df565b9050808382526020820190506020840283018581111561036157610360610326565b5b835b8181101561038a57806103768882610254565b845260208401935050602081019050610363565b5050509392505050565b600082601f8301126103a9576103a8610269565b5b81356103b984826020860161032b565b91505092915050565b60008115159050919050565b6103d7816103c2565b81146103e257600080fd5b50565b6000813590506103f4816103ce565b92915050565b60008060006060848603121561041357610412610229565b5b600061042186828701610254565b935050602084013567ffffffffffffffff8111156104425761044161022e565b5b61044e86828701610394565b925050604061045f868287016103e5565b9150509250925092565b61047281610233565b82525050565b600060208201905061048d6000830184610469565b92915050565b7f4e487b7100000000000000000000000000000000000000000000000000000000600052603260045260246000fd5b7f4e487b7100000000000000000000000000000000000000000000000000000000600052601160045260246000fd5b60006104fc82610233565b915061050783610233565b925082820261051581610233565b91507f8000000000000000000000000000000000000000000000000000000000000000841460008412161561054d5761054c6104c2565b5b8282058414831517610562576105616104c2565b5b5092915050565b600061057482610233565b915061057f83610233565b92508282039050818112600084121682821360008512151617156105a6576105a56104c2565b5b92915050565b60006105b782610233565b91506105c283610233565b9250828201905082811215600083121683821260008412151617156105ea576105e96104c2565b5b92915050565b6000819050919050565b6000610605826105f0565b91507fffffffffffffffffffffffffffffffffffffffffffffffffffffffffffffffff8203610637576106366104c2565b5b600182019050919050565b7f4e487b7100000000000000000000000000000000000000000000000000000000600052601260045260246000fd5b600061067c82610233565b915061068783610233565b92508261069757610696610642565b5b600160000383147f8000000000000000000000000000000000000000000000000000000000000000831416156106d0576106cf6104c2565b5b82820590509291505056fea26469706673582212201364095b2e255a77f23f11f1ea4c0af283793ae430eb3f73d3c2c3bd0ab85f0564736f6c63430008120033",
					"opcodes": "PUSH1 0x80 PUSH1 0x40 MSTORE PUSH1 0x64 PUSH1 0x0 SSTORE CALLVALUE DUP1 ISZERO PUSH2 0x15 JUMPI PUSH1 0x0 DUP1 REVERT JUMPDEST POP PUSH2 0x711 DUP1 PUSH2 0x25 PUSH1 0x0 CODECOPY PUSH1 0x0 RETURN INVALID PUSH1 0x80 PUSH1 0x40 MSTORE CALLVALUE DUP1 ISZERO PUSH2 0x10 JUMPI PUSH1 0x0 DUP1 REVERT JUMPDEST POP PUSH1 0x4 CALLDATASIZE LT PUSH2 0x2B JUMPI PUSH1 0x0 CALLDATALOAD PUSH1 0xE0 SHR DUP1 PUSH4 0x6D99CC9C EQ PUSH2 0x30 JUMPI JUMPDEST PUSH1 0x0 DUP1 REVERT JUMPDEST PUSH2 0x4A PUSH1 0x4 DUP1 CALLDATASIZE SUB DUP2 ADD SWAP1 PUSH2 0x45 SWAP2 SWAP1 PUSH2 0x3FA JUMP JUMPDEST PUSH2 0x60 JUMP JUMPDEST PUSH1 0x40 MLOAD PUSH2 0x57 SWAP2 SWAP1 PUSH2 0x478 JUMP JUMPDEST PUSH1 0x40 MLOAD DUP1 SWAP2 SUB SWAP1 RETURN JUMPDEST PUSH1 0x0 DUP1 PUSH1 0x1 SWAP1 POP PUSH1 0x0 PUSH1 0x1 SWAP1 POP PUSH1 0x0 JUMPDEST DUP6 MLOAD DUP2 LT ISZERO PUSH2 0x1EE JUMPI DUP5 ISZERO PUSH2 0x129 JUMPI DUP6 DUP2 DUP2 MLOAD DUP2 LT PUSH2 0x92 JUMPI PUSH2 0x91 PUSH2 0x493 JUMP JUMPDEST JUMPDEST PUSH1 0x20 MUL PUSH1 0x20 ADD ADD MLOAD DUP8 PUSH2 0xA5 SWAP2 SWAP1 PUSH2 0x4F1 JUMP JUMPDEST DUP4 PUSH2 0xB0 SWAP2 SWAP1 PUSH2 0x4F1 JUMP JUMPDEST SWAP3 POP DUP6 DUP2 DUP2 MLOAD DUP2 LT PUSH2 0xC5 JUMPI PUSH2 0xC4 PUSH2 0x493 JUMP JUMPDEST JUMPDEST PUSH1 0x20 MUL PUSH1 0x20 ADD ADD MLOAD DUP8 PUSH2 0xD8 SWAP2 SWAP1 PUSH2 0x4F1 JUMP JUMPDEST DUP3 PUSH2 0xE3 SWAP2 SWAP1 PUSH2 0x4F1 JUMP JUMPDEST SWAP2 POP DUP6 DUP2 DUP2 MLOAD DUP2 LT PUSH2 0xF8 JUMPI PUSH2 0xF7 PUSH2 0x493 JUMP JUMPDEST JUMPDEST PUSH1 0x20 MUL PUSH1 0x20 ADD ADD MLOAD PUSH1 0x1 PUSH2 0x10C SWAP2 SWAP1 PUSH2 0x569 JUMP JUMPDEST DUP8 PUSH2 0x117 SWAP2 SWAP1 PUSH2 0x4F1 JUMP JUMPDEST DUP3 PUSH2 0x122 SWAP2 SWAP1 PUSH2 0x5AC JUMP JUMPDEST SWAP2 POP PUSH2 0x1DB JUMP JUMPDEST DUP6 DUP2 DUP2 MLOAD DUP2 LT PUSH2 0x13C JUMPI PUSH2 0x13B PUSH2 0x493 JUMP JUMPDEST JUMPDEST PUSH1 0x20 MUL PUSH1 0x20 ADD ADD MLOAD PUSH1 0x1 PUSH2 0x150 SWAP2 SWAP1 PUSH2 0x569 JUMP JUMPDEST DUP8 PUSH2 0x15B SWAP2 SWAP1 PUSH2 0x4F1 JUMP JUMPDEST DUP4 PUSH2 0x166 SWAP2 SWAP1 PUSH2 0x4F1 JUMP JUMPDEST SWAP3 POP DUP6 DUP2 DUP2 MLOAD DUP2 LT PUSH2 0x17B JUMPI PUSH2 0x17A PUSH2 0x493 JUMP JUMPDEST JUMPDEST PUSH1 0x20 MUL PUSH1 0x20 ADD ADD MLOAD PUSH1 0x1 PUSH2 0x18F SWAP2 SWAP1 PUSH2 0x569 JUMP JUMPDEST DUP8 PUSH2 0x19A SWAP2 SWAP1 PUSH2 0x4F1 JUMP JUMPDEST DUP3 PUSH2 0x1A5 SWAP2 SWAP1 PUSH2 0x4F1 JUMP JUMPDEST SWAP2 POP DUP6 DUP2 DUP2 MLOAD DUP2 LT PUSH2 0x1BA JUMPI PUSH2 0x1B9 PUSH2 0x493 JUMP JUMPDEST JUMPDEST PUSH1 0x20 MUL PUSH1 0x20 ADD ADD MLOAD DUP8 PUSH2 0x1CD SWAP2 SWAP1 PUSH2 0x4F1 JUMP JUMPDEST DUP3 PUSH2 0x1D8 SWAP2 SWAP1 PUSH2 0x5AC JUMP JUMPDEST SWAP2 POP JUMPDEST DUP1 DUP1 PUSH2 0x1E6 SWAP1 PUSH2 0x5FA JUMP JUMPDEST SWAP2 POP POP PUSH2 0x70 JUMP JUMPDEST POP PUSH1 0x0 DUP2 PUSH8 0xDE0B6B3A7640000 DUP5 PUSH2 0x206 SWAP2 SWAP1 PUSH2 0x4F1 JUMP JUMPDEST PUSH2 0x210 SWAP2 SWAP1 PUSH2 0x671 JUMP JUMPDEST SWAP1 POP DUP1 SWAP4 POP POP POP POP SWAP4 SWAP3 POP POP POP JUMP JUMPDEST PUSH1 0x0 PUSH1 0x40 MLOAD SWAP1 POP SWAP1 JUMP JUMPDEST PUSH1 0x0 DUP1 REVERT JUMPDEST PUSH1 0x0 DUP1 REVERT JUMPDEST PUSH1 0x0 DUP2 SWAP1 POP SWAP2 SWAP1 POP JUMP JUMPDEST PUSH2 0x246 DUP2 PUSH2 0x233 JUMP JUMPDEST DUP2 EQ PUSH2 0x251 JUMPI PUSH1 0x0 DUP1 REVERT JUMPDEST POP JUMP JUMPDEST PUSH1 0x0 DUP2 CALLDATALOAD SWAP1 POP PUSH2 0x263 DUP2 PUSH2 0x23D JUMP JUMPDEST SWAP3 SWAP2 POP POP JUMP JUMPDEST PUSH1 0x0 DUP1 REVERT JUMPDEST PUSH1 0x0 PUSH1 0x1F NOT PUSH1 0x1F DUP4 ADD AND SWAP1 POP SWAP2 SWAP1 POP JUMP JUMPDEST PUSH32 0x4E487B7100000000000000000000000000000000000000000000000000000000 PUSH1 0x0 MSTORE PUSH1 0x41 PUSH1 0x4 MSTORE PUSH1 0x24 PUSH1 0x0 REVERT JUMPDEST PUSH2 0x2B7 DUP3 PUSH2 0x26E JUMP JUMPDEST DUP2 ADD DUP2 DUP2 LT PUSH8 0xFFFFFFFFFFFFFFFF DUP3 GT OR ISZERO PUSH2 0x2D6 JUMPI PUSH2 0x2D5 PUSH2 0x27F JUMP JUMPDEST JUMPDEST DUP1 PUSH1 0x40 MSTORE POP POP POP JUMP JUMPDEST PUSH1 0x0 PUSH2 0x2E9 PUSH2 0x21F JUMP JUMPDEST SWAP1 POP PUSH2 0x2F5 DUP3 DUP3 PUSH2 0x2AE JUMP JUMPDEST SWAP2 SWAP1 POP JUMP JUMPDEST PUSH1 0x0 PUSH8 0xFFFFFFFFFFFFFFFF DUP3 GT ISZERO PUSH2 0x315 JUMPI PUSH2 0x314 PUSH2 0x27F JUMP JUMPDEST JUMPDEST PUSH1 0x20 DUP3 MUL SWAP1 POP PUSH1 0x20 DUP2 ADD SWAP1 POP SWAP2 SWAP1 POP JUMP JUMPDEST PUSH1 0x0 DUP1 REVERT JUMPDEST PUSH1 0x0 PUSH2 0x33E PUSH2 0x339 DUP5 PUSH2 0x2FA JUMP JUMPDEST PUSH2 0x2DF JUMP JUMPDEST SWAP1 POP DUP1 DUP4 DUP3 MSTORE PUSH1 0x20 DUP3 ADD SWAP1 POP PUSH1 0x20 DUP5 MUL DUP4 ADD DUP6 DUP2 GT ISZERO PUSH2 0x361 JUMPI PUSH2 0x360 PUSH2 0x326 JUMP JUMPDEST JUMPDEST DUP4 JUMPDEST DUP2 DUP2 LT ISZERO PUSH2 0x38A JUMPI DUP1 PUSH2 0x376 DUP9 DUP3 PUSH2 0x254 JUMP JUMPDEST DUP5 MSTORE PUSH1 0x20 DUP5 ADD SWAP4 POP POP PUSH1 0x20 DUP2 ADD SWAP1 POP PUSH2 0x363 JUMP JUMPDEST POP POP POP SWAP4 SWAP3 POP POP POP JUMP JUMPDEST PUSH1 0x0 DUP3 PUSH1 0x1F DUP4 ADD SLT PUSH2 0x3A9 JUMPI PUSH2 0x3A8 PUSH2 0x269 JUMP JUMPDEST JUMPDEST DUP2 CALLDATALOAD PUSH2 0x3B9 DUP5 DUP3 PUSH1 0x20 DUP7 ADD PUSH2 0x32B JUMP JUMPDEST SWAP2 POP POP SWAP3 SWAP2 POP POP JUMP JUMPDEST PUSH1 0x0 DUP2 ISZERO ISZERO SWAP1 POP SWAP2 SWAP1 POP JUMP JUMPDEST PUSH2 0x3D7 DUP2 PUSH2 0x3C2 JUMP JUMPDEST DUP2 EQ PUSH2 0x3E2 JUMPI PUSH1 0x0 DUP1 REVERT JUMPDEST POP JUMP JUMPDEST PUSH1 0x0 DUP2 CALLDATALOAD SWAP1 POP PUSH2 0x3F4 DUP2 PUSH2 0x3CE JUMP JUMPDEST SWAP3 SWAP2 POP POP JUMP JUMPDEST PUSH1 0x0 DUP1 PUSH1 0x0 PUSH1 0x60 DUP5 DUP7 SUB SLT ISZERO PUSH2 0x413 JUMPI PUSH2 0x412 PUSH2 0x229 JUMP JUMPDEST JUMPDEST PUSH1 0x0 PUSH2 0x421 DUP7 DUP3 DUP8 ADD PUSH2 0x254 JUMP JUMPDEST SWAP4 POP POP PUSH1 0x20 DUP5 ADD CALLDATALOAD PUSH8 0xFFFFFFFFFFFFFFFF DUP2 GT ISZERO PUSH2 0x442 JUMPI PUSH2 0x441 PUSH2 0x22E JUMP JUMPDEST JUMPDEST PUSH2 0x44E DUP7 DUP3 DUP8 ADD PUSH2 0x394 JUMP JUMPDEST SWAP3 POP POP PUSH1 0x40 PUSH2 0x45F DUP7 DUP3 DUP8 ADD PUSH2 0x3E5 JUMP JUMPDEST SWAP2 POP POP SWAP3 POP SWAP3 POP SWAP3 JUMP JUMPDEST PUSH2 0x472 DUP2 PUSH2 0x233 JUMP JUMPDEST DUP3 MSTORE POP POP JUMP JUMPDEST PUSH1 0x0 PUSH1 0x20 DUP3 ADD SWAP1 POP PUSH2 0x48D PUSH1 0x0 DUP4 ADD DUP5 PUSH2 0x469 JUMP JUMPDEST SWAP3 SWAP2 POP POP JUMP JUMPDEST PUSH32 0x4E487B7100000000000000000000000000000000000000000000000000000000 PUSH1 0x0 MSTORE PUSH1 0x32 PUSH1 0x4 MSTORE PUSH1 0x24 PUSH1 0x0 REVERT JUMPDEST PUSH32 0x4E487B7100000000000000000000000000000000000000000000000000000000 PUSH1 0x0 MSTORE PUSH1 0x11 PUSH1 0x4 MSTORE PUSH1 0x24 PUSH1 0x0 REVERT JUMPDEST PUSH1 0x0 PUSH2 0x4FC DUP3 PUSH2 0x233 JUMP JUMPDEST SWAP2 POP PUSH2 0x507 DUP4 PUSH2 0x233 JUMP JUMPDEST SWAP3 POP DUP3 DUP3 MUL PUSH2 0x515 DUP2 PUSH2 0x233 JUMP JUMPDEST SWAP2 POP PUSH32 0x8000000000000000000000000000000000000000000000000000000000000000 DUP5 EQ PUSH1 0x0 DUP5 SLT AND ISZERO PUSH2 0x54D JUMPI PUSH2 0x54C PUSH2 0x4C2 JUMP JUMPDEST JUMPDEST DUP3 DUP3 SDIV DUP5 EQ DUP4 ISZERO OR PUSH2 0x562 JUMPI PUSH2 0x561 PUSH2 0x4C2 JUMP JUMPDEST JUMPDEST POP SWAP3 SWAP2 POP POP JUMP JUMPDEST PUSH1 0x0 PUSH2 0x574 DUP3 PUSH2 0x233 JUMP JUMPDEST SWAP2 POP PUSH2 0x57F DUP4 PUSH2 0x233 JUMP JUMPDEST SWAP3 POP DUP3 DUP3 SUB SWAP1 POP DUP2 DUP2 SLT PUSH1 0x0 DUP5 SLT AND DUP3 DUP3 SGT PUSH1 0x0 DUP6 SLT ISZERO AND OR ISZERO PUSH2 0x5A6 JUMPI PUSH2 0x5A5 PUSH2 0x4C2 JUMP JUMPDEST JUMPDEST SWAP3 SWAP2 POP POP JUMP JUMPDEST PUSH1 0x0 PUSH2 0x5B7 DUP3 PUSH2 0x233 JUMP JUMPDEST SWAP2 POP PUSH2 0x5C2 DUP4 PUSH2 0x233 JUMP JUMPDEST SWAP3 POP DUP3 DUP3 ADD SWAP1 POP DUP3 DUP2 SLT ISZERO PUSH1 0x0 DUP4 SLT AND DUP4 DUP3 SLT PUSH1 0x0 DUP5 SLT ISZERO AND OR ISZERO PUSH2 0x5EA JUMPI PUSH2 0x5E9 PUSH2 0x4C2 JUMP JUMPDEST JUMPDEST SWAP3 SWAP2 POP POP JUMP JUMPDEST PUSH1 0x0 DUP2 SWAP1 POP SWAP2 SWAP1 POP JUMP JUMPDEST PUSH1 0x0 PUSH2 0x605 DUP3 PUSH2 0x5F0 JUMP JUMPDEST SWAP2 POP PUSH32 0xFFFFFFFFFFFFFFFFFFFFFFFFFFFFFFFFFFFFFFFFFFFFFFFFFFFFFFFFFFFFFFFF DUP3 SUB PUSH2 0x637 JUMPI PUSH2 0x636 PUSH2 0x4C2 JUMP JUMPDEST JUMPDEST PUSH1 0x1 DUP3 ADD SWAP1 POP SWAP2 SWAP1 POP JUMP JUMPDEST PUSH32 0x4E487B7100000000000000000000000000000000000000000000000000000000 PUSH1 0x0 MSTORE PUSH1 0x12 PUSH1 0x4 MSTORE PUSH1 0x24 PUSH1 0x0 REVERT JUMPDEST PUSH1 0x0 PUSH2 0x67C DUP3 PUSH2 0x233 JUMP JUMPDEST SWAP2 POP PUSH2 0x687 DUP4 PUSH2 0x233 JUMP JUMPDEST SWAP3 POP DUP3 PUSH2 0x697 JUMPI PUSH2 0x696 PUSH2 0x642 JUMP JUMPDEST JUMPDEST PUSH1 0x1 PUSH1 0x0 SUB DUP4 EQ PUSH32 0x8000000000000000000000000000000000000000000000000000000000000000 DUP4 EQ AND ISZERO PUSH2 0x6D0 JUMPI PUSH2 0x6CF PUSH2 0x4C2 JUMP JUMPDEST JUMPDEST DUP3 DUP3 SDIV SWAP1 POP SWAP3 SWAP2 POP POP JUMP INVALID LOG2 PUSH5 0x6970667358 0x22 SLT KECCAK256 SGT PUSH5 0x95B2E255A PUSH24 0xF23F11F1EA4C0AF283793AE430EB3F73D3C2C3BD0AB85F05 PUSH5 0x736F6C6343 STOP ADDMOD SLT STOP CALLER "
				},
				"gasEstimates": {
					"creation": {
						"codeDepositCost": "361800",
						"executionCost": "22505",
						"totalCost": "384305"
					},
					"external": {
						"calculatePosteriorProbability(int256,int256[],bool)": "infinite"
					}
				},
				"methodIdentifiers": {
					"calculatePosteriorProbability(int256,int256[],bool)": "6d99cc9c"
				}
			},
			"storageLayout": {
				"storage": [
					{
						"astId": 4,
						"contract": "contracts/posterior_probability_cal.sol:PosteriorProbabilityCalculator",
						"label": "PADDING",
						"offset": 0,
						"slot": "0",
						"type": "t_int256"
					}
				],
				"types": {
					"t_int256": {
						"encoding": "inplace",
						"label": "int256",
						"numberOfBytes": "32"
					}
				}
			},
			"userdoc": {
				"kind": "user",
				"methods": {},
				"version": 1
			}
		}
	}
}