{
	"contracts/RSU.sol": {
		"RSU": {
			"abi": [
				{
					"inputs": [],
					"stateMutability": "nonpayable",
					"type": "constructor"
				},
				{
					"inputs": [
						{
							"internalType": "uint256",
							"name": "uuId",
							"type": "uint256"
						}
					],
					"name": "getRsuMessage",
					"outputs": [
						{
							"internalType": "uint256",
							"name": "",
							"type": "uint256"
						},
						{
							"internalType": "uint256",
							"name": "",
							"type": "uint256"
						},
						{
							"internalType": "string",
							"name": "",
							"type": "string"
						}
					],
					"stateMutability": "view",
					"type": "function"
				},
				{
					"inputs": [
						{
							"internalType": "uint256",
							"name": "number",
							"type": "uint256"
						}
					],
					"name": "random",
					"outputs": [
						{
							"internalType": "uint256",
							"name": "",
							"type": "uint256"
						}
					],
					"stateMutability": "view",
					"type": "function"
				},
				{
					"inputs": [
						{
							"internalType": "address",
							"name": "add",
							"type": "address"
						}
					],
					"name": "setSourceTrust",
					"outputs": [],
					"stateMutability": "nonpayable",
					"type": "function"
				},
				{
					"inputs": [],
					"name": "sourceTrust",
					"outputs": [
						{
							"internalType": "contract SourceTrust",
							"name": "",
							"type": "address"
						}
					],
					"stateMutability": "view",
					"type": "function"
				},
				{
					"inputs": [
						{
							"internalType": "uint256",
							"name": "uuId",
							"type": "uint256"
						},
						{
							"internalType": "uint256",
							"name": "trust",
							"type": "uint256"
						},
						{
							"internalType": "bool",
							"name": "offset",
							"type": "bool"
						}
					],
					"name": "updateVehicleTrust",
					"outputs": [],
					"stateMutability": "nonpayable",
					"type": "function"
				}
			],
			"devdoc": {
				"kind": "dev",
				"methods": {},
				"version": 1
			},
			"evm": {
				"assembly": "    /* \"contracts/RSU.sol\":93:1488  contract RSU {... */\n  mstore(0x40, 0x80)\n    /* \"contracts/RSU.sol\":149:254  constructor() {... */\n  callvalue\n  dup1\n  iszero\n  tag_1\n  jumpi\n  0x00\n  dup1\n  revert\ntag_1:\n  pop\n    /* \"contracts/RSU.sol\":187:204  new SourceTrust() */\n  mload(0x40)\n  tag_4\n  swap1\n  tag_5\n  jump\t// in\ntag_4:\n  mload(0x40)\n  dup1\n  swap2\n  sub\n  swap1\n  0x00\n  create\n  dup1\n  iszero\n  dup1\n  iszero\n  tag_6\n  jumpi\n  returndatasize\n  0x00\n  dup1\n  returndatacopy\n  revert(0x00, returndatasize)\ntag_6:\n  pop\n    /* \"contracts/RSU.sol\":173:184  sourceTrust */\n  0x00\n  dup1\n    /* \"contracts/RSU.sol\":173:204  sourceTrust = new SourceTrust() */\n  0x0100\n  exp\n  dup2\n  sload\n  dup2\n  0xffffffffffffffffffffffffffffffffffffffff\n  mul\n  not\n  and\n  swap1\n  dup4\n  0xffffffffffffffffffffffffffffffffffffffff\n  and\n  mul\n  or\n  swap1\n  sstore\n  pop\n    /* \"contracts/RSU.sol\":93:1488  contract RSU {... */\n  jump(tag_7)\ntag_5:\n  dataSize(sub_1)\n  dup1\n  dataOffset(sub_1)\n  dup4\n  codecopy\n  add\n  swap1\n  jump\t// out\ntag_7:\n  dataSize(sub_0)\n  dup1\n  dataOffset(sub_0)\n  0x00\n  codecopy\n  0x00\n  return\nstop\n\nsub_0: assembly {\n        /* \"contracts/RSU.sol\":93:1488  contract RSU {... */\n      mstore(0x40, 0x80)\n      callvalue\n      dup1\n      iszero\n      tag_1\n      jumpi\n      0x00\n      dup1\n      revert\n    tag_1:\n      pop\n      jumpi(tag_2, lt(calldatasize, 0x04))\n      shr(0xe0, calldataload(0x00))\n      dup1\n      0x19eb005b\n      eq\n      tag_3\n      jumpi\n      dup1\n      0x5f030343\n      eq\n      tag_4\n      jumpi\n      dup1\n      0x9ec2568f\n      eq\n      tag_5\n      jumpi\n      dup1\n      0xa2384044\n      eq\n      tag_6\n      jumpi\n      dup1\n      0xb863bd37\n      eq\n      tag_7\n      jumpi\n    tag_2:\n      0x00\n      dup1\n      revert\n        /* \"contracts/RSU.sol\":762:919  function updateVehicleTrust(uint256 uuId, uint256 trust, bool offset) public {... */\n    tag_3:\n      tag_8\n      0x04\n      dup1\n      calldatasize\n      sub\n      dup2\n      add\n      swap1\n      tag_9\n      swap2\n      swap1\n      tag_10\n      jump\t// in\n    tag_9:\n      tag_11\n      jump\t// in\n    tag_8:\n      stop\n        /* \"contracts/RSU.sol\":541:757  function getRsuMessage(uint uuId) public view returns (uint, uint, string memory) {... */\n    tag_4:\n      tag_12\n      0x04\n      dup1\n      calldatasize\n      sub\n      dup2\n      add\n      swap1\n      tag_13\n      swap2\n      swap1\n      tag_14\n      jump\t// in\n    tag_13:\n      tag_15\n      jump\t// in\n    tag_12:\n      mload(0x40)\n      tag_16\n      swap4\n      swap3\n      swap2\n      swap1\n      tag_17\n      jump\t// in\n    tag_16:\n      mload(0x40)\n      dup1\n      swap2\n      sub\n      swap1\n      return\n        /* \"contracts/RSU.sol\":259:350  function setSourceTrust(address add) public{... */\n    tag_5:\n      tag_18\n      0x04\n      dup1\n      calldatasize\n      sub\n      dup2\n      add\n      swap1\n      tag_19\n      swap2\n      swap1\n      tag_20\n      jump\t// in\n    tag_19:\n      tag_21\n      jump\t// in\n    tag_18:\n      stop\n        /* \"contracts/RSU.sol\":112:142  SourceTrust public sourceTrust */\n    tag_6:\n      tag_22\n      tag_23\n      jump\t// in\n    tag_22:\n      mload(0x40)\n      tag_24\n      swap2\n      swap1\n      tag_25\n      jump\t// in\n    tag_24:\n      mload(0x40)\n      dup1\n      swap2\n      sub\n      swap1\n      return\n        /* \"contracts/RSU.sol\":356:536  function random(uint number) public view returns(uint){... */\n    tag_7:\n      tag_26\n      0x04\n      dup1\n      calldatasize\n      sub\n      dup2\n      add\n      swap1\n      tag_27\n      swap2\n      swap1\n      tag_14\n      jump\t// in\n    tag_27:\n      tag_28\n      jump\t// in\n    tag_26:\n      mload(0x40)\n      tag_29\n      swap2\n      swap1\n      tag_30\n      jump\t// in\n    tag_29:\n      mload(0x40)\n      dup1\n      swap2\n      sub\n      swap1\n      return\n        /* \"contracts/RSU.sol\":762:919  function updateVehicleTrust(uint256 uuId, uint256 trust, bool offset) public {... */\n    tag_11:\n        /* \"contracts/RSU.sol\":849:860  sourceTrust */\n      0x00\n      dup1\n      sload\n      swap1\n      0x0100\n      exp\n      swap1\n      div\n      0xffffffffffffffffffffffffffffffffffffffff\n      and\n        /* \"contracts/RSU.sol\":849:878  sourceTrust.updateSourceTrust */\n      0xffffffffffffffffffffffffffffffffffffffff\n      and\n      0x9e420524\n        /* \"contracts/RSU.sol\":879:883  uuId */\n      dup5\n        /* \"contracts/RSU.sol\":885:911  updateTrust(trust, offset) */\n      tag_32\n        /* \"contracts/RSU.sol\":897:902  trust */\n      dup6\n        /* \"contracts/RSU.sol\":904:910  offset */\n      dup6\n        /* \"contracts/RSU.sol\":885:896  updateTrust */\n      tag_33\n        /* \"contracts/RSU.sol\":885:911  updateTrust(trust, offset) */\n      jump\t// in\n    tag_32:\n        /* \"contracts/RSU.sol\":849:912  sourceTrust.updateSourceTrust(uuId, updateTrust(trust, offset)) */\n      mload(0x40)\n      dup4\n      0xffffffff\n      and\n      0xe0\n      shl\n      dup2\n      mstore\n      0x04\n      add\n      tag_34\n      swap3\n      swap2\n      swap1\n      tag_35\n      jump\t// in\n    tag_34:\n      0x00\n      mload(0x40)\n      dup1\n      dup4\n      sub\n      dup2\n      0x00\n      dup8\n      dup1\n      extcodesize\n      iszero\n      dup1\n      iszero\n      tag_36\n      jumpi\n      0x00\n      dup1\n      revert\n    tag_36:\n      pop\n      gas\n      call\n      iszero\n      dup1\n      iszero\n      tag_38\n      jumpi\n      returndatasize\n      0x00\n      dup1\n      returndatacopy\n      revert(0x00, returndatasize)\n    tag_38:\n      pop\n      pop\n      pop\n      pop\n        /* \"contracts/RSU.sol\":762:919  function updateVehicleTrust(uint256 uuId, uint256 trust, bool offset) public {... */\n      pop\n      pop\n      pop\n      jump\t// out\n        /* \"contracts/RSU.sol\":541:757  function getRsuMessage(uint uuId) public view returns (uint, uint, string memory) {... */\n    tag_15:\n        /* \"contracts/RSU.sol\":596:600  uint */\n      0x00\n        /* \"contracts/RSU.sol\":602:606  uint */\n      dup1\n        /* \"contracts/RSU.sol\":608:621  string memory */\n      0x60\n        /* \"contracts/RSU.sol\":633:646  uint256 trust */\n      0x00\n        /* \"contracts/RSU.sol\":649:660  sourceTrust */\n      dup1\n      0x00\n      swap1\n      sload\n      swap1\n      0x0100\n      exp\n      swap1\n      div\n      0xffffffffffffffffffffffffffffffffffffffff\n      and\n        /* \"contracts/RSU.sol\":649:675  sourceTrust.getSourceTrust */\n      0xffffffffffffffffffffffffffffffffffffffff\n      and\n      0x7cf736e0\n        /* \"contracts/RSU.sol\":676:680  uuId */\n      dup7\n        /* \"contracts/RSU.sol\":649:681  sourceTrust.getSourceTrust(uuId) */\n      mload(0x40)\n      dup3\n      0xffffffff\n      and\n      0xe0\n      shl\n      dup2\n      mstore\n      0x04\n      add\n      tag_40\n      swap2\n      swap1\n      tag_30\n      jump\t// in\n    tag_40:\n      0x20\n      mload(0x40)\n      dup1\n      dup4\n      sub\n      dup2\n      dup7\n      gas\n      staticcall\n      iszero\n      dup1\n      iszero\n      tag_42\n      jumpi\n      returndatasize\n      0x00\n      dup1\n      returndatacopy\n      revert(0x00, returndatasize)\n    tag_42:\n      pop\n      pop\n      pop\n      pop\n      mload(0x40)\n      returndatasize\n      not(0x1f)\n      0x1f\n      dup3\n      add\n      and\n      dup3\n      add\n      dup1\n      0x40\n      mstore\n      pop\n      dup2\n      add\n      swap1\n      tag_43\n      swap2\n      swap1\n      tag_44\n      jump\t// in\n    tag_43:\n        /* \"contracts/RSU.sol\":633:681  uint256 trust = sourceTrust.getSourceTrust(uuId) */\n      swap1\n      pop\n        /* \"contracts/RSU.sol\":699:704  trust */\n      dup1\n        /* \"contracts/RSU.sol\":707:709  10 */\n      0x0a\n        /* \"contracts/RSU.sol\":720:721  0 */\n      0x00\n        /* \"contracts/RSU.sol\":711:716  trust */\n      dup4\n        /* \"contracts/RSU.sol\":711:721  trust != 0 */\n      sub\n        /* \"contracts/RSU.sol\":711:749  trust != 0  ? \"legitimate\" : \"revoked\" */\n      tag_45\n      jumpi\n      mload(0x40)\n      dup1\n      0x40\n      add\n      0x40\n      mstore\n      dup1\n      0x07\n      dup2\n      mstore\n      0x20\n      add\n      0x7265766f6b656400000000000000000000000000000000000000000000000000\n      dup2\n      mstore\n      pop\n      jump(tag_46)\n    tag_45:\n      mload(0x40)\n      dup1\n      0x40\n      add\n      0x40\n      mstore\n      dup1\n      0x0a\n      dup2\n      mstore\n      0x20\n      add\n      0x6c65676974696d61746500000000000000000000000000000000000000000000\n      dup2\n      mstore\n      pop\n    tag_46:\n        /* \"contracts/RSU.sol\":691:750  return (trust , 10, trust != 0  ? \"legitimate\" : \"revoked\") */\n      swap4\n      pop\n      swap4\n      pop\n      swap4\n      pop\n      pop\n        /* \"contracts/RSU.sol\":541:757  function getRsuMessage(uint uuId) public view returns (uint, uint, string memory) {... */\n      swap2\n      swap4\n      swap1\n      swap3\n      pop\n      jump\t// out\n        /* \"contracts/RSU.sol\":259:350  function setSourceTrust(address add) public{... */\n    tag_21:\n        /* \"contracts/RSU.sol\":338:341  add */\n      dup1\n        /* \"contracts/RSU.sol\":312:323  sourceTrust */\n      0x00\n      dup1\n        /* \"contracts/RSU.sol\":312:342  sourceTrust = SourceTrust(add) */\n      0x0100\n      exp\n      dup2\n      sload\n      dup2\n      0xffffffffffffffffffffffffffffffffffffffff\n      mul\n      not\n      and\n      swap1\n      dup4\n      0xffffffffffffffffffffffffffffffffffffffff\n      and\n      mul\n      or\n      swap1\n      sstore\n      pop\n        /* \"contracts/RSU.sol\":259:350  function setSourceTrust(address add) public{... */\n      pop\n      jump\t// out\n        /* \"contracts/RSU.sol\":112:142  SourceTrust public sourceTrust */\n    tag_23:\n      0x00\n      dup1\n      sload\n      swap1\n      0x0100\n      exp\n      swap1\n      div\n      0xffffffffffffffffffffffffffffffffffffffff\n      and\n      dup2\n      jump\t// out\n        /* \"contracts/RSU.sol\":356:536  function random(uint number) public view returns(uint){... */\n    tag_28:\n        /* \"contracts/RSU.sol\":405:409  uint */\n      0x00\n        /* \"contracts/RSU.sol\":523:529  number */\n      dup2\n        /* \"contracts/RSU.sol\":463:478  block.timestamp */\n      timestamp\n        /* \"contracts/RSU.sol\":479:495  block.difficulty */\n      prevrandao\n        /* \"contracts/RSU.sol\":507:517  msg.sender */\n      caller\n        /* \"contracts/RSU.sol\":446:518  abi.encodePacked(block.timestamp,block.difficulty,  ... */\n      add(0x20, mload(0x40))\n      tag_49\n      swap4\n      swap3\n      swap2\n      swap1\n      tag_50\n      jump\t// in\n    tag_49:\n      mload(0x40)\n      0x20\n      dup2\n      dup4\n      sub\n      sub\n      dup2\n      mstore\n      swap1\n      0x40\n      mstore\n        /* \"contracts/RSU.sol\":436:519  keccak256(abi.encodePacked(block.timestamp,block.difficulty,  ... */\n      dup1\n      mload\n      swap1\n      0x20\n      add\n      keccak256\n        /* \"contracts/RSU.sol\":431:520  uint(keccak256(abi.encodePacked(block.timestamp,block.difficulty,  ... */\n      0x00\n      shr\n        /* \"contracts/RSU.sol\":431:529  uint(keccak256(abi.encodePacked(block.timestamp,block.difficulty,  ... */\n      tag_51\n      swap2\n      swap1\n      tag_52\n      jump\t// in\n    tag_51:\n        /* \"contracts/RSU.sol\":427:428  1 */\n      0x01\n        /* \"contracts/RSU.sol\":427:529  1 + uint(keccak256(abi.encodePacked(block.timestamp,block.difficulty,  ... */\n      tag_53\n      swap2\n      swap1\n      tag_54\n      jump\t// in\n    tag_53:\n        /* \"contracts/RSU.sol\":420:529  return 1 + uint(keccak256(abi.encodePacked(block.timestamp,block.difficulty,  ... */\n      swap1\n      pop\n        /* \"contracts/RSU.sol\":356:536  function random(uint number) public view returns(uint){... */\n      swap2\n      swap1\n      pop\n      jump\t// out\n        /* \"contracts/RSU.sol\":924:1486  function updateTrust(uint trust , bool offset) internal pure returns (uint256){... */\n    tag_33:\n        /* \"contracts/RSU.sol\":994:1001  uint256 */\n      0x00\n        /* \"contracts/RSU.sol\":1023:1024  3 */\n      0x03\n        /* \"contracts/RSU.sol\":1015:1020  trust */\n      dup4\n        /* \"contracts/RSU.sol\":1015:1024  trust < 3 */\n      lt\n        /* \"contracts/RSU.sol\":1015:1034  trust < 3 && offset */\n      dup1\n      iszero\n      tag_56\n      jumpi\n      pop\n        /* \"contracts/RSU.sol\":1028:1034  offset */\n      dup2\n        /* \"contracts/RSU.sol\":1015:1034  trust < 3 && offset */\n    tag_56:\n        /* \"contracts/RSU.sol\":1012:1480  if(trust < 3 && offset){... */\n      iszero\n      tag_57\n      jumpi\n        /* \"contracts/RSU.sol\":1062:1063  3 */\n      0x03\n        /* \"contracts/RSU.sol\":1056:1061  trust */\n      dup4\n        /* \"contracts/RSU.sol\":1056:1063  trust+3 */\n      tag_58\n      swap2\n      swap1\n      tag_54\n      jump\t// in\n    tag_58:\n        /* \"contracts/RSU.sol\":1049:1063  return trust+3 */\n      swap1\n      pop\n      jump(tag_55)\n        /* \"contracts/RSU.sol\":1012:1480  if(trust < 3 && offset){... */\n    tag_57:\n        /* \"contracts/RSU.sol\":1101:1102  3 */\n      0x03\n        /* \"contracts/RSU.sol\":1093:1098  trust */\n      dup4\n        /* \"contracts/RSU.sol\":1093:1102  trust < 3 */\n      lt\n        /* \"contracts/RSU.sol\":1093:1113  trust < 3 && !offset */\n      dup1\n      iszero\n      tag_60\n      jumpi\n      pop\n        /* \"contracts/RSU.sol\":1107:1113  offset */\n      dup2\n        /* \"contracts/RSU.sol\":1106:1113  !offset */\n      iszero\n        /* \"contracts/RSU.sol\":1093:1113  trust < 3 && !offset */\n    tag_60:\n        /* \"contracts/RSU.sol\":1090:1480  if(trust < 3 && !offset){... */\n      iszero\n      tag_61\n      jumpi\n        /* \"contracts/RSU.sol\":1145:1146  0 */\n      0x00\n        /* \"contracts/RSU.sol\":1141:1142  1 */\n      0x01\n        /* \"contracts/RSU.sol\":1135:1140  trust */\n      dup5\n        /* \"contracts/RSU.sol\":1135:1142  trust-1 */\n      tag_62\n      swap2\n      swap1\n      tag_63\n      jump\t// in\n    tag_62:\n        /* \"contracts/RSU.sol\":1135:1146  trust-1 < 0 */\n      lt\n        /* \"contracts/RSU.sol\":1135:1162  trust-1 < 0 ? 0 : trust - 1 */\n      tag_64\n      jumpi\n        /* \"contracts/RSU.sol\":1161:1162  1 */\n      0x01\n        /* \"contracts/RSU.sol\":1153:1158  trust */\n      dup4\n        /* \"contracts/RSU.sol\":1153:1162  trust - 1 */\n      tag_65\n      swap2\n      swap1\n      tag_63\n      jump\t// in\n    tag_65:\n        /* \"contracts/RSU.sol\":1135:1162  trust-1 < 0 ? 0 : trust - 1 */\n      jump(tag_66)\n    tag_64:\n        /* \"contracts/RSU.sol\":1149:1150  0 */\n      0x00\n        /* \"contracts/RSU.sol\":1135:1162  trust-1 < 0 ? 0 : trust - 1 */\n    tag_66:\n        /* \"contracts/RSU.sol\":1128:1162  return trust-1 < 0 ? 0 : trust - 1 */\n      swap1\n      pop\n      jump(tag_55)\n        /* \"contracts/RSU.sol\":1090:1480  if(trust < 3 && !offset){... */\n    tag_61:\n        /* \"contracts/RSU.sol\":1199:1200  8 */\n      0x08\n        /* \"contracts/RSU.sol\":1191:1196  trust */\n      dup4\n        /* \"contracts/RSU.sol\":1191:1200  trust < 8 */\n      lt\n        /* \"contracts/RSU.sol\":1191:1210  trust < 8 && offset */\n      dup1\n      iszero\n      tag_68\n      jumpi\n      pop\n        /* \"contracts/RSU.sol\":1204:1210  offset */\n      dup2\n        /* \"contracts/RSU.sol\":1191:1210  trust < 8 && offset */\n    tag_68:\n        /* \"contracts/RSU.sol\":1188:1480  if(trust < 8 && offset) {... */\n      iszero\n      tag_69\n      jumpi\n        /* \"contracts/RSU.sol\":1241:1242  2 */\n      0x02\n        /* \"contracts/RSU.sol\":1233:1238  trust */\n      dup4\n        /* \"contracts/RSU.sol\":1233:1242  trust + 2 */\n      tag_70\n      swap2\n      swap1\n      tag_54\n      jump\t// in\n    tag_70:\n        /* \"contracts/RSU.sol\":1226:1242  return trust + 2 */\n      swap1\n      pop\n      jump(tag_55)\n        /* \"contracts/RSU.sol\":1188:1480  if(trust < 8 && offset) {... */\n    tag_69:\n        /* \"contracts/RSU.sol\":1280:1281  8 */\n      0x08\n        /* \"contracts/RSU.sol\":1272:1277  trust */\n      dup4\n        /* \"contracts/RSU.sol\":1272:1281  trust < 8 */\n      lt\n        /* \"contracts/RSU.sol\":1272:1292  trust < 8 && !offset */\n      dup1\n      iszero\n      tag_72\n      jumpi\n      pop\n        /* \"contracts/RSU.sol\":1286:1292  offset */\n      dup2\n        /* \"contracts/RSU.sol\":1285:1292  !offset */\n      iszero\n        /* \"contracts/RSU.sol\":1272:1292  trust < 8 && !offset */\n    tag_72:\n        /* \"contracts/RSU.sol\":1269:1480  if(trust < 8 && !offset) {... */\n      iszero\n      tag_73\n      jumpi\n        /* \"contracts/RSU.sol\":1323:1324  2 */\n      0x02\n        /* \"contracts/RSU.sol\":1315:1320  trust */\n      dup4\n        /* \"contracts/RSU.sol\":1315:1324  trust - 2 */\n      tag_74\n      swap2\n      swap1\n      tag_63\n      jump\t// in\n    tag_74:\n        /* \"contracts/RSU.sol\":1308:1324  return trust - 2 */\n      swap1\n      pop\n      jump(tag_55)\n        /* \"contracts/RSU.sol\":1269:1480  if(trust < 8 && !offset) {... */\n    tag_73:\n        /* \"contracts/RSU.sol\":1353:1359  offset */\n      dup2\n        /* \"contracts/RSU.sol\":1350:1480  if(offset){... */\n      iszero\n      tag_76\n      jumpi\n        /* \"contracts/RSU.sol\":1393:1395  10 */\n      0x0a\n        /* \"contracts/RSU.sol\":1389:1390  1 */\n      0x01\n        /* \"contracts/RSU.sol\":1381:1386  trust */\n      dup5\n        /* \"contracts/RSU.sol\":1381:1390  trust + 1 */\n      tag_77\n      swap2\n      swap1\n      tag_54\n      jump\t// in\n    tag_77:\n        /* \"contracts/RSU.sol\":1381:1395  trust + 1 > 10 */\n      gt\n        /* \"contracts/RSU.sol\":1381:1412  trust + 1 > 10 ? 10 : trust + 1 */\n      tag_78\n      jumpi\n        /* \"contracts/RSU.sol\":1411:1412  1 */\n      0x01\n        /* \"contracts/RSU.sol\":1403:1408  trust */\n      dup4\n        /* \"contracts/RSU.sol\":1403:1412  trust + 1 */\n      tag_79\n      swap2\n      swap1\n      tag_54\n      jump\t// in\n    tag_79:\n        /* \"contracts/RSU.sol\":1381:1412  trust + 1 > 10 ? 10 : trust + 1 */\n      jump(tag_80)\n    tag_78:\n        /* \"contracts/RSU.sol\":1398:1400  10 */\n      0x0a\n        /* \"contracts/RSU.sol\":1381:1412  trust + 1 > 10 ? 10 : trust + 1 */\n    tag_80:\n        /* \"contracts/RSU.sol\":1374:1412  return trust + 1 > 10 ? 10 : trust + 1 */\n      swap1\n      pop\n      jump(tag_55)\n        /* \"contracts/RSU.sol\":1350:1480  if(offset){... */\n    tag_76:\n        /* \"contracts/RSU.sol\":1467:1468  3 */\n      0x03\n        /* \"contracts/RSU.sol\":1459:1464  trust */\n      dup4\n        /* \"contracts/RSU.sol\":1459:1468  trust - 3 */\n      tag_82\n      swap2\n      swap1\n      tag_63\n      jump\t// in\n    tag_82:\n        /* \"contracts/RSU.sol\":1452:1468  return trust - 3 */\n      swap1\n      pop\n        /* \"contracts/RSU.sol\":924:1486  function updateTrust(uint trust , bool offset) internal pure returns (uint256){... */\n    tag_55:\n      swap3\n      swap2\n      pop\n      pop\n      jump\t// out\n        /* \"#utility.yul\":88:205   */\n    tag_84:\n        /* \"#utility.yul\":197:198   */\n      0x00\n        /* \"#utility.yul\":194:195   */\n      dup1\n        /* \"#utility.yul\":187:199   */\n      revert\n        /* \"#utility.yul\":334:411   */\n    tag_86:\n        /* \"#utility.yul\":371:378   */\n      0x00\n        /* \"#utility.yul\":400:405   */\n      dup2\n        /* \"#utility.yul\":389:405   */\n      swap1\n      pop\n        /* \"#utility.yul\":334:411   */\n      swap2\n      swap1\n      pop\n      jump\t// out\n        /* \"#utility.yul\":417:539   */\n    tag_87:\n        /* \"#utility.yul\":490:514   */\n      tag_122\n        /* \"#utility.yul\":508:513   */\n      dup2\n        /* \"#utility.yul\":490:514   */\n      tag_86\n      jump\t// in\n    tag_122:\n        /* \"#utility.yul\":483:488   */\n      dup2\n        /* \"#utility.yul\":480:515   */\n      eq\n        /* \"#utility.yul\":470:533   */\n      tag_123\n      jumpi\n        /* \"#utility.yul\":529:530   */\n      0x00\n        /* \"#utility.yul\":526:527   */\n      dup1\n        /* \"#utility.yul\":519:531   */\n      revert\n        /* \"#utility.yul\":470:533   */\n    tag_123:\n        /* \"#utility.yul\":417:539   */\n      pop\n      jump\t// out\n        /* \"#utility.yul\":545:684   */\n    tag_88:\n        /* \"#utility.yul\":591:596   */\n      0x00\n        /* \"#utility.yul\":629:635   */\n      dup2\n        /* \"#utility.yul\":616:636   */\n      calldataload\n        /* \"#utility.yul\":607:636   */\n      swap1\n      pop\n        /* \"#utility.yul\":645:678   */\n      tag_125\n        /* \"#utility.yul\":672:677   */\n      dup2\n        /* \"#utility.yul\":645:678   */\n      tag_87\n      jump\t// in\n    tag_125:\n        /* \"#utility.yul\":545:684   */\n      swap3\n      swap2\n      pop\n      pop\n      jump\t// out\n        /* \"#utility.yul\":690:780   */\n    tag_89:\n        /* \"#utility.yul\":724:731   */\n      0x00\n        /* \"#utility.yul\":767:772   */\n      dup2\n        /* \"#utility.yul\":760:773   */\n      iszero\n        /* \"#utility.yul\":753:774   */\n      iszero\n        /* \"#utility.yul\":742:774   */\n      swap1\n      pop\n        /* \"#utility.yul\":690:780   */\n      swap2\n      swap1\n      pop\n      jump\t// out\n        /* \"#utility.yul\":786:902   */\n    tag_90:\n        /* \"#utility.yul\":856:877   */\n      tag_128\n        /* \"#utility.yul\":871:876   */\n      dup2\n        /* \"#utility.yul\":856:877   */\n      tag_89\n      jump\t// in\n    tag_128:\n        /* \"#utility.yul\":849:854   */\n      dup2\n        /* \"#utility.yul\":846:878   */\n      eq\n        /* \"#utility.yul\":836:896   */\n      tag_129\n      jumpi\n        /* \"#utility.yul\":892:893   */\n      0x00\n        /* \"#utility.yul\":889:890   */\n      dup1\n        /* \"#utility.yul\":882:894   */\n      revert\n        /* \"#utility.yul\":836:896   */\n    tag_129:\n        /* \"#utility.yul\":786:902   */\n      pop\n      jump\t// out\n        /* \"#utility.yul\":908:1041   */\n    tag_91:\n        /* \"#utility.yul\":951:956   */\n      0x00\n        /* \"#utility.yul\":989:995   */\n      dup2\n        /* \"#utility.yul\":976:996   */\n      calldataload\n        /* \"#utility.yul\":967:996   */\n      swap1\n      pop\n        /* \"#utility.yul\":1005:1035   */\n      tag_131\n        /* \"#utility.yul\":1029:1034   */\n      dup2\n        /* \"#utility.yul\":1005:1035   */\n      tag_90\n      jump\t// in\n    tag_131:\n        /* \"#utility.yul\":908:1041   */\n      swap3\n      swap2\n      pop\n      pop\n      jump\t// out\n        /* \"#utility.yul\":1047:1660   */\n    tag_10:\n        /* \"#utility.yul\":1121:1127   */\n      0x00\n        /* \"#utility.yul\":1129:1135   */\n      dup1\n        /* \"#utility.yul\":1137:1143   */\n      0x00\n        /* \"#utility.yul\":1186:1188   */\n      0x60\n        /* \"#utility.yul\":1174:1183   */\n      dup5\n        /* \"#utility.yul\":1165:1172   */\n      dup7\n        /* \"#utility.yul\":1161:1184   */\n      sub\n        /* \"#utility.yul\":1157:1189   */\n      slt\n        /* \"#utility.yul\":1154:1273   */\n      iszero\n      tag_133\n      jumpi\n        /* \"#utility.yul\":1192:1271   */\n      tag_134\n      tag_84\n      jump\t// in\n    tag_134:\n        /* \"#utility.yul\":1154:1273   */\n    tag_133:\n        /* \"#utility.yul\":1312:1313   */\n      0x00\n        /* \"#utility.yul\":1337:1390   */\n      tag_135\n        /* \"#utility.yul\":1382:1389   */\n      dup7\n        /* \"#utility.yul\":1373:1379   */\n      dup3\n        /* \"#utility.yul\":1362:1371   */\n      dup8\n        /* \"#utility.yul\":1358:1380   */\n      add\n        /* \"#utility.yul\":1337:1390   */\n      tag_88\n      jump\t// in\n    tag_135:\n        /* \"#utility.yul\":1327:1390   */\n      swap4\n      pop\n        /* \"#utility.yul\":1283:1400   */\n      pop\n        /* \"#utility.yul\":1439:1441   */\n      0x20\n        /* \"#utility.yul\":1465:1518   */\n      tag_136\n        /* \"#utility.yul\":1510:1517   */\n      dup7\n        /* \"#utility.yul\":1501:1507   */\n      dup3\n        /* \"#utility.yul\":1490:1499   */\n      dup8\n        /* \"#utility.yul\":1486:1508   */\n      add\n        /* \"#utility.yul\":1465:1518   */\n      tag_88\n      jump\t// in\n    tag_136:\n        /* \"#utility.yul\":1455:1518   */\n      swap3\n      pop\n        /* \"#utility.yul\":1410:1528   */\n      pop\n        /* \"#utility.yul\":1567:1569   */\n      0x40\n        /* \"#utility.yul\":1593:1643   */\n      tag_137\n        /* \"#utility.yul\":1635:1642   */\n      dup7\n        /* \"#utility.yul\":1626:1632   */\n      dup3\n        /* \"#utility.yul\":1615:1624   */\n      dup8\n        /* \"#utility.yul\":1611:1633   */\n      add\n        /* \"#utility.yul\":1593:1643   */\n      tag_91\n      jump\t// in\n    tag_137:\n        /* \"#utility.yul\":1583:1643   */\n      swap2\n      pop\n        /* \"#utility.yul\":1538:1653   */\n      pop\n        /* \"#utility.yul\":1047:1660   */\n      swap3\n      pop\n      swap3\n      pop\n      swap3\n      jump\t// out\n        /* \"#utility.yul\":1666:1995   */\n    tag_14:\n        /* \"#utility.yul\":1725:1731   */\n      0x00\n        /* \"#utility.yul\":1774:1776   */\n      0x20\n        /* \"#utility.yul\":1762:1771   */\n      dup3\n        /* \"#utility.yul\":1753:1760   */\n      dup5\n        /* \"#utility.yul\":1749:1772   */\n      sub\n        /* \"#utility.yul\":1745:1777   */\n      slt\n        /* \"#utility.yul\":1742:1861   */\n      iszero\n      tag_139\n      jumpi\n        /* \"#utility.yul\":1780:1859   */\n      tag_140\n      tag_84\n      jump\t// in\n    tag_140:\n        /* \"#utility.yul\":1742:1861   */\n    tag_139:\n        /* \"#utility.yul\":1900:1901   */\n      0x00\n        /* \"#utility.yul\":1925:1978   */\n      tag_141\n        /* \"#utility.yul\":1970:1977   */\n      dup5\n        /* \"#utility.yul\":1961:1967   */\n      dup3\n        /* \"#utility.yul\":1950:1959   */\n      dup6\n        /* \"#utility.yul\":1946:1968   */\n      add\n        /* \"#utility.yul\":1925:1978   */\n      tag_88\n      jump\t// in\n    tag_141:\n        /* \"#utility.yul\":1915:1978   */\n      swap2\n      pop\n        /* \"#utility.yul\":1871:1988   */\n      pop\n        /* \"#utility.yul\":1666:1995   */\n      swap3\n      swap2\n      pop\n      pop\n      jump\t// out\n        /* \"#utility.yul\":2001:2119   */\n    tag_92:\n        /* \"#utility.yul\":2088:2112   */\n      tag_143\n        /* \"#utility.yul\":2106:2111   */\n      dup2\n        /* \"#utility.yul\":2088:2112   */\n      tag_86\n      jump\t// in\n    tag_143:\n        /* \"#utility.yul\":2083:2086   */\n      dup3\n        /* \"#utility.yul\":2076:2113   */\n      mstore\n        /* \"#utility.yul\":2001:2119   */\n      pop\n      pop\n      jump\t// out\n        /* \"#utility.yul\":2125:2224   */\n    tag_93:\n        /* \"#utility.yul\":2177:2183   */\n      0x00\n        /* \"#utility.yul\":2211:2216   */\n      dup2\n        /* \"#utility.yul\":2205:2217   */\n      mload\n        /* \"#utility.yul\":2195:2217   */\n      swap1\n      pop\n        /* \"#utility.yul\":2125:2224   */\n      swap2\n      swap1\n      pop\n      jump\t// out\n        /* \"#utility.yul\":2230:2399   */\n    tag_94:\n        /* \"#utility.yul\":2314:2325   */\n      0x00\n        /* \"#utility.yul\":2348:2354   */\n      dup3\n        /* \"#utility.yul\":2343:2346   */\n      dup3\n        /* \"#utility.yul\":2336:2355   */\n      mstore\n        /* \"#utility.yul\":2388:2392   */\n      0x20\n        /* \"#utility.yul\":2383:2386   */\n      dup3\n        /* \"#utility.yul\":2379:2393   */\n      add\n        /* \"#utility.yul\":2364:2393   */\n      swap1\n      pop\n        /* \"#utility.yul\":2230:2399   */\n      swap3\n      swap2\n      pop\n      pop\n      jump\t// out\n        /* \"#utility.yul\":2405:2651   */\n    tag_95:\n        /* \"#utility.yul\":2486:2487   */\n      0x00\n        /* \"#utility.yul\":2496:2609   */\n    tag_147:\n        /* \"#utility.yul\":2510:2516   */\n      dup4\n        /* \"#utility.yul\":2507:2508   */\n      dup2\n        /* \"#utility.yul\":2504:2517   */\n      lt\n        /* \"#utility.yul\":2496:2609   */\n      iszero\n      tag_149\n      jumpi\n        /* \"#utility.yul\":2595:2596   */\n      dup1\n        /* \"#utility.yul\":2590:2593   */\n      dup3\n        /* \"#utility.yul\":2586:2597   */\n      add\n        /* \"#utility.yul\":2580:2598   */\n      mload\n        /* \"#utility.yul\":2576:2577   */\n      dup2\n        /* \"#utility.yul\":2571:2574   */\n      dup5\n        /* \"#utility.yul\":2567:2578   */\n      add\n        /* \"#utility.yul\":2560:2599   */\n      mstore\n        /* \"#utility.yul\":2532:2534   */\n      0x20\n        /* \"#utility.yul\":2529:2530   */\n      dup2\n        /* \"#utility.yul\":2525:2535   */\n      add\n        /* \"#utility.yul\":2520:2535   */\n      swap1\n      pop\n        /* \"#utility.yul\":2496:2609   */\n      jump(tag_147)\n    tag_149:\n        /* \"#utility.yul\":2643:2644   */\n      0x00\n        /* \"#utility.yul\":2634:2640   */\n      dup5\n        /* \"#utility.yul\":2629:2632   */\n      dup5\n        /* \"#utility.yul\":2625:2641   */\n      add\n        /* \"#utility.yul\":2618:2645   */\n      mstore\n        /* \"#utility.yul\":2467:2651   */\n      pop\n        /* \"#utility.yul\":2405:2651   */\n      pop\n      pop\n      pop\n      jump\t// out\n        /* \"#utility.yul\":2657:2759   */\n    tag_96:\n        /* \"#utility.yul\":2698:2704   */\n      0x00\n        /* \"#utility.yul\":2749:2751   */\n      0x1f\n        /* \"#utility.yul\":2745:2752   */\n      not\n        /* \"#utility.yul\":2740:2742   */\n      0x1f\n        /* \"#utility.yul\":2733:2738   */\n      dup4\n        /* \"#utility.yul\":2729:2743   */\n      add\n        /* \"#utility.yul\":2725:2753   */\n      and\n        /* \"#utility.yul\":2715:2753   */\n      swap1\n      pop\n        /* \"#utility.yul\":2657:2759   */\n      swap2\n      swap1\n      pop\n      jump\t// out\n        /* \"#utility.yul\":2765:3142   */\n    tag_97:\n        /* \"#utility.yul\":2853:2856   */\n      0x00\n        /* \"#utility.yul\":2881:2920   */\n      tag_152\n        /* \"#utility.yul\":2914:2919   */\n      dup3\n        /* \"#utility.yul\":2881:2920   */\n      tag_93\n      jump\t// in\n    tag_152:\n        /* \"#utility.yul\":2936:3007   */\n      tag_153\n        /* \"#utility.yul\":3000:3006   */\n      dup2\n        /* \"#utility.yul\":2995:2998   */\n      dup6\n        /* \"#utility.yul\":2936:3007   */\n      tag_94\n      jump\t// in\n    tag_153:\n        /* \"#utility.yul\":2929:3007   */\n      swap4\n      pop\n        /* \"#utility.yul\":3016:3081   */\n      tag_154\n        /* \"#utility.yul\":3074:3080   */\n      dup2\n        /* \"#utility.yul\":3069:3072   */\n      dup6\n        /* \"#utility.yul\":3062:3066   */\n      0x20\n        /* \"#utility.yul\":3055:3060   */\n      dup7\n        /* \"#utility.yul\":3051:3067   */\n      add\n        /* \"#utility.yul\":3016:3081   */\n      tag_95\n      jump\t// in\n    tag_154:\n        /* \"#utility.yul\":3106:3135   */\n      tag_155\n        /* \"#utility.yul\":3128:3134   */\n      dup2\n        /* \"#utility.yul\":3106:3135   */\n      tag_96\n      jump\t// in\n    tag_155:\n        /* \"#utility.yul\":3101:3104   */\n      dup5\n        /* \"#utility.yul\":3097:3136   */\n      add\n        /* \"#utility.yul\":3090:3136   */\n      swap2\n      pop\n        /* \"#utility.yul\":2857:3142   */\n      pop\n        /* \"#utility.yul\":2765:3142   */\n      swap3\n      swap2\n      pop\n      pop\n      jump\t// out\n        /* \"#utility.yul\":3148:3681   */\n    tag_17:\n        /* \"#utility.yul\":3317:3321   */\n      0x00\n        /* \"#utility.yul\":3355:3357   */\n      0x60\n        /* \"#utility.yul\":3344:3353   */\n      dup3\n        /* \"#utility.yul\":3340:3358   */\n      add\n        /* \"#utility.yul\":3332:3358   */\n      swap1\n      pop\n        /* \"#utility.yul\":3368:3439   */\n      tag_157\n        /* \"#utility.yul\":3436:3437   */\n      0x00\n        /* \"#utility.yul\":3425:3434   */\n      dup4\n        /* \"#utility.yul\":3421:3438   */\n      add\n        /* \"#utility.yul\":3412:3418   */\n      dup7\n        /* \"#utility.yul\":3368:3439   */\n      tag_92\n      jump\t// in\n    tag_157:\n        /* \"#utility.yul\":3449:3521   */\n      tag_158\n        /* \"#utility.yul\":3517:3519   */\n      0x20\n        /* \"#utility.yul\":3506:3515   */\n      dup4\n        /* \"#utility.yul\":3502:3520   */\n      add\n        /* \"#utility.yul\":3493:3499   */\n      dup6\n        /* \"#utility.yul\":3449:3521   */\n      tag_92\n      jump\t// in\n    tag_158:\n        /* \"#utility.yul\":3568:3577   */\n      dup2\n        /* \"#utility.yul\":3562:3566   */\n      dup2\n        /* \"#utility.yul\":3558:3578   */\n      sub\n        /* \"#utility.yul\":3553:3555   */\n      0x40\n        /* \"#utility.yul\":3542:3551   */\n      dup4\n        /* \"#utility.yul\":3538:3556   */\n      add\n        /* \"#utility.yul\":3531:3579   */\n      mstore\n        /* \"#utility.yul\":3596:3674   */\n      tag_159\n        /* \"#utility.yul\":3669:3673   */\n      dup2\n        /* \"#utility.yul\":3660:3666   */\n      dup5\n        /* \"#utility.yul\":3596:3674   */\n      tag_97\n      jump\t// in\n    tag_159:\n        /* \"#utility.yul\":3588:3674   */\n      swap1\n      pop\n        /* \"#utility.yul\":3148:3681   */\n      swap5\n      swap4\n      pop\n      pop\n      pop\n      pop\n      jump\t// out\n        /* \"#utility.yul\":3687:3813   */\n    tag_98:\n        /* \"#utility.yul\":3724:3731   */\n      0x00\n        /* \"#utility.yul\":3764:3806   */\n      0xffffffffffffffffffffffffffffffffffffffff\n        /* \"#utility.yul\":3757:3762   */\n      dup3\n        /* \"#utility.yul\":3753:3807   */\n      and\n        /* \"#utility.yul\":3742:3807   */\n      swap1\n      pop\n        /* \"#utility.yul\":3687:3813   */\n      swap2\n      swap1\n      pop\n      jump\t// out\n        /* \"#utility.yul\":3819:3915   */\n    tag_99:\n        /* \"#utility.yul\":3856:3863   */\n      0x00\n        /* \"#utility.yul\":3885:3909   */\n      tag_162\n        /* \"#utility.yul\":3903:3908   */\n      dup3\n        /* \"#utility.yul\":3885:3909   */\n      tag_98\n      jump\t// in\n    tag_162:\n        /* \"#utility.yul\":3874:3909   */\n      swap1\n      pop\n        /* \"#utility.yul\":3819:3915   */\n      swap2\n      swap1\n      pop\n      jump\t// out\n        /* \"#utility.yul\":3921:4043   */\n    tag_100:\n        /* \"#utility.yul\":3994:4018   */\n      tag_164\n        /* \"#utility.yul\":4012:4017   */\n      dup2\n        /* \"#utility.yul\":3994:4018   */\n      tag_99\n      jump\t// in\n    tag_164:\n        /* \"#utility.yul\":3987:3992   */\n      dup2\n        /* \"#utility.yul\":3984:4019   */\n      eq\n        /* \"#utility.yul\":3974:4037   */\n      tag_165\n      jumpi\n        /* \"#utility.yul\":4033:4034   */\n      0x00\n        /* \"#utility.yul\":4030:4031   */\n      dup1\n        /* \"#utility.yul\":4023:4035   */\n      revert\n        /* \"#utility.yul\":3974:4037   */\n    tag_165:\n        /* \"#utility.yul\":3921:4043   */\n      pop\n      jump\t// out\n        /* \"#utility.yul\":4049:4188   */\n    tag_101:\n        /* \"#utility.yul\":4095:4100   */\n      0x00\n        /* \"#utility.yul\":4133:4139   */\n      dup2\n        /* \"#utility.yul\":4120:4140   */\n      calldataload\n        /* \"#utility.yul\":4111:4140   */\n      swap1\n      pop\n        /* \"#utility.yul\":4149:4182   */\n      tag_167\n        /* \"#utility.yul\":4176:4181   */\n      dup2\n        /* \"#utility.yul\":4149:4182   */\n      tag_100\n      jump\t// in\n    tag_167:\n        /* \"#utility.yul\":4049:4188   */\n      swap3\n      swap2\n      pop\n      pop\n      jump\t// out\n        /* \"#utility.yul\":4194:4523   */\n    tag_20:\n        /* \"#utility.yul\":4253:4259   */\n      0x00\n        /* \"#utility.yul\":4302:4304   */\n      0x20\n        /* \"#utility.yul\":4290:4299   */\n      dup3\n        /* \"#utility.yul\":4281:4288   */\n      dup5\n        /* \"#utility.yul\":4277:4300   */\n      sub\n        /* \"#utility.yul\":4273:4305   */\n      slt\n        /* \"#utility.yul\":4270:4389   */\n      iszero\n      tag_169\n      jumpi\n        /* \"#utility.yul\":4308:4387   */\n      tag_170\n      tag_84\n      jump\t// in\n    tag_170:\n        /* \"#utility.yul\":4270:4389   */\n    tag_169:\n        /* \"#utility.yul\":4428:4429   */\n      0x00\n        /* \"#utility.yul\":4453:4506   */\n      tag_171\n        /* \"#utility.yul\":4498:4505   */\n      dup5\n        /* \"#utility.yul\":4489:4495   */\n      dup3\n        /* \"#utility.yul\":4478:4487   */\n      dup6\n        /* \"#utility.yul\":4474:4496   */\n      add\n        /* \"#utility.yul\":4453:4506   */\n      tag_101\n      jump\t// in\n    tag_171:\n        /* \"#utility.yul\":4443:4506   */\n      swap2\n      pop\n        /* \"#utility.yul\":4399:4516   */\n      pop\n        /* \"#utility.yul\":4194:4523   */\n      swap3\n      swap2\n      pop\n      pop\n      jump\t// out\n        /* \"#utility.yul\":4529:4589   */\n    tag_102:\n        /* \"#utility.yul\":4557:4560   */\n      0x00\n        /* \"#utility.yul\":4578:4583   */\n      dup2\n        /* \"#utility.yul\":4571:4583   */\n      swap1\n      pop\n        /* \"#utility.yul\":4529:4589   */\n      swap2\n      swap1\n      pop\n      jump\t// out\n        /* \"#utility.yul\":4595:4737   */\n    tag_103:\n        /* \"#utility.yul\":4645:4654   */\n      0x00\n        /* \"#utility.yul\":4678:4731   */\n      tag_174\n        /* \"#utility.yul\":4696:4730   */\n      tag_175\n        /* \"#utility.yul\":4705:4729   */\n      tag_176\n        /* \"#utility.yul\":4723:4728   */\n      dup5\n        /* \"#utility.yul\":4705:4729   */\n      tag_98\n      jump\t// in\n    tag_176:\n        /* \"#utility.yul\":4696:4730   */\n      tag_102\n      jump\t// in\n    tag_175:\n        /* \"#utility.yul\":4678:4731   */\n      tag_98\n      jump\t// in\n    tag_174:\n        /* \"#utility.yul\":4665:4731   */\n      swap1\n      pop\n        /* \"#utility.yul\":4595:4737   */\n      swap2\n      swap1\n      pop\n      jump\t// out\n        /* \"#utility.yul\":4743:4869   */\n    tag_104:\n        /* \"#utility.yul\":4793:4802   */\n      0x00\n        /* \"#utility.yul\":4826:4863   */\n      tag_178\n        /* \"#utility.yul\":4857:4862   */\n      dup3\n        /* \"#utility.yul\":4826:4863   */\n      tag_103\n      jump\t// in\n    tag_178:\n        /* \"#utility.yul\":4813:4863   */\n      swap1\n      pop\n        /* \"#utility.yul\":4743:4869   */\n      swap2\n      swap1\n      pop\n      jump\t// out\n        /* \"#utility.yul\":4875:5020   */\n    tag_105:\n        /* \"#utility.yul\":4944:4953   */\n      0x00\n        /* \"#utility.yul\":4977:5014   */\n      tag_180\n        /* \"#utility.yul\":5008:5013   */\n      dup3\n        /* \"#utility.yul\":4977:5014   */\n      tag_104\n      jump\t// in\n    tag_180:\n        /* \"#utility.yul\":4964:5014   */\n      swap1\n      pop\n        /* \"#utility.yul\":4875:5020   */\n      swap2\n      swap1\n      pop\n      jump\t// out\n        /* \"#utility.yul\":5026:5195   */\n    tag_106:\n        /* \"#utility.yul\":5132:5188   */\n      tag_182\n        /* \"#utility.yul\":5182:5187   */\n      dup2\n        /* \"#utility.yul\":5132:5188   */\n      tag_105\n      jump\t// in\n    tag_182:\n        /* \"#utility.yul\":5127:5130   */\n      dup3\n        /* \"#utility.yul\":5120:5189   */\n      mstore\n        /* \"#utility.yul\":5026:5195   */\n      pop\n      pop\n      jump\t// out\n        /* \"#utility.yul\":5201:5461   */\n    tag_25:\n        /* \"#utility.yul\":5313:5317   */\n      0x00\n        /* \"#utility.yul\":5351:5353   */\n      0x20\n        /* \"#utility.yul\":5340:5349   */\n      dup3\n        /* \"#utility.yul\":5336:5354   */\n      add\n        /* \"#utility.yul\":5328:5354   */\n      swap1\n      pop\n        /* \"#utility.yul\":5364:5454   */\n      tag_184\n        /* \"#utility.yul\":5451:5452   */\n      0x00\n        /* \"#utility.yul\":5440:5449   */\n      dup4\n        /* \"#utility.yul\":5436:5453   */\n      add\n        /* \"#utility.yul\":5427:5433   */\n      dup5\n        /* \"#utility.yul\":5364:5454   */\n      tag_106\n      jump\t// in\n    tag_184:\n        /* \"#utility.yul\":5201:5461   */\n      swap3\n      swap2\n      pop\n      pop\n      jump\t// out\n        /* \"#utility.yul\":5467:5689   */\n    tag_30:\n        /* \"#utility.yul\":5560:5564   */\n      0x00\n        /* \"#utility.yul\":5598:5600   */\n      0x20\n        /* \"#utility.yul\":5587:5596   */\n      dup3\n        /* \"#utility.yul\":5583:5601   */\n      add\n        /* \"#utility.yul\":5575:5601   */\n      swap1\n      pop\n        /* \"#utility.yul\":5611:5682   */\n      tag_186\n        /* \"#utility.yul\":5679:5680   */\n      0x00\n        /* \"#utility.yul\":5668:5677   */\n      dup4\n        /* \"#utility.yul\":5664:5681   */\n      add\n        /* \"#utility.yul\":5655:5661   */\n      dup5\n        /* \"#utility.yul\":5611:5682   */\n      tag_92\n      jump\t// in\n    tag_186:\n        /* \"#utility.yul\":5467:5689   */\n      swap3\n      swap2\n      pop\n      pop\n      jump\t// out\n        /* \"#utility.yul\":5695:6027   */\n    tag_35:\n        /* \"#utility.yul\":5816:5820   */\n      0x00\n        /* \"#utility.yul\":5854:5856   */\n      0x40\n        /* \"#utility.yul\":5843:5852   */\n      dup3\n        /* \"#utility.yul\":5839:5857   */\n      add\n        /* \"#utility.yul\":5831:5857   */\n      swap1\n      pop\n        /* \"#utility.yul\":5867:5938   */\n      tag_188\n        /* \"#utility.yul\":5935:5936   */\n      0x00\n        /* \"#utility.yul\":5924:5933   */\n      dup4\n        /* \"#utility.yul\":5920:5937   */\n      add\n        /* \"#utility.yul\":5911:5917   */\n      dup6\n        /* \"#utility.yul\":5867:5938   */\n      tag_92\n      jump\t// in\n    tag_188:\n        /* \"#utility.yul\":5948:6020   */\n      tag_189\n        /* \"#utility.yul\":6016:6018   */\n      0x20\n        /* \"#utility.yul\":6005:6014   */\n      dup4\n        /* \"#utility.yul\":6001:6019   */\n      add\n        /* \"#utility.yul\":5992:5998   */\n      dup5\n        /* \"#utility.yul\":5948:6020   */\n      tag_92\n      jump\t// in\n    tag_189:\n        /* \"#utility.yul\":5695:6027   */\n      swap4\n      swap3\n      pop\n      pop\n      pop\n      jump\t// out\n        /* \"#utility.yul\":6033:6176   */\n    tag_107:\n        /* \"#utility.yul\":6090:6095   */\n      0x00\n        /* \"#utility.yul\":6121:6127   */\n      dup2\n        /* \"#utility.yul\":6115:6128   */\n      mload\n        /* \"#utility.yul\":6106:6128   */\n      swap1\n      pop\n        /* \"#utility.yul\":6137:6170   */\n      tag_191\n        /* \"#utility.yul\":6164:6169   */\n      dup2\n        /* \"#utility.yul\":6137:6170   */\n      tag_87\n      jump\t// in\n    tag_191:\n        /* \"#utility.yul\":6033:6176   */\n      swap3\n      swap2\n      pop\n      pop\n      jump\t// out\n        /* \"#utility.yul\":6182:6533   */\n    tag_44:\n        /* \"#utility.yul\":6252:6258   */\n      0x00\n        /* \"#utility.yul\":6301:6303   */\n      0x20\n        /* \"#utility.yul\":6289:6298   */\n      dup3\n        /* \"#utility.yul\":6280:6287   */\n      dup5\n        /* \"#utility.yul\":6276:6299   */\n      sub\n        /* \"#utility.yul\":6272:6304   */\n      slt\n        /* \"#utility.yul\":6269:6388   */\n      iszero\n      tag_193\n      jumpi\n        /* \"#utility.yul\":6307:6386   */\n      tag_194\n      tag_84\n      jump\t// in\n    tag_194:\n        /* \"#utility.yul\":6269:6388   */\n    tag_193:\n        /* \"#utility.yul\":6427:6428   */\n      0x00\n        /* \"#utility.yul\":6452:6516   */\n      tag_195\n        /* \"#utility.yul\":6508:6515   */\n      dup5\n        /* \"#utility.yul\":6499:6505   */\n      dup3\n        /* \"#utility.yul\":6488:6497   */\n      dup6\n        /* \"#utility.yul\":6484:6506   */\n      add\n        /* \"#utility.yul\":6452:6516   */\n      tag_107\n      jump\t// in\n    tag_195:\n        /* \"#utility.yul\":6442:6516   */\n      swap2\n      pop\n        /* \"#utility.yul\":6398:6526   */\n      pop\n        /* \"#utility.yul\":6182:6533   */\n      swap3\n      swap2\n      pop\n      pop\n      jump\t// out\n        /* \"#utility.yul\":6539:6618   */\n    tag_108:\n        /* \"#utility.yul\":6578:6585   */\n      0x00\n        /* \"#utility.yul\":6607:6612   */\n      dup2\n        /* \"#utility.yul\":6596:6612   */\n      swap1\n      pop\n        /* \"#utility.yul\":6539:6618   */\n      swap2\n      swap1\n      pop\n      jump\t// out\n        /* \"#utility.yul\":6624:6781   */\n    tag_109:\n        /* \"#utility.yul\":6729:6774   */\n      tag_198\n        /* \"#utility.yul\":6749:6773   */\n      tag_199\n        /* \"#utility.yul\":6767:6772   */\n      dup3\n        /* \"#utility.yul\":6749:6773   */\n      tag_86\n      jump\t// in\n    tag_199:\n        /* \"#utility.yul\":6729:6774   */\n      tag_108\n      jump\t// in\n    tag_198:\n        /* \"#utility.yul\":6724:6727   */\n      dup3\n        /* \"#utility.yul\":6717:6775   */\n      mstore\n        /* \"#utility.yul\":6624:6781   */\n      pop\n      pop\n      jump\t// out\n        /* \"#utility.yul\":6787:6881   */\n    tag_110:\n        /* \"#utility.yul\":6820:6828   */\n      0x00\n        /* \"#utility.yul\":6868:6873   */\n      dup2\n        /* \"#utility.yul\":6864:6866   */\n      0x60\n        /* \"#utility.yul\":6860:6874   */\n      shl\n        /* \"#utility.yul\":6839:6874   */\n      swap1\n      pop\n        /* \"#utility.yul\":6787:6881   */\n      swap2\n      swap1\n      pop\n      jump\t// out\n        /* \"#utility.yul\":6887:6981   */\n    tag_111:\n        /* \"#utility.yul\":6926:6933   */\n      0x00\n        /* \"#utility.yul\":6955:6975   */\n      tag_202\n        /* \"#utility.yul\":6969:6974   */\n      dup3\n        /* \"#utility.yul\":6955:6975   */\n      tag_110\n      jump\t// in\n    tag_202:\n        /* \"#utility.yul\":6944:6975   */\n      swap1\n      pop\n        /* \"#utility.yul\":6887:6981   */\n      swap2\n      swap1\n      pop\n      jump\t// out\n        /* \"#utility.yul\":6987:7087   */\n    tag_112:\n        /* \"#utility.yul\":7026:7033   */\n      0x00\n        /* \"#utility.yul\":7055:7081   */\n      tag_204\n        /* \"#utility.yul\":7075:7080   */\n      dup3\n        /* \"#utility.yul\":7055:7081   */\n      tag_111\n      jump\t// in\n    tag_204:\n        /* \"#utility.yul\":7044:7081   */\n      swap1\n      pop\n        /* \"#utility.yul\":6987:7087   */\n      swap2\n      swap1\n      pop\n      jump\t// out\n        /* \"#utility.yul\":7093:7250   */\n    tag_113:\n        /* \"#utility.yul\":7198:7243   */\n      tag_206\n        /* \"#utility.yul\":7218:7242   */\n      tag_207\n        /* \"#utility.yul\":7236:7241   */\n      dup3\n        /* \"#utility.yul\":7218:7242   */\n      tag_99\n      jump\t// in\n    tag_207:\n        /* \"#utility.yul\":7198:7243   */\n      tag_112\n      jump\t// in\n    tag_206:\n        /* \"#utility.yul\":7193:7196   */\n      dup3\n        /* \"#utility.yul\":7186:7244   */\n      mstore\n        /* \"#utility.yul\":7093:7250   */\n      pop\n      pop\n      jump\t// out\n        /* \"#utility.yul\":7256:7794   */\n    tag_50:\n        /* \"#utility.yul\":7424:7427   */\n      0x00\n        /* \"#utility.yul\":7439:7514   */\n      tag_209\n        /* \"#utility.yul\":7510:7513   */\n      dup3\n        /* \"#utility.yul\":7501:7507   */\n      dup7\n        /* \"#utility.yul\":7439:7514   */\n      tag_109\n      jump\t// in\n    tag_209:\n        /* \"#utility.yul\":7539:7541   */\n      0x20\n        /* \"#utility.yul\":7534:7537   */\n      dup3\n        /* \"#utility.yul\":7530:7542   */\n      add\n        /* \"#utility.yul\":7523:7542   */\n      swap2\n      pop\n        /* \"#utility.yul\":7552:7627   */\n      tag_210\n        /* \"#utility.yul\":7623:7626   */\n      dup3\n        /* \"#utility.yul\":7614:7620   */\n      dup6\n        /* \"#utility.yul\":7552:7627   */\n      tag_109\n      jump\t// in\n    tag_210:\n        /* \"#utility.yul\":7652:7654   */\n      0x20\n        /* \"#utility.yul\":7647:7650   */\n      dup3\n        /* \"#utility.yul\":7643:7655   */\n      add\n        /* \"#utility.yul\":7636:7655   */\n      swap2\n      pop\n        /* \"#utility.yul\":7665:7740   */\n      tag_211\n        /* \"#utility.yul\":7736:7739   */\n      dup3\n        /* \"#utility.yul\":7727:7733   */\n      dup5\n        /* \"#utility.yul\":7665:7740   */\n      tag_113\n      jump\t// in\n    tag_211:\n        /* \"#utility.yul\":7765:7767   */\n      0x14\n        /* \"#utility.yul\":7760:7763   */\n      dup3\n        /* \"#utility.yul\":7756:7768   */\n      add\n        /* \"#utility.yul\":7749:7768   */\n      swap2\n      pop\n        /* \"#utility.yul\":7785:7788   */\n      dup2\n        /* \"#utility.yul\":7778:7788   */\n      swap1\n      pop\n        /* \"#utility.yul\":7256:7794   */\n      swap5\n      swap4\n      pop\n      pop\n      pop\n      pop\n      jump\t// out\n        /* \"#utility.yul\":7800:7980   */\n    tag_114:\n        /* \"#utility.yul\":7848:7925   */\n      0x4e487b7100000000000000000000000000000000000000000000000000000000\n        /* \"#utility.yul\":7845:7846   */\n      0x00\n        /* \"#utility.yul\":7838:7926   */\n      mstore\n        /* \"#utility.yul\":7945:7949   */\n      0x12\n        /* \"#utility.yul\":7942:7943   */\n      0x04\n        /* \"#utility.yul\":7935:7950   */\n      mstore\n        /* \"#utility.yul\":7969:7973   */\n      0x24\n        /* \"#utility.yul\":7966:7967   */\n      0x00\n        /* \"#utility.yul\":7959:7974   */\n      revert\n        /* \"#utility.yul\":7986:8162   */\n    tag_52:\n        /* \"#utility.yul\":8018:8019   */\n      0x00\n        /* \"#utility.yul\":8035:8055   */\n      tag_214\n        /* \"#utility.yul\":8053:8054   */\n      dup3\n        /* \"#utility.yul\":8035:8055   */\n      tag_86\n      jump\t// in\n    tag_214:\n        /* \"#utility.yul\":8030:8055   */\n      swap2\n      pop\n        /* \"#utility.yul\":8069:8089   */\n      tag_215\n        /* \"#utility.yul\":8087:8088   */\n      dup4\n        /* \"#utility.yul\":8069:8089   */\n      tag_86\n      jump\t// in\n    tag_215:\n        /* \"#utility.yul\":8064:8089   */\n      swap3\n      pop\n        /* \"#utility.yul\":8108:8109   */\n      dup3\n        /* \"#utility.yul\":8098:8133   */\n      tag_216\n      jumpi\n        /* \"#utility.yul\":8113:8131   */\n      tag_217\n      tag_114\n      jump\t// in\n    tag_217:\n        /* \"#utility.yul\":8098:8133   */\n    tag_216:\n        /* \"#utility.yul\":8154:8155   */\n      dup3\n        /* \"#utility.yul\":8151:8152   */\n      dup3\n        /* \"#utility.yul\":8147:8156   */\n      mod\n        /* \"#utility.yul\":8142:8156   */\n      swap1\n      pop\n        /* \"#utility.yul\":7986:8162   */\n      swap3\n      swap2\n      pop\n      pop\n      jump\t// out\n        /* \"#utility.yul\":8168:8348   */\n    tag_115:\n        /* \"#utility.yul\":8216:8293   */\n      0x4e487b7100000000000000000000000000000000000000000000000000000000\n        /* \"#utility.yul\":8213:8214   */\n      0x00\n        /* \"#utility.yul\":8206:8294   */\n      mstore\n        /* \"#utility.yul\":8313:8317   */\n      0x11\n        /* \"#utility.yul\":8310:8311   */\n      0x04\n        /* \"#utility.yul\":8303:8318   */\n      mstore\n        /* \"#utility.yul\":8337:8341   */\n      0x24\n        /* \"#utility.yul\":8334:8335   */\n      0x00\n        /* \"#utility.yul\":8327:8342   */\n      revert\n        /* \"#utility.yul\":8354:8545   */\n    tag_54:\n        /* \"#utility.yul\":8394:8397   */\n      0x00\n        /* \"#utility.yul\":8413:8433   */\n      tag_220\n        /* \"#utility.yul\":8431:8432   */\n      dup3\n        /* \"#utility.yul\":8413:8433   */\n      tag_86\n      jump\t// in\n    tag_220:\n        /* \"#utility.yul\":8408:8433   */\n      swap2\n      pop\n        /* \"#utility.yul\":8447:8467   */\n      tag_221\n        /* \"#utility.yul\":8465:8466   */\n      dup4\n        /* \"#utility.yul\":8447:8467   */\n      tag_86\n      jump\t// in\n    tag_221:\n        /* \"#utility.yul\":8442:8467   */\n      swap3\n      pop\n        /* \"#utility.yul\":8490:8491   */\n      dup3\n        /* \"#utility.yul\":8487:8488   */\n      dup3\n        /* \"#utility.yul\":8483:8492   */\n      add\n        /* \"#utility.yul\":8476:8492   */\n      swap1\n      pop\n        /* \"#utility.yul\":8511:8514   */\n      dup1\n        /* \"#utility.yul\":8508:8509   */\n      dup3\n        /* \"#utility.yul\":8505:8515   */\n      gt\n        /* \"#utility.yul\":8502:8538   */\n      iszero\n      tag_222\n      jumpi\n        /* \"#utility.yul\":8518:8536   */\n      tag_223\n      tag_115\n      jump\t// in\n    tag_223:\n        /* \"#utility.yul\":8502:8538   */\n    tag_222:\n        /* \"#utility.yul\":8354:8545   */\n      swap3\n      swap2\n      pop\n      pop\n      jump\t// out\n        /* \"#utility.yul\":8551:8745   */\n    tag_63:\n        /* \"#utility.yul\":8591:8595   */\n      0x00\n        /* \"#utility.yul\":8611:8631   */\n      tag_225\n        /* \"#utility.yul\":8629:8630   */\n      dup3\n        /* \"#utility.yul\":8611:8631   */\n      tag_86\n      jump\t// in\n    tag_225:\n        /* \"#utility.yul\":8606:8631   */\n      swap2\n      pop\n        /* \"#utility.yul\":8645:8665   */\n      tag_226\n        /* \"#utility.yul\":8663:8664   */\n      dup4\n        /* \"#utility.yul\":8645:8665   */\n      tag_86\n      jump\t// in\n    tag_226:\n        /* \"#utility.yul\":8640:8665   */\n      swap3\n      pop\n        /* \"#utility.yul\":8689:8690   */\n      dup3\n        /* \"#utility.yul\":8686:8687   */\n      dup3\n        /* \"#utility.yul\":8682:8691   */\n      sub\n        /* \"#utility.yul\":8674:8691   */\n      swap1\n      pop\n        /* \"#utility.yul\":8713:8714   */\n      dup2\n        /* \"#utility.yul\":8707:8711   */\n      dup2\n        /* \"#utility.yul\":8704:8715   */\n      gt\n        /* \"#utility.yul\":8701:8738   */\n      iszero\n      tag_227\n      jumpi\n        /* \"#utility.yul\":8718:8736   */\n      tag_228\n      tag_115\n      jump\t// in\n    tag_228:\n        /* \"#utility.yul\":8701:8738   */\n    tag_227:\n        /* \"#utility.yul\":8551:8745   */\n      swap3\n      swap2\n      pop\n      pop\n      jump\t// out\n\n    auxdata: 0xa2646970667358221220a191a5ba87cf8e20e30c38a1fa3ed5012fcc062521539646d782248756fc517264736f6c63430008120033\n}\n\nsub_1: assembly {\n        /* \"contracts/trust_store.sol\":65:1721  contract SourceTrust {... */\n      mstore(0x40, 0x80)\n        /* \"contracts/trust_store.sol\":296:335  constructor(){... */\n      callvalue\n      dup1\n      iszero\n      tag_1\n      jumpi\n      0x00\n      dup1\n      revert\n    tag_1:\n      pop\n        /* \"contracts/trust_store.sol\":326:327  1 */\n      0x01\n        /* \"contracts/trust_store.sol\":319:323  uuid */\n      0x00\n        /* \"contracts/trust_store.sol\":319:327  uuid = 1 */\n      dup2\n      swap1\n      sstore\n      pop\n        /* \"contracts/trust_store.sol\":65:1721  contract SourceTrust {... */\n      dataSize(sub_0)\n      dup1\n      dataOffset(sub_0)\n      0x00\n      codecopy\n      0x00\n      return\n    stop\n\n    sub_0: assembly {\n            /* \"contracts/trust_store.sol\":65:1721  contract SourceTrust {... */\n          mstore(0x40, 0x80)\n          callvalue\n          dup1\n          iszero\n          tag_1\n          jumpi\n          0x00\n          dup1\n          revert\n        tag_1:\n          pop\n          jumpi(tag_2, lt(calldatasize, 0x04))\n          shr(0xe0, calldataload(0x00))\n          dup1\n          0x1ae8579c\n          eq\n          tag_3\n          jumpi\n          dup1\n          0x7cf736e0\n          eq\n          tag_4\n          jumpi\n          dup1\n          0x9e420524\n          eq\n          tag_5\n          jumpi\n          dup1\n          0xdab98e64\n          eq\n          tag_6\n          jumpi\n          dup1\n          0xe6b7e207\n          eq\n          tag_7\n          jumpi\n        tag_2:\n          0x00\n          dup1\n          revert\n            /* \"contracts/trust_store.sol\":1460:1619  function setSampleVehicles() public {... */\n        tag_3:\n          tag_8\n          tag_9\n          jump\t// in\n        tag_8:\n          stop\n            /* \"contracts/trust_store.sol\":1127:1302  function getSourceTrust(uint256 uuId) public view returns (uint256) {... */\n        tag_4:\n          tag_10\n          0x04\n          dup1\n          calldatasize\n          sub\n          dup2\n          add\n          swap1\n          tag_11\n          swap2\n          swap1\n          tag_12\n          jump\t// in\n        tag_11:\n          tag_13\n          jump\t// in\n        tag_10:\n          mload(0x40)\n          tag_14\n          swap2\n          swap1\n          tag_15\n          jump\t// in\n        tag_14:\n          mload(0x40)\n          dup1\n          swap2\n          sub\n          swap1\n          return\n            /* \"contracts/trust_store.sol\":388:771  function updateSourceTrust(uint256 uuId, uint256 trust) public{... */\n        tag_5:\n          tag_16\n          0x04\n          dup1\n          calldatasize\n          sub\n          dup2\n          add\n          swap1\n          tag_17\n          swap2\n          swap1\n          tag_18\n          jump\t// in\n        tag_17:\n          tag_19\n          jump\t// in\n        tag_16:\n          stop\n            /* \"contracts/trust_store.sol\":1307:1455  function addVehicle(string memory vehicleNumber) public returns (uint){... */\n        tag_6:\n          tag_20\n          0x04\n          dup1\n          calldatasize\n          sub\n          dup2\n          add\n          swap1\n          tag_21\n          swap2\n          swap1\n          tag_22\n          jump\t// in\n        tag_21:\n          tag_23\n          jump\t// in\n        tag_20:\n          mload(0x40)\n          tag_24\n          swap2\n          swap1\n          tag_15\n          jump\t// in\n        tag_24:\n          mload(0x40)\n          dup1\n          swap2\n          sub\n          swap1\n          return\n            /* \"contracts/trust_store.sol\":1625:1719  function getVehicles() public view returns (uint256) {... */\n        tag_7:\n          tag_25\n          tag_26\n          jump\t// in\n        tag_25:\n          mload(0x40)\n          tag_27\n          swap2\n          swap1\n          tag_15\n          jump\t// in\n        tag_27:\n          mload(0x40)\n          dup1\n          swap2\n          sub\n          swap1\n          return\n            /* \"contracts/trust_store.sol\":1460:1619  function setSampleVehicles() public {... */\n        tag_9:\n            /* \"contracts/trust_store.sol\":1511:1520  uint256 i */\n          0x00\n            /* \"contracts/trust_store.sol\":1506:1613  for (uint256 i = 0; i < 10; i++) {... */\n        tag_29:\n            /* \"contracts/trust_store.sol\":1530:1532  10 */\n          0x0a\n            /* \"contracts/trust_store.sol\":1526:1527  i */\n          dup2\n            /* \"contracts/trust_store.sol\":1526:1532  i < 10 */\n          lt\n            /* \"contracts/trust_store.sol\":1506:1613  for (uint256 i = 0; i < 10; i++) {... */\n          iszero\n          tag_30\n          jumpi\n            /* \"contracts/trust_store.sol\":1553:1602  addVehicle(string(abi.encodePacked(\"sample\", i))) */\n          tag_32\n            /* \"contracts/trust_store.sol\":1598:1599  i */\n          dup2\n            /* \"contracts/trust_store.sol\":1571:1600  abi.encodePacked(\"sample\", i) */\n          add(0x20, mload(0x40))\n          tag_33\n          swap2\n          swap1\n          tag_34\n          jump\t// in\n        tag_33:\n          mload(0x40)\n          0x20\n          dup2\n          dup4\n          sub\n          sub\n          dup2\n          mstore\n          swap1\n          0x40\n          mstore\n            /* \"contracts/trust_store.sol\":1553:1563  addVehicle */\n          tag_23\n            /* \"contracts/trust_store.sol\":1553:1602  addVehicle(string(abi.encodePacked(\"sample\", i))) */\n          jump\t// in\n        tag_32:\n          pop\n            /* \"contracts/trust_store.sol\":1534:1537  i++ */\n          dup1\n          dup1\n          tag_35\n          swap1\n          tag_36\n          jump\t// in\n        tag_35:\n          swap2\n          pop\n          pop\n            /* \"contracts/trust_store.sol\":1506:1613  for (uint256 i = 0; i < 10; i++) {... */\n          jump(tag_29)\n        tag_30:\n          pop\n            /* \"contracts/trust_store.sol\":1460:1619  function setSampleVehicles() public {... */\n          jump\t// out\n            /* \"contracts/trust_store.sol\":1127:1302  function getSourceTrust(uint256 uuId) public view returns (uint256) {... */\n        tag_13:\n            /* \"contracts/trust_store.sol\":1186:1193  uint256 */\n          0x00\n            /* \"contracts/trust_store.sol\":1213:1220  sources */\n          0x01\n            /* \"contracts/trust_store.sol\":1213:1226  sources[uuId] */\n          0x00\n            /* \"contracts/trust_store.sol\":1221:1225  uuId */\n          dup4\n            /* \"contracts/trust_store.sol\":1213:1226  sources[uuId] */\n          dup2\n          mstore\n          0x20\n          add\n          swap1\n          dup2\n          mstore\n          0x20\n          add\n          0x00\n          keccak256\n            /* \"contracts/trust_store.sol\":1213:1233  sources[uuId].exists */\n          0x03\n          add\n          0x00\n          swap1\n          sload\n          swap1\n          0x0100\n          exp\n          swap1\n          div\n          0xff\n          and\n            /* \"contracts/trust_store.sol\":1205:1259  require(sources[uuId].exists, \"Source does not exist\") */\n          tag_38\n          jumpi\n          mload(0x40)\n          0x08c379a000000000000000000000000000000000000000000000000000000000\n          dup2\n          mstore\n          0x04\n          add\n          tag_39\n          swap1\n          tag_40\n          jump\t// in\n        tag_39:\n          mload(0x40)\n          dup1\n          swap2\n          sub\n          swap1\n          revert\n        tag_38:\n            /* \"contracts/trust_store.sol\":1276:1283  sources */\n          0x01\n            /* \"contracts/trust_store.sol\":1276:1289  sources[uuId] */\n          0x00\n            /* \"contracts/trust_store.sol\":1284:1288  uuId */\n          dup4\n            /* \"contracts/trust_store.sol\":1276:1289  sources[uuId] */\n          dup2\n          mstore\n          0x20\n          add\n          swap1\n          dup2\n          mstore\n          0x20\n          add\n          0x00\n          keccak256\n            /* \"contracts/trust_store.sol\":1276:1295  sources[uuId].trust */\n          0x00\n          add\n          sload\n            /* \"contracts/trust_store.sol\":1269:1295  return sources[uuId].trust */\n          swap1\n          pop\n            /* \"contracts/trust_store.sol\":1127:1302  function getSourceTrust(uint256 uuId) public view returns (uint256) {... */\n          swap2\n          swap1\n          pop\n          jump\t// out\n            /* \"contracts/trust_store.sol\":388:771  function updateSourceTrust(uint256 uuId, uint256 trust) public{... */\n        tag_19:\n            /* \"contracts/trust_store.sol\":468:475  sources */\n          0x01\n            /* \"contracts/trust_store.sol\":468:481  sources[uuId] */\n          0x00\n            /* \"contracts/trust_store.sol\":476:480  uuId */\n          dup4\n            /* \"contracts/trust_store.sol\":468:481  sources[uuId] */\n          dup2\n          mstore\n          0x20\n          add\n          swap1\n          dup2\n          mstore\n          0x20\n          add\n          0x00\n          keccak256\n            /* \"contracts/trust_store.sol\":468:488  sources[uuId].exists */\n          0x03\n          add\n          0x00\n          swap1\n          sload\n          swap1\n          0x0100\n          exp\n          swap1\n          div\n          0xff\n          and\n            /* \"contracts/trust_store.sol\":460:514  require(sources[uuId].exists, \"Source does not exist\") */\n          tag_42\n          jumpi\n          mload(0x40)\n          0x08c379a000000000000000000000000000000000000000000000000000000000\n          dup2\n          mstore\n          0x04\n          add\n          tag_43\n          swap1\n          tag_40\n          jump\t// in\n        tag_43:\n          mload(0x40)\n          dup1\n          swap2\n          sub\n          swap1\n          revert\n        tag_42:\n            /* \"contracts/trust_store.sol\":536:537  8 */\n          0x08\n            /* \"contracts/trust_store.sol\":527:532  trust */\n          dup2\n            /* \"contracts/trust_store.sol\":527:537  trust >= 8 */\n          lt\n            /* \"contracts/trust_store.sol\":524:727  if(trust >= 8)... */\n          tag_44\n          jumpi\n            /* \"contracts/trust_store.sol\":576:577  1 */\n          0x01\n            /* \"contracts/trust_store.sol\":551:558  sources */\n          dup1\n            /* \"contracts/trust_store.sol\":551:564  sources[uuId] */\n          0x00\n            /* \"contracts/trust_store.sol\":559:563  uuId */\n          dup5\n            /* \"contracts/trust_store.sol\":551:564  sources[uuId] */\n          dup2\n          mstore\n          0x20\n          add\n          swap1\n          dup2\n          mstore\n          0x20\n          add\n          0x00\n          keccak256\n            /* \"contracts/trust_store.sol\":551:573  sources[uuId].priority */\n          0x02\n          add\n            /* \"contracts/trust_store.sol\":551:577  sources[uuId].priority = 1 */\n          dup2\n          swap1\n          sstore\n          pop\n            /* \"contracts/trust_store.sol\":524:727  if(trust >= 8)... */\n          jump(tag_45)\n        tag_44:\n            /* \"contracts/trust_store.sol\":605:606  5 */\n          0x05\n            /* \"contracts/trust_store.sol\":596:601  trust */\n          dup2\n            /* \"contracts/trust_store.sol\":596:606  trust >= 5 */\n          lt\n            /* \"contracts/trust_store.sol\":593:727  if(trust >= 5) {... */\n          tag_46\n          jumpi\n            /* \"contracts/trust_store.sol\":647:648  0 */\n          0x00\n            /* \"contracts/trust_store.sol\":622:629  sources */\n          0x01\n            /* \"contracts/trust_store.sol\":622:635  sources[uuId] */\n          0x00\n            /* \"contracts/trust_store.sol\":630:634  uuId */\n          dup5\n            /* \"contracts/trust_store.sol\":622:635  sources[uuId] */\n          dup2\n          mstore\n          0x20\n          add\n          swap1\n          dup2\n          mstore\n          0x20\n          add\n          0x00\n          keccak256\n            /* \"contracts/trust_store.sol\":622:644  sources[uuId].priority */\n          0x02\n          add\n            /* \"contracts/trust_store.sol\":622:648  sources[uuId].priority = 0 */\n          dup2\n          swap1\n          sstore\n          pop\n            /* \"contracts/trust_store.sol\":593:727  if(trust >= 5) {... */\n          jump(tag_47)\n        tag_46:\n            /* \"contracts/trust_store.sol\":713:715  -1 */\n          0xffffffffffffffffffffffffffffffffffffffffffffffffffffffffffffffff\n            /* \"contracts/trust_store.sol\":688:695  sources */\n          0x01\n            /* \"contracts/trust_store.sol\":688:701  sources[uuId] */\n          0x00\n            /* \"contracts/trust_store.sol\":696:700  uuId */\n          dup5\n            /* \"contracts/trust_store.sol\":688:701  sources[uuId] */\n          dup2\n          mstore\n          0x20\n          add\n          swap1\n          dup2\n          mstore\n          0x20\n          add\n          0x00\n          keccak256\n            /* \"contracts/trust_store.sol\":688:710  sources[uuId].priority */\n          0x02\n          add\n            /* \"contracts/trust_store.sol\":688:715  sources[uuId].priority = -1 */\n          dup2\n          swap1\n          sstore\n          pop\n            /* \"contracts/trust_store.sol\":593:727  if(trust >= 5) {... */\n        tag_47:\n            /* \"contracts/trust_store.sol\":524:727  if(trust >= 8)... */\n        tag_45:\n            /* \"contracts/trust_store.sol\":758:763  trust */\n          dup1\n            /* \"contracts/trust_store.sol\":736:743  sources */\n          0x01\n            /* \"contracts/trust_store.sol\":736:749  sources[uuId] */\n          0x00\n            /* \"contracts/trust_store.sol\":744:748  uuId */\n          dup5\n            /* \"contracts/trust_store.sol\":736:749  sources[uuId] */\n          dup2\n          mstore\n          0x20\n          add\n          swap1\n          dup2\n          mstore\n          0x20\n          add\n          0x00\n          keccak256\n            /* \"contracts/trust_store.sol\":736:755  sources[uuId].trust */\n          0x00\n          add\n            /* \"contracts/trust_store.sol\":736:763  sources[uuId].trust = trust */\n          dup2\n          swap1\n          sstore\n          pop\n            /* \"contracts/trust_store.sol\":388:771  function updateSourceTrust(uint256 uuId, uint256 trust) public{... */\n          pop\n          pop\n          jump\t// out\n            /* \"contracts/trust_store.sol\":1307:1455  function addVehicle(string memory vehicleNumber) public returns (uint){... */\n        tag_23:\n            /* \"contracts/trust_store.sol\":1372:1376  uint */\n          0x00\n            /* \"contracts/trust_store.sol\":1387:1422  setSourceTrust(uuid, vehicleNumber) */\n          tag_49\n            /* \"contracts/trust_store.sol\":1402:1406  uuid */\n          sload(0x00)\n            /* \"contracts/trust_store.sol\":1408:1421  vehicleNumber */\n          dup4\n            /* \"contracts/trust_store.sol\":1387:1401  setSourceTrust */\n          tag_50\n            /* \"contracts/trust_store.sol\":1387:1422  setSourceTrust(uuid, vehicleNumber) */\n          jump\t// in\n        tag_49:\n            /* \"contracts/trust_store.sol\":1440:1444  uuid */\n          0x00\n          dup1\n            /* \"contracts/trust_store.sol\":1440:1447  uuid ++ */\n          dup2\n          sload\n          dup1\n          swap3\n          swap2\n          swap1\n          tag_51\n          swap1\n          tag_36\n          jump\t// in\n        tag_51:\n          swap2\n          swap1\n          pop\n          sstore\n            /* \"contracts/trust_store.sol\":1433:1447  return uuid ++ */\n          swap1\n          pop\n            /* \"contracts/trust_store.sol\":1307:1455  function addVehicle(string memory vehicleNumber) public returns (uint){... */\n          swap2\n          swap1\n          pop\n          jump\t// out\n            /* \"contracts/trust_store.sol\":1625:1719  function getVehicles() public view returns (uint256) {... */\n        tag_26:\n            /* \"contracts/trust_store.sol\":1669:1676  uint256 */\n          0x00\n            /* \"contracts/trust_store.sol\":1695:1712  getSourceTrust(0) */\n          tag_53\n            /* \"contracts/trust_store.sol\":1710:1711  0 */\n          0x00\n            /* \"contracts/trust_store.sol\":1695:1709  getSourceTrust */\n          tag_13\n            /* \"contracts/trust_store.sol\":1695:1712  getSourceTrust(0) */\n          jump\t// in\n        tag_53:\n            /* \"contracts/trust_store.sol\":1688:1712  return getSourceTrust(0) */\n          swap1\n          pop\n            /* \"contracts/trust_store.sol\":1625:1719  function getVehicles() public view returns (uint256) {... */\n          swap1\n          jump\t// out\n            /* \"contracts/trust_store.sol\":776:1121  function setSourceTrust(uint256 uuId,string memory vehicleNumber) private {... */\n        tag_50:\n            /* \"contracts/trust_store.sol\":920:943  abi.encodePacked(\"911\") */\n          add(0x20, mload(0x40))\n          tag_55\n          swap1\n          tag_56\n          jump\t// in\n        tag_55:\n          mload(0x40)\n          0x20\n          dup2\n          dup4\n          sub\n          sub\n          dup2\n          mstore\n          swap1\n          0x40\n          mstore\n            /* \"contracts/trust_store.sol\":910:944  keccak256(abi.encodePacked(\"911\")) */\n          dup1\n          mload\n          swap1\n          0x20\n          add\n          keccak256\n            /* \"contracts/trust_store.sol\":891:904  vehicleNumber */\n          dup2\n            /* \"contracts/trust_store.sol\":874:905  abi.encodePacked(vehicleNumber) */\n          add(0x20, mload(0x40))\n          tag_57\n          swap2\n          swap1\n          tag_58\n          jump\t// in\n        tag_57:\n          mload(0x40)\n          0x20\n          dup2\n          dup4\n          sub\n          sub\n          dup2\n          mstore\n          swap1\n          0x40\n          mstore\n            /* \"contracts/trust_store.sol\":864:906  keccak256(abi.encodePacked(vehicleNumber)) */\n          dup1\n          mload\n          swap1\n          0x20\n          add\n          keccak256\n            /* \"contracts/trust_store.sol\":864:944  keccak256(abi.encodePacked(vehicleNumber)) == keccak256(abi.encodePacked(\"911\")) */\n          sub\n            /* \"contracts/trust_store.sol\":860:1115  if (keccak256(abi.encodePacked(vehicleNumber)) == keccak256(abi.encodePacked(\"911\"))) {... */\n          tag_59\n          jumpi\n            /* \"contracts/trust_store.sol\":984:1016  Source(8, vehicleNumber,1, true) */\n          mload(0x40)\n          dup1\n          0x80\n          add\n          0x40\n          mstore\n          dup1\n            /* \"contracts/trust_store.sol\":991:992  8 */\n          0x08\n            /* \"contracts/trust_store.sol\":984:1016  Source(8, vehicleNumber,1, true) */\n          dup2\n          mstore\n          0x20\n          add\n            /* \"contracts/trust_store.sol\":994:1007  vehicleNumber */\n          dup3\n            /* \"contracts/trust_store.sol\":984:1016  Source(8, vehicleNumber,1, true) */\n          dup2\n          mstore\n          0x20\n          add\n            /* \"contracts/trust_store.sol\":1008:1009  1 */\n          0x01\n            /* \"contracts/trust_store.sol\":984:1016  Source(8, vehicleNumber,1, true) */\n          dup2\n          mstore\n          0x20\n          add\n            /* \"contracts/trust_store.sol\":1011:1015  true */\n          0x01\n            /* \"contracts/trust_store.sol\":984:1016  Source(8, vehicleNumber,1, true) */\n          iszero\n          iszero\n          dup2\n          mstore\n          pop\n            /* \"contracts/trust_store.sol\":968:975  sources */\n          0x01\n            /* \"contracts/trust_store.sol\":968:981  sources[uuId] */\n          0x00\n            /* \"contracts/trust_store.sol\":976:980  uuId */\n          dup5\n            /* \"contracts/trust_store.sol\":968:981  sources[uuId] */\n          dup2\n          mstore\n          0x20\n          add\n          swap1\n          dup2\n          mstore\n          0x20\n          add\n          0x00\n          keccak256\n            /* \"contracts/trust_store.sol\":968:1016  sources[uuId] = Source(8, vehicleNumber,1, true) */\n          0x00\n          dup3\n          add\n          mload\n          dup2\n          0x00\n          add\n          sstore\n          0x20\n          dup3\n          add\n          mload\n          dup2\n          0x01\n          add\n          swap1\n          dup2\n          tag_60\n          swap2\n          swap1\n          tag_61\n          jump\t// in\n        tag_60:\n          pop\n          0x40\n          dup3\n          add\n          mload\n          dup2\n          0x02\n          add\n          sstore\n          0x60\n          dup3\n          add\n          mload\n          dup2\n          0x03\n          add\n          exp(0x0100, 0x00)\n          dup2\n          sload\n          dup2\n          0xff\n          mul\n          not\n          and\n          swap1\n          dup4\n          iszero\n          iszero\n          mul\n          or\n          swap1\n          sstore\n          pop\n          swap1\n          pop\n          pop\n            /* \"contracts/trust_store.sol\":860:1115  if (keccak256(abi.encodePacked(vehicleNumber)) == keccak256(abi.encodePacked(\"911\"))) {... */\n          jump(tag_62)\n        tag_59:\n            /* \"contracts/trust_store.sol\":1071:1103  Source(5, vehicleNumber,0, true) */\n          mload(0x40)\n          dup1\n          0x80\n          add\n          0x40\n          mstore\n          dup1\n            /* \"contracts/trust_store.sol\":1078:1079  5 */\n          0x05\n            /* \"contracts/trust_store.sol\":1071:1103  Source(5, vehicleNumber,0, true) */\n          dup2\n          mstore\n          0x20\n          add\n            /* \"contracts/trust_store.sol\":1081:1094  vehicleNumber */\n          dup3\n            /* \"contracts/trust_store.sol\":1071:1103  Source(5, vehicleNumber,0, true) */\n          dup2\n          mstore\n          0x20\n          add\n            /* \"contracts/trust_store.sol\":1095:1096  0 */\n          0x00\n            /* \"contracts/trust_store.sol\":1071:1103  Source(5, vehicleNumber,0, true) */\n          dup2\n          mstore\n          0x20\n          add\n            /* \"contracts/trust_store.sol\":1098:1102  true */\n          0x01\n            /* \"contracts/trust_store.sol\":1071:1103  Source(5, vehicleNumber,0, true) */\n          iszero\n          iszero\n          dup2\n          mstore\n          pop\n            /* \"contracts/trust_store.sol\":1055:1062  sources */\n          0x01\n            /* \"contracts/trust_store.sol\":1055:1068  sources[uuId] */\n          0x00\n            /* \"contracts/trust_store.sol\":1063:1067  uuId */\n          dup5\n            /* \"contracts/trust_store.sol\":1055:1068  sources[uuId] */\n          dup2\n          mstore\n          0x20\n          add\n          swap1\n          dup2\n          mstore\n          0x20\n          add\n          0x00\n          keccak256\n            /* \"contracts/trust_store.sol\":1055:1103  sources[uuId] = Source(5, vehicleNumber,0, true) */\n          0x00\n          dup3\n          add\n          mload\n          dup2\n          0x00\n          add\n          sstore\n          0x20\n          dup3\n          add\n          mload\n          dup2\n          0x01\n          add\n          swap1\n          dup2\n          tag_63\n          swap2\n          swap1\n          tag_61\n          jump\t// in\n        tag_63:\n          pop\n          0x40\n          dup3\n          add\n          mload\n          dup2\n          0x02\n          add\n          sstore\n          0x60\n          dup3\n          add\n          mload\n          dup2\n          0x03\n          add\n          exp(0x0100, 0x00)\n          dup2\n          sload\n          dup2\n          0xff\n          mul\n          not\n          and\n          swap1\n          dup4\n          iszero\n          iszero\n          mul\n          or\n          swap1\n          sstore\n          pop\n          swap1\n          pop\n          pop\n            /* \"contracts/trust_store.sol\":860:1115  if (keccak256(abi.encodePacked(vehicleNumber)) == keccak256(abi.encodePacked(\"911\"))) {... */\n        tag_62:\n            /* \"contracts/trust_store.sol\":776:1121  function setSourceTrust(uint256 uuId,string memory vehicleNumber) private {... */\n          pop\n          pop\n          jump\t// out\n            /* \"#utility.yul\":7:82   */\n        tag_64:\n            /* \"#utility.yul\":40:46   */\n          0x00\n            /* \"#utility.yul\":73:75   */\n          0x40\n            /* \"#utility.yul\":67:76   */\n          mload\n            /* \"#utility.yul\":57:76   */\n          swap1\n          pop\n            /* \"#utility.yul\":7:82   */\n          swap1\n          jump\t// out\n            /* \"#utility.yul\":88:205   */\n        tag_65:\n            /* \"#utility.yul\":197:198   */\n          0x00\n            /* \"#utility.yul\":194:195   */\n          dup1\n            /* \"#utility.yul\":187:199   */\n          revert\n            /* \"#utility.yul\":211:328   */\n        tag_66:\n            /* \"#utility.yul\":320:321   */\n          0x00\n            /* \"#utility.yul\":317:318   */\n          dup1\n            /* \"#utility.yul\":310:322   */\n          revert\n            /* \"#utility.yul\":334:411   */\n        tag_67:\n            /* \"#utility.yul\":371:378   */\n          0x00\n            /* \"#utility.yul\":400:405   */\n          dup2\n            /* \"#utility.yul\":389:405   */\n          swap1\n          pop\n            /* \"#utility.yul\":334:411   */\n          swap2\n          swap1\n          pop\n          jump\t// out\n            /* \"#utility.yul\":417:539   */\n        tag_68:\n            /* \"#utility.yul\":490:514   */\n          tag_118\n            /* \"#utility.yul\":508:513   */\n          dup2\n            /* \"#utility.yul\":490:514   */\n          tag_67\n          jump\t// in\n        tag_118:\n            /* \"#utility.yul\":483:488   */\n          dup2\n            /* \"#utility.yul\":480:515   */\n          eq\n            /* \"#utility.yul\":470:533   */\n          tag_119\n          jumpi\n            /* \"#utility.yul\":529:530   */\n          0x00\n            /* \"#utility.yul\":526:527   */\n          dup1\n            /* \"#utility.yul\":519:531   */\n          revert\n            /* \"#utility.yul\":470:533   */\n        tag_119:\n            /* \"#utility.yul\":417:539   */\n          pop\n          jump\t// out\n            /* \"#utility.yul\":545:684   */\n        tag_69:\n            /* \"#utility.yul\":591:596   */\n          0x00\n            /* \"#utility.yul\":629:635   */\n          dup2\n            /* \"#utility.yul\":616:636   */\n          calldataload\n            /* \"#utility.yul\":607:636   */\n          swap1\n          pop\n            /* \"#utility.yul\":645:678   */\n          tag_121\n            /* \"#utility.yul\":672:677   */\n          dup2\n            /* \"#utility.yul\":645:678   */\n          tag_68\n          jump\t// in\n        tag_121:\n            /* \"#utility.yul\":545:684   */\n          swap3\n          swap2\n          pop\n          pop\n          jump\t// out\n            /* \"#utility.yul\":690:1019   */\n        tag_12:\n            /* \"#utility.yul\":749:755   */\n          0x00\n            /* \"#utility.yul\":798:800   */\n          0x20\n            /* \"#utility.yul\":786:795   */\n          dup3\n            /* \"#utility.yul\":777:784   */\n          dup5\n            /* \"#utility.yul\":773:796   */\n          sub\n            /* \"#utility.yul\":769:801   */\n          slt\n            /* \"#utility.yul\":766:885   */\n          iszero\n          tag_123\n          jumpi\n            /* \"#utility.yul\":804:883   */\n          tag_124\n          tag_65\n          jump\t// in\n        tag_124:\n            /* \"#utility.yul\":766:885   */\n        tag_123:\n            /* \"#utility.yul\":924:925   */\n          0x00\n            /* \"#utility.yul\":949:1002   */\n          tag_125\n            /* \"#utility.yul\":994:1001   */\n          dup5\n            /* \"#utility.yul\":985:991   */\n          dup3\n            /* \"#utility.yul\":974:983   */\n          dup6\n            /* \"#utility.yul\":970:992   */\n          add\n            /* \"#utility.yul\":949:1002   */\n          tag_69\n          jump\t// in\n        tag_125:\n            /* \"#utility.yul\":939:1002   */\n          swap2\n          pop\n            /* \"#utility.yul\":895:1012   */\n          pop\n            /* \"#utility.yul\":690:1019   */\n          swap3\n          swap2\n          pop\n          pop\n          jump\t// out\n            /* \"#utility.yul\":1025:1143   */\n        tag_70:\n            /* \"#utility.yul\":1112:1136   */\n          tag_127\n            /* \"#utility.yul\":1130:1135   */\n          dup2\n            /* \"#utility.yul\":1112:1136   */\n          tag_67\n          jump\t// in\n        tag_127:\n            /* \"#utility.yul\":1107:1110   */\n          dup3\n            /* \"#utility.yul\":1100:1137   */\n          mstore\n            /* \"#utility.yul\":1025:1143   */\n          pop\n          pop\n          jump\t// out\n            /* \"#utility.yul\":1149:1371   */\n        tag_15:\n            /* \"#utility.yul\":1242:1246   */\n          0x00\n            /* \"#utility.yul\":1280:1282   */\n          0x20\n            /* \"#utility.yul\":1269:1278   */\n          dup3\n            /* \"#utility.yul\":1265:1283   */\n          add\n            /* \"#utility.yul\":1257:1283   */\n          swap1\n          pop\n            /* \"#utility.yul\":1293:1364   */\n          tag_129\n            /* \"#utility.yul\":1361:1362   */\n          0x00\n            /* \"#utility.yul\":1350:1359   */\n          dup4\n            /* \"#utility.yul\":1346:1363   */\n          add\n            /* \"#utility.yul\":1337:1343   */\n          dup5\n            /* \"#utility.yul\":1293:1364   */\n          tag_70\n          jump\t// in\n        tag_129:\n            /* \"#utility.yul\":1149:1371   */\n          swap3\n          swap2\n          pop\n          pop\n          jump\t// out\n            /* \"#utility.yul\":1377:1851   */\n        tag_18:\n            /* \"#utility.yul\":1445:1451   */\n          0x00\n            /* \"#utility.yul\":1453:1459   */\n          dup1\n            /* \"#utility.yul\":1502:1504   */\n          0x40\n            /* \"#utility.yul\":1490:1499   */\n          dup4\n            /* \"#utility.yul\":1481:1488   */\n          dup6\n            /* \"#utility.yul\":1477:1500   */\n          sub\n            /* \"#utility.yul\":1473:1505   */\n          slt\n            /* \"#utility.yul\":1470:1589   */\n          iszero\n          tag_131\n          jumpi\n            /* \"#utility.yul\":1508:1587   */\n          tag_132\n          tag_65\n          jump\t// in\n        tag_132:\n            /* \"#utility.yul\":1470:1589   */\n        tag_131:\n            /* \"#utility.yul\":1628:1629   */\n          0x00\n            /* \"#utility.yul\":1653:1706   */\n          tag_133\n            /* \"#utility.yul\":1698:1705   */\n          dup6\n            /* \"#utility.yul\":1689:1695   */\n          dup3\n            /* \"#utility.yul\":1678:1687   */\n          dup7\n            /* \"#utility.yul\":1674:1696   */\n          add\n            /* \"#utility.yul\":1653:1706   */\n          tag_69\n          jump\t// in\n        tag_133:\n            /* \"#utility.yul\":1643:1706   */\n          swap3\n          pop\n            /* \"#utility.yul\":1599:1716   */\n          pop\n            /* \"#utility.yul\":1755:1757   */\n          0x20\n            /* \"#utility.yul\":1781:1834   */\n          tag_134\n            /* \"#utility.yul\":1826:1833   */\n          dup6\n            /* \"#utility.yul\":1817:1823   */\n          dup3\n            /* \"#utility.yul\":1806:1815   */\n          dup7\n            /* \"#utility.yul\":1802:1824   */\n          add\n            /* \"#utility.yul\":1781:1834   */\n          tag_69\n          jump\t// in\n        tag_134:\n            /* \"#utility.yul\":1771:1834   */\n          swap2\n          pop\n            /* \"#utility.yul\":1726:1844   */\n          pop\n            /* \"#utility.yul\":1377:1851   */\n          swap3\n          pop\n          swap3\n          swap1\n          pop\n          jump\t// out\n            /* \"#utility.yul\":1857:1974   */\n        tag_71:\n            /* \"#utility.yul\":1966:1967   */\n          0x00\n            /* \"#utility.yul\":1963:1964   */\n          dup1\n            /* \"#utility.yul\":1956:1968   */\n          revert\n            /* \"#utility.yul\":1980:2097   */\n        tag_72:\n            /* \"#utility.yul\":2089:2090   */\n          0x00\n            /* \"#utility.yul\":2086:2087   */\n          dup1\n            /* \"#utility.yul\":2079:2091   */\n          revert\n            /* \"#utility.yul\":2103:2205   */\n        tag_73:\n            /* \"#utility.yul\":2144:2150   */\n          0x00\n            /* \"#utility.yul\":2195:2197   */\n          0x1f\n            /* \"#utility.yul\":2191:2198   */\n          not\n            /* \"#utility.yul\":2186:2188   */\n          0x1f\n            /* \"#utility.yul\":2179:2184   */\n          dup4\n            /* \"#utility.yul\":2175:2189   */\n          add\n            /* \"#utility.yul\":2171:2199   */\n          and\n            /* \"#utility.yul\":2161:2199   */\n          swap1\n          pop\n            /* \"#utility.yul\":2103:2205   */\n          swap2\n          swap1\n          pop\n          jump\t// out\n            /* \"#utility.yul\":2211:2391   */\n        tag_74:\n            /* \"#utility.yul\":2259:2336   */\n          0x4e487b7100000000000000000000000000000000000000000000000000000000\n            /* \"#utility.yul\":2256:2257   */\n          0x00\n            /* \"#utility.yul\":2249:2337   */\n          mstore\n            /* \"#utility.yul\":2356:2360   */\n          0x41\n            /* \"#utility.yul\":2353:2354   */\n          0x04\n            /* \"#utility.yul\":2346:2361   */\n          mstore\n            /* \"#utility.yul\":2380:2384   */\n          0x24\n            /* \"#utility.yul\":2377:2378   */\n          0x00\n            /* \"#utility.yul\":2370:2385   */\n          revert\n            /* \"#utility.yul\":2397:2678   */\n        tag_75:\n            /* \"#utility.yul\":2480:2507   */\n          tag_140\n            /* \"#utility.yul\":2502:2506   */\n          dup3\n            /* \"#utility.yul\":2480:2507   */\n          tag_73\n          jump\t// in\n        tag_140:\n            /* \"#utility.yul\":2472:2478   */\n          dup2\n            /* \"#utility.yul\":2468:2508   */\n          add\n            /* \"#utility.yul\":2610:2616   */\n          dup2\n            /* \"#utility.yul\":2598:2608   */\n          dup2\n            /* \"#utility.yul\":2595:2617   */\n          lt\n            /* \"#utility.yul\":2574:2592   */\n          0xffffffffffffffff\n            /* \"#utility.yul\":2562:2572   */\n          dup3\n            /* \"#utility.yul\":2559:2593   */\n          gt\n            /* \"#utility.yul\":2556:2618   */\n          or\n            /* \"#utility.yul\":2553:2641   */\n          iszero\n          tag_141\n          jumpi\n            /* \"#utility.yul\":2621:2639   */\n          tag_142\n          tag_74\n          jump\t// in\n        tag_142:\n            /* \"#utility.yul\":2553:2641   */\n        tag_141:\n            /* \"#utility.yul\":2661:2671   */\n          dup1\n            /* \"#utility.yul\":2657:2659   */\n          0x40\n            /* \"#utility.yul\":2650:2672   */\n          mstore\n            /* \"#utility.yul\":2440:2678   */\n          pop\n            /* \"#utility.yul\":2397:2678   */\n          pop\n          pop\n          jump\t// out\n            /* \"#utility.yul\":2684:2813   */\n        tag_76:\n            /* \"#utility.yul\":2718:2724   */\n          0x00\n            /* \"#utility.yul\":2745:2765   */\n          tag_144\n          tag_64\n          jump\t// in\n        tag_144:\n            /* \"#utility.yul\":2735:2765   */\n          swap1\n          pop\n            /* \"#utility.yul\":2774:2807   */\n          tag_145\n            /* \"#utility.yul\":2802:2806   */\n          dup3\n            /* \"#utility.yul\":2794:2800   */\n          dup3\n            /* \"#utility.yul\":2774:2807   */\n          tag_75\n          jump\t// in\n        tag_145:\n            /* \"#utility.yul\":2684:2813   */\n          swap2\n          swap1\n          pop\n          jump\t// out\n            /* \"#utility.yul\":2819:3127   */\n        tag_77:\n            /* \"#utility.yul\":2881:2885   */\n          0x00\n            /* \"#utility.yul\":2971:2989   */\n          0xffffffffffffffff\n            /* \"#utility.yul\":2963:2969   */\n          dup3\n            /* \"#utility.yul\":2960:2990   */\n          gt\n            /* \"#utility.yul\":2957:3013   */\n          iszero\n          tag_147\n          jumpi\n            /* \"#utility.yul\":2993:3011   */\n          tag_148\n          tag_74\n          jump\t// in\n        tag_148:\n            /* \"#utility.yul\":2957:3013   */\n        tag_147:\n            /* \"#utility.yul\":3031:3060   */\n          tag_149\n            /* \"#utility.yul\":3053:3059   */\n          dup3\n            /* \"#utility.yul\":3031:3060   */\n          tag_73\n          jump\t// in\n        tag_149:\n            /* \"#utility.yul\":3023:3060   */\n          swap1\n          pop\n            /* \"#utility.yul\":3115:3119   */\n          0x20\n            /* \"#utility.yul\":3109:3113   */\n          dup2\n            /* \"#utility.yul\":3105:3120   */\n          add\n            /* \"#utility.yul\":3097:3120   */\n          swap1\n          pop\n            /* \"#utility.yul\":2819:3127   */\n          swap2\n          swap1\n          pop\n          jump\t// out\n            /* \"#utility.yul\":3133:3279   */\n        tag_78:\n            /* \"#utility.yul\":3230:3236   */\n          dup3\n            /* \"#utility.yul\":3225:3228   */\n          dup2\n            /* \"#utility.yul\":3220:3223   */\n          dup4\n            /* \"#utility.yul\":3207:3237   */\n          calldatacopy\n            /* \"#utility.yul\":3271:3272   */\n          0x00\n            /* \"#utility.yul\":3262:3268   */\n          dup4\n            /* \"#utility.yul\":3257:3260   */\n          dup4\n            /* \"#utility.yul\":3253:3269   */\n          add\n            /* \"#utility.yul\":3246:3273   */\n          mstore\n            /* \"#utility.yul\":3133:3279   */\n          pop\n          pop\n          pop\n          jump\t// out\n            /* \"#utility.yul\":3285:3710   */\n        tag_79:\n            /* \"#utility.yul\":3363:3368   */\n          0x00\n            /* \"#utility.yul\":3388:3454   */\n          tag_152\n            /* \"#utility.yul\":3404:3453   */\n          tag_153\n            /* \"#utility.yul\":3446:3452   */\n          dup5\n            /* \"#utility.yul\":3404:3453   */\n          tag_77\n          jump\t// in\n        tag_153:\n            /* \"#utility.yul\":3388:3454   */\n          tag_76\n          jump\t// in\n        tag_152:\n            /* \"#utility.yul\":3379:3454   */\n          swap1\n          pop\n            /* \"#utility.yul\":3477:3483   */\n          dup3\n            /* \"#utility.yul\":3470:3475   */\n          dup2\n            /* \"#utility.yul\":3463:3484   */\n          mstore\n            /* \"#utility.yul\":3515:3519   */\n          0x20\n            /* \"#utility.yul\":3508:3513   */\n          dup2\n            /* \"#utility.yul\":3504:3520   */\n          add\n            /* \"#utility.yul\":3553:3556   */\n          dup5\n            /* \"#utility.yul\":3544:3550   */\n          dup5\n            /* \"#utility.yul\":3539:3542   */\n          dup5\n            /* \"#utility.yul\":3535:3551   */\n          add\n            /* \"#utility.yul\":3532:3557   */\n          gt\n            /* \"#utility.yul\":3529:3641   */\n          iszero\n          tag_154\n          jumpi\n            /* \"#utility.yul\":3560:3639   */\n          tag_155\n          tag_72\n          jump\t// in\n        tag_155:\n            /* \"#utility.yul\":3529:3641   */\n        tag_154:\n            /* \"#utility.yul\":3650:3704   */\n          tag_156\n            /* \"#utility.yul\":3697:3703   */\n          dup5\n            /* \"#utility.yul\":3692:3695   */\n          dup3\n            /* \"#utility.yul\":3687:3690   */\n          dup6\n            /* \"#utility.yul\":3650:3704   */\n          tag_78\n          jump\t// in\n        tag_156:\n            /* \"#utility.yul\":3369:3710   */\n          pop\n            /* \"#utility.yul\":3285:3710   */\n          swap4\n          swap3\n          pop\n          pop\n          pop\n          jump\t// out\n            /* \"#utility.yul\":3730:4070   */\n        tag_80:\n            /* \"#utility.yul\":3786:3791   */\n          0x00\n            /* \"#utility.yul\":3835:3838   */\n          dup3\n            /* \"#utility.yul\":3828:3832   */\n          0x1f\n            /* \"#utility.yul\":3820:3826   */\n          dup4\n            /* \"#utility.yul\":3816:3833   */\n          add\n            /* \"#utility.yul\":3812:3839   */\n          slt\n            /* \"#utility.yul\":3802:3924   */\n          tag_158\n          jumpi\n            /* \"#utility.yul\":3843:3922   */\n          tag_159\n          tag_71\n          jump\t// in\n        tag_159:\n            /* \"#utility.yul\":3802:3924   */\n        tag_158:\n            /* \"#utility.yul\":3960:3966   */\n          dup2\n            /* \"#utility.yul\":3947:3967   */\n          calldataload\n            /* \"#utility.yul\":3985:4064   */\n          tag_160\n            /* \"#utility.yul\":4060:4063   */\n          dup5\n            /* \"#utility.yul\":4052:4058   */\n          dup3\n            /* \"#utility.yul\":4045:4049   */\n          0x20\n            /* \"#utility.yul\":4037:4043   */\n          dup7\n            /* \"#utility.yul\":4033:4050   */\n          add\n            /* \"#utility.yul\":3985:4064   */\n          tag_79\n          jump\t// in\n        tag_160:\n            /* \"#utility.yul\":3976:4064   */\n          swap2\n          pop\n            /* \"#utility.yul\":3792:4070   */\n          pop\n            /* \"#utility.yul\":3730:4070   */\n          swap3\n          swap2\n          pop\n          pop\n          jump\t// out\n            /* \"#utility.yul\":4076:4585   */\n        tag_22:\n            /* \"#utility.yul\":4145:4151   */\n          0x00\n            /* \"#utility.yul\":4194:4196   */\n          0x20\n            /* \"#utility.yul\":4182:4191   */\n          dup3\n            /* \"#utility.yul\":4173:4180   */\n          dup5\n            /* \"#utility.yul\":4169:4192   */\n          sub\n            /* \"#utility.yul\":4165:4197   */\n          slt\n            /* \"#utility.yul\":4162:4281   */\n          iszero\n          tag_162\n          jumpi\n            /* \"#utility.yul\":4200:4279   */\n          tag_163\n          tag_65\n          jump\t// in\n        tag_163:\n            /* \"#utility.yul\":4162:4281   */\n        tag_162:\n            /* \"#utility.yul\":4348:4349   */\n          0x00\n            /* \"#utility.yul\":4337:4346   */\n          dup3\n            /* \"#utility.yul\":4333:4350   */\n          add\n            /* \"#utility.yul\":4320:4351   */\n          calldataload\n            /* \"#utility.yul\":4378:4396   */\n          0xffffffffffffffff\n            /* \"#utility.yul\":4370:4376   */\n          dup2\n            /* \"#utility.yul\":4367:4397   */\n          gt\n            /* \"#utility.yul\":4364:4481   */\n          iszero\n          tag_164\n          jumpi\n            /* \"#utility.yul\":4400:4479   */\n          tag_165\n          tag_66\n          jump\t// in\n        tag_165:\n            /* \"#utility.yul\":4364:4481   */\n        tag_164:\n            /* \"#utility.yul\":4505:4568   */\n          tag_166\n            /* \"#utility.yul\":4560:4567   */\n          dup5\n            /* \"#utility.yul\":4551:4557   */\n          dup3\n            /* \"#utility.yul\":4540:4549   */\n          dup6\n            /* \"#utility.yul\":4536:4558   */\n          add\n            /* \"#utility.yul\":4505:4568   */\n          tag_80\n          jump\t// in\n        tag_166:\n            /* \"#utility.yul\":4495:4568   */\n          swap2\n          pop\n            /* \"#utility.yul\":4291:4578   */\n          pop\n            /* \"#utility.yul\":4076:4585   */\n          swap3\n          swap2\n          pop\n          pop\n          jump\t// out\n            /* \"#utility.yul\":4591:4739   */\n        tag_81:\n            /* \"#utility.yul\":4693:4704   */\n          0x00\n            /* \"#utility.yul\":4730:4733   */\n          dup2\n            /* \"#utility.yul\":4715:4733   */\n          swap1\n          pop\n            /* \"#utility.yul\":4591:4739   */\n          swap3\n          swap2\n          pop\n          pop\n          jump\t// out\n            /* \"#utility.yul\":4745:4901   */\n        tag_82:\n            /* \"#utility.yul\":4885:4893   */\n          0x73616d706c650000000000000000000000000000000000000000000000000000\n            /* \"#utility.yul\":4881:4882   */\n          0x00\n            /* \"#utility.yul\":4873:4879   */\n          dup3\n            /* \"#utility.yul\":4869:4883   */\n          add\n            /* \"#utility.yul\":4862:4894   */\n          mstore\n            /* \"#utility.yul\":4745:4901   */\n          pop\n          jump\t// out\n            /* \"#utility.yul\":4907:5307   */\n        tag_83:\n            /* \"#utility.yul\":5067:5070   */\n          0x00\n            /* \"#utility.yul\":5088:5172   */\n          tag_170\n            /* \"#utility.yul\":5170:5171   */\n          0x06\n            /* \"#utility.yul\":5165:5168   */\n          dup4\n            /* \"#utility.yul\":5088:5172   */\n          tag_81\n          jump\t// in\n        tag_170:\n            /* \"#utility.yul\":5081:5172   */\n          swap2\n          pop\n            /* \"#utility.yul\":5181:5274   */\n          tag_171\n            /* \"#utility.yul\":5270:5273   */\n          dup3\n            /* \"#utility.yul\":5181:5274   */\n          tag_82\n          jump\t// in\n        tag_171:\n            /* \"#utility.yul\":5299:5300   */\n          0x06\n            /* \"#utility.yul\":5294:5297   */\n          dup3\n            /* \"#utility.yul\":5290:5301   */\n          add\n            /* \"#utility.yul\":5283:5301   */\n          swap1\n          pop\n            /* \"#utility.yul\":4907:5307   */\n          swap2\n          swap1\n          pop\n          jump\t// out\n            /* \"#utility.yul\":5313:5392   */\n        tag_84:\n            /* \"#utility.yul\":5352:5359   */\n          0x00\n            /* \"#utility.yul\":5381:5386   */\n          dup2\n            /* \"#utility.yul\":5370:5386   */\n          swap1\n          pop\n            /* \"#utility.yul\":5313:5392   */\n          swap2\n          swap1\n          pop\n          jump\t// out\n            /* \"#utility.yul\":5398:5555   */\n        tag_85:\n            /* \"#utility.yul\":5503:5548   */\n          tag_174\n            /* \"#utility.yul\":5523:5547   */\n          tag_175\n            /* \"#utility.yul\":5541:5546   */\n          dup3\n            /* \"#utility.yul\":5523:5547   */\n          tag_67\n          jump\t// in\n        tag_175:\n            /* \"#utility.yul\":5503:5548   */\n          tag_84\n          jump\t// in\n        tag_174:\n            /* \"#utility.yul\":5498:5501   */\n          dup3\n            /* \"#utility.yul\":5491:5549   */\n          mstore\n            /* \"#utility.yul\":5398:5555   */\n          pop\n          pop\n          jump\t// out\n            /* \"#utility.yul\":5561:6083   */\n        tag_34:\n            /* \"#utility.yul\":5774:5777   */\n          0x00\n            /* \"#utility.yul\":5796:5944   */\n          tag_177\n            /* \"#utility.yul\":5940:5943   */\n          dup3\n            /* \"#utility.yul\":5796:5944   */\n          tag_83\n          jump\t// in\n        tag_177:\n            /* \"#utility.yul\":5789:5944   */\n          swap2\n          pop\n            /* \"#utility.yul\":5954:6029   */\n          tag_178\n            /* \"#utility.yul\":6025:6028   */\n          dup3\n            /* \"#utility.yul\":6016:6022   */\n          dup5\n            /* \"#utility.yul\":5954:6029   */\n          tag_85\n          jump\t// in\n        tag_178:\n            /* \"#utility.yul\":6054:6056   */\n          0x20\n            /* \"#utility.yul\":6049:6052   */\n          dup3\n            /* \"#utility.yul\":6045:6057   */\n          add\n            /* \"#utility.yul\":6038:6057   */\n          swap2\n          pop\n            /* \"#utility.yul\":6074:6077   */\n          dup2\n            /* \"#utility.yul\":6067:6077   */\n          swap1\n          pop\n            /* \"#utility.yul\":5561:6083   */\n          swap3\n          swap2\n          pop\n          pop\n          jump\t// out\n            /* \"#utility.yul\":6089:6269   */\n        tag_86:\n            /* \"#utility.yul\":6137:6214   */\n          0x4e487b7100000000000000000000000000000000000000000000000000000000\n            /* \"#utility.yul\":6134:6135   */\n          0x00\n            /* \"#utility.yul\":6127:6215   */\n          mstore\n            /* \"#utility.yul\":6234:6238   */\n          0x11\n            /* \"#utility.yul\":6231:6232   */\n          0x04\n            /* \"#utility.yul\":6224:6239   */\n          mstore\n            /* \"#utility.yul\":6258:6262   */\n          0x24\n            /* \"#utility.yul\":6255:6256   */\n          0x00\n            /* \"#utility.yul\":6248:6263   */\n          revert\n            /* \"#utility.yul\":6275:6508   */\n        tag_36:\n            /* \"#utility.yul\":6314:6317   */\n          0x00\n            /* \"#utility.yul\":6337:6361   */\n          tag_181\n            /* \"#utility.yul\":6355:6360   */\n          dup3\n            /* \"#utility.yul\":6337:6361   */\n          tag_67\n          jump\t// in\n        tag_181:\n            /* \"#utility.yul\":6328:6361   */\n          swap2\n          pop\n            /* \"#utility.yul\":6383:6449   */\n          0xffffffffffffffffffffffffffffffffffffffffffffffffffffffffffffffff\n            /* \"#utility.yul\":6376:6381   */\n          dup3\n            /* \"#utility.yul\":6373:6450   */\n          sub\n            /* \"#utility.yul\":6370:6473   */\n          tag_182\n          jumpi\n            /* \"#utility.yul\":6453:6471   */\n          tag_183\n          tag_86\n          jump\t// in\n        tag_183:\n            /* \"#utility.yul\":6370:6473   */\n        tag_182:\n            /* \"#utility.yul\":6500:6501   */\n          0x01\n            /* \"#utility.yul\":6493:6498   */\n          dup3\n            /* \"#utility.yul\":6489:6502   */\n          add\n            /* \"#utility.yul\":6482:6502   */\n          swap1\n          pop\n            /* \"#utility.yul\":6275:6508   */\n          swap2\n          swap1\n          pop\n          jump\t// out\n            /* \"#utility.yul\":6514:6683   */\n        tag_87:\n            /* \"#utility.yul\":6598:6609   */\n          0x00\n            /* \"#utility.yul\":6632:6638   */\n          dup3\n            /* \"#utility.yul\":6627:6630   */\n          dup3\n            /* \"#utility.yul\":6620:6639   */\n          mstore\n            /* \"#utility.yul\":6672:6676   */\n          0x20\n            /* \"#utility.yul\":6667:6670   */\n          dup3\n            /* \"#utility.yul\":6663:6677   */\n          add\n            /* \"#utility.yul\":6648:6677   */\n          swap1\n          pop\n            /* \"#utility.yul\":6514:6683   */\n          swap3\n          swap2\n          pop\n          pop\n          jump\t// out\n            /* \"#utility.yul\":6689:6860   */\n        tag_88:\n            /* \"#utility.yul\":6829:6852   */\n          0x536f7572636520646f6573206e6f742065786973740000000000000000000000\n            /* \"#utility.yul\":6825:6826   */\n          0x00\n            /* \"#utility.yul\":6817:6823   */\n          dup3\n            /* \"#utility.yul\":6813:6827   */\n          add\n            /* \"#utility.yul\":6806:6853   */\n          mstore\n            /* \"#utility.yul\":6689:6860   */\n          pop\n          jump\t// out\n            /* \"#utility.yul\":6866:7232   */\n        tag_89:\n            /* \"#utility.yul\":7008:7011   */\n          0x00\n            /* \"#utility.yul\":7029:7096   */\n          tag_187\n            /* \"#utility.yul\":7093:7095   */\n          0x15\n            /* \"#utility.yul\":7088:7091   */\n          dup4\n            /* \"#utility.yul\":7029:7096   */\n          tag_87\n          jump\t// in\n        tag_187:\n            /* \"#utility.yul\":7022:7096   */\n          swap2\n          pop\n            /* \"#utility.yul\":7105:7198   */\n          tag_188\n            /* \"#utility.yul\":7194:7197   */\n          dup3\n            /* \"#utility.yul\":7105:7198   */\n          tag_88\n          jump\t// in\n        tag_188:\n            /* \"#utility.yul\":7223:7225   */\n          0x20\n            /* \"#utility.yul\":7218:7221   */\n          dup3\n            /* \"#utility.yul\":7214:7226   */\n          add\n            /* \"#utility.yul\":7207:7226   */\n          swap1\n          pop\n            /* \"#utility.yul\":6866:7232   */\n          swap2\n          swap1\n          pop\n          jump\t// out\n            /* \"#utility.yul\":7238:7657   */\n        tag_40:\n            /* \"#utility.yul\":7404:7408   */\n          0x00\n            /* \"#utility.yul\":7442:7444   */\n          0x20\n            /* \"#utility.yul\":7431:7440   */\n          dup3\n            /* \"#utility.yul\":7427:7445   */\n          add\n            /* \"#utility.yul\":7419:7445   */\n          swap1\n          pop\n            /* \"#utility.yul\":7491:7500   */\n          dup2\n            /* \"#utility.yul\":7485:7489   */\n          dup2\n            /* \"#utility.yul\":7481:7501   */\n          sub\n            /* \"#utility.yul\":7477:7478   */\n          0x00\n            /* \"#utility.yul\":7466:7475   */\n          dup4\n            /* \"#utility.yul\":7462:7479   */\n          add\n            /* \"#utility.yul\":7455:7502   */\n          mstore\n            /* \"#utility.yul\":7519:7650   */\n          tag_190\n            /* \"#utility.yul\":7645:7649   */\n          dup2\n            /* \"#utility.yul\":7519:7650   */\n          tag_89\n          jump\t// in\n        tag_190:\n            /* \"#utility.yul\":7511:7650   */\n          swap1\n          pop\n            /* \"#utility.yul\":7238:7657   */\n          swap2\n          swap1\n          pop\n          jump\t// out\n            /* \"#utility.yul\":7663:7816   */\n        tag_90:\n            /* \"#utility.yul\":7803:7808   */\n          0x3931310000000000000000000000000000000000000000000000000000000000\n            /* \"#utility.yul\":7799:7800   */\n          0x00\n            /* \"#utility.yul\":7791:7797   */\n          dup3\n            /* \"#utility.yul\":7787:7801   */\n          add\n            /* \"#utility.yul\":7780:7809   */\n          mstore\n            /* \"#utility.yul\":7663:7816   */\n          pop\n          jump\t// out\n            /* \"#utility.yul\":7822:8222   */\n        tag_91:\n            /* \"#utility.yul\":7982:7985   */\n          0x00\n            /* \"#utility.yul\":8003:8087   */\n          tag_193\n            /* \"#utility.yul\":8085:8086   */\n          0x03\n            /* \"#utility.yul\":8080:8083   */\n          dup4\n            /* \"#utility.yul\":8003:8087   */\n          tag_81\n          jump\t// in\n        tag_193:\n            /* \"#utility.yul\":7996:8087   */\n          swap2\n          pop\n            /* \"#utility.yul\":8096:8189   */\n          tag_194\n            /* \"#utility.yul\":8185:8188   */\n          dup3\n            /* \"#utility.yul\":8096:8189   */\n          tag_90\n          jump\t// in\n        tag_194:\n            /* \"#utility.yul\":8214:8215   */\n          0x03\n            /* \"#utility.yul\":8209:8212   */\n          dup3\n            /* \"#utility.yul\":8205:8216   */\n          add\n            /* \"#utility.yul\":8198:8216   */\n          swap1\n          pop\n            /* \"#utility.yul\":7822:8222   */\n          swap2\n          swap1\n          pop\n          jump\t// out\n            /* \"#utility.yul\":8228:8609   */\n        tag_56:\n            /* \"#utility.yul\":8413:8416   */\n          0x00\n            /* \"#utility.yul\":8435:8583   */\n          tag_196\n            /* \"#utility.yul\":8579:8582   */\n          dup3\n            /* \"#utility.yul\":8435:8583   */\n          tag_91\n          jump\t// in\n        tag_196:\n            /* \"#utility.yul\":8428:8583   */\n          swap2\n          pop\n            /* \"#utility.yul\":8600:8603   */\n          dup2\n            /* \"#utility.yul\":8593:8603   */\n          swap1\n          pop\n            /* \"#utility.yul\":8228:8609   */\n          swap2\n          swap1\n          pop\n          jump\t// out\n            /* \"#utility.yul\":8615:8714   */\n        tag_92:\n            /* \"#utility.yul\":8667:8673   */\n          0x00\n            /* \"#utility.yul\":8701:8706   */\n          dup2\n            /* \"#utility.yul\":8695:8707   */\n          mload\n            /* \"#utility.yul\":8685:8707   */\n          swap1\n          pop\n            /* \"#utility.yul\":8615:8714   */\n          swap2\n          swap1\n          pop\n          jump\t// out\n            /* \"#utility.yul\":8720:8966   */\n        tag_93:\n            /* \"#utility.yul\":8801:8802   */\n          0x00\n            /* \"#utility.yul\":8811:8924   */\n        tag_199:\n            /* \"#utility.yul\":8825:8831   */\n          dup4\n            /* \"#utility.yul\":8822:8823   */\n          dup2\n            /* \"#utility.yul\":8819:8832   */\n          lt\n            /* \"#utility.yul\":8811:8924   */\n          iszero\n          tag_201\n          jumpi\n            /* \"#utility.yul\":8910:8911   */\n          dup1\n            /* \"#utility.yul\":8905:8908   */\n          dup3\n            /* \"#utility.yul\":8901:8912   */\n          add\n            /* \"#utility.yul\":8895:8913   */\n          mload\n            /* \"#utility.yul\":8891:8892   */\n          dup2\n            /* \"#utility.yul\":8886:8889   */\n          dup5\n            /* \"#utility.yul\":8882:8893   */\n          add\n            /* \"#utility.yul\":8875:8914   */\n          mstore\n            /* \"#utility.yul\":8847:8849   */\n          0x20\n            /* \"#utility.yul\":8844:8845   */\n          dup2\n            /* \"#utility.yul\":8840:8850   */\n          add\n            /* \"#utility.yul\":8835:8850   */\n          swap1\n          pop\n            /* \"#utility.yul\":8811:8924   */\n          jump(tag_199)\n        tag_201:\n            /* \"#utility.yul\":8958:8959   */\n          0x00\n            /* \"#utility.yul\":8949:8955   */\n          dup5\n            /* \"#utility.yul\":8944:8947   */\n          dup5\n            /* \"#utility.yul\":8940:8956   */\n          add\n            /* \"#utility.yul\":8933:8960   */\n          mstore\n            /* \"#utility.yul\":8782:8966   */\n          pop\n            /* \"#utility.yul\":8720:8966   */\n          pop\n          pop\n          pop\n          jump\t// out\n            /* \"#utility.yul\":8972:9362   */\n        tag_94:\n            /* \"#utility.yul\":9078:9081   */\n          0x00\n            /* \"#utility.yul\":9106:9145   */\n          tag_203\n            /* \"#utility.yul\":9139:9144   */\n          dup3\n            /* \"#utility.yul\":9106:9145   */\n          tag_92\n          jump\t// in\n        tag_203:\n            /* \"#utility.yul\":9161:9250   */\n          tag_204\n            /* \"#utility.yul\":9243:9249   */\n          dup2\n            /* \"#utility.yul\":9238:9241   */\n          dup6\n            /* \"#utility.yul\":9161:9250   */\n          tag_81\n          jump\t// in\n        tag_204:\n            /* \"#utility.yul\":9154:9250   */\n          swap4\n          pop\n            /* \"#utility.yul\":9259:9324   */\n          tag_205\n            /* \"#utility.yul\":9317:9323   */\n          dup2\n            /* \"#utility.yul\":9312:9315   */\n          dup6\n            /* \"#utility.yul\":9305:9309   */\n          0x20\n            /* \"#utility.yul\":9298:9303   */\n          dup7\n            /* \"#utility.yul\":9294:9310   */\n          add\n            /* \"#utility.yul\":9259:9324   */\n          tag_93\n          jump\t// in\n        tag_205:\n            /* \"#utility.yul\":9349:9355   */\n          dup1\n            /* \"#utility.yul\":9344:9347   */\n          dup5\n            /* \"#utility.yul\":9340:9356   */\n          add\n            /* \"#utility.yul\":9333:9356   */\n          swap2\n          pop\n            /* \"#utility.yul\":9082:9362   */\n          pop\n            /* \"#utility.yul\":8972:9362   */\n          swap3\n          swap2\n          pop\n          pop\n          jump\t// out\n            /* \"#utility.yul\":9368:9643   */\n        tag_58:\n            /* \"#utility.yul\":9500:9503   */\n          0x00\n            /* \"#utility.yul\":9522:9617   */\n          tag_207\n            /* \"#utility.yul\":9613:9616   */\n          dup3\n            /* \"#utility.yul\":9604:9610   */\n          dup5\n            /* \"#utility.yul\":9522:9617   */\n          tag_94\n          jump\t// in\n        tag_207:\n            /* \"#utility.yul\":9515:9617   */\n          swap2\n          pop\n            /* \"#utility.yul\":9634:9637   */\n          dup2\n            /* \"#utility.yul\":9627:9637   */\n          swap1\n          pop\n            /* \"#utility.yul\":9368:9643   */\n          swap3\n          swap2\n          pop\n          pop\n          jump\t// out\n            /* \"#utility.yul\":9649:9829   */\n        tag_95:\n            /* \"#utility.yul\":9697:9774   */\n          0x4e487b7100000000000000000000000000000000000000000000000000000000\n            /* \"#utility.yul\":9694:9695   */\n          0x00\n            /* \"#utility.yul\":9687:9775   */\n          mstore\n            /* \"#utility.yul\":9794:9798   */\n          0x22\n            /* \"#utility.yul\":9791:9792   */\n          0x04\n            /* \"#utility.yul\":9784:9799   */\n          mstore\n            /* \"#utility.yul\":9818:9822   */\n          0x24\n            /* \"#utility.yul\":9815:9816   */\n          0x00\n            /* \"#utility.yul\":9808:9823   */\n          revert\n            /* \"#utility.yul\":9835:10155   */\n        tag_96:\n            /* \"#utility.yul\":9879:9885   */\n          0x00\n            /* \"#utility.yul\":9916:9917   */\n          0x02\n            /* \"#utility.yul\":9910:9914   */\n          dup3\n            /* \"#utility.yul\":9906:9918   */\n          div\n            /* \"#utility.yul\":9896:9918   */\n          swap1\n          pop\n            /* \"#utility.yul\":9963:9964   */\n          0x01\n            /* \"#utility.yul\":9957:9961   */\n          dup3\n            /* \"#utility.yul\":9953:9965   */\n          and\n            /* \"#utility.yul\":9984:10002   */\n          dup1\n            /* \"#utility.yul\":9974:10055   */\n          tag_210\n          jumpi\n            /* \"#utility.yul\":10040:10044   */\n          0x7f\n            /* \"#utility.yul\":10032:10038   */\n          dup3\n            /* \"#utility.yul\":10028:10045   */\n          and\n            /* \"#utility.yul\":10018:10045   */\n          swap2\n          pop\n            /* \"#utility.yul\":9974:10055   */\n        tag_210:\n            /* \"#utility.yul\":10102:10104   */\n          0x20\n            /* \"#utility.yul\":10094:10100   */\n          dup3\n            /* \"#utility.yul\":10091:10105   */\n          lt\n            /* \"#utility.yul\":10071:10089   */\n          dup2\n            /* \"#utility.yul\":10068:10106   */\n          sub\n            /* \"#utility.yul\":10065:10149   */\n          tag_211\n          jumpi\n            /* \"#utility.yul\":10121:10139   */\n          tag_212\n          tag_95\n          jump\t// in\n        tag_212:\n            /* \"#utility.yul\":10065:10149   */\n        tag_211:\n            /* \"#utility.yul\":9886:10155   */\n          pop\n            /* \"#utility.yul\":9835:10155   */\n          swap2\n          swap1\n          pop\n          jump\t// out\n            /* \"#utility.yul\":10161:10302   */\n        tag_97:\n            /* \"#utility.yul\":10210:10214   */\n          0x00\n            /* \"#utility.yul\":10233:10236   */\n          dup2\n            /* \"#utility.yul\":10225:10236   */\n          swap1\n          pop\n            /* \"#utility.yul\":10256:10259   */\n          dup2\n            /* \"#utility.yul\":10253:10254   */\n          0x00\n            /* \"#utility.yul\":10246:10260   */\n          mstore\n            /* \"#utility.yul\":10290:10294   */\n          0x20\n            /* \"#utility.yul\":10287:10288   */\n          0x00\n            /* \"#utility.yul\":10277:10295   */\n          keccak256\n            /* \"#utility.yul\":10269:10295   */\n          swap1\n          pop\n            /* \"#utility.yul\":10161:10302   */\n          swap2\n          swap1\n          pop\n          jump\t// out\n            /* \"#utility.yul\":10308:10401   */\n        tag_98:\n            /* \"#utility.yul\":10345:10351   */\n          0x00\n            /* \"#utility.yul\":10392:10394   */\n          0x20\n            /* \"#utility.yul\":10387:10389   */\n          0x1f\n            /* \"#utility.yul\":10380:10385   */\n          dup4\n            /* \"#utility.yul\":10376:10390   */\n          add\n            /* \"#utility.yul\":10372:10395   */\n          div\n            /* \"#utility.yul\":10362:10395   */\n          swap1\n          pop\n            /* \"#utility.yul\":10308:10401   */\n          swap2\n          swap1\n          pop\n          jump\t// out\n            /* \"#utility.yul\":10407:10514   */\n        tag_99:\n            /* \"#utility.yul\":10451:10459   */\n          0x00\n            /* \"#utility.yul\":10501:10506   */\n          dup3\n            /* \"#utility.yul\":10495:10499   */\n          dup3\n            /* \"#utility.yul\":10491:10507   */\n          shl\n            /* \"#utility.yul\":10470:10507   */\n          swap1\n          pop\n            /* \"#utility.yul\":10407:10514   */\n          swap3\n          swap2\n          pop\n          pop\n          jump\t// out\n            /* \"#utility.yul\":10520:10913   */\n        tag_100:\n            /* \"#utility.yul\":10589:10595   */\n          0x00\n            /* \"#utility.yul\":10639:10640   */\n          0x08\n            /* \"#utility.yul\":10627:10637   */\n          dup4\n            /* \"#utility.yul\":10623:10641   */\n          mul\n            /* \"#utility.yul\":10662:10759   */\n          tag_217\n            /* \"#utility.yul\":10692:10758   */\n          0xffffffffffffffffffffffffffffffffffffffffffffffffffffffffffffffff\n            /* \"#utility.yul\":10681:10690   */\n          dup3\n            /* \"#utility.yul\":10662:10759   */\n          tag_99\n          jump\t// in\n        tag_217:\n            /* \"#utility.yul\":10780:10819   */\n          tag_218\n            /* \"#utility.yul\":10810:10818   */\n          dup7\n            /* \"#utility.yul\":10799:10808   */\n          dup4\n            /* \"#utility.yul\":10780:10819   */\n          tag_99\n          jump\t// in\n        tag_218:\n            /* \"#utility.yul\":10768:10819   */\n          swap6\n          pop\n            /* \"#utility.yul\":10852:10856   */\n          dup1\n            /* \"#utility.yul\":10848:10857   */\n          not\n            /* \"#utility.yul\":10841:10846   */\n          dup5\n            /* \"#utility.yul\":10837:10858   */\n          and\n            /* \"#utility.yul\":10828:10858   */\n          swap4\n          pop\n            /* \"#utility.yul\":10901:10905   */\n          dup1\n            /* \"#utility.yul\":10891:10899   */\n          dup7\n            /* \"#utility.yul\":10887:10906   */\n          and\n            /* \"#utility.yul\":10880:10885   */\n          dup5\n            /* \"#utility.yul\":10877:10907   */\n          or\n            /* \"#utility.yul\":10867:10907   */\n          swap3\n          pop\n            /* \"#utility.yul\":10596:10913   */\n          pop\n          pop\n            /* \"#utility.yul\":10520:10913   */\n          swap4\n          swap3\n          pop\n          pop\n          pop\n          jump\t// out\n            /* \"#utility.yul\":10919:10979   */\n        tag_101:\n            /* \"#utility.yul\":10947:10950   */\n          0x00\n            /* \"#utility.yul\":10968:10973   */\n          dup2\n            /* \"#utility.yul\":10961:10973   */\n          swap1\n          pop\n            /* \"#utility.yul\":10919:10979   */\n          swap2\n          swap1\n          pop\n          jump\t// out\n            /* \"#utility.yul\":10985:11127   */\n        tag_102:\n            /* \"#utility.yul\":11035:11044   */\n          0x00\n            /* \"#utility.yul\":11068:11121   */\n          tag_221\n            /* \"#utility.yul\":11086:11120   */\n          tag_222\n            /* \"#utility.yul\":11095:11119   */\n          tag_223\n            /* \"#utility.yul\":11113:11118   */\n          dup5\n            /* \"#utility.yul\":11095:11119   */\n          tag_67\n          jump\t// in\n        tag_223:\n            /* \"#utility.yul\":11086:11120   */\n          tag_101\n          jump\t// in\n        tag_222:\n            /* \"#utility.yul\":11068:11121   */\n          tag_67\n          jump\t// in\n        tag_221:\n            /* \"#utility.yul\":11055:11121   */\n          swap1\n          pop\n            /* \"#utility.yul\":10985:11127   */\n          swap2\n          swap1\n          pop\n          jump\t// out\n            /* \"#utility.yul\":11133:11208   */\n        tag_103:\n            /* \"#utility.yul\":11176:11179   */\n          0x00\n            /* \"#utility.yul\":11197:11202   */\n          dup2\n            /* \"#utility.yul\":11190:11202   */\n          swap1\n          pop\n            /* \"#utility.yul\":11133:11208   */\n          swap2\n          swap1\n          pop\n          jump\t// out\n            /* \"#utility.yul\":11214:11483   */\n        tag_104:\n            /* \"#utility.yul\":11324:11363   */\n          tag_226\n            /* \"#utility.yul\":11355:11362   */\n          dup4\n            /* \"#utility.yul\":11324:11363   */\n          tag_102\n          jump\t// in\n        tag_226:\n            /* \"#utility.yul\":11385:11476   */\n          tag_227\n            /* \"#utility.yul\":11434:11475   */\n          tag_228\n            /* \"#utility.yul\":11458:11474   */\n          dup3\n            /* \"#utility.yul\":11434:11475   */\n          tag_103\n          jump\t// in\n        tag_228:\n            /* \"#utility.yul\":11426:11432   */\n          dup5\n            /* \"#utility.yul\":11419:11423   */\n          dup5\n            /* \"#utility.yul\":11413:11424   */\n          sload\n            /* \"#utility.yul\":11385:11476   */\n          tag_100\n          jump\t// in\n        tag_227:\n            /* \"#utility.yul\":11379:11383   */\n          dup3\n            /* \"#utility.yul\":11372:11477   */\n          sstore\n            /* \"#utility.yul\":11290:11483   */\n          pop\n            /* \"#utility.yul\":11214:11483   */\n          pop\n          pop\n          pop\n          jump\t// out\n            /* \"#utility.yul\":11489:11562   */\n        tag_105:\n            /* \"#utility.yul\":11534:11537   */\n          0x00\n            /* \"#utility.yul\":11489:11562   */\n          swap1\n          jump\t// out\n            /* \"#utility.yul\":11568:11757   */\n        tag_106:\n            /* \"#utility.yul\":11645:11677   */\n          tag_231\n          tag_105\n          jump\t// in\n        tag_231:\n            /* \"#utility.yul\":11686:11751   */\n          tag_232\n            /* \"#utility.yul\":11744:11750   */\n          dup2\n            /* \"#utility.yul\":11736:11742   */\n          dup5\n            /* \"#utility.yul\":11730:11734   */\n          dup5\n            /* \"#utility.yul\":11686:11751   */\n          tag_104\n          jump\t// in\n        tag_232:\n            /* \"#utility.yul\":11621:11757   */\n          pop\n            /* \"#utility.yul\":11568:11757   */\n          pop\n          pop\n          jump\t// out\n            /* \"#utility.yul\":11763:11949   */\n        tag_107:\n            /* \"#utility.yul\":11823:11943   */\n        tag_234:\n            /* \"#utility.yul\":11840:11843   */\n          dup2\n            /* \"#utility.yul\":11833:11838   */\n          dup2\n            /* \"#utility.yul\":11830:11844   */\n          lt\n            /* \"#utility.yul\":11823:11943   */\n          iszero\n          tag_236\n          jumpi\n            /* \"#utility.yul\":11894:11933   */\n          tag_237\n            /* \"#utility.yul\":11931:11932   */\n          0x00\n            /* \"#utility.yul\":11924:11929   */\n          dup3\n            /* \"#utility.yul\":11894:11933   */\n          tag_106\n          jump\t// in\n        tag_237:\n            /* \"#utility.yul\":11867:11868   */\n          0x01\n            /* \"#utility.yul\":11860:11865   */\n          dup2\n            /* \"#utility.yul\":11856:11869   */\n          add\n            /* \"#utility.yul\":11847:11869   */\n          swap1\n          pop\n            /* \"#utility.yul\":11823:11943   */\n          jump(tag_234)\n        tag_236:\n            /* \"#utility.yul\":11763:11949   */\n          pop\n          pop\n          jump\t// out\n            /* \"#utility.yul\":11955:12498   */\n        tag_108:\n            /* \"#utility.yul\":12056:12058   */\n          0x1f\n            /* \"#utility.yul\":12051:12054   */\n          dup3\n            /* \"#utility.yul\":12048:12059   */\n          gt\n            /* \"#utility.yul\":12045:12491   */\n          iszero\n          tag_239\n          jumpi\n            /* \"#utility.yul\":12090:12128   */\n          tag_240\n            /* \"#utility.yul\":12122:12127   */\n          dup2\n            /* \"#utility.yul\":12090:12128   */\n          tag_97\n          jump\t// in\n        tag_240:\n            /* \"#utility.yul\":12174:12203   */\n          tag_241\n            /* \"#utility.yul\":12192:12202   */\n          dup5\n            /* \"#utility.yul\":12174:12203   */\n          tag_98\n          jump\t// in\n        tag_241:\n            /* \"#utility.yul\":12164:12172   */\n          dup2\n            /* \"#utility.yul\":12160:12204   */\n          add\n            /* \"#utility.yul\":12357:12359   */\n          0x20\n            /* \"#utility.yul\":12345:12355   */\n          dup6\n            /* \"#utility.yul\":12342:12360   */\n          lt\n            /* \"#utility.yul\":12339:12388   */\n          iszero\n          tag_242\n          jumpi\n            /* \"#utility.yul\":12378:12386   */\n          dup2\n            /* \"#utility.yul\":12363:12386   */\n          swap1\n          pop\n            /* \"#utility.yul\":12339:12388   */\n        tag_242:\n            /* \"#utility.yul\":12401:12481   */\n          tag_243\n            /* \"#utility.yul\":12457:12479   */\n          tag_244\n            /* \"#utility.yul\":12475:12478   */\n          dup6\n            /* \"#utility.yul\":12457:12479   */\n          tag_98\n          jump\t// in\n        tag_244:\n            /* \"#utility.yul\":12447:12455   */\n          dup4\n            /* \"#utility.yul\":12443:12480   */\n          add\n            /* \"#utility.yul\":12430:12441   */\n          dup3\n            /* \"#utility.yul\":12401:12481   */\n          tag_107\n          jump\t// in\n        tag_243:\n            /* \"#utility.yul\":12060:12491   */\n          pop\n          pop\n            /* \"#utility.yul\":12045:12491   */\n        tag_239:\n            /* \"#utility.yul\":11955:12498   */\n          pop\n          pop\n          pop\n          jump\t// out\n            /* \"#utility.yul\":12504:12621   */\n        tag_109:\n            /* \"#utility.yul\":12558:12566   */\n          0x00\n            /* \"#utility.yul\":12608:12613   */\n          dup3\n            /* \"#utility.yul\":12602:12606   */\n          dup3\n            /* \"#utility.yul\":12598:12614   */\n          shr\n            /* \"#utility.yul\":12577:12614   */\n          swap1\n          pop\n            /* \"#utility.yul\":12504:12621   */\n          swap3\n          swap2\n          pop\n          pop\n          jump\t// out\n            /* \"#utility.yul\":12627:12796   */\n        tag_110:\n            /* \"#utility.yul\":12671:12677   */\n          0x00\n            /* \"#utility.yul\":12704:12755   */\n          tag_247\n            /* \"#utility.yul\":12752:12753   */\n          0x00\n            /* \"#utility.yul\":12748:12754   */\n          not\n            /* \"#utility.yul\":12740:12745   */\n          dup5\n            /* \"#utility.yul\":12737:12738   */\n          0x08\n            /* \"#utility.yul\":12733:12746   */\n          mul\n            /* \"#utility.yul\":12704:12755   */\n          tag_109\n          jump\t// in\n        tag_247:\n            /* \"#utility.yul\":12700:12756   */\n          not\n            /* \"#utility.yul\":12785:12789   */\n          dup1\n            /* \"#utility.yul\":12779:12783   */\n          dup4\n            /* \"#utility.yul\":12775:12790   */\n          and\n            /* \"#utility.yul\":12765:12790   */\n          swap2\n          pop\n            /* \"#utility.yul\":12678:12796   */\n          pop\n            /* \"#utility.yul\":12627:12796   */\n          swap3\n          swap2\n          pop\n          pop\n          jump\t// out\n            /* \"#utility.yul\":12801:13096   */\n        tag_111:\n            /* \"#utility.yul\":12877:12881   */\n          0x00\n            /* \"#utility.yul\":13023:13052   */\n          tag_249\n            /* \"#utility.yul\":13048:13051   */\n          dup4\n            /* \"#utility.yul\":13042:13046   */\n          dup4\n            /* \"#utility.yul\":13023:13052   */\n          tag_110\n          jump\t// in\n        tag_249:\n            /* \"#utility.yul\":13015:13052   */\n          swap2\n          pop\n            /* \"#utility.yul\":13085:13088   */\n          dup3\n            /* \"#utility.yul\":13082:13083   */\n          0x02\n            /* \"#utility.yul\":13078:13089   */\n          mul\n            /* \"#utility.yul\":13072:13076   */\n          dup3\n            /* \"#utility.yul\":13069:13090   */\n          or\n            /* \"#utility.yul\":13061:13090   */\n          swap1\n          pop\n            /* \"#utility.yul\":12801:13096   */\n          swap3\n          swap2\n          pop\n          pop\n          jump\t// out\n            /* \"#utility.yul\":13101:14496   */\n        tag_61:\n            /* \"#utility.yul\":13218:13255   */\n          tag_251\n            /* \"#utility.yul\":13251:13254   */\n          dup3\n            /* \"#utility.yul\":13218:13255   */\n          tag_92\n          jump\t// in\n        tag_251:\n            /* \"#utility.yul\":13320:13338   */\n          0xffffffffffffffff\n            /* \"#utility.yul\":13312:13318   */\n          dup2\n            /* \"#utility.yul\":13309:13339   */\n          gt\n            /* \"#utility.yul\":13306:13362   */\n          iszero\n          tag_252\n          jumpi\n            /* \"#utility.yul\":13342:13360   */\n          tag_253\n          tag_74\n          jump\t// in\n        tag_253:\n            /* \"#utility.yul\":13306:13362   */\n        tag_252:\n            /* \"#utility.yul\":13386:13424   */\n          tag_254\n            /* \"#utility.yul\":13418:13422   */\n          dup3\n            /* \"#utility.yul\":13412:13423   */\n          sload\n            /* \"#utility.yul\":13386:13424   */\n          tag_96\n          jump\t// in\n        tag_254:\n            /* \"#utility.yul\":13471:13538   */\n          tag_255\n            /* \"#utility.yul\":13531:13537   */\n          dup3\n            /* \"#utility.yul\":13523:13529   */\n          dup3\n            /* \"#utility.yul\":13517:13521   */\n          dup6\n            /* \"#utility.yul\":13471:13538   */\n          tag_108\n          jump\t// in\n        tag_255:\n            /* \"#utility.yul\":13565:13566   */\n          0x00\n            /* \"#utility.yul\":13589:13593   */\n          0x20\n            /* \"#utility.yul\":13576:13593   */\n          swap1\n          pop\n            /* \"#utility.yul\":13621:13623   */\n          0x1f\n            /* \"#utility.yul\":13613:13619   */\n          dup4\n            /* \"#utility.yul\":13610:13624   */\n          gt\n            /* \"#utility.yul\":13638:13639   */\n          0x01\n            /* \"#utility.yul\":13633:14251   */\n          dup2\n          eq\n          tag_257\n          jumpi\n            /* \"#utility.yul\":14295:14296   */\n          0x00\n            /* \"#utility.yul\":14312:14318   */\n          dup5\n            /* \"#utility.yul\":14309:14386   */\n          iszero\n          tag_258\n          jumpi\n            /* \"#utility.yul\":14361:14370   */\n          dup3\n            /* \"#utility.yul\":14356:14359   */\n          dup8\n            /* \"#utility.yul\":14352:14371   */\n          add\n            /* \"#utility.yul\":14346:14372   */\n          mload\n            /* \"#utility.yul\":14337:14372   */\n          swap1\n          pop\n            /* \"#utility.yul\":14309:14386   */\n        tag_258:\n            /* \"#utility.yul\":14412:14479   */\n          tag_259\n            /* \"#utility.yul\":14472:14478   */\n          dup6\n            /* \"#utility.yul\":14465:14470   */\n          dup3\n            /* \"#utility.yul\":14412:14479   */\n          tag_111\n          jump\t// in\n        tag_259:\n            /* \"#utility.yul\":14406:14410   */\n          dup7\n            /* \"#utility.yul\":14399:14480   */\n          sstore\n            /* \"#utility.yul\":14268:14490   */\n          pop\n            /* \"#utility.yul\":13603:14490   */\n          jump(tag_256)\n            /* \"#utility.yul\":13633:14251   */\n        tag_257:\n            /* \"#utility.yul\":13685:13689   */\n          0x1f\n            /* \"#utility.yul\":13681:13690   */\n          not\n            /* \"#utility.yul\":13673:13679   */\n          dup5\n            /* \"#utility.yul\":13669:13691   */\n          and\n            /* \"#utility.yul\":13719:13756   */\n          tag_260\n            /* \"#utility.yul\":13751:13755   */\n          dup7\n            /* \"#utility.yul\":13719:13756   */\n          tag_97\n          jump\t// in\n        tag_260:\n            /* \"#utility.yul\":13778:13779   */\n          0x00\n            /* \"#utility.yul\":13792:14000   */\n        tag_261:\n            /* \"#utility.yul\":13806:13813   */\n          dup3\n            /* \"#utility.yul\":13803:13804   */\n          dup2\n            /* \"#utility.yul\":13800:13814   */\n          lt\n            /* \"#utility.yul\":13792:14000   */\n          iszero\n          tag_263\n          jumpi\n            /* \"#utility.yul\":13885:13894   */\n          dup5\n            /* \"#utility.yul\":13880:13883   */\n          dup10\n            /* \"#utility.yul\":13876:13895   */\n          add\n            /* \"#utility.yul\":13870:13896   */\n          mload\n            /* \"#utility.yul\":13862:13868   */\n          dup3\n            /* \"#utility.yul\":13855:13897   */\n          sstore\n            /* \"#utility.yul\":13936:13937   */\n          0x01\n            /* \"#utility.yul\":13928:13934   */\n          dup3\n            /* \"#utility.yul\":13924:13938   */\n          add\n            /* \"#utility.yul\":13914:13938   */\n          swap2\n          pop\n            /* \"#utility.yul\":13983:13985   */\n          0x20\n            /* \"#utility.yul\":13972:13981   */\n          dup6\n            /* \"#utility.yul\":13968:13986   */\n          add\n            /* \"#utility.yul\":13955:13986   */\n          swap5\n          pop\n            /* \"#utility.yul\":13829:13833   */\n          0x20\n            /* \"#utility.yul\":13826:13827   */\n          dup2\n            /* \"#utility.yul\":13822:13834   */\n          add\n            /* \"#utility.yul\":13817:13834   */\n          swap1\n          pop\n            /* \"#utility.yul\":13792:14000   */\n          jump(tag_261)\n        tag_263:\n            /* \"#utility.yul\":14028:14034   */\n          dup7\n            /* \"#utility.yul\":14019:14026   */\n          dup4\n            /* \"#utility.yul\":14016:14035   */\n          lt\n            /* \"#utility.yul\":14013:14192   */\n          iszero\n          tag_264\n          jumpi\n            /* \"#utility.yul\":14086:14095   */\n          dup5\n            /* \"#utility.yul\":14081:14084   */\n          dup10\n            /* \"#utility.yul\":14077:14096   */\n          add\n            /* \"#utility.yul\":14071:14097   */\n          mload\n            /* \"#utility.yul\":14129:14177   */\n          tag_265\n            /* \"#utility.yul\":14171:14175   */\n          0x1f\n            /* \"#utility.yul\":14163:14169   */\n          dup10\n            /* \"#utility.yul\":14159:14176   */\n          and\n            /* \"#utility.yul\":14148:14157   */\n          dup3\n            /* \"#utility.yul\":14129:14177   */\n          tag_110\n          jump\t// in\n        tag_265:\n            /* \"#utility.yul\":14121:14127   */\n          dup4\n            /* \"#utility.yul\":14114:14178   */\n          sstore\n            /* \"#utility.yul\":14036:14192   */\n          pop\n            /* \"#utility.yul\":14013:14192   */\n        tag_264:\n            /* \"#utility.yul\":14238:14239   */\n          0x01\n            /* \"#utility.yul\":14234:14235   */\n          0x02\n            /* \"#utility.yul\":14226:14232   */\n          dup9\n            /* \"#utility.yul\":14222:14236   */\n          mul\n            /* \"#utility.yul\":14218:14240   */\n          add\n            /* \"#utility.yul\":14212:14216   */\n          dup9\n            /* \"#utility.yul\":14205:14241   */\n          sstore\n            /* \"#utility.yul\":13640:14251   */\n          pop\n          pop\n          pop\n            /* \"#utility.yul\":13603:14490   */\n        tag_256:\n          pop\n            /* \"#utility.yul\":13193:14496   */\n          pop\n          pop\n          pop\n            /* \"#utility.yul\":13101:14496   */\n          pop\n          pop\n          jump\t// out\n\n        auxdata: 0xa2646970667358221220cfbfaa31daed28e0cda416db876fd84e30e14c2380b28668e20f9f0bd9c3b23964736f6c63430008120033\n    }\n}\n",
				"bytecode": {
					"linkReferences": {},
					"object": "608060405234801561001057600080fd5b5060405161001d9061007e565b604051809103906000f080158015610039573d6000803e3d6000fd5b506000806101000a81548173ffffffffffffffffffffffffffffffffffffffff021916908373ffffffffffffffffffffffffffffffffffffffff16021790555061008b565b610c9d80610a5f83390190565b6109c58061009a6000396000f3fe608060405234801561001057600080fd5b50600436106100575760003560e01c806319eb005b1461005c5780635f030343146100785780639ec2568f146100aa578063a2384044146100c6578063b863bd37146100e4575b600080fd5b6100766004803603810190610071919061050a565b610114565b005b610092600480360381019061008d919061055d565b6101af565b6040516100a193929190610629565b60405180910390f35b6100c460048036038101906100bf91906106c5565b6102de565b005b6100ce610321565b6040516100db9190610751565b60405180910390f35b6100fe60048036038101906100f9919061055d565b610345565b60405161010b919061076c565b60405180910390f35b60008054906101000a900473ffffffffffffffffffffffffffffffffffffffff1673ffffffffffffffffffffffffffffffffffffffff16639e4205248461015b8585610393565b6040518363ffffffff1660e01b8152600401610178929190610787565b600060405180830381600087803b15801561019257600080fd5b505af11580156101a6573d6000803e3d6000fd5b50505050505050565b600080606060008060009054906101000a900473ffffffffffffffffffffffffffffffffffffffff1673ffffffffffffffffffffffffffffffffffffffff16637cf736e0866040518263ffffffff1660e01b8152600401610210919061076c565b602060405180830381865afa15801561022d573d6000803e3d6000fd5b505050506040513d601f19601f8201168201806040525081019061025191906107c5565b905080600a60008303610299576040518060400160405280600781526020017f7265766f6b6564000000000000000000000000000000000000000000000000008152506102d0565b6040518060400160405280600a81526020017f6c65676974696d617465000000000000000000000000000000000000000000008152505b935093509350509193909250565b806000806101000a81548173ffffffffffffffffffffffffffffffffffffffff021916908373ffffffffffffffffffffffffffffffffffffffff16021790555050565b60008054906101000a900473ffffffffffffffffffffffffffffffffffffffff1681565b60008142443360405160200161035d9392919061085b565b6040516020818303038152906040528051906020012060001c61038091906108c7565b600161038c9190610927565b9050919050565b60006003831080156103a25750815b156103bb576003836103b49190610927565b9050610491565b6003831080156103c9575081155b156103fe5760006001846103dd919061095b565b106103f4576001836103ef919061095b565b6103f7565b60005b9050610491565b60088310801561040b5750815b156104245760028361041d9190610927565b9050610491565b600883108015610432575081155b1561044b57600283610444919061095b565b9050610491565b811561048157600a6001846104609190610927565b11610477576001836104729190610927565b61047a565b600a5b9050610491565b60038361048e919061095b565b90505b92915050565b600080fd5b6000819050919050565b6104af8161049c565b81146104ba57600080fd5b50565b6000813590506104cc816104a6565b92915050565b60008115159050919050565b6104e7816104d2565b81146104f257600080fd5b50565b600081359050610504816104de565b92915050565b60008060006060848603121561052357610522610497565b5b6000610531868287016104bd565b9350506020610542868287016104bd565b9250506040610553868287016104f5565b9150509250925092565b60006020828403121561057357610572610497565b5b6000610581848285016104bd565b91505092915050565b6105938161049c565b82525050565b600081519050919050565b600082825260208201905092915050565b60005b838110156105d35780820151818401526020810190506105b8565b60008484015250505050565b6000601f19601f8301169050919050565b60006105fb82610599565b61060581856105a4565b93506106158185602086016105b5565b61061e816105df565b840191505092915050565b600060608201905061063e600083018661058a565b61064b602083018561058a565b818103604083015261065d81846105f0565b9050949350505050565b600073ffffffffffffffffffffffffffffffffffffffff82169050919050565b600061069282610667565b9050919050565b6106a281610687565b81146106ad57600080fd5b50565b6000813590506106bf81610699565b92915050565b6000602082840312156106db576106da610497565b5b60006106e9848285016106b0565b91505092915050565b6000819050919050565b600061071761071261070d84610667565b6106f2565b610667565b9050919050565b6000610729826106fc565b9050919050565b600061073b8261071e565b9050919050565b61074b81610730565b82525050565b60006020820190506107666000830184610742565b92915050565b6000602082019050610781600083018461058a565b92915050565b600060408201905061079c600083018561058a565b6107a9602083018461058a565b9392505050565b6000815190506107bf816104a6565b92915050565b6000602082840312156107db576107da610497565b5b60006107e9848285016107b0565b91505092915050565b6000819050919050565b61080d6108088261049c565b6107f2565b82525050565b60008160601b9050919050565b600061082b82610813565b9050919050565b600061083d82610820565b9050919050565b61085561085082610687565b610832565b82525050565b600061086782866107fc565b60208201915061087782856107fc565b6020820191506108878284610844565b601482019150819050949350505050565b7f4e487b7100000000000000000000000000000000000000000000000000000000600052601260045260246000fd5b60006108d28261049c565b91506108dd8361049c565b9250826108ed576108ec610898565b5b828206905092915050565b7f4e487b7100000000000000000000000000000000000000000000000000000000600052601160045260246000fd5b60006109328261049c565b915061093d8361049c565b9250828201905080821115610955576109546108f8565b5b92915050565b60006109668261049c565b91506109718361049c565b9250828203905081811115610989576109886108f8565b5b9291505056fea2646970667358221220a191a5ba87cf8e20e30c38a1fa3ed5012fcc062521539646d782248756fc517264736f6c63430008120033608060405234801561001057600080fd5b506001600081905550610c75806100286000396000f3fe608060405234801561001057600080fd5b50600436106100575760003560e01c80631ae8579c1461005c5780637cf736e0146100665780639e42052414610096578063dab98e64146100b2578063e6b7e207146100e2575b600080fd5b610064610100565b005b610080600480360381019061007b91906104cb565b61014b565b60405161008d9190610507565b60405180910390f35b6100b060048036038101906100ab9190610522565b6101ce565b005b6100cc60048036038101906100c791906106a8565b6102de565b6040516100d99190610507565b60405180910390f35b6100ea610309565b6040516100f79190610507565b60405180910390f35b60005b600a81101561014857610134816040516020016101209190610769565b6040516020818303038152906040526102de565b508080610140906107be565b915050610103565b50565b60006001600083815260200190815260200160002060030160009054906101000a900460ff166101b0576040517f08c379a00000000000000000000000000000000000000000000000000000000081526004016101a790610863565b60405180910390fd5b60016000838152602001908152602001600020600001549050919050565b6001600083815260200190815260200160002060030160009054906101000a900460ff16610231576040517f08c379a000000000000000000000000000000000000000000000000000000000815260040161022890610863565b60405180910390fd5b60088110610259576001806000848152602001908152602001600020600201819055506102bf565b6005811061028257600060016000848152602001908152602001600020600201819055506102be565b7fffffffffffffffffffffffffffffffffffffffffffffffffffffffffffffffff60016000848152602001908152602001600020600201819055505b5b8060016000848152602001908152602001600020600001819055505050565b60006102ec6000548361031a565b6000808154809291906102fe906107be565b919050559050919050565b6000610315600061014b565b905090565b604051602001610329906108cf565b6040516020818303038152906040528051906020012081604051602001610350919061094a565b60405160208183030381529060405280519060200120036103f6576040518060800160405280600881526020018281526020016001815260200160011515815250600160008481526020019081526020016000206000820151816000015560208201518160010190816103c39190610b6d565b506040820151816002015560608201518160030160006101000a81548160ff02191690831515021790555090505061047d565b60405180608001604052806005815260200182815260200160008152602001600115158152506001600084815260200190815260200160002060008201518160000155602082015181600101908161044e9190610b6d565b506040820151816002015560608201518160030160006101000a81548160ff0219169083151502179055509050505b5050565b6000604051905090565b600080fd5b600080fd5b6000819050919050565b6104a881610495565b81146104b357600080fd5b50565b6000813590506104c58161049f565b92915050565b6000602082840312156104e1576104e061048b565b5b60006104ef848285016104b6565b91505092915050565b61050181610495565b82525050565b600060208201905061051c60008301846104f8565b92915050565b600080604083850312156105395761053861048b565b5b6000610547858286016104b6565b9250506020610558858286016104b6565b9150509250929050565b600080fd5b600080fd5b6000601f19601f8301169050919050565b7f4e487b7100000000000000000000000000000000000000000000000000000000600052604160045260246000fd5b6105b58261056c565b810181811067ffffffffffffffff821117156105d4576105d361057d565b5b80604052505050565b60006105e7610481565b90506105f382826105ac565b919050565b600067ffffffffffffffff8211156106135761061261057d565b5b61061c8261056c565b9050602081019050919050565b82818337600083830152505050565b600061064b610646846105f8565b6105dd565b90508281526020810184848401111561066757610666610567565b5b610672848285610629565b509392505050565b600082601f83011261068f5761068e610562565b5b813561069f848260208601610638565b91505092915050565b6000602082840312156106be576106bd61048b565b5b600082013567ffffffffffffffff8111156106dc576106db610490565b5b6106e88482850161067a565b91505092915050565b600081905092915050565b7f73616d706c650000000000000000000000000000000000000000000000000000600082015250565b60006107326006836106f1565b915061073d826106fc565b600682019050919050565b6000819050919050565b61076361075e82610495565b610748565b82525050565b600061077482610725565b91506107808284610752565b60208201915081905092915050565b7f4e487b7100000000000000000000000000000000000000000000000000000000600052601160045260246000fd5b60006107c982610495565b91507fffffffffffffffffffffffffffffffffffffffffffffffffffffffffffffffff82036107fb576107fa61078f565b5b600182019050919050565b600082825260208201905092915050565b7f536f7572636520646f6573206e6f742065786973740000000000000000000000600082015250565b600061084d601583610806565b915061085882610817565b602082019050919050565b6000602082019050818103600083015261087c81610840565b9050919050565b7f3931310000000000000000000000000000000000000000000000000000000000600082015250565b60006108b96003836106f1565b91506108c482610883565b600382019050919050565b60006108da826108ac565b9150819050919050565b600081519050919050565b60005b8381101561090d5780820151818401526020810190506108f2565b60008484015250505050565b6000610924826108e4565b61092e81856106f1565b935061093e8185602086016108ef565b80840191505092915050565b60006109568284610919565b915081905092915050565b7f4e487b7100000000000000000000000000000000000000000000000000000000600052602260045260246000fd5b600060028204905060018216806109a857607f821691505b6020821081036109bb576109ba610961565b5b50919050565b60008190508160005260206000209050919050565b60006020601f8301049050919050565b600082821b905092915050565b600060088302610a237fffffffffffffffffffffffffffffffffffffffffffffffffffffffffffffffff826109e6565b610a2d86836109e6565b95508019841693508086168417925050509392505050565b6000819050919050565b6000610a6a610a65610a6084610495565b610a45565b610495565b9050919050565b6000819050919050565b610a8483610a4f565b610a98610a9082610a71565b8484546109f3565b825550505050565b600090565b610aad610aa0565b610ab8818484610a7b565b505050565b5b81811015610adc57610ad1600082610aa5565b600181019050610abe565b5050565b601f821115610b2157610af2816109c1565b610afb846109d6565b81016020851015610b0a578190505b610b1e610b16856109d6565b830182610abd565b50505b505050565b600082821c905092915050565b6000610b4460001984600802610b26565b1980831691505092915050565b6000610b5d8383610b33565b9150826002028217905092915050565b610b76826108e4565b67ffffffffffffffff811115610b8f57610b8e61057d565b5b610b998254610990565b610ba4828285610ae0565b600060209050601f831160018114610bd75760008415610bc5578287015190505b610bcf8582610b51565b865550610c37565b601f198416610be5866109c1565b60005b82811015610c0d57848901518255600182019150602085019450602081019050610be8565b86831015610c2a5784890151610c26601f891682610b33565b8355505b6001600288020188555050505b50505050505056fea2646970667358221220cfbfaa31daed28e0cda416db876fd84e30e14c2380b28668e20f9f0bd9c3b23964736f6c63430008120033",
					"opcodes": "PUSH1 0x80 PUSH1 0x40 MSTORE CALLVALUE DUP1 ISZERO PUSH2 0x10 JUMPI PUSH1 0x0 DUP1 REVERT JUMPDEST POP PUSH1 0x40 MLOAD PUSH2 0x1D SWAP1 PUSH2 0x7E JUMP JUMPDEST PUSH1 0x40 MLOAD DUP1 SWAP2 SUB SWAP1 PUSH1 0x0 CREATE DUP1 ISZERO DUP1 ISZERO PUSH2 0x39 JUMPI RETURNDATASIZE PUSH1 0x0 DUP1 RETURNDATACOPY RETURNDATASIZE PUSH1 0x0 REVERT JUMPDEST POP PUSH1 0x0 DUP1 PUSH2 0x100 EXP DUP2 SLOAD DUP2 PUSH20 0xFFFFFFFFFFFFFFFFFFFFFFFFFFFFFFFFFFFFFFFF MUL NOT AND SWAP1 DUP4 PUSH20 0xFFFFFFFFFFFFFFFFFFFFFFFFFFFFFFFFFFFFFFFF AND MUL OR SWAP1 SSTORE POP PUSH2 0x8B JUMP JUMPDEST PUSH2 0xC9D DUP1 PUSH2 0xA5F DUP4 CODECOPY ADD SWAP1 JUMP JUMPDEST PUSH2 0x9C5 DUP1 PUSH2 0x9A PUSH1 0x0 CODECOPY PUSH1 0x0 RETURN INVALID PUSH1 0x80 PUSH1 0x40 MSTORE CALLVALUE DUP1 ISZERO PUSH2 0x10 JUMPI PUSH1 0x0 DUP1 REVERT JUMPDEST POP PUSH1 0x4 CALLDATASIZE LT PUSH2 0x57 JUMPI PUSH1 0x0 CALLDATALOAD PUSH1 0xE0 SHR DUP1 PUSH4 0x19EB005B EQ PUSH2 0x5C JUMPI DUP1 PUSH4 0x5F030343 EQ PUSH2 0x78 JUMPI DUP1 PUSH4 0x9EC2568F EQ PUSH2 0xAA JUMPI DUP1 PUSH4 0xA2384044 EQ PUSH2 0xC6 JUMPI DUP1 PUSH4 0xB863BD37 EQ PUSH2 0xE4 JUMPI JUMPDEST PUSH1 0x0 DUP1 REVERT JUMPDEST PUSH2 0x76 PUSH1 0x4 DUP1 CALLDATASIZE SUB DUP2 ADD SWAP1 PUSH2 0x71 SWAP2 SWAP1 PUSH2 0x50A JUMP JUMPDEST PUSH2 0x114 JUMP JUMPDEST STOP JUMPDEST PUSH2 0x92 PUSH1 0x4 DUP1 CALLDATASIZE SUB DUP2 ADD SWAP1 PUSH2 0x8D SWAP2 SWAP1 PUSH2 0x55D JUMP JUMPDEST PUSH2 0x1AF JUMP JUMPDEST PUSH1 0x40 MLOAD PUSH2 0xA1 SWAP4 SWAP3 SWAP2 SWAP1 PUSH2 0x629 JUMP JUMPDEST PUSH1 0x40 MLOAD DUP1 SWAP2 SUB SWAP1 RETURN JUMPDEST PUSH2 0xC4 PUSH1 0x4 DUP1 CALLDATASIZE SUB DUP2 ADD SWAP1 PUSH2 0xBF SWAP2 SWAP1 PUSH2 0x6C5 JUMP JUMPDEST PUSH2 0x2DE JUMP JUMPDEST STOP JUMPDEST PUSH2 0xCE PUSH2 0x321 JUMP JUMPDEST PUSH1 0x40 MLOAD PUSH2 0xDB SWAP2 SWAP1 PUSH2 0x751 JUMP JUMPDEST PUSH1 0x40 MLOAD DUP1 SWAP2 SUB SWAP1 RETURN JUMPDEST PUSH2 0xFE PUSH1 0x4 DUP1 CALLDATASIZE SUB DUP2 ADD SWAP1 PUSH2 0xF9 SWAP2 SWAP1 PUSH2 0x55D JUMP JUMPDEST PUSH2 0x345 JUMP JUMPDEST PUSH1 0x40 MLOAD PUSH2 0x10B SWAP2 SWAP1 PUSH2 0x76C JUMP JUMPDEST PUSH1 0x40 MLOAD DUP1 SWAP2 SUB SWAP1 RETURN JUMPDEST PUSH1 0x0 DUP1 SLOAD SWAP1 PUSH2 0x100 EXP SWAP1 DIV PUSH20 0xFFFFFFFFFFFFFFFFFFFFFFFFFFFFFFFFFFFFFFFF AND PUSH20 0xFFFFFFFFFFFFFFFFFFFFFFFFFFFFFFFFFFFFFFFF AND PUSH4 0x9E420524 DUP5 PUSH2 0x15B DUP6 DUP6 PUSH2 0x393 JUMP JUMPDEST PUSH1 0x40 MLOAD DUP4 PUSH4 0xFFFFFFFF AND PUSH1 0xE0 SHL DUP2 MSTORE PUSH1 0x4 ADD PUSH2 0x178 SWAP3 SWAP2 SWAP1 PUSH2 0x787 JUMP JUMPDEST PUSH1 0x0 PUSH1 0x40 MLOAD DUP1 DUP4 SUB DUP2 PUSH1 0x0 DUP8 DUP1 EXTCODESIZE ISZERO DUP1 ISZERO PUSH2 0x192 JUMPI PUSH1 0x0 DUP1 REVERT JUMPDEST POP GAS CALL ISZERO DUP1 ISZERO PUSH2 0x1A6 JUMPI RETURNDATASIZE PUSH1 0x0 DUP1 RETURNDATACOPY RETURNDATASIZE PUSH1 0x0 REVERT JUMPDEST POP POP POP POP POP POP POP JUMP JUMPDEST PUSH1 0x0 DUP1 PUSH1 0x60 PUSH1 0x0 DUP1 PUSH1 0x0 SWAP1 SLOAD SWAP1 PUSH2 0x100 EXP SWAP1 DIV PUSH20 0xFFFFFFFFFFFFFFFFFFFFFFFFFFFFFFFFFFFFFFFF AND PUSH20 0xFFFFFFFFFFFFFFFFFFFFFFFFFFFFFFFFFFFFFFFF AND PUSH4 0x7CF736E0 DUP7 PUSH1 0x40 MLOAD DUP3 PUSH4 0xFFFFFFFF AND PUSH1 0xE0 SHL DUP2 MSTORE PUSH1 0x4 ADD PUSH2 0x210 SWAP2 SWAP1 PUSH2 0x76C JUMP JUMPDEST PUSH1 0x20 PUSH1 0x40 MLOAD DUP1 DUP4 SUB DUP2 DUP7 GAS STATICCALL ISZERO DUP1 ISZERO PUSH2 0x22D JUMPI RETURNDATASIZE PUSH1 0x0 DUP1 RETURNDATACOPY RETURNDATASIZE PUSH1 0x0 REVERT JUMPDEST POP POP POP POP PUSH1 0x40 MLOAD RETURNDATASIZE PUSH1 0x1F NOT PUSH1 0x1F DUP3 ADD AND DUP3 ADD DUP1 PUSH1 0x40 MSTORE POP DUP2 ADD SWAP1 PUSH2 0x251 SWAP2 SWAP1 PUSH2 0x7C5 JUMP JUMPDEST SWAP1 POP DUP1 PUSH1 0xA PUSH1 0x0 DUP4 SUB PUSH2 0x299 JUMPI PUSH1 0x40 MLOAD DUP1 PUSH1 0x40 ADD PUSH1 0x40 MSTORE DUP1 PUSH1 0x7 DUP2 MSTORE PUSH1 0x20 ADD PUSH32 0x7265766F6B656400000000000000000000000000000000000000000000000000 DUP2 MSTORE POP PUSH2 0x2D0 JUMP JUMPDEST PUSH1 0x40 MLOAD DUP1 PUSH1 0x40 ADD PUSH1 0x40 MSTORE DUP1 PUSH1 0xA DUP2 MSTORE PUSH1 0x20 ADD PUSH32 0x6C65676974696D61746500000000000000000000000000000000000000000000 DUP2 MSTORE POP JUMPDEST SWAP4 POP SWAP4 POP SWAP4 POP POP SWAP2 SWAP4 SWAP1 SWAP3 POP JUMP JUMPDEST DUP1 PUSH1 0x0 DUP1 PUSH2 0x100 EXP DUP2 SLOAD DUP2 PUSH20 0xFFFFFFFFFFFFFFFFFFFFFFFFFFFFFFFFFFFFFFFF MUL NOT AND SWAP1 DUP4 PUSH20 0xFFFFFFFFFFFFFFFFFFFFFFFFFFFFFFFFFFFFFFFF AND MUL OR SWAP1 SSTORE POP POP JUMP JUMPDEST PUSH1 0x0 DUP1 SLOAD SWAP1 PUSH2 0x100 EXP SWAP1 DIV PUSH20 0xFFFFFFFFFFFFFFFFFFFFFFFFFFFFFFFFFFFFFFFF AND DUP2 JUMP JUMPDEST PUSH1 0x0 DUP2 TIMESTAMP PREVRANDAO CALLER PUSH1 0x40 MLOAD PUSH1 0x20 ADD PUSH2 0x35D SWAP4 SWAP3 SWAP2 SWAP1 PUSH2 0x85B JUMP JUMPDEST PUSH1 0x40 MLOAD PUSH1 0x20 DUP2 DUP4 SUB SUB DUP2 MSTORE SWAP1 PUSH1 0x40 MSTORE DUP1 MLOAD SWAP1 PUSH1 0x20 ADD KECCAK256 PUSH1 0x0 SHR PUSH2 0x380 SWAP2 SWAP1 PUSH2 0x8C7 JUMP JUMPDEST PUSH1 0x1 PUSH2 0x38C SWAP2 SWAP1 PUSH2 0x927 JUMP JUMPDEST SWAP1 POP SWAP2 SWAP1 POP JUMP JUMPDEST PUSH1 0x0 PUSH1 0x3 DUP4 LT DUP1 ISZERO PUSH2 0x3A2 JUMPI POP DUP2 JUMPDEST ISZERO PUSH2 0x3BB JUMPI PUSH1 0x3 DUP4 PUSH2 0x3B4 SWAP2 SWAP1 PUSH2 0x927 JUMP JUMPDEST SWAP1 POP PUSH2 0x491 JUMP JUMPDEST PUSH1 0x3 DUP4 LT DUP1 ISZERO PUSH2 0x3C9 JUMPI POP DUP2 ISZERO JUMPDEST ISZERO PUSH2 0x3FE JUMPI PUSH1 0x0 PUSH1 0x1 DUP5 PUSH2 0x3DD SWAP2 SWAP1 PUSH2 0x95B JUMP JUMPDEST LT PUSH2 0x3F4 JUMPI PUSH1 0x1 DUP4 PUSH2 0x3EF SWAP2 SWAP1 PUSH2 0x95B JUMP JUMPDEST PUSH2 0x3F7 JUMP JUMPDEST PUSH1 0x0 JUMPDEST SWAP1 POP PUSH2 0x491 JUMP JUMPDEST PUSH1 0x8 DUP4 LT DUP1 ISZERO PUSH2 0x40B JUMPI POP DUP2 JUMPDEST ISZERO PUSH2 0x424 JUMPI PUSH1 0x2 DUP4 PUSH2 0x41D SWAP2 SWAP1 PUSH2 0x927 JUMP JUMPDEST SWAP1 POP PUSH2 0x491 JUMP JUMPDEST PUSH1 0x8 DUP4 LT DUP1 ISZERO PUSH2 0x432 JUMPI POP DUP2 ISZERO JUMPDEST ISZERO PUSH2 0x44B JUMPI PUSH1 0x2 DUP4 PUSH2 0x444 SWAP2 SWAP1 PUSH2 0x95B JUMP JUMPDEST SWAP1 POP PUSH2 0x491 JUMP JUMPDEST DUP2 ISZERO PUSH2 0x481 JUMPI PUSH1 0xA PUSH1 0x1 DUP5 PUSH2 0x460 SWAP2 SWAP1 PUSH2 0x927 JUMP JUMPDEST GT PUSH2 0x477 JUMPI PUSH1 0x1 DUP4 PUSH2 0x472 SWAP2 SWAP1 PUSH2 0x927 JUMP JUMPDEST PUSH2 0x47A JUMP JUMPDEST PUSH1 0xA JUMPDEST SWAP1 POP PUSH2 0x491 JUMP JUMPDEST PUSH1 0x3 DUP4 PUSH2 0x48E SWAP2 SWAP1 PUSH2 0x95B JUMP JUMPDEST SWAP1 POP JUMPDEST SWAP3 SWAP2 POP POP JUMP JUMPDEST PUSH1 0x0 DUP1 REVERT JUMPDEST PUSH1 0x0 DUP2 SWAP1 POP SWAP2 SWAP1 POP JUMP JUMPDEST PUSH2 0x4AF DUP2 PUSH2 0x49C JUMP JUMPDEST DUP2 EQ PUSH2 0x4BA JUMPI PUSH1 0x0 DUP1 REVERT JUMPDEST POP JUMP JUMPDEST PUSH1 0x0 DUP2 CALLDATALOAD SWAP1 POP PUSH2 0x4CC DUP2 PUSH2 0x4A6 JUMP JUMPDEST SWAP3 SWAP2 POP POP JUMP JUMPDEST PUSH1 0x0 DUP2 ISZERO ISZERO SWAP1 POP SWAP2 SWAP1 POP JUMP JUMPDEST PUSH2 0x4E7 DUP2 PUSH2 0x4D2 JUMP JUMPDEST DUP2 EQ PUSH2 0x4F2 JUMPI PUSH1 0x0 DUP1 REVERT JUMPDEST POP JUMP JUMPDEST PUSH1 0x0 DUP2 CALLDATALOAD SWAP1 POP PUSH2 0x504 DUP2 PUSH2 0x4DE JUMP JUMPDEST SWAP3 SWAP2 POP POP JUMP JUMPDEST PUSH1 0x0 DUP1 PUSH1 0x0 PUSH1 0x60 DUP5 DUP7 SUB SLT ISZERO PUSH2 0x523 JUMPI PUSH2 0x522 PUSH2 0x497 JUMP JUMPDEST JUMPDEST PUSH1 0x0 PUSH2 0x531 DUP7 DUP3 DUP8 ADD PUSH2 0x4BD JUMP JUMPDEST SWAP4 POP POP PUSH1 0x20 PUSH2 0x542 DUP7 DUP3 DUP8 ADD PUSH2 0x4BD JUMP JUMPDEST SWAP3 POP POP PUSH1 0x40 PUSH2 0x553 DUP7 DUP3 DUP8 ADD PUSH2 0x4F5 JUMP JUMPDEST SWAP2 POP POP SWAP3 POP SWAP3 POP SWAP3 JUMP JUMPDEST PUSH1 0x0 PUSH1 0x20 DUP3 DUP5 SUB SLT ISZERO PUSH2 0x573 JUMPI PUSH2 0x572 PUSH2 0x497 JUMP JUMPDEST JUMPDEST PUSH1 0x0 PUSH2 0x581 DUP5 DUP3 DUP6 ADD PUSH2 0x4BD JUMP JUMPDEST SWAP2 POP POP SWAP3 SWAP2 POP POP JUMP JUMPDEST PUSH2 0x593 DUP2 PUSH2 0x49C JUMP JUMPDEST DUP3 MSTORE POP POP JUMP JUMPDEST PUSH1 0x0 DUP2 MLOAD SWAP1 POP SWAP2 SWAP1 POP JUMP JUMPDEST PUSH1 0x0 DUP3 DUP3 MSTORE PUSH1 0x20 DUP3 ADD SWAP1 POP SWAP3 SWAP2 POP POP JUMP JUMPDEST PUSH1 0x0 JUMPDEST DUP4 DUP2 LT ISZERO PUSH2 0x5D3 JUMPI DUP1 DUP3 ADD MLOAD DUP2 DUP5 ADD MSTORE PUSH1 0x20 DUP2 ADD SWAP1 POP PUSH2 0x5B8 JUMP JUMPDEST PUSH1 0x0 DUP5 DUP5 ADD MSTORE POP POP POP POP JUMP JUMPDEST PUSH1 0x0 PUSH1 0x1F NOT PUSH1 0x1F DUP4 ADD AND SWAP1 POP SWAP2 SWAP1 POP JUMP JUMPDEST PUSH1 0x0 PUSH2 0x5FB DUP3 PUSH2 0x599 JUMP JUMPDEST PUSH2 0x605 DUP2 DUP6 PUSH2 0x5A4 JUMP JUMPDEST SWAP4 POP PUSH2 0x615 DUP2 DUP6 PUSH1 0x20 DUP7 ADD PUSH2 0x5B5 JUMP JUMPDEST PUSH2 0x61E DUP2 PUSH2 0x5DF JUMP JUMPDEST DUP5 ADD SWAP2 POP POP SWAP3 SWAP2 POP POP JUMP JUMPDEST PUSH1 0x0 PUSH1 0x60 DUP3 ADD SWAP1 POP PUSH2 0x63E PUSH1 0x0 DUP4 ADD DUP7 PUSH2 0x58A JUMP JUMPDEST PUSH2 0x64B PUSH1 0x20 DUP4 ADD DUP6 PUSH2 0x58A JUMP JUMPDEST DUP2 DUP2 SUB PUSH1 0x40 DUP4 ADD MSTORE PUSH2 0x65D DUP2 DUP5 PUSH2 0x5F0 JUMP JUMPDEST SWAP1 POP SWAP5 SWAP4 POP POP POP POP JUMP JUMPDEST PUSH1 0x0 PUSH20 0xFFFFFFFFFFFFFFFFFFFFFFFFFFFFFFFFFFFFFFFF DUP3 AND SWAP1 POP SWAP2 SWAP1 POP JUMP JUMPDEST PUSH1 0x0 PUSH2 0x692 DUP3 PUSH2 0x667 JUMP JUMPDEST SWAP1 POP SWAP2 SWAP1 POP JUMP JUMPDEST PUSH2 0x6A2 DUP2 PUSH2 0x687 JUMP JUMPDEST DUP2 EQ PUSH2 0x6AD JUMPI PUSH1 0x0 DUP1 REVERT JUMPDEST POP JUMP JUMPDEST PUSH1 0x0 DUP2 CALLDATALOAD SWAP1 POP PUSH2 0x6BF DUP2 PUSH2 0x699 JUMP JUMPDEST SWAP3 SWAP2 POP POP JUMP JUMPDEST PUSH1 0x0 PUSH1 0x20 DUP3 DUP5 SUB SLT ISZERO PUSH2 0x6DB JUMPI PUSH2 0x6DA PUSH2 0x497 JUMP JUMPDEST JUMPDEST PUSH1 0x0 PUSH2 0x6E9 DUP5 DUP3 DUP6 ADD PUSH2 0x6B0 JUMP JUMPDEST SWAP2 POP POP SWAP3 SWAP2 POP POP JUMP JUMPDEST PUSH1 0x0 DUP2 SWAP1 POP SWAP2 SWAP1 POP JUMP JUMPDEST PUSH1 0x0 PUSH2 0x717 PUSH2 0x712 PUSH2 0x70D DUP5 PUSH2 0x667 JUMP JUMPDEST PUSH2 0x6F2 JUMP JUMPDEST PUSH2 0x667 JUMP JUMPDEST SWAP1 POP SWAP2 SWAP1 POP JUMP JUMPDEST PUSH1 0x0 PUSH2 0x729 DUP3 PUSH2 0x6FC JUMP JUMPDEST SWAP1 POP SWAP2 SWAP1 POP JUMP JUMPDEST PUSH1 0x0 PUSH2 0x73B DUP3 PUSH2 0x71E JUMP JUMPDEST SWAP1 POP SWAP2 SWAP1 POP JUMP JUMPDEST PUSH2 0x74B DUP2 PUSH2 0x730 JUMP JUMPDEST DUP3 MSTORE POP POP JUMP JUMPDEST PUSH1 0x0 PUSH1 0x20 DUP3 ADD SWAP1 POP PUSH2 0x766 PUSH1 0x0 DUP4 ADD DUP5 PUSH2 0x742 JUMP JUMPDEST SWAP3 SWAP2 POP POP JUMP JUMPDEST PUSH1 0x0 PUSH1 0x20 DUP3 ADD SWAP1 POP PUSH2 0x781 PUSH1 0x0 DUP4 ADD DUP5 PUSH2 0x58A JUMP JUMPDEST SWAP3 SWAP2 POP POP JUMP JUMPDEST PUSH1 0x0 PUSH1 0x40 DUP3 ADD SWAP1 POP PUSH2 0x79C PUSH1 0x0 DUP4 ADD DUP6 PUSH2 0x58A JUMP JUMPDEST PUSH2 0x7A9 PUSH1 0x20 DUP4 ADD DUP5 PUSH2 0x58A JUMP JUMPDEST SWAP4 SWAP3 POP POP POP JUMP JUMPDEST PUSH1 0x0 DUP2 MLOAD SWAP1 POP PUSH2 0x7BF DUP2 PUSH2 0x4A6 JUMP JUMPDEST SWAP3 SWAP2 POP POP JUMP JUMPDEST PUSH1 0x0 PUSH1 0x20 DUP3 DUP5 SUB SLT ISZERO PUSH2 0x7DB JUMPI PUSH2 0x7DA PUSH2 0x497 JUMP JUMPDEST JUMPDEST PUSH1 0x0 PUSH2 0x7E9 DUP5 DUP3 DUP6 ADD PUSH2 0x7B0 JUMP JUMPDEST SWAP2 POP POP SWAP3 SWAP2 POP POP JUMP JUMPDEST PUSH1 0x0 DUP2 SWAP1 POP SWAP2 SWAP1 POP JUMP JUMPDEST PUSH2 0x80D PUSH2 0x808 DUP3 PUSH2 0x49C JUMP JUMPDEST PUSH2 0x7F2 JUMP JUMPDEST DUP3 MSTORE POP POP JUMP JUMPDEST PUSH1 0x0 DUP2 PUSH1 0x60 SHL SWAP1 POP SWAP2 SWAP1 POP JUMP JUMPDEST PUSH1 0x0 PUSH2 0x82B DUP3 PUSH2 0x813 JUMP JUMPDEST SWAP1 POP SWAP2 SWAP1 POP JUMP JUMPDEST PUSH1 0x0 PUSH2 0x83D DUP3 PUSH2 0x820 JUMP JUMPDEST SWAP1 POP SWAP2 SWAP1 POP JUMP JUMPDEST PUSH2 0x855 PUSH2 0x850 DUP3 PUSH2 0x687 JUMP JUMPDEST PUSH2 0x832 JUMP JUMPDEST DUP3 MSTORE POP POP JUMP JUMPDEST PUSH1 0x0 PUSH2 0x867 DUP3 DUP7 PUSH2 0x7FC JUMP JUMPDEST PUSH1 0x20 DUP3 ADD SWAP2 POP PUSH2 0x877 DUP3 DUP6 PUSH2 0x7FC JUMP JUMPDEST PUSH1 0x20 DUP3 ADD SWAP2 POP PUSH2 0x887 DUP3 DUP5 PUSH2 0x844 JUMP JUMPDEST PUSH1 0x14 DUP3 ADD SWAP2 POP DUP2 SWAP1 POP SWAP5 SWAP4 POP POP POP POP JUMP JUMPDEST PUSH32 0x4E487B7100000000000000000000000000000000000000000000000000000000 PUSH1 0x0 MSTORE PUSH1 0x12 PUSH1 0x4 MSTORE PUSH1 0x24 PUSH1 0x0 REVERT JUMPDEST PUSH1 0x0 PUSH2 0x8D2 DUP3 PUSH2 0x49C JUMP JUMPDEST SWAP2 POP PUSH2 0x8DD DUP4 PUSH2 0x49C JUMP JUMPDEST SWAP3 POP DUP3 PUSH2 0x8ED JUMPI PUSH2 0x8EC PUSH2 0x898 JUMP JUMPDEST JUMPDEST DUP3 DUP3 MOD SWAP1 POP SWAP3 SWAP2 POP POP JUMP JUMPDEST PUSH32 0x4E487B7100000000000000000000000000000000000000000000000000000000 PUSH1 0x0 MSTORE PUSH1 0x11 PUSH1 0x4 MSTORE PUSH1 0x24 PUSH1 0x0 REVERT JUMPDEST PUSH1 0x0 PUSH2 0x932 DUP3 PUSH2 0x49C JUMP JUMPDEST SWAP2 POP PUSH2 0x93D DUP4 PUSH2 0x49C JUMP JUMPDEST SWAP3 POP DUP3 DUP3 ADD SWAP1 POP DUP1 DUP3 GT ISZERO PUSH2 0x955 JUMPI PUSH2 0x954 PUSH2 0x8F8 JUMP JUMPDEST JUMPDEST SWAP3 SWAP2 POP POP JUMP JUMPDEST PUSH1 0x0 PUSH2 0x966 DUP3 PUSH2 0x49C JUMP JUMPDEST SWAP2 POP PUSH2 0x971 DUP4 PUSH2 0x49C JUMP JUMPDEST SWAP3 POP DUP3 DUP3 SUB SWAP1 POP DUP2 DUP2 GT ISZERO PUSH2 0x989 JUMPI PUSH2 0x988 PUSH2 0x8F8 JUMP JUMPDEST JUMPDEST SWAP3 SWAP2 POP POP JUMP INVALID LOG2 PUSH5 0x6970667358 0x22 SLT KECCAK256 LOG1 SWAP2 0xA5 0xBA DUP8 0xCF DUP15 KECCAK256 0xE3 0xC CODESIZE LOG1 STATICCALL RETURNDATACOPY 0xD5 ADD 0x2F 0xCC MOD 0x25 0x21 MSTORE8 SWAP7 CHAINID 0xD7 DUP3 0x24 DUP8 JUMP 0xFC MLOAD PUSH19 0x64736F6C634300081200336080604052348015 PUSH2 0x10 JUMPI PUSH1 0x0 DUP1 REVERT JUMPDEST POP PUSH1 0x1 PUSH1 0x0 DUP2 SWAP1 SSTORE POP PUSH2 0xC75 DUP1 PUSH2 0x28 PUSH1 0x0 CODECOPY PUSH1 0x0 RETURN INVALID PUSH1 0x80 PUSH1 0x40 MSTORE CALLVALUE DUP1 ISZERO PUSH2 0x10 JUMPI PUSH1 0x0 DUP1 REVERT JUMPDEST POP PUSH1 0x4 CALLDATASIZE LT PUSH2 0x57 JUMPI PUSH1 0x0 CALLDATALOAD PUSH1 0xE0 SHR DUP1 PUSH4 0x1AE8579C EQ PUSH2 0x5C JUMPI DUP1 PUSH4 0x7CF736E0 EQ PUSH2 0x66 JUMPI DUP1 PUSH4 0x9E420524 EQ PUSH2 0x96 JUMPI DUP1 PUSH4 0xDAB98E64 EQ PUSH2 0xB2 JUMPI DUP1 PUSH4 0xE6B7E207 EQ PUSH2 0xE2 JUMPI JUMPDEST PUSH1 0x0 DUP1 REVERT JUMPDEST PUSH2 0x64 PUSH2 0x100 JUMP JUMPDEST STOP JUMPDEST PUSH2 0x80 PUSH1 0x4 DUP1 CALLDATASIZE SUB DUP2 ADD SWAP1 PUSH2 0x7B SWAP2 SWAP1 PUSH2 0x4CB JUMP JUMPDEST PUSH2 0x14B JUMP JUMPDEST PUSH1 0x40 MLOAD PUSH2 0x8D SWAP2 SWAP1 PUSH2 0x507 JUMP JUMPDEST PUSH1 0x40 MLOAD DUP1 SWAP2 SUB SWAP1 RETURN JUMPDEST PUSH2 0xB0 PUSH1 0x4 DUP1 CALLDATASIZE SUB DUP2 ADD SWAP1 PUSH2 0xAB SWAP2 SWAP1 PUSH2 0x522 JUMP JUMPDEST PUSH2 0x1CE JUMP JUMPDEST STOP JUMPDEST PUSH2 0xCC PUSH1 0x4 DUP1 CALLDATASIZE SUB DUP2 ADD SWAP1 PUSH2 0xC7 SWAP2 SWAP1 PUSH2 0x6A8 JUMP JUMPDEST PUSH2 0x2DE JUMP JUMPDEST PUSH1 0x40 MLOAD PUSH2 0xD9 SWAP2 SWAP1 PUSH2 0x507 JUMP JUMPDEST PUSH1 0x40 MLOAD DUP1 SWAP2 SUB SWAP1 RETURN JUMPDEST PUSH2 0xEA PUSH2 0x309 JUMP JUMPDEST PUSH1 0x40 MLOAD PUSH2 0xF7 SWAP2 SWAP1 PUSH2 0x507 JUMP JUMPDEST PUSH1 0x40 MLOAD DUP1 SWAP2 SUB SWAP1 RETURN JUMPDEST PUSH1 0x0 JUMPDEST PUSH1 0xA DUP2 LT ISZERO PUSH2 0x148 JUMPI PUSH2 0x134 DUP2 PUSH1 0x40 MLOAD PUSH1 0x20 ADD PUSH2 0x120 SWAP2 SWAP1 PUSH2 0x769 JUMP JUMPDEST PUSH1 0x40 MLOAD PUSH1 0x20 DUP2 DUP4 SUB SUB DUP2 MSTORE SWAP1 PUSH1 0x40 MSTORE PUSH2 0x2DE JUMP JUMPDEST POP DUP1 DUP1 PUSH2 0x140 SWAP1 PUSH2 0x7BE JUMP JUMPDEST SWAP2 POP POP PUSH2 0x103 JUMP JUMPDEST POP JUMP JUMPDEST PUSH1 0x0 PUSH1 0x1 PUSH1 0x0 DUP4 DUP2 MSTORE PUSH1 0x20 ADD SWAP1 DUP2 MSTORE PUSH1 0x20 ADD PUSH1 0x0 KECCAK256 PUSH1 0x3 ADD PUSH1 0x0 SWAP1 SLOAD SWAP1 PUSH2 0x100 EXP SWAP1 DIV PUSH1 0xFF AND PUSH2 0x1B0 JUMPI PUSH1 0x40 MLOAD PUSH32 0x8C379A000000000000000000000000000000000000000000000000000000000 DUP2 MSTORE PUSH1 0x4 ADD PUSH2 0x1A7 SWAP1 PUSH2 0x863 JUMP JUMPDEST PUSH1 0x40 MLOAD DUP1 SWAP2 SUB SWAP1 REVERT JUMPDEST PUSH1 0x1 PUSH1 0x0 DUP4 DUP2 MSTORE PUSH1 0x20 ADD SWAP1 DUP2 MSTORE PUSH1 0x20 ADD PUSH1 0x0 KECCAK256 PUSH1 0x0 ADD SLOAD SWAP1 POP SWAP2 SWAP1 POP JUMP JUMPDEST PUSH1 0x1 PUSH1 0x0 DUP4 DUP2 MSTORE PUSH1 0x20 ADD SWAP1 DUP2 MSTORE PUSH1 0x20 ADD PUSH1 0x0 KECCAK256 PUSH1 0x3 ADD PUSH1 0x0 SWAP1 SLOAD SWAP1 PUSH2 0x100 EXP SWAP1 DIV PUSH1 0xFF AND PUSH2 0x231 JUMPI PUSH1 0x40 MLOAD PUSH32 0x8C379A000000000000000000000000000000000000000000000000000000000 DUP2 MSTORE PUSH1 0x4 ADD PUSH2 0x228 SWAP1 PUSH2 0x863 JUMP JUMPDEST PUSH1 0x40 MLOAD DUP1 SWAP2 SUB SWAP1 REVERT JUMPDEST PUSH1 0x8 DUP2 LT PUSH2 0x259 JUMPI PUSH1 0x1 DUP1 PUSH1 0x0 DUP5 DUP2 MSTORE PUSH1 0x20 ADD SWAP1 DUP2 MSTORE PUSH1 0x20 ADD PUSH1 0x0 KECCAK256 PUSH1 0x2 ADD DUP2 SWAP1 SSTORE POP PUSH2 0x2BF JUMP JUMPDEST PUSH1 0x5 DUP2 LT PUSH2 0x282 JUMPI PUSH1 0x0 PUSH1 0x1 PUSH1 0x0 DUP5 DUP2 MSTORE PUSH1 0x20 ADD SWAP1 DUP2 MSTORE PUSH1 0x20 ADD PUSH1 0x0 KECCAK256 PUSH1 0x2 ADD DUP2 SWAP1 SSTORE POP PUSH2 0x2BE JUMP JUMPDEST PUSH32 0xFFFFFFFFFFFFFFFFFFFFFFFFFFFFFFFFFFFFFFFFFFFFFFFFFFFFFFFFFFFFFFFF PUSH1 0x1 PUSH1 0x0 DUP5 DUP2 MSTORE PUSH1 0x20 ADD SWAP1 DUP2 MSTORE PUSH1 0x20 ADD PUSH1 0x0 KECCAK256 PUSH1 0x2 ADD DUP2 SWAP1 SSTORE POP JUMPDEST JUMPDEST DUP1 PUSH1 0x1 PUSH1 0x0 DUP5 DUP2 MSTORE PUSH1 0x20 ADD SWAP1 DUP2 MSTORE PUSH1 0x20 ADD PUSH1 0x0 KECCAK256 PUSH1 0x0 ADD DUP2 SWAP1 SSTORE POP POP POP JUMP JUMPDEST PUSH1 0x0 PUSH2 0x2EC PUSH1 0x0 SLOAD DUP4 PUSH2 0x31A JUMP JUMPDEST PUSH1 0x0 DUP1 DUP2 SLOAD DUP1 SWAP3 SWAP2 SWAP1 PUSH2 0x2FE SWAP1 PUSH2 0x7BE JUMP JUMPDEST SWAP2 SWAP1 POP SSTORE SWAP1 POP SWAP2 SWAP1 POP JUMP JUMPDEST PUSH1 0x0 PUSH2 0x315 PUSH1 0x0 PUSH2 0x14B JUMP JUMPDEST SWAP1 POP SWAP1 JUMP JUMPDEST PUSH1 0x40 MLOAD PUSH1 0x20 ADD PUSH2 0x329 SWAP1 PUSH2 0x8CF JUMP JUMPDEST PUSH1 0x40 MLOAD PUSH1 0x20 DUP2 DUP4 SUB SUB DUP2 MSTORE SWAP1 PUSH1 0x40 MSTORE DUP1 MLOAD SWAP1 PUSH1 0x20 ADD KECCAK256 DUP2 PUSH1 0x40 MLOAD PUSH1 0x20 ADD PUSH2 0x350 SWAP2 SWAP1 PUSH2 0x94A JUMP JUMPDEST PUSH1 0x40 MLOAD PUSH1 0x20 DUP2 DUP4 SUB SUB DUP2 MSTORE SWAP1 PUSH1 0x40 MSTORE DUP1 MLOAD SWAP1 PUSH1 0x20 ADD KECCAK256 SUB PUSH2 0x3F6 JUMPI PUSH1 0x40 MLOAD DUP1 PUSH1 0x80 ADD PUSH1 0x40 MSTORE DUP1 PUSH1 0x8 DUP2 MSTORE PUSH1 0x20 ADD DUP3 DUP2 MSTORE PUSH1 0x20 ADD PUSH1 0x1 DUP2 MSTORE PUSH1 0x20 ADD PUSH1 0x1 ISZERO ISZERO DUP2 MSTORE POP PUSH1 0x1 PUSH1 0x0 DUP5 DUP2 MSTORE PUSH1 0x20 ADD SWAP1 DUP2 MSTORE PUSH1 0x20 ADD PUSH1 0x0 KECCAK256 PUSH1 0x0 DUP3 ADD MLOAD DUP2 PUSH1 0x0 ADD SSTORE PUSH1 0x20 DUP3 ADD MLOAD DUP2 PUSH1 0x1 ADD SWAP1 DUP2 PUSH2 0x3C3 SWAP2 SWAP1 PUSH2 0xB6D JUMP JUMPDEST POP PUSH1 0x40 DUP3 ADD MLOAD DUP2 PUSH1 0x2 ADD SSTORE PUSH1 0x60 DUP3 ADD MLOAD DUP2 PUSH1 0x3 ADD PUSH1 0x0 PUSH2 0x100 EXP DUP2 SLOAD DUP2 PUSH1 0xFF MUL NOT AND SWAP1 DUP4 ISZERO ISZERO MUL OR SWAP1 SSTORE POP SWAP1 POP POP PUSH2 0x47D JUMP JUMPDEST PUSH1 0x40 MLOAD DUP1 PUSH1 0x80 ADD PUSH1 0x40 MSTORE DUP1 PUSH1 0x5 DUP2 MSTORE PUSH1 0x20 ADD DUP3 DUP2 MSTORE PUSH1 0x20 ADD PUSH1 0x0 DUP2 MSTORE PUSH1 0x20 ADD PUSH1 0x1 ISZERO ISZERO DUP2 MSTORE POP PUSH1 0x1 PUSH1 0x0 DUP5 DUP2 MSTORE PUSH1 0x20 ADD SWAP1 DUP2 MSTORE PUSH1 0x20 ADD PUSH1 0x0 KECCAK256 PUSH1 0x0 DUP3 ADD MLOAD DUP2 PUSH1 0x0 ADD SSTORE PUSH1 0x20 DUP3 ADD MLOAD DUP2 PUSH1 0x1 ADD SWAP1 DUP2 PUSH2 0x44E SWAP2 SWAP1 PUSH2 0xB6D JUMP JUMPDEST POP PUSH1 0x40 DUP3 ADD MLOAD DUP2 PUSH1 0x2 ADD SSTORE PUSH1 0x60 DUP3 ADD MLOAD DUP2 PUSH1 0x3 ADD PUSH1 0x0 PUSH2 0x100 EXP DUP2 SLOAD DUP2 PUSH1 0xFF MUL NOT AND SWAP1 DUP4 ISZERO ISZERO MUL OR SWAP1 SSTORE POP SWAP1 POP POP JUMPDEST POP POP JUMP JUMPDEST PUSH1 0x0 PUSH1 0x40 MLOAD SWAP1 POP SWAP1 JUMP JUMPDEST PUSH1 0x0 DUP1 REVERT JUMPDEST PUSH1 0x0 DUP1 REVERT JUMPDEST PUSH1 0x0 DUP2 SWAP1 POP SWAP2 SWAP1 POP JUMP JUMPDEST PUSH2 0x4A8 DUP2 PUSH2 0x495 JUMP JUMPDEST DUP2 EQ PUSH2 0x4B3 JUMPI PUSH1 0x0 DUP1 REVERT JUMPDEST POP JUMP JUMPDEST PUSH1 0x0 DUP2 CALLDATALOAD SWAP1 POP PUSH2 0x4C5 DUP2 PUSH2 0x49F JUMP JUMPDEST SWAP3 SWAP2 POP POP JUMP JUMPDEST PUSH1 0x0 PUSH1 0x20 DUP3 DUP5 SUB SLT ISZERO PUSH2 0x4E1 JUMPI PUSH2 0x4E0 PUSH2 0x48B JUMP JUMPDEST JUMPDEST PUSH1 0x0 PUSH2 0x4EF DUP5 DUP3 DUP6 ADD PUSH2 0x4B6 JUMP JUMPDEST SWAP2 POP POP SWAP3 SWAP2 POP POP JUMP JUMPDEST PUSH2 0x501 DUP2 PUSH2 0x495 JUMP JUMPDEST DUP3 MSTORE POP POP JUMP JUMPDEST PUSH1 0x0 PUSH1 0x20 DUP3 ADD SWAP1 POP PUSH2 0x51C PUSH1 0x0 DUP4 ADD DUP5 PUSH2 0x4F8 JUMP JUMPDEST SWAP3 SWAP2 POP POP JUMP JUMPDEST PUSH1 0x0 DUP1 PUSH1 0x40 DUP4 DUP6 SUB SLT ISZERO PUSH2 0x539 JUMPI PUSH2 0x538 PUSH2 0x48B JUMP JUMPDEST JUMPDEST PUSH1 0x0 PUSH2 0x547 DUP6 DUP3 DUP7 ADD PUSH2 0x4B6 JUMP JUMPDEST SWAP3 POP POP PUSH1 0x20 PUSH2 0x558 DUP6 DUP3 DUP7 ADD PUSH2 0x4B6 JUMP JUMPDEST SWAP2 POP POP SWAP3 POP SWAP3 SWAP1 POP JUMP JUMPDEST PUSH1 0x0 DUP1 REVERT JUMPDEST PUSH1 0x0 DUP1 REVERT JUMPDEST PUSH1 0x0 PUSH1 0x1F NOT PUSH1 0x1F DUP4 ADD AND SWAP1 POP SWAP2 SWAP1 POP JUMP JUMPDEST PUSH32 0x4E487B7100000000000000000000000000000000000000000000000000000000 PUSH1 0x0 MSTORE PUSH1 0x41 PUSH1 0x4 MSTORE PUSH1 0x24 PUSH1 0x0 REVERT JUMPDEST PUSH2 0x5B5 DUP3 PUSH2 0x56C JUMP JUMPDEST DUP2 ADD DUP2 DUP2 LT PUSH8 0xFFFFFFFFFFFFFFFF DUP3 GT OR ISZERO PUSH2 0x5D4 JUMPI PUSH2 0x5D3 PUSH2 0x57D JUMP JUMPDEST JUMPDEST DUP1 PUSH1 0x40 MSTORE POP POP POP JUMP JUMPDEST PUSH1 0x0 PUSH2 0x5E7 PUSH2 0x481 JUMP JUMPDEST SWAP1 POP PUSH2 0x5F3 DUP3 DUP3 PUSH2 0x5AC JUMP JUMPDEST SWAP2 SWAP1 POP JUMP JUMPDEST PUSH1 0x0 PUSH8 0xFFFFFFFFFFFFFFFF DUP3 GT ISZERO PUSH2 0x613 JUMPI PUSH2 0x612 PUSH2 0x57D JUMP JUMPDEST JUMPDEST PUSH2 0x61C DUP3 PUSH2 0x56C JUMP JUMPDEST SWAP1 POP PUSH1 0x20 DUP2 ADD SWAP1 POP SWAP2 SWAP1 POP JUMP JUMPDEST DUP3 DUP2 DUP4 CALLDATACOPY PUSH1 0x0 DUP4 DUP4 ADD MSTORE POP POP POP JUMP JUMPDEST PUSH1 0x0 PUSH2 0x64B PUSH2 0x646 DUP5 PUSH2 0x5F8 JUMP JUMPDEST PUSH2 0x5DD JUMP JUMPDEST SWAP1 POP DUP3 DUP2 MSTORE PUSH1 0x20 DUP2 ADD DUP5 DUP5 DUP5 ADD GT ISZERO PUSH2 0x667 JUMPI PUSH2 0x666 PUSH2 0x567 JUMP JUMPDEST JUMPDEST PUSH2 0x672 DUP5 DUP3 DUP6 PUSH2 0x629 JUMP JUMPDEST POP SWAP4 SWAP3 POP POP POP JUMP JUMPDEST PUSH1 0x0 DUP3 PUSH1 0x1F DUP4 ADD SLT PUSH2 0x68F JUMPI PUSH2 0x68E PUSH2 0x562 JUMP JUMPDEST JUMPDEST DUP2 CALLDATALOAD PUSH2 0x69F DUP5 DUP3 PUSH1 0x20 DUP7 ADD PUSH2 0x638 JUMP JUMPDEST SWAP2 POP POP SWAP3 SWAP2 POP POP JUMP JUMPDEST PUSH1 0x0 PUSH1 0x20 DUP3 DUP5 SUB SLT ISZERO PUSH2 0x6BE JUMPI PUSH2 0x6BD PUSH2 0x48B JUMP JUMPDEST JUMPDEST PUSH1 0x0 DUP3 ADD CALLDATALOAD PUSH8 0xFFFFFFFFFFFFFFFF DUP2 GT ISZERO PUSH2 0x6DC JUMPI PUSH2 0x6DB PUSH2 0x490 JUMP JUMPDEST JUMPDEST PUSH2 0x6E8 DUP5 DUP3 DUP6 ADD PUSH2 0x67A JUMP JUMPDEST SWAP2 POP POP SWAP3 SWAP2 POP POP JUMP JUMPDEST PUSH1 0x0 DUP2 SWAP1 POP SWAP3 SWAP2 POP POP JUMP JUMPDEST PUSH32 0x73616D706C650000000000000000000000000000000000000000000000000000 PUSH1 0x0 DUP3 ADD MSTORE POP JUMP JUMPDEST PUSH1 0x0 PUSH2 0x732 PUSH1 0x6 DUP4 PUSH2 0x6F1 JUMP JUMPDEST SWAP2 POP PUSH2 0x73D DUP3 PUSH2 0x6FC JUMP JUMPDEST PUSH1 0x6 DUP3 ADD SWAP1 POP SWAP2 SWAP1 POP JUMP JUMPDEST PUSH1 0x0 DUP2 SWAP1 POP SWAP2 SWAP1 POP JUMP JUMPDEST PUSH2 0x763 PUSH2 0x75E DUP3 PUSH2 0x495 JUMP JUMPDEST PUSH2 0x748 JUMP JUMPDEST DUP3 MSTORE POP POP JUMP JUMPDEST PUSH1 0x0 PUSH2 0x774 DUP3 PUSH2 0x725 JUMP JUMPDEST SWAP2 POP PUSH2 0x780 DUP3 DUP5 PUSH2 0x752 JUMP JUMPDEST PUSH1 0x20 DUP3 ADD SWAP2 POP DUP2 SWAP1 POP SWAP3 SWAP2 POP POP JUMP JUMPDEST PUSH32 0x4E487B7100000000000000000000000000000000000000000000000000000000 PUSH1 0x0 MSTORE PUSH1 0x11 PUSH1 0x4 MSTORE PUSH1 0x24 PUSH1 0x0 REVERT JUMPDEST PUSH1 0x0 PUSH2 0x7C9 DUP3 PUSH2 0x495 JUMP JUMPDEST SWAP2 POP PUSH32 0xFFFFFFFFFFFFFFFFFFFFFFFFFFFFFFFFFFFFFFFFFFFFFFFFFFFFFFFFFFFFFFFF DUP3 SUB PUSH2 0x7FB JUMPI PUSH2 0x7FA PUSH2 0x78F JUMP JUMPDEST JUMPDEST PUSH1 0x1 DUP3 ADD SWAP1 POP SWAP2 SWAP1 POP JUMP JUMPDEST PUSH1 0x0 DUP3 DUP3 MSTORE PUSH1 0x20 DUP3 ADD SWAP1 POP SWAP3 SWAP2 POP POP JUMP JUMPDEST PUSH32 0x536F7572636520646F6573206E6F742065786973740000000000000000000000 PUSH1 0x0 DUP3 ADD MSTORE POP JUMP JUMPDEST PUSH1 0x0 PUSH2 0x84D PUSH1 0x15 DUP4 PUSH2 0x806 JUMP JUMPDEST SWAP2 POP PUSH2 0x858 DUP3 PUSH2 0x817 JUMP JUMPDEST PUSH1 0x20 DUP3 ADD SWAP1 POP SWAP2 SWAP1 POP JUMP JUMPDEST PUSH1 0x0 PUSH1 0x20 DUP3 ADD SWAP1 POP DUP2 DUP2 SUB PUSH1 0x0 DUP4 ADD MSTORE PUSH2 0x87C DUP2 PUSH2 0x840 JUMP JUMPDEST SWAP1 POP SWAP2 SWAP1 POP JUMP JUMPDEST PUSH32 0x3931310000000000000000000000000000000000000000000000000000000000 PUSH1 0x0 DUP3 ADD MSTORE POP JUMP JUMPDEST PUSH1 0x0 PUSH2 0x8B9 PUSH1 0x3 DUP4 PUSH2 0x6F1 JUMP JUMPDEST SWAP2 POP PUSH2 0x8C4 DUP3 PUSH2 0x883 JUMP JUMPDEST PUSH1 0x3 DUP3 ADD SWAP1 POP SWAP2 SWAP1 POP JUMP JUMPDEST PUSH1 0x0 PUSH2 0x8DA DUP3 PUSH2 0x8AC JUMP JUMPDEST SWAP2 POP DUP2 SWAP1 POP SWAP2 SWAP1 POP JUMP JUMPDEST PUSH1 0x0 DUP2 MLOAD SWAP1 POP SWAP2 SWAP1 POP JUMP JUMPDEST PUSH1 0x0 JUMPDEST DUP4 DUP2 LT ISZERO PUSH2 0x90D JUMPI DUP1 DUP3 ADD MLOAD DUP2 DUP5 ADD MSTORE PUSH1 0x20 DUP2 ADD SWAP1 POP PUSH2 0x8F2 JUMP JUMPDEST PUSH1 0x0 DUP5 DUP5 ADD MSTORE POP POP POP POP JUMP JUMPDEST PUSH1 0x0 PUSH2 0x924 DUP3 PUSH2 0x8E4 JUMP JUMPDEST PUSH2 0x92E DUP2 DUP6 PUSH2 0x6F1 JUMP JUMPDEST SWAP4 POP PUSH2 0x93E DUP2 DUP6 PUSH1 0x20 DUP7 ADD PUSH2 0x8EF JUMP JUMPDEST DUP1 DUP5 ADD SWAP2 POP POP SWAP3 SWAP2 POP POP JUMP JUMPDEST PUSH1 0x0 PUSH2 0x956 DUP3 DUP5 PUSH2 0x919 JUMP JUMPDEST SWAP2 POP DUP2 SWAP1 POP SWAP3 SWAP2 POP POP JUMP JUMPDEST PUSH32 0x4E487B7100000000000000000000000000000000000000000000000000000000 PUSH1 0x0 MSTORE PUSH1 0x22 PUSH1 0x4 MSTORE PUSH1 0x24 PUSH1 0x0 REVERT JUMPDEST PUSH1 0x0 PUSH1 0x2 DUP3 DIV SWAP1 POP PUSH1 0x1 DUP3 AND DUP1 PUSH2 0x9A8 JUMPI PUSH1 0x7F DUP3 AND SWAP2 POP JUMPDEST PUSH1 0x20 DUP3 LT DUP2 SUB PUSH2 0x9BB JUMPI PUSH2 0x9BA PUSH2 0x961 JUMP JUMPDEST JUMPDEST POP SWAP2 SWAP1 POP JUMP JUMPDEST PUSH1 0x0 DUP2 SWAP1 POP DUP2 PUSH1 0x0 MSTORE PUSH1 0x20 PUSH1 0x0 KECCAK256 SWAP1 POP SWAP2 SWAP1 POP JUMP JUMPDEST PUSH1 0x0 PUSH1 0x20 PUSH1 0x1F DUP4 ADD DIV SWAP1 POP SWAP2 SWAP1 POP JUMP JUMPDEST PUSH1 0x0 DUP3 DUP3 SHL SWAP1 POP SWAP3 SWAP2 POP POP JUMP JUMPDEST PUSH1 0x0 PUSH1 0x8 DUP4 MUL PUSH2 0xA23 PUSH32 0xFFFFFFFFFFFFFFFFFFFFFFFFFFFFFFFFFFFFFFFFFFFFFFFFFFFFFFFFFFFFFFFF DUP3 PUSH2 0x9E6 JUMP JUMPDEST PUSH2 0xA2D DUP7 DUP4 PUSH2 0x9E6 JUMP JUMPDEST SWAP6 POP DUP1 NOT DUP5 AND SWAP4 POP DUP1 DUP7 AND DUP5 OR SWAP3 POP POP POP SWAP4 SWAP3 POP POP POP JUMP JUMPDEST PUSH1 0x0 DUP2 SWAP1 POP SWAP2 SWAP1 POP JUMP JUMPDEST PUSH1 0x0 PUSH2 0xA6A PUSH2 0xA65 PUSH2 0xA60 DUP5 PUSH2 0x495 JUMP JUMPDEST PUSH2 0xA45 JUMP JUMPDEST PUSH2 0x495 JUMP JUMPDEST SWAP1 POP SWAP2 SWAP1 POP JUMP JUMPDEST PUSH1 0x0 DUP2 SWAP1 POP SWAP2 SWAP1 POP JUMP JUMPDEST PUSH2 0xA84 DUP4 PUSH2 0xA4F JUMP JUMPDEST PUSH2 0xA98 PUSH2 0xA90 DUP3 PUSH2 0xA71 JUMP JUMPDEST DUP5 DUP5 SLOAD PUSH2 0x9F3 JUMP JUMPDEST DUP3 SSTORE POP POP POP POP JUMP JUMPDEST PUSH1 0x0 SWAP1 JUMP JUMPDEST PUSH2 0xAAD PUSH2 0xAA0 JUMP JUMPDEST PUSH2 0xAB8 DUP2 DUP5 DUP5 PUSH2 0xA7B JUMP JUMPDEST POP POP POP JUMP JUMPDEST JUMPDEST DUP2 DUP2 LT ISZERO PUSH2 0xADC JUMPI PUSH2 0xAD1 PUSH1 0x0 DUP3 PUSH2 0xAA5 JUMP JUMPDEST PUSH1 0x1 DUP2 ADD SWAP1 POP PUSH2 0xABE JUMP JUMPDEST POP POP JUMP JUMPDEST PUSH1 0x1F DUP3 GT ISZERO PUSH2 0xB21 JUMPI PUSH2 0xAF2 DUP2 PUSH2 0x9C1 JUMP JUMPDEST PUSH2 0xAFB DUP5 PUSH2 0x9D6 JUMP JUMPDEST DUP2 ADD PUSH1 0x20 DUP6 LT ISZERO PUSH2 0xB0A JUMPI DUP2 SWAP1 POP JUMPDEST PUSH2 0xB1E PUSH2 0xB16 DUP6 PUSH2 0x9D6 JUMP JUMPDEST DUP4 ADD DUP3 PUSH2 0xABD JUMP JUMPDEST POP POP JUMPDEST POP POP POP JUMP JUMPDEST PUSH1 0x0 DUP3 DUP3 SHR SWAP1 POP SWAP3 SWAP2 POP POP JUMP JUMPDEST PUSH1 0x0 PUSH2 0xB44 PUSH1 0x0 NOT DUP5 PUSH1 0x8 MUL PUSH2 0xB26 JUMP JUMPDEST NOT DUP1 DUP4 AND SWAP2 POP POP SWAP3 SWAP2 POP POP JUMP JUMPDEST PUSH1 0x0 PUSH2 0xB5D DUP4 DUP4 PUSH2 0xB33 JUMP JUMPDEST SWAP2 POP DUP3 PUSH1 0x2 MUL DUP3 OR SWAP1 POP SWAP3 SWAP2 POP POP JUMP JUMPDEST PUSH2 0xB76 DUP3 PUSH2 0x8E4 JUMP JUMPDEST PUSH8 0xFFFFFFFFFFFFFFFF DUP2 GT ISZERO PUSH2 0xB8F JUMPI PUSH2 0xB8E PUSH2 0x57D JUMP JUMPDEST JUMPDEST PUSH2 0xB99 DUP3 SLOAD PUSH2 0x990 JUMP JUMPDEST PUSH2 0xBA4 DUP3 DUP3 DUP6 PUSH2 0xAE0 JUMP JUMPDEST PUSH1 0x0 PUSH1 0x20 SWAP1 POP PUSH1 0x1F DUP4 GT PUSH1 0x1 DUP2 EQ PUSH2 0xBD7 JUMPI PUSH1 0x0 DUP5 ISZERO PUSH2 0xBC5 JUMPI DUP3 DUP8 ADD MLOAD SWAP1 POP JUMPDEST PUSH2 0xBCF DUP6 DUP3 PUSH2 0xB51 JUMP JUMPDEST DUP7 SSTORE POP PUSH2 0xC37 JUMP JUMPDEST PUSH1 0x1F NOT DUP5 AND PUSH2 0xBE5 DUP7 PUSH2 0x9C1 JUMP JUMPDEST PUSH1 0x0 JUMPDEST DUP3 DUP2 LT ISZERO PUSH2 0xC0D JUMPI DUP5 DUP10 ADD MLOAD DUP3 SSTORE PUSH1 0x1 DUP3 ADD SWAP2 POP PUSH1 0x20 DUP6 ADD SWAP5 POP PUSH1 0x20 DUP2 ADD SWAP1 POP PUSH2 0xBE8 JUMP JUMPDEST DUP7 DUP4 LT ISZERO PUSH2 0xC2A JUMPI DUP5 DUP10 ADD MLOAD PUSH2 0xC26 PUSH1 0x1F DUP10 AND DUP3 PUSH2 0xB33 JUMP JUMPDEST DUP4 SSTORE POP JUMPDEST PUSH1 0x1 PUSH1 0x2 DUP9 MUL ADD DUP9 SSTORE POP POP POP JUMPDEST POP POP POP POP POP POP JUMP INVALID LOG2 PUSH5 0x6970667358 0x22 SLT KECCAK256 0xCF 0xBF 0xAA BALANCE 0xDA 0xED 0x28 0xE0 0xCD LOG4 AND 0xDB DUP8 PUSH16 0xD84E30E14C2380B28668E20F9F0BD9C3 0xB2 CODECOPY PUSH5 0x736F6C6343 STOP ADDMOD SLT STOP CALLER "
				},
				"gasEstimates": {
					"creation": {
						"codeDepositCost": "500200",
						"executionCost": "infinite",
						"totalCost": "infinite"
					},
					"external": {
						"getRsuMessage(uint256)": "infinite",
						"random(uint256)": "infinite",
						"setSourceTrust(address)": "24744",
						"sourceTrust()": "infinite",
						"updateVehicleTrust(uint256,uint256,bool)": "infinite"
					},
					"internal": {
						"updateTrust(uint256,bool)": "infinite"
					}
				},
				"methodIdentifiers": {
					"getRsuMessage(uint256)": "5f030343",
					"random(uint256)": "b863bd37",
					"setSourceTrust(address)": "9ec2568f",
					"sourceTrust()": "a2384044",
					"updateVehicleTrust(uint256,uint256,bool)": "19eb005b"
				}
			},
			"storageLayout": {
				"storage": [
					{
						"astId": 5,
						"contract": "contracts/RSU.sol:RSU",
						"label": "sourceTrust",
						"offset": 0,
						"slot": "0",
						"type": "t_contract(SourceTrust)389"
					}
				],
				"types": {
					"t_contract(SourceTrust)389": {
						"encoding": "inplace",
						"label": "contract SourceTrust",
						"numberOfBytes": "20"
					}
				}
			},
			"userdoc": {
				"kind": "user",
				"methods": {},
				"version": 1
			}
		}
	}
}