{
	"contracts/Message.sol": {
		"Message": {
			"abi": [
				{
					"inputs": [],
					"name": "getMessage",
					"outputs": [
						{
							"internalType": "string",
							"name": "",
							"type": "string"
						},
						{
							"internalType": "string",
							"name": "",
							"type": "string"
						},
						{
							"internalType": "string",
							"name": "",
							"type": "string"
						},
						{
							"internalType": "uint256",
							"name": "",
							"type": "uint256"
						}
					],
					"stateMutability": "view",
					"type": "function"
				},
				{
					"inputs": [],
					"name": "message",
					"outputs": [
						{
							"internalType": "string",
							"name": "eventType",
							"type": "string"
						},
						{
							"internalType": "string",
							"name": "location",
							"type": "string"
						},
						{
							"internalType": "string",
							"name": "sourceID",
							"type": "string"
						},
						{
							"internalType": "uint256",
							"name": "distance",
							"type": "uint256"
						}
					],
					"stateMutability": "view",
					"type": "function"
				},
				{
					"inputs": [
						{
							"internalType": "string",
							"name": "eventType",
							"type": "string"
						},
						{
							"internalType": "string",
							"name": "location",
							"type": "string"
						},
						{
							"internalType": "string",
							"name": "sourceID",
							"type": "string"
						},
						{
							"internalType": "uint256",
							"name": "distance",
							"type": "uint256"
						}
					],
					"name": "setMessage",
					"outputs": [],
					"stateMutability": "nonpayable",
					"type": "function"
				}
			],
			"devdoc": {
				"kind": "dev",
				"methods": {},
				"version": 1
			},
			"evm": {
				"assembly": "    /* \"contracts/Message.sol\":64:644  contract Message {... */\n  mstore(0x40, 0x80)\n  callvalue\n  dup1\n  iszero\n  tag_1\n  jumpi\n  0x00\n  dup1\n  revert\ntag_1:\n  pop\n  dataSize(sub_0)\n  dup1\n  dataOffset(sub_0)\n  0x00\n  codecopy\n  0x00\n  return\nstop\n\nsub_0: assembly {\n        /* \"contracts/Message.sol\":64:644  contract Message {... */\n      mstore(0x40, 0x80)\n      callvalue\n      dup1\n      iszero\n      tag_1\n      jumpi\n      0x00\n      dup1\n      revert\n    tag_1:\n      pop\n      jumpi(tag_2, lt(calldatasize, 0x04))\n      shr(0xe0, calldataload(0x00))\n      dup1\n      0xce6d41de\n      eq\n      tag_3\n      jumpi\n      dup1\n      0xd3e0aedf\n      eq\n      tag_4\n      jumpi\n      dup1\n      0xe21f37ce\n      eq\n      tag_5\n      jumpi\n    tag_2:\n      0x00\n      dup1\n      revert\n        /* \"contracts/Message.sol\":451:642  function getMessage() public view returns (string memory, string memory, string memory, uint) {... */\n    tag_3:\n      tag_6\n      tag_7\n      jump\t// in\n    tag_6:\n      mload(0x40)\n      tag_8\n      swap5\n      swap4\n      swap3\n      swap2\n      swap1\n      tag_9\n      jump\t// in\n    tag_8:\n      mload(0x40)\n      dup1\n      swap2\n      sub\n      swap1\n      return\n        /* \"contracts/Message.sol\":251:445  function setMessage(string memory eventType, string memory location, string memory sourceID, uint distance) public {... */\n    tag_4:\n      tag_10\n      0x04\n      dup1\n      calldatasize\n      sub\n      dup2\n      add\n      swap1\n      tag_11\n      swap2\n      swap1\n      tag_12\n      jump\t// in\n    tag_11:\n      tag_13\n      jump\t// in\n    tag_10:\n      stop\n        /* \"contracts/Message.sol\":218:244  MessageData public message */\n    tag_5:\n      tag_14\n      tag_15\n      jump\t// in\n    tag_14:\n      mload(0x40)\n      tag_16\n      swap5\n      swap4\n      swap3\n      swap2\n      swap1\n      tag_9\n      jump\t// in\n    tag_16:\n      mload(0x40)\n      dup1\n      swap2\n      sub\n      swap1\n      return\n        /* \"contracts/Message.sol\":451:642  function getMessage() public view returns (string memory, string memory, string memory, uint) {... */\n    tag_7:\n        /* \"contracts/Message.sol\":494:507  string memory */\n      0x60\n        /* \"contracts/Message.sol\":509:522  string memory */\n      dup1\n        /* \"contracts/Message.sol\":524:537  string memory */\n      0x60\n        /* \"contracts/Message.sol\":539:543  uint */\n      0x00\n        /* \"contracts/Message.sol\":563:570  message */\n      dup1\n        /* \"contracts/Message.sol\":563:580  message.eventType */\n      0x00\n      add\n        /* \"contracts/Message.sol\":582:589  message */\n      0x00\n        /* \"contracts/Message.sol\":582:598  message.location */\n      0x01\n      add\n        /* \"contracts/Message.sol\":600:607  message */\n      0x00\n        /* \"contracts/Message.sol\":600:616  message.sourceID */\n      0x02\n      add\n        /* \"contracts/Message.sol\":618:625  message */\n      0x00\n        /* \"contracts/Message.sol\":618:634  message.distance */\n      0x03\n      add\n      sload\n        /* \"contracts/Message.sol\":555:635  return (message.eventType, message.location, message.sourceID, message.distance) */\n      dup4\n      dup1\n      sload\n      tag_18\n      swap1\n      tag_19\n      jump\t// in\n    tag_18:\n      dup1\n      0x1f\n      add\n      0x20\n      dup1\n      swap2\n      div\n      mul\n      0x20\n      add\n      mload(0x40)\n      swap1\n      dup2\n      add\n      0x40\n      mstore\n      dup1\n      swap3\n      swap2\n      swap1\n      dup2\n      dup2\n      mstore\n      0x20\n      add\n      dup3\n      dup1\n      sload\n      tag_20\n      swap1\n      tag_19\n      jump\t// in\n    tag_20:\n      dup1\n      iszero\n      tag_21\n      jumpi\n      dup1\n      0x1f\n      lt\n      tag_22\n      jumpi\n      0x0100\n      dup1\n      dup4\n      sload\n      div\n      mul\n      dup4\n      mstore\n      swap2\n      0x20\n      add\n      swap2\n      jump(tag_21)\n    tag_22:\n      dup3\n      add\n      swap2\n      swap1\n      0x00\n      mstore\n      keccak256(0x00, 0x20)\n      swap1\n    tag_23:\n      dup2\n      sload\n      dup2\n      mstore\n      swap1\n      0x01\n      add\n      swap1\n      0x20\n      add\n      dup1\n      dup4\n      gt\n      tag_23\n      jumpi\n      dup3\n      swap1\n      sub\n      0x1f\n      and\n      dup3\n      add\n      swap2\n    tag_21:\n      pop\n      pop\n      pop\n      pop\n      pop\n      swap4\n      pop\n      dup3\n      dup1\n      sload\n      tag_24\n      swap1\n      tag_19\n      jump\t// in\n    tag_24:\n      dup1\n      0x1f\n      add\n      0x20\n      dup1\n      swap2\n      div\n      mul\n      0x20\n      add\n      mload(0x40)\n      swap1\n      dup2\n      add\n      0x40\n      mstore\n      dup1\n      swap3\n      swap2\n      swap1\n      dup2\n      dup2\n      mstore\n      0x20\n      add\n      dup3\n      dup1\n      sload\n      tag_25\n      swap1\n      tag_19\n      jump\t// in\n    tag_25:\n      dup1\n      iszero\n      tag_26\n      jumpi\n      dup1\n      0x1f\n      lt\n      tag_27\n      jumpi\n      0x0100\n      dup1\n      dup4\n      sload\n      div\n      mul\n      dup4\n      mstore\n      swap2\n      0x20\n      add\n      swap2\n      jump(tag_26)\n    tag_27:\n      dup3\n      add\n      swap2\n      swap1\n      0x00\n      mstore\n      keccak256(0x00, 0x20)\n      swap1\n    tag_28:\n      dup2\n      sload\n      dup2\n      mstore\n      swap1\n      0x01\n      add\n      swap1\n      0x20\n      add\n      dup1\n      dup4\n      gt\n      tag_28\n      jumpi\n      dup3\n      swap1\n      sub\n      0x1f\n      and\n      dup3\n      add\n      swap2\n    tag_26:\n      pop\n      pop\n      pop\n      pop\n      pop\n      swap3\n      pop\n      dup2\n      dup1\n      sload\n      tag_29\n      swap1\n      tag_19\n      jump\t// in\n    tag_29:\n      dup1\n      0x1f\n      add\n      0x20\n      dup1\n      swap2\n      div\n      mul\n      0x20\n      add\n      mload(0x40)\n      swap1\n      dup2\n      add\n      0x40\n      mstore\n      dup1\n      swap3\n      swap2\n      swap1\n      dup2\n      dup2\n      mstore\n      0x20\n      add\n      dup3\n      dup1\n      sload\n      tag_30\n      swap1\n      tag_19\n      jump\t// in\n    tag_30:\n      dup1\n      iszero\n      tag_31\n      jumpi\n      dup1\n      0x1f\n      lt\n      tag_32\n      jumpi\n      0x0100\n      dup1\n      dup4\n      sload\n      div\n      mul\n      dup4\n      mstore\n      swap2\n      0x20\n      add\n      swap2\n      jump(tag_31)\n    tag_32:\n      dup3\n      add\n      swap2\n      swap1\n      0x00\n      mstore\n      keccak256(0x00, 0x20)\n      swap1\n    tag_33:\n      dup2\n      sload\n      dup2\n      mstore\n      swap1\n      0x01\n      add\n      swap1\n      0x20\n      add\n      dup1\n      dup4\n      gt\n      tag_33\n      jumpi\n      dup3\n      swap1\n      sub\n      0x1f\n      and\n      dup3\n      add\n      swap2\n    tag_31:\n      pop\n      pop\n      pop\n      pop\n      pop\n      swap2\n      pop\n      swap4\n      pop\n      swap4\n      pop\n      swap4\n      pop\n      swap4\n      pop\n        /* \"contracts/Message.sol\":451:642  function getMessage() public view returns (string memory, string memory, string memory, uint) {... */\n      swap1\n      swap2\n      swap3\n      swap4\n      jump\t// out\n        /* \"contracts/Message.sol\":251:445  function setMessage(string memory eventType, string memory location, string memory sourceID, uint distance) public {... */\n    tag_13:\n        /* \"contracts/Message.sol\":386:438  MessageData(eventType, location, sourceID, distance) */\n      mload(0x40)\n      dup1\n      0x80\n      add\n      0x40\n      mstore\n      dup1\n        /* \"contracts/Message.sol\":398:407  eventType */\n      dup6\n        /* \"contracts/Message.sol\":386:438  MessageData(eventType, location, sourceID, distance) */\n      dup2\n      mstore\n      0x20\n      add\n        /* \"contracts/Message.sol\":409:417  location */\n      dup5\n        /* \"contracts/Message.sol\":386:438  MessageData(eventType, location, sourceID, distance) */\n      dup2\n      mstore\n      0x20\n      add\n        /* \"contracts/Message.sol\":419:427  sourceID */\n      dup4\n        /* \"contracts/Message.sol\":386:438  MessageData(eventType, location, sourceID, distance) */\n      dup2\n      mstore\n      0x20\n      add\n        /* \"contracts/Message.sol\":429:437  distance */\n      dup3\n        /* \"contracts/Message.sol\":386:438  MessageData(eventType, location, sourceID, distance) */\n      dup2\n      mstore\n      pop\n        /* \"contracts/Message.sol\":376:383  message */\n      0x00\n        /* \"contracts/Message.sol\":376:438  message = MessageData(eventType, location, sourceID, distance) */\n      dup1\n      dup3\n      add\n      mload\n      dup2\n      0x00\n      add\n      swap1\n      dup2\n      tag_35\n      swap2\n      swap1\n      tag_36\n      jump\t// in\n    tag_35:\n      pop\n      0x20\n      dup3\n      add\n      mload\n      dup2\n      0x01\n      add\n      swap1\n      dup2\n      tag_37\n      swap2\n      swap1\n      tag_36\n      jump\t// in\n    tag_37:\n      pop\n      0x40\n      dup3\n      add\n      mload\n      dup2\n      0x02\n      add\n      swap1\n      dup2\n      tag_38\n      swap2\n      swap1\n      tag_36\n      jump\t// in\n    tag_38:\n      pop\n      0x60\n      dup3\n      add\n      mload\n      dup2\n      0x03\n      add\n      sstore\n      swap1\n      pop\n      pop\n        /* \"contracts/Message.sol\":251:445  function setMessage(string memory eventType, string memory location, string memory sourceID, uint distance) public {... */\n      pop\n      pop\n      pop\n      pop\n      jump\t// out\n        /* \"contracts/Message.sol\":218:244  MessageData public message */\n    tag_15:\n      0x00\n      dup1\n      0x00\n      add\n      dup1\n      sload\n      tag_39\n      swap1\n      tag_19\n      jump\t// in\n    tag_39:\n      dup1\n      0x1f\n      add\n      0x20\n      dup1\n      swap2\n      div\n      mul\n      0x20\n      add\n      mload(0x40)\n      swap1\n      dup2\n      add\n      0x40\n      mstore\n      dup1\n      swap3\n      swap2\n      swap1\n      dup2\n      dup2\n      mstore\n      0x20\n      add\n      dup3\n      dup1\n      sload\n      tag_40\n      swap1\n      tag_19\n      jump\t// in\n    tag_40:\n      dup1\n      iszero\n      tag_41\n      jumpi\n      dup1\n      0x1f\n      lt\n      tag_42\n      jumpi\n      0x0100\n      dup1\n      dup4\n      sload\n      div\n      mul\n      dup4\n      mstore\n      swap2\n      0x20\n      add\n      swap2\n      jump(tag_41)\n    tag_42:\n      dup3\n      add\n      swap2\n      swap1\n      0x00\n      mstore\n      keccak256(0x00, 0x20)\n      swap1\n    tag_43:\n      dup2\n      sload\n      dup2\n      mstore\n      swap1\n      0x01\n      add\n      swap1\n      0x20\n      add\n      dup1\n      dup4\n      gt\n      tag_43\n      jumpi\n      dup3\n      swap1\n      sub\n      0x1f\n      and\n      dup3\n      add\n      swap2\n    tag_41:\n      pop\n      pop\n      pop\n      pop\n      pop\n      swap1\n      dup1\n      0x01\n      add\n      dup1\n      sload\n      tag_44\n      swap1\n      tag_19\n      jump\t// in\n    tag_44:\n      dup1\n      0x1f\n      add\n      0x20\n      dup1\n      swap2\n      div\n      mul\n      0x20\n      add\n      mload(0x40)\n      swap1\n      dup2\n      add\n      0x40\n      mstore\n      dup1\n      swap3\n      swap2\n      swap1\n      dup2\n      dup2\n      mstore\n      0x20\n      add\n      dup3\n      dup1\n      sload\n      tag_45\n      swap1\n      tag_19\n      jump\t// in\n    tag_45:\n      dup1\n      iszero\n      tag_46\n      jumpi\n      dup1\n      0x1f\n      lt\n      tag_47\n      jumpi\n      0x0100\n      dup1\n      dup4\n      sload\n      div\n      mul\n      dup4\n      mstore\n      swap2\n      0x20\n      add\n      swap2\n      jump(tag_46)\n    tag_47:\n      dup3\n      add\n      swap2\n      swap1\n      0x00\n      mstore\n      keccak256(0x00, 0x20)\n      swap1\n    tag_48:\n      dup2\n      sload\n      dup2\n      mstore\n      swap1\n      0x01\n      add\n      swap1\n      0x20\n      add\n      dup1\n      dup4\n      gt\n      tag_48\n      jumpi\n      dup3\n      swap1\n      sub\n      0x1f\n      and\n      dup3\n      add\n      swap2\n    tag_46:\n      pop\n      pop\n      pop\n      pop\n      pop\n      swap1\n      dup1\n      0x02\n      add\n      dup1\n      sload\n      tag_49\n      swap1\n      tag_19\n      jump\t// in\n    tag_49:\n      dup1\n      0x1f\n      add\n      0x20\n      dup1\n      swap2\n      div\n      mul\n      0x20\n      add\n      mload(0x40)\n      swap1\n      dup2\n      add\n      0x40\n      mstore\n      dup1\n      swap3\n      swap2\n      swap1\n      dup2\n      dup2\n      mstore\n      0x20\n      add\n      dup3\n      dup1\n      sload\n      tag_50\n      swap1\n      tag_19\n      jump\t// in\n    tag_50:\n      dup1\n      iszero\n      tag_51\n      jumpi\n      dup1\n      0x1f\n      lt\n      tag_52\n      jumpi\n      0x0100\n      dup1\n      dup4\n      sload\n      div\n      mul\n      dup4\n      mstore\n      swap2\n      0x20\n      add\n      swap2\n      jump(tag_51)\n    tag_52:\n      dup3\n      add\n      swap2\n      swap1\n      0x00\n      mstore\n      keccak256(0x00, 0x20)\n      swap1\n    tag_53:\n      dup2\n      sload\n      dup2\n      mstore\n      swap1\n      0x01\n      add\n      swap1\n      0x20\n      add\n      dup1\n      dup4\n      gt\n      tag_53\n      jumpi\n      dup3\n      swap1\n      sub\n      0x1f\n      and\n      dup3\n      add\n      swap2\n    tag_51:\n      pop\n      pop\n      pop\n      pop\n      pop\n      swap1\n      dup1\n      0x03\n      add\n      sload\n      swap1\n      pop\n      dup5\n      jump\t// out\n        /* \"#utility.yul\":7:106   */\n    tag_54:\n        /* \"#utility.yul\":59:65   */\n      0x00\n        /* \"#utility.yul\":93:98   */\n      dup2\n        /* \"#utility.yul\":87:99   */\n      mload\n        /* \"#utility.yul\":77:99   */\n      swap1\n      pop\n        /* \"#utility.yul\":7:106   */\n      swap2\n      swap1\n      pop\n      jump\t// out\n        /* \"#utility.yul\":112:281   */\n    tag_55:\n        /* \"#utility.yul\":196:207   */\n      0x00\n        /* \"#utility.yul\":230:236   */\n      dup3\n        /* \"#utility.yul\":225:228   */\n      dup3\n        /* \"#utility.yul\":218:237   */\n      mstore\n        /* \"#utility.yul\":270:274   */\n      0x20\n        /* \"#utility.yul\":265:268   */\n      dup3\n        /* \"#utility.yul\":261:275   */\n      add\n        /* \"#utility.yul\":246:275   */\n      swap1\n      pop\n        /* \"#utility.yul\":112:281   */\n      swap3\n      swap2\n      pop\n      pop\n      jump\t// out\n        /* \"#utility.yul\":287:533   */\n    tag_56:\n        /* \"#utility.yul\":368:369   */\n      0x00\n        /* \"#utility.yul\":378:491   */\n    tag_95:\n        /* \"#utility.yul\":392:398   */\n      dup4\n        /* \"#utility.yul\":389:390   */\n      dup2\n        /* \"#utility.yul\":386:399   */\n      lt\n        /* \"#utility.yul\":378:491   */\n      iszero\n      tag_97\n      jumpi\n        /* \"#utility.yul\":477:478   */\n      dup1\n        /* \"#utility.yul\":472:475   */\n      dup3\n        /* \"#utility.yul\":468:479   */\n      add\n        /* \"#utility.yul\":462:480   */\n      mload\n        /* \"#utility.yul\":458:459   */\n      dup2\n        /* \"#utility.yul\":453:456   */\n      dup5\n        /* \"#utility.yul\":449:460   */\n      add\n        /* \"#utility.yul\":442:481   */\n      mstore\n        /* \"#utility.yul\":414:416   */\n      0x20\n        /* \"#utility.yul\":411:412   */\n      dup2\n        /* \"#utility.yul\":407:417   */\n      add\n        /* \"#utility.yul\":402:417   */\n      swap1\n      pop\n        /* \"#utility.yul\":378:491   */\n      jump(tag_95)\n    tag_97:\n        /* \"#utility.yul\":525:526   */\n      0x00\n        /* \"#utility.yul\":516:522   */\n      dup5\n        /* \"#utility.yul\":511:514   */\n      dup5\n        /* \"#utility.yul\":507:523   */\n      add\n        /* \"#utility.yul\":500:527   */\n      mstore\n        /* \"#utility.yul\":349:533   */\n      pop\n        /* \"#utility.yul\":287:533   */\n      pop\n      pop\n      pop\n      jump\t// out\n        /* \"#utility.yul\":539:641   */\n    tag_57:\n        /* \"#utility.yul\":580:586   */\n      0x00\n        /* \"#utility.yul\":631:633   */\n      0x1f\n        /* \"#utility.yul\":627:634   */\n      not\n        /* \"#utility.yul\":622:624   */\n      0x1f\n        /* \"#utility.yul\":615:620   */\n      dup4\n        /* \"#utility.yul\":611:625   */\n      add\n        /* \"#utility.yul\":607:635   */\n      and\n        /* \"#utility.yul\":597:635   */\n      swap1\n      pop\n        /* \"#utility.yul\":539:641   */\n      swap2\n      swap1\n      pop\n      jump\t// out\n        /* \"#utility.yul\":647:1024   */\n    tag_58:\n        /* \"#utility.yul\":735:738   */\n      0x00\n        /* \"#utility.yul\":763:802   */\n      tag_100\n        /* \"#utility.yul\":796:801   */\n      dup3\n        /* \"#utility.yul\":763:802   */\n      tag_54\n      jump\t// in\n    tag_100:\n        /* \"#utility.yul\":818:889   */\n      tag_101\n        /* \"#utility.yul\":882:888   */\n      dup2\n        /* \"#utility.yul\":877:880   */\n      dup6\n        /* \"#utility.yul\":818:889   */\n      tag_55\n      jump\t// in\n    tag_101:\n        /* \"#utility.yul\":811:889   */\n      swap4\n      pop\n        /* \"#utility.yul\":898:963   */\n      tag_102\n        /* \"#utility.yul\":956:962   */\n      dup2\n        /* \"#utility.yul\":951:954   */\n      dup6\n        /* \"#utility.yul\":944:948   */\n      0x20\n        /* \"#utility.yul\":937:942   */\n      dup7\n        /* \"#utility.yul\":933:949   */\n      add\n        /* \"#utility.yul\":898:963   */\n      tag_56\n      jump\t// in\n    tag_102:\n        /* \"#utility.yul\":988:1017   */\n      tag_103\n        /* \"#utility.yul\":1010:1016   */\n      dup2\n        /* \"#utility.yul\":988:1017   */\n      tag_57\n      jump\t// in\n    tag_103:\n        /* \"#utility.yul\":983:986   */\n      dup5\n        /* \"#utility.yul\":979:1018   */\n      add\n        /* \"#utility.yul\":972:1018   */\n      swap2\n      pop\n        /* \"#utility.yul\":739:1024   */\n      pop\n        /* \"#utility.yul\":647:1024   */\n      swap3\n      swap2\n      pop\n      pop\n      jump\t// out\n        /* \"#utility.yul\":1030:1107   */\n    tag_59:\n        /* \"#utility.yul\":1067:1074   */\n      0x00\n        /* \"#utility.yul\":1096:1101   */\n      dup2\n        /* \"#utility.yul\":1085:1101   */\n      swap1\n      pop\n        /* \"#utility.yul\":1030:1107   */\n      swap2\n      swap1\n      pop\n      jump\t// out\n        /* \"#utility.yul\":1113:1231   */\n    tag_60:\n        /* \"#utility.yul\":1200:1224   */\n      tag_106\n        /* \"#utility.yul\":1218:1223   */\n      dup2\n        /* \"#utility.yul\":1200:1224   */\n      tag_59\n      jump\t// in\n    tag_106:\n        /* \"#utility.yul\":1195:1198   */\n      dup3\n        /* \"#utility.yul\":1188:1225   */\n      mstore\n        /* \"#utility.yul\":1113:1231   */\n      pop\n      pop\n      jump\t// out\n        /* \"#utility.yul\":1237:2063   */\n    tag_9:\n        /* \"#utility.yul\":1474:1478   */\n      0x00\n        /* \"#utility.yul\":1512:1515   */\n      0x80\n        /* \"#utility.yul\":1501:1510   */\n      dup3\n        /* \"#utility.yul\":1497:1516   */\n      add\n        /* \"#utility.yul\":1489:1516   */\n      swap1\n      pop\n        /* \"#utility.yul\":1562:1571   */\n      dup2\n        /* \"#utility.yul\":1556:1560   */\n      dup2\n        /* \"#utility.yul\":1552:1572   */\n      sub\n        /* \"#utility.yul\":1548:1549   */\n      0x00\n        /* \"#utility.yul\":1537:1546   */\n      dup4\n        /* \"#utility.yul\":1533:1550   */\n      add\n        /* \"#utility.yul\":1526:1573   */\n      mstore\n        /* \"#utility.yul\":1590:1668   */\n      tag_108\n        /* \"#utility.yul\":1663:1667   */\n      dup2\n        /* \"#utility.yul\":1654:1660   */\n      dup8\n        /* \"#utility.yul\":1590:1668   */\n      tag_58\n      jump\t// in\n    tag_108:\n        /* \"#utility.yul\":1582:1668   */\n      swap1\n      pop\n        /* \"#utility.yul\":1715:1724   */\n      dup2\n        /* \"#utility.yul\":1709:1713   */\n      dup2\n        /* \"#utility.yul\":1705:1725   */\n      sub\n        /* \"#utility.yul\":1700:1702   */\n      0x20\n        /* \"#utility.yul\":1689:1698   */\n      dup4\n        /* \"#utility.yul\":1685:1703   */\n      add\n        /* \"#utility.yul\":1678:1726   */\n      mstore\n        /* \"#utility.yul\":1743:1821   */\n      tag_109\n        /* \"#utility.yul\":1816:1820   */\n      dup2\n        /* \"#utility.yul\":1807:1813   */\n      dup7\n        /* \"#utility.yul\":1743:1821   */\n      tag_58\n      jump\t// in\n    tag_109:\n        /* \"#utility.yul\":1735:1821   */\n      swap1\n      pop\n        /* \"#utility.yul\":1868:1877   */\n      dup2\n        /* \"#utility.yul\":1862:1866   */\n      dup2\n        /* \"#utility.yul\":1858:1878   */\n      sub\n        /* \"#utility.yul\":1853:1855   */\n      0x40\n        /* \"#utility.yul\":1842:1851   */\n      dup4\n        /* \"#utility.yul\":1838:1856   */\n      add\n        /* \"#utility.yul\":1831:1879   */\n      mstore\n        /* \"#utility.yul\":1896:1974   */\n      tag_110\n        /* \"#utility.yul\":1969:1973   */\n      dup2\n        /* \"#utility.yul\":1960:1966   */\n      dup6\n        /* \"#utility.yul\":1896:1974   */\n      tag_58\n      jump\t// in\n    tag_110:\n        /* \"#utility.yul\":1888:1974   */\n      swap1\n      pop\n        /* \"#utility.yul\":1984:2056   */\n      tag_111\n        /* \"#utility.yul\":2052:2054   */\n      0x60\n        /* \"#utility.yul\":2041:2050   */\n      dup4\n        /* \"#utility.yul\":2037:2055   */\n      add\n        /* \"#utility.yul\":2028:2034   */\n      dup5\n        /* \"#utility.yul\":1984:2056   */\n      tag_60\n      jump\t// in\n    tag_111:\n        /* \"#utility.yul\":1237:2063   */\n      swap6\n      swap5\n      pop\n      pop\n      pop\n      pop\n      pop\n      jump\t// out\n        /* \"#utility.yul\":2069:2144   */\n    tag_61:\n        /* \"#utility.yul\":2102:2108   */\n      0x00\n        /* \"#utility.yul\":2135:2137   */\n      0x40\n        /* \"#utility.yul\":2129:2138   */\n      mload\n        /* \"#utility.yul\":2119:2138   */\n      swap1\n      pop\n        /* \"#utility.yul\":2069:2144   */\n      swap1\n      jump\t// out\n        /* \"#utility.yul\":2150:2267   */\n    tag_62:\n        /* \"#utility.yul\":2259:2260   */\n      0x00\n        /* \"#utility.yul\":2256:2257   */\n      dup1\n        /* \"#utility.yul\":2249:2261   */\n      revert\n        /* \"#utility.yul\":2273:2390   */\n    tag_63:\n        /* \"#utility.yul\":2382:2383   */\n      0x00\n        /* \"#utility.yul\":2379:2380   */\n      dup1\n        /* \"#utility.yul\":2372:2384   */\n      revert\n        /* \"#utility.yul\":2396:2513   */\n    tag_64:\n        /* \"#utility.yul\":2505:2506   */\n      0x00\n        /* \"#utility.yul\":2502:2503   */\n      dup1\n        /* \"#utility.yul\":2495:2507   */\n      revert\n        /* \"#utility.yul\":2519:2636   */\n    tag_65:\n        /* \"#utility.yul\":2628:2629   */\n      0x00\n        /* \"#utility.yul\":2625:2626   */\n      dup1\n        /* \"#utility.yul\":2618:2630   */\n      revert\n        /* \"#utility.yul\":2642:2822   */\n    tag_66:\n        /* \"#utility.yul\":2690:2767   */\n      0x4e487b7100000000000000000000000000000000000000000000000000000000\n        /* \"#utility.yul\":2687:2688   */\n      0x00\n        /* \"#utility.yul\":2680:2768   */\n      mstore\n        /* \"#utility.yul\":2787:2791   */\n      0x41\n        /* \"#utility.yul\":2784:2785   */\n      0x04\n        /* \"#utility.yul\":2777:2792   */\n      mstore\n        /* \"#utility.yul\":2811:2815   */\n      0x24\n        /* \"#utility.yul\":2808:2809   */\n      0x00\n        /* \"#utility.yul\":2801:2816   */\n      revert\n        /* \"#utility.yul\":2828:3109   */\n    tag_67:\n        /* \"#utility.yul\":2911:2938   */\n      tag_119\n        /* \"#utility.yul\":2933:2937   */\n      dup3\n        /* \"#utility.yul\":2911:2938   */\n      tag_57\n      jump\t// in\n    tag_119:\n        /* \"#utility.yul\":2903:2909   */\n      dup2\n        /* \"#utility.yul\":2899:2939   */\n      add\n        /* \"#utility.yul\":3041:3047   */\n      dup2\n        /* \"#utility.yul\":3029:3039   */\n      dup2\n        /* \"#utility.yul\":3026:3048   */\n      lt\n        /* \"#utility.yul\":3005:3023   */\n      0xffffffffffffffff\n        /* \"#utility.yul\":2993:3003   */\n      dup3\n        /* \"#utility.yul\":2990:3024   */\n      gt\n        /* \"#utility.yul\":2987:3049   */\n      or\n        /* \"#utility.yul\":2984:3072   */\n      iszero\n      tag_120\n      jumpi\n        /* \"#utility.yul\":3052:3070   */\n      tag_121\n      tag_66\n      jump\t// in\n    tag_121:\n        /* \"#utility.yul\":2984:3072   */\n    tag_120:\n        /* \"#utility.yul\":3092:3102   */\n      dup1\n        /* \"#utility.yul\":3088:3090   */\n      0x40\n        /* \"#utility.yul\":3081:3103   */\n      mstore\n        /* \"#utility.yul\":2871:3109   */\n      pop\n        /* \"#utility.yul\":2828:3109   */\n      pop\n      pop\n      jump\t// out\n        /* \"#utility.yul\":3115:3244   */\n    tag_68:\n        /* \"#utility.yul\":3149:3155   */\n      0x00\n        /* \"#utility.yul\":3176:3196   */\n      tag_123\n      tag_61\n      jump\t// in\n    tag_123:\n        /* \"#utility.yul\":3166:3196   */\n      swap1\n      pop\n        /* \"#utility.yul\":3205:3238   */\n      tag_124\n        /* \"#utility.yul\":3233:3237   */\n      dup3\n        /* \"#utility.yul\":3225:3231   */\n      dup3\n        /* \"#utility.yul\":3205:3238   */\n      tag_67\n      jump\t// in\n    tag_124:\n        /* \"#utility.yul\":3115:3244   */\n      swap2\n      swap1\n      pop\n      jump\t// out\n        /* \"#utility.yul\":3250:3558   */\n    tag_69:\n        /* \"#utility.yul\":3312:3316   */\n      0x00\n        /* \"#utility.yul\":3402:3420   */\n      0xffffffffffffffff\n        /* \"#utility.yul\":3394:3400   */\n      dup3\n        /* \"#utility.yul\":3391:3421   */\n      gt\n        /* \"#utility.yul\":3388:3444   */\n      iszero\n      tag_126\n      jumpi\n        /* \"#utility.yul\":3424:3442   */\n      tag_127\n      tag_66\n      jump\t// in\n    tag_127:\n        /* \"#utility.yul\":3388:3444   */\n    tag_126:\n        /* \"#utility.yul\":3462:3491   */\n      tag_128\n        /* \"#utility.yul\":3484:3490   */\n      dup3\n        /* \"#utility.yul\":3462:3491   */\n      tag_57\n      jump\t// in\n    tag_128:\n        /* \"#utility.yul\":3454:3491   */\n      swap1\n      pop\n        /* \"#utility.yul\":3546:3550   */\n      0x20\n        /* \"#utility.yul\":3540:3544   */\n      dup2\n        /* \"#utility.yul\":3536:3551   */\n      add\n        /* \"#utility.yul\":3528:3551   */\n      swap1\n      pop\n        /* \"#utility.yul\":3250:3558   */\n      swap2\n      swap1\n      pop\n      jump\t// out\n        /* \"#utility.yul\":3564:3710   */\n    tag_70:\n        /* \"#utility.yul\":3661:3667   */\n      dup3\n        /* \"#utility.yul\":3656:3659   */\n      dup2\n        /* \"#utility.yul\":3651:3654   */\n      dup4\n        /* \"#utility.yul\":3638:3668   */\n      calldatacopy\n        /* \"#utility.yul\":3702:3703   */\n      0x00\n        /* \"#utility.yul\":3693:3699   */\n      dup4\n        /* \"#utility.yul\":3688:3691   */\n      dup4\n        /* \"#utility.yul\":3684:3700   */\n      add\n        /* \"#utility.yul\":3677:3704   */\n      mstore\n        /* \"#utility.yul\":3564:3710   */\n      pop\n      pop\n      pop\n      jump\t// out\n        /* \"#utility.yul\":3716:4141   */\n    tag_71:\n        /* \"#utility.yul\":3794:3799   */\n      0x00\n        /* \"#utility.yul\":3819:3885   */\n      tag_131\n        /* \"#utility.yul\":3835:3884   */\n      tag_132\n        /* \"#utility.yul\":3877:3883   */\n      dup5\n        /* \"#utility.yul\":3835:3884   */\n      tag_69\n      jump\t// in\n    tag_132:\n        /* \"#utility.yul\":3819:3885   */\n      tag_68\n      jump\t// in\n    tag_131:\n        /* \"#utility.yul\":3810:3885   */\n      swap1\n      pop\n        /* \"#utility.yul\":3908:3914   */\n      dup3\n        /* \"#utility.yul\":3901:3906   */\n      dup2\n        /* \"#utility.yul\":3894:3915   */\n      mstore\n        /* \"#utility.yul\":3946:3950   */\n      0x20\n        /* \"#utility.yul\":3939:3944   */\n      dup2\n        /* \"#utility.yul\":3935:3951   */\n      add\n        /* \"#utility.yul\":3984:3987   */\n      dup5\n        /* \"#utility.yul\":3975:3981   */\n      dup5\n        /* \"#utility.yul\":3970:3973   */\n      dup5\n        /* \"#utility.yul\":3966:3982   */\n      add\n        /* \"#utility.yul\":3963:3988   */\n      gt\n        /* \"#utility.yul\":3960:4072   */\n      iszero\n      tag_133\n      jumpi\n        /* \"#utility.yul\":3991:4070   */\n      tag_134\n      tag_65\n      jump\t// in\n    tag_134:\n        /* \"#utility.yul\":3960:4072   */\n    tag_133:\n        /* \"#utility.yul\":4081:4135   */\n      tag_135\n        /* \"#utility.yul\":4128:4134   */\n      dup5\n        /* \"#utility.yul\":4123:4126   */\n      dup3\n        /* \"#utility.yul\":4118:4121   */\n      dup6\n        /* \"#utility.yul\":4081:4135   */\n      tag_70\n      jump\t// in\n    tag_135:\n        /* \"#utility.yul\":3800:4141   */\n      pop\n        /* \"#utility.yul\":3716:4141   */\n      swap4\n      swap3\n      pop\n      pop\n      pop\n      jump\t// out\n        /* \"#utility.yul\":4161:4501   */\n    tag_72:\n        /* \"#utility.yul\":4217:4222   */\n      0x00\n        /* \"#utility.yul\":4266:4269   */\n      dup3\n        /* \"#utility.yul\":4259:4263   */\n      0x1f\n        /* \"#utility.yul\":4251:4257   */\n      dup4\n        /* \"#utility.yul\":4247:4264   */\n      add\n        /* \"#utility.yul\":4243:4270   */\n      slt\n        /* \"#utility.yul\":4233:4355   */\n      tag_137\n      jumpi\n        /* \"#utility.yul\":4274:4353   */\n      tag_138\n      tag_64\n      jump\t// in\n    tag_138:\n        /* \"#utility.yul\":4233:4355   */\n    tag_137:\n        /* \"#utility.yul\":4391:4397   */\n      dup2\n        /* \"#utility.yul\":4378:4398   */\n      calldataload\n        /* \"#utility.yul\":4416:4495   */\n      tag_139\n        /* \"#utility.yul\":4491:4494   */\n      dup5\n        /* \"#utility.yul\":4483:4489   */\n      dup3\n        /* \"#utility.yul\":4476:4480   */\n      0x20\n        /* \"#utility.yul\":4468:4474   */\n      dup7\n        /* \"#utility.yul\":4464:4481   */\n      add\n        /* \"#utility.yul\":4416:4495   */\n      tag_71\n      jump\t// in\n    tag_139:\n        /* \"#utility.yul\":4407:4495   */\n      swap2\n      pop\n        /* \"#utility.yul\":4223:4501   */\n      pop\n        /* \"#utility.yul\":4161:4501   */\n      swap3\n      swap2\n      pop\n      pop\n      jump\t// out\n        /* \"#utility.yul\":4507:4629   */\n    tag_73:\n        /* \"#utility.yul\":4580:4604   */\n      tag_141\n        /* \"#utility.yul\":4598:4603   */\n      dup2\n        /* \"#utility.yul\":4580:4604   */\n      tag_59\n      jump\t// in\n    tag_141:\n        /* \"#utility.yul\":4573:4578   */\n      dup2\n        /* \"#utility.yul\":4570:4605   */\n      eq\n        /* \"#utility.yul\":4560:4623   */\n      tag_142\n      jumpi\n        /* \"#utility.yul\":4619:4620   */\n      0x00\n        /* \"#utility.yul\":4616:4617   */\n      dup1\n        /* \"#utility.yul\":4609:4621   */\n      revert\n        /* \"#utility.yul\":4560:4623   */\n    tag_142:\n        /* \"#utility.yul\":4507:4629   */\n      pop\n      jump\t// out\n        /* \"#utility.yul\":4635:4774   */\n    tag_74:\n        /* \"#utility.yul\":4681:4686   */\n      0x00\n        /* \"#utility.yul\":4719:4725   */\n      dup2\n        /* \"#utility.yul\":4706:4726   */\n      calldataload\n        /* \"#utility.yul\":4697:4726   */\n      swap1\n      pop\n        /* \"#utility.yul\":4735:4768   */\n      tag_144\n        /* \"#utility.yul\":4762:4767   */\n      dup2\n        /* \"#utility.yul\":4735:4768   */\n      tag_73\n      jump\t// in\n    tag_144:\n        /* \"#utility.yul\":4635:4774   */\n      swap3\n      swap2\n      pop\n      pop\n      jump\t// out\n        /* \"#utility.yul\":4780:6085   */\n    tag_12:\n        /* \"#utility.yul\":4896:4902   */\n      0x00\n        /* \"#utility.yul\":4904:4910   */\n      dup1\n        /* \"#utility.yul\":4912:4918   */\n      0x00\n        /* \"#utility.yul\":4920:4926   */\n      dup1\n        /* \"#utility.yul\":4969:4972   */\n      0x80\n        /* \"#utility.yul\":4957:4966   */\n      dup6\n        /* \"#utility.yul\":4948:4955   */\n      dup8\n        /* \"#utility.yul\":4944:4967   */\n      sub\n        /* \"#utility.yul\":4940:4973   */\n      slt\n        /* \"#utility.yul\":4937:5057   */\n      iszero\n      tag_146\n      jumpi\n        /* \"#utility.yul\":4976:5055   */\n      tag_147\n      tag_62\n      jump\t// in\n    tag_147:\n        /* \"#utility.yul\":4937:5057   */\n    tag_146:\n        /* \"#utility.yul\":5124:5125   */\n      0x00\n        /* \"#utility.yul\":5113:5122   */\n      dup6\n        /* \"#utility.yul\":5109:5126   */\n      add\n        /* \"#utility.yul\":5096:5127   */\n      calldataload\n        /* \"#utility.yul\":5154:5172   */\n      0xffffffffffffffff\n        /* \"#utility.yul\":5146:5152   */\n      dup2\n        /* \"#utility.yul\":5143:5173   */\n      gt\n        /* \"#utility.yul\":5140:5257   */\n      iszero\n      tag_148\n      jumpi\n        /* \"#utility.yul\":5176:5255   */\n      tag_149\n      tag_63\n      jump\t// in\n    tag_149:\n        /* \"#utility.yul\":5140:5257   */\n    tag_148:\n        /* \"#utility.yul\":5281:5344   */\n      tag_150\n        /* \"#utility.yul\":5336:5343   */\n      dup8\n        /* \"#utility.yul\":5327:5333   */\n      dup3\n        /* \"#utility.yul\":5316:5325   */\n      dup9\n        /* \"#utility.yul\":5312:5334   */\n      add\n        /* \"#utility.yul\":5281:5344   */\n      tag_72\n      jump\t// in\n    tag_150:\n        /* \"#utility.yul\":5271:5344   */\n      swap5\n      pop\n        /* \"#utility.yul\":5067:5354   */\n      pop\n        /* \"#utility.yul\":5421:5423   */\n      0x20\n        /* \"#utility.yul\":5410:5419   */\n      dup6\n        /* \"#utility.yul\":5406:5424   */\n      add\n        /* \"#utility.yul\":5393:5425   */\n      calldataload\n        /* \"#utility.yul\":5452:5470   */\n      0xffffffffffffffff\n        /* \"#utility.yul\":5444:5450   */\n      dup2\n        /* \"#utility.yul\":5441:5471   */\n      gt\n        /* \"#utility.yul\":5438:5555   */\n      iszero\n      tag_151\n      jumpi\n        /* \"#utility.yul\":5474:5553   */\n      tag_152\n      tag_63\n      jump\t// in\n    tag_152:\n        /* \"#utility.yul\":5438:5555   */\n    tag_151:\n        /* \"#utility.yul\":5579:5642   */\n      tag_153\n        /* \"#utility.yul\":5634:5641   */\n      dup8\n        /* \"#utility.yul\":5625:5631   */\n      dup3\n        /* \"#utility.yul\":5614:5623   */\n      dup9\n        /* \"#utility.yul\":5610:5632   */\n      add\n        /* \"#utility.yul\":5579:5642   */\n      tag_72\n      jump\t// in\n    tag_153:\n        /* \"#utility.yul\":5569:5642   */\n      swap4\n      pop\n        /* \"#utility.yul\":5364:5652   */\n      pop\n        /* \"#utility.yul\":5719:5721   */\n      0x40\n        /* \"#utility.yul\":5708:5717   */\n      dup6\n        /* \"#utility.yul\":5704:5722   */\n      add\n        /* \"#utility.yul\":5691:5723   */\n      calldataload\n        /* \"#utility.yul\":5750:5768   */\n      0xffffffffffffffff\n        /* \"#utility.yul\":5742:5748   */\n      dup2\n        /* \"#utility.yul\":5739:5769   */\n      gt\n        /* \"#utility.yul\":5736:5853   */\n      iszero\n      tag_154\n      jumpi\n        /* \"#utility.yul\":5772:5851   */\n      tag_155\n      tag_63\n      jump\t// in\n    tag_155:\n        /* \"#utility.yul\":5736:5853   */\n    tag_154:\n        /* \"#utility.yul\":5877:5940   */\n      tag_156\n        /* \"#utility.yul\":5932:5939   */\n      dup8\n        /* \"#utility.yul\":5923:5929   */\n      dup3\n        /* \"#utility.yul\":5912:5921   */\n      dup9\n        /* \"#utility.yul\":5908:5930   */\n      add\n        /* \"#utility.yul\":5877:5940   */\n      tag_72\n      jump\t// in\n    tag_156:\n        /* \"#utility.yul\":5867:5940   */\n      swap3\n      pop\n        /* \"#utility.yul\":5662:5950   */\n      pop\n        /* \"#utility.yul\":5989:5991   */\n      0x60\n        /* \"#utility.yul\":6015:6068   */\n      tag_157\n        /* \"#utility.yul\":6060:6067   */\n      dup8\n        /* \"#utility.yul\":6051:6057   */\n      dup3\n        /* \"#utility.yul\":6040:6049   */\n      dup9\n        /* \"#utility.yul\":6036:6058   */\n      add\n        /* \"#utility.yul\":6015:6068   */\n      tag_74\n      jump\t// in\n    tag_157:\n        /* \"#utility.yul\":6005:6068   */\n      swap2\n      pop\n        /* \"#utility.yul\":5960:6078   */\n      pop\n        /* \"#utility.yul\":4780:6085   */\n      swap3\n      swap6\n      swap2\n      swap5\n      pop\n      swap3\n      pop\n      jump\t// out\n        /* \"#utility.yul\":6091:6271   */\n    tag_75:\n        /* \"#utility.yul\":6139:6216   */\n      0x4e487b7100000000000000000000000000000000000000000000000000000000\n        /* \"#utility.yul\":6136:6137   */\n      0x00\n        /* \"#utility.yul\":6129:6217   */\n      mstore\n        /* \"#utility.yul\":6236:6240   */\n      0x22\n        /* \"#utility.yul\":6233:6234   */\n      0x04\n        /* \"#utility.yul\":6226:6241   */\n      mstore\n        /* \"#utility.yul\":6260:6264   */\n      0x24\n        /* \"#utility.yul\":6257:6258   */\n      0x00\n        /* \"#utility.yul\":6250:6265   */\n      revert\n        /* \"#utility.yul\":6277:6597   */\n    tag_19:\n        /* \"#utility.yul\":6321:6327   */\n      0x00\n        /* \"#utility.yul\":6358:6359   */\n      0x02\n        /* \"#utility.yul\":6352:6356   */\n      dup3\n        /* \"#utility.yul\":6348:6360   */\n      div\n        /* \"#utility.yul\":6338:6360   */\n      swap1\n      pop\n        /* \"#utility.yul\":6405:6406   */\n      0x01\n        /* \"#utility.yul\":6399:6403   */\n      dup3\n        /* \"#utility.yul\":6395:6407   */\n      and\n        /* \"#utility.yul\":6426:6444   */\n      dup1\n        /* \"#utility.yul\":6416:6497   */\n      tag_160\n      jumpi\n        /* \"#utility.yul\":6482:6486   */\n      0x7f\n        /* \"#utility.yul\":6474:6480   */\n      dup3\n        /* \"#utility.yul\":6470:6487   */\n      and\n        /* \"#utility.yul\":6460:6487   */\n      swap2\n      pop\n        /* \"#utility.yul\":6416:6497   */\n    tag_160:\n        /* \"#utility.yul\":6544:6546   */\n      0x20\n        /* \"#utility.yul\":6536:6542   */\n      dup3\n        /* \"#utility.yul\":6533:6547   */\n      lt\n        /* \"#utility.yul\":6513:6531   */\n      dup2\n        /* \"#utility.yul\":6510:6548   */\n      sub\n        /* \"#utility.yul\":6507:6591   */\n      tag_161\n      jumpi\n        /* \"#utility.yul\":6563:6581   */\n      tag_162\n      tag_75\n      jump\t// in\n    tag_162:\n        /* \"#utility.yul\":6507:6591   */\n    tag_161:\n        /* \"#utility.yul\":6328:6597   */\n      pop\n        /* \"#utility.yul\":6277:6597   */\n      swap2\n      swap1\n      pop\n      jump\t// out\n        /* \"#utility.yul\":6603:6744   */\n    tag_76:\n        /* \"#utility.yul\":6652:6656   */\n      0x00\n        /* \"#utility.yul\":6675:6678   */\n      dup2\n        /* \"#utility.yul\":6667:6678   */\n      swap1\n      pop\n        /* \"#utility.yul\":6698:6701   */\n      dup2\n        /* \"#utility.yul\":6695:6696   */\n      0x00\n        /* \"#utility.yul\":6688:6702   */\n      mstore\n        /* \"#utility.yul\":6732:6736   */\n      0x20\n        /* \"#utility.yul\":6729:6730   */\n      0x00\n        /* \"#utility.yul\":6719:6737   */\n      keccak256\n        /* \"#utility.yul\":6711:6737   */\n      swap1\n      pop\n        /* \"#utility.yul\":6603:6744   */\n      swap2\n      swap1\n      pop\n      jump\t// out\n        /* \"#utility.yul\":6750:6843   */\n    tag_77:\n        /* \"#utility.yul\":6787:6793   */\n      0x00\n        /* \"#utility.yul\":6834:6836   */\n      0x20\n        /* \"#utility.yul\":6829:6831   */\n      0x1f\n        /* \"#utility.yul\":6822:6827   */\n      dup4\n        /* \"#utility.yul\":6818:6832   */\n      add\n        /* \"#utility.yul\":6814:6837   */\n      div\n        /* \"#utility.yul\":6804:6837   */\n      swap1\n      pop\n        /* \"#utility.yul\":6750:6843   */\n      swap2\n      swap1\n      pop\n      jump\t// out\n        /* \"#utility.yul\":6849:6956   */\n    tag_78:\n        /* \"#utility.yul\":6893:6901   */\n      0x00\n        /* \"#utility.yul\":6943:6948   */\n      dup3\n        /* \"#utility.yul\":6937:6941   */\n      dup3\n        /* \"#utility.yul\":6933:6949   */\n      shl\n        /* \"#utility.yul\":6912:6949   */\n      swap1\n      pop\n        /* \"#utility.yul\":6849:6956   */\n      swap3\n      swap2\n      pop\n      pop\n      jump\t// out\n        /* \"#utility.yul\":6962:7355   */\n    tag_79:\n        /* \"#utility.yul\":7031:7037   */\n      0x00\n        /* \"#utility.yul\":7081:7082   */\n      0x08\n        /* \"#utility.yul\":7069:7079   */\n      dup4\n        /* \"#utility.yul\":7065:7083   */\n      mul\n        /* \"#utility.yul\":7104:7201   */\n      tag_167\n        /* \"#utility.yul\":7134:7200   */\n      0xffffffffffffffffffffffffffffffffffffffffffffffffffffffffffffffff\n        /* \"#utility.yul\":7123:7132   */\n      dup3\n        /* \"#utility.yul\":7104:7201   */\n      tag_78\n      jump\t// in\n    tag_167:\n        /* \"#utility.yul\":7222:7261   */\n      tag_168\n        /* \"#utility.yul\":7252:7260   */\n      dup7\n        /* \"#utility.yul\":7241:7250   */\n      dup4\n        /* \"#utility.yul\":7222:7261   */\n      tag_78\n      jump\t// in\n    tag_168:\n        /* \"#utility.yul\":7210:7261   */\n      swap6\n      pop\n        /* \"#utility.yul\":7294:7298   */\n      dup1\n        /* \"#utility.yul\":7290:7299   */\n      not\n        /* \"#utility.yul\":7283:7288   */\n      dup5\n        /* \"#utility.yul\":7279:7300   */\n      and\n        /* \"#utility.yul\":7270:7300   */\n      swap4\n      pop\n        /* \"#utility.yul\":7343:7347   */\n      dup1\n        /* \"#utility.yul\":7333:7341   */\n      dup7\n        /* \"#utility.yul\":7329:7348   */\n      and\n        /* \"#utility.yul\":7322:7327   */\n      dup5\n        /* \"#utility.yul\":7319:7349   */\n      or\n        /* \"#utility.yul\":7309:7349   */\n      swap3\n      pop\n        /* \"#utility.yul\":7038:7355   */\n      pop\n      pop\n        /* \"#utility.yul\":6962:7355   */\n      swap4\n      swap3\n      pop\n      pop\n      pop\n      jump\t// out\n        /* \"#utility.yul\":7361:7421   */\n    tag_80:\n        /* \"#utility.yul\":7389:7392   */\n      0x00\n        /* \"#utility.yul\":7410:7415   */\n      dup2\n        /* \"#utility.yul\":7403:7415   */\n      swap1\n      pop\n        /* \"#utility.yul\":7361:7421   */\n      swap2\n      swap1\n      pop\n      jump\t// out\n        /* \"#utility.yul\":7427:7569   */\n    tag_81:\n        /* \"#utility.yul\":7477:7486   */\n      0x00\n        /* \"#utility.yul\":7510:7563   */\n      tag_171\n        /* \"#utility.yul\":7528:7562   */\n      tag_172\n        /* \"#utility.yul\":7537:7561   */\n      tag_173\n        /* \"#utility.yul\":7555:7560   */\n      dup5\n        /* \"#utility.yul\":7537:7561   */\n      tag_59\n      jump\t// in\n    tag_173:\n        /* \"#utility.yul\":7528:7562   */\n      tag_80\n      jump\t// in\n    tag_172:\n        /* \"#utility.yul\":7510:7563   */\n      tag_59\n      jump\t// in\n    tag_171:\n        /* \"#utility.yul\":7497:7563   */\n      swap1\n      pop\n        /* \"#utility.yul\":7427:7569   */\n      swap2\n      swap1\n      pop\n      jump\t// out\n        /* \"#utility.yul\":7575:7650   */\n    tag_82:\n        /* \"#utility.yul\":7618:7621   */\n      0x00\n        /* \"#utility.yul\":7639:7644   */\n      dup2\n        /* \"#utility.yul\":7632:7644   */\n      swap1\n      pop\n        /* \"#utility.yul\":7575:7650   */\n      swap2\n      swap1\n      pop\n      jump\t// out\n        /* \"#utility.yul\":7656:7925   */\n    tag_83:\n        /* \"#utility.yul\":7766:7805   */\n      tag_176\n        /* \"#utility.yul\":7797:7804   */\n      dup4\n        /* \"#utility.yul\":7766:7805   */\n      tag_81\n      jump\t// in\n    tag_176:\n        /* \"#utility.yul\":7827:7918   */\n      tag_177\n        /* \"#utility.yul\":7876:7917   */\n      tag_178\n        /* \"#utility.yul\":7900:7916   */\n      dup3\n        /* \"#utility.yul\":7876:7917   */\n      tag_82\n      jump\t// in\n    tag_178:\n        /* \"#utility.yul\":7868:7874   */\n      dup5\n        /* \"#utility.yul\":7861:7865   */\n      dup5\n        /* \"#utility.yul\":7855:7866   */\n      sload\n        /* \"#utility.yul\":7827:7918   */\n      tag_79\n      jump\t// in\n    tag_177:\n        /* \"#utility.yul\":7821:7825   */\n      dup3\n        /* \"#utility.yul\":7814:7919   */\n      sstore\n        /* \"#utility.yul\":7732:7925   */\n      pop\n        /* \"#utility.yul\":7656:7925   */\n      pop\n      pop\n      pop\n      jump\t// out\n        /* \"#utility.yul\":7931:8004   */\n    tag_84:\n        /* \"#utility.yul\":7976:7979   */\n      0x00\n        /* \"#utility.yul\":7931:8004   */\n      swap1\n      jump\t// out\n        /* \"#utility.yul\":8010:8199   */\n    tag_85:\n        /* \"#utility.yul\":8087:8119   */\n      tag_181\n      tag_84\n      jump\t// in\n    tag_181:\n        /* \"#utility.yul\":8128:8193   */\n      tag_182\n        /* \"#utility.yul\":8186:8192   */\n      dup2\n        /* \"#utility.yul\":8178:8184   */\n      dup5\n        /* \"#utility.yul\":8172:8176   */\n      dup5\n        /* \"#utility.yul\":8128:8193   */\n      tag_83\n      jump\t// in\n    tag_182:\n        /* \"#utility.yul\":8063:8199   */\n      pop\n        /* \"#utility.yul\":8010:8199   */\n      pop\n      pop\n      jump\t// out\n        /* \"#utility.yul\":8205:8391   */\n    tag_86:\n        /* \"#utility.yul\":8265:8385   */\n    tag_184:\n        /* \"#utility.yul\":8282:8285   */\n      dup2\n        /* \"#utility.yul\":8275:8280   */\n      dup2\n        /* \"#utility.yul\":8272:8286   */\n      lt\n        /* \"#utility.yul\":8265:8385   */\n      iszero\n      tag_186\n      jumpi\n        /* \"#utility.yul\":8336:8375   */\n      tag_187\n        /* \"#utility.yul\":8373:8374   */\n      0x00\n        /* \"#utility.yul\":8366:8371   */\n      dup3\n        /* \"#utility.yul\":8336:8375   */\n      tag_85\n      jump\t// in\n    tag_187:\n        /* \"#utility.yul\":8309:8310   */\n      0x01\n        /* \"#utility.yul\":8302:8307   */\n      dup2\n        /* \"#utility.yul\":8298:8311   */\n      add\n        /* \"#utility.yul\":8289:8311   */\n      swap1\n      pop\n        /* \"#utility.yul\":8265:8385   */\n      jump(tag_184)\n    tag_186:\n        /* \"#utility.yul\":8205:8391   */\n      pop\n      pop\n      jump\t// out\n        /* \"#utility.yul\":8397:8940   */\n    tag_87:\n        /* \"#utility.yul\":8498:8500   */\n      0x1f\n        /* \"#utility.yul\":8493:8496   */\n      dup3\n        /* \"#utility.yul\":8490:8501   */\n      gt\n        /* \"#utility.yul\":8487:8933   */\n      iszero\n      tag_189\n      jumpi\n        /* \"#utility.yul\":8532:8570   */\n      tag_190\n        /* \"#utility.yul\":8564:8569   */\n      dup2\n        /* \"#utility.yul\":8532:8570   */\n      tag_76\n      jump\t// in\n    tag_190:\n        /* \"#utility.yul\":8616:8645   */\n      tag_191\n        /* \"#utility.yul\":8634:8644   */\n      dup5\n        /* \"#utility.yul\":8616:8645   */\n      tag_77\n      jump\t// in\n    tag_191:\n        /* \"#utility.yul\":8606:8614   */\n      dup2\n        /* \"#utility.yul\":8602:8646   */\n      add\n        /* \"#utility.yul\":8799:8801   */\n      0x20\n        /* \"#utility.yul\":8787:8797   */\n      dup6\n        /* \"#utility.yul\":8784:8802   */\n      lt\n        /* \"#utility.yul\":8781:8830   */\n      iszero\n      tag_192\n      jumpi\n        /* \"#utility.yul\":8820:8828   */\n      dup2\n        /* \"#utility.yul\":8805:8828   */\n      swap1\n      pop\n        /* \"#utility.yul\":8781:8830   */\n    tag_192:\n        /* \"#utility.yul\":8843:8923   */\n      tag_193\n        /* \"#utility.yul\":8899:8921   */\n      tag_194\n        /* \"#utility.yul\":8917:8920   */\n      dup6\n        /* \"#utility.yul\":8899:8921   */\n      tag_77\n      jump\t// in\n    tag_194:\n        /* \"#utility.yul\":8889:8897   */\n      dup4\n        /* \"#utility.yul\":8885:8922   */\n      add\n        /* \"#utility.yul\":8872:8883   */\n      dup3\n        /* \"#utility.yul\":8843:8923   */\n      tag_86\n      jump\t// in\n    tag_193:\n        /* \"#utility.yul\":8502:8933   */\n      pop\n      pop\n        /* \"#utility.yul\":8487:8933   */\n    tag_189:\n        /* \"#utility.yul\":8397:8940   */\n      pop\n      pop\n      pop\n      jump\t// out\n        /* \"#utility.yul\":8946:9063   */\n    tag_88:\n        /* \"#utility.yul\":9000:9008   */\n      0x00\n        /* \"#utility.yul\":9050:9055   */\n      dup3\n        /* \"#utility.yul\":9044:9048   */\n      dup3\n        /* \"#utility.yul\":9040:9056   */\n      shr\n        /* \"#utility.yul\":9019:9056   */\n      swap1\n      pop\n        /* \"#utility.yul\":8946:9063   */\n      swap3\n      swap2\n      pop\n      pop\n      jump\t// out\n        /* \"#utility.yul\":9069:9238   */\n    tag_89:\n        /* \"#utility.yul\":9113:9119   */\n      0x00\n        /* \"#utility.yul\":9146:9197   */\n      tag_197\n        /* \"#utility.yul\":9194:9195   */\n      0x00\n        /* \"#utility.yul\":9190:9196   */\n      not\n        /* \"#utility.yul\":9182:9187   */\n      dup5\n        /* \"#utility.yul\":9179:9180   */\n      0x08\n        /* \"#utility.yul\":9175:9188   */\n      mul\n        /* \"#utility.yul\":9146:9197   */\n      tag_88\n      jump\t// in\n    tag_197:\n        /* \"#utility.yul\":9142:9198   */\n      not\n        /* \"#utility.yul\":9227:9231   */\n      dup1\n        /* \"#utility.yul\":9221:9225   */\n      dup4\n        /* \"#utility.yul\":9217:9232   */\n      and\n        /* \"#utility.yul\":9207:9232   */\n      swap2\n      pop\n        /* \"#utility.yul\":9120:9238   */\n      pop\n        /* \"#utility.yul\":9069:9238   */\n      swap3\n      swap2\n      pop\n      pop\n      jump\t// out\n        /* \"#utility.yul\":9243:9538   */\n    tag_90:\n        /* \"#utility.yul\":9319:9323   */\n      0x00\n        /* \"#utility.yul\":9465:9494   */\n      tag_199\n        /* \"#utility.yul\":9490:9493   */\n      dup4\n        /* \"#utility.yul\":9484:9488   */\n      dup4\n        /* \"#utility.yul\":9465:9494   */\n      tag_89\n      jump\t// in\n    tag_199:\n        /* \"#utility.yul\":9457:9494   */\n      swap2\n      pop\n        /* \"#utility.yul\":9527:9530   */\n      dup3\n        /* \"#utility.yul\":9524:9525   */\n      0x02\n        /* \"#utility.yul\":9520:9531   */\n      mul\n        /* \"#utility.yul\":9514:9518   */\n      dup3\n        /* \"#utility.yul\":9511:9532   */\n      or\n        /* \"#utility.yul\":9503:9532   */\n      swap1\n      pop\n        /* \"#utility.yul\":9243:9538   */\n      swap3\n      swap2\n      pop\n      pop\n      jump\t// out\n        /* \"#utility.yul\":9543:10938   */\n    tag_36:\n        /* \"#utility.yul\":9660:9697   */\n      tag_201\n        /* \"#utility.yul\":9693:9696   */\n      dup3\n        /* \"#utility.yul\":9660:9697   */\n      tag_54\n      jump\t// in\n    tag_201:\n        /* \"#utility.yul\":9762:9780   */\n      0xffffffffffffffff\n        /* \"#utility.yul\":9754:9760   */\n      dup2\n        /* \"#utility.yul\":9751:9781   */\n      gt\n        /* \"#utility.yul\":9748:9804   */\n      iszero\n      tag_202\n      jumpi\n        /* \"#utility.yul\":9784:9802   */\n      tag_203\n      tag_66\n      jump\t// in\n    tag_203:\n        /* \"#utility.yul\":9748:9804   */\n    tag_202:\n        /* \"#utility.yul\":9828:9866   */\n      tag_204\n        /* \"#utility.yul\":9860:9864   */\n      dup3\n        /* \"#utility.yul\":9854:9865   */\n      sload\n        /* \"#utility.yul\":9828:9866   */\n      tag_19\n      jump\t// in\n    tag_204:\n        /* \"#utility.yul\":9913:9980   */\n      tag_205\n        /* \"#utility.yul\":9973:9979   */\n      dup3\n        /* \"#utility.yul\":9965:9971   */\n      dup3\n        /* \"#utility.yul\":9959:9963   */\n      dup6\n        /* \"#utility.yul\":9913:9980   */\n      tag_87\n      jump\t// in\n    tag_205:\n        /* \"#utility.yul\":10007:10008   */\n      0x00\n        /* \"#utility.yul\":10031:10035   */\n      0x20\n        /* \"#utility.yul\":10018:10035   */\n      swap1\n      pop\n        /* \"#utility.yul\":10063:10065   */\n      0x1f\n        /* \"#utility.yul\":10055:10061   */\n      dup4\n        /* \"#utility.yul\":10052:10066   */\n      gt\n        /* \"#utility.yul\":10080:10081   */\n      0x01\n        /* \"#utility.yul\":10075:10693   */\n      dup2\n      eq\n      tag_207\n      jumpi\n        /* \"#utility.yul\":10737:10738   */\n      0x00\n        /* \"#utility.yul\":10754:10760   */\n      dup5\n        /* \"#utility.yul\":10751:10828   */\n      iszero\n      tag_208\n      jumpi\n        /* \"#utility.yul\":10803:10812   */\n      dup3\n        /* \"#utility.yul\":10798:10801   */\n      dup8\n        /* \"#utility.yul\":10794:10813   */\n      add\n        /* \"#utility.yul\":10788:10814   */\n      mload\n        /* \"#utility.yul\":10779:10814   */\n      swap1\n      pop\n        /* \"#utility.yul\":10751:10828   */\n    tag_208:\n        /* \"#utility.yul\":10854:10921   */\n      tag_209\n        /* \"#utility.yul\":10914:10920   */\n      dup6\n        /* \"#utility.yul\":10907:10912   */\n      dup3\n        /* \"#utility.yul\":10854:10921   */\n      tag_90\n      jump\t// in\n    tag_209:\n        /* \"#utility.yul\":10848:10852   */\n      dup7\n        /* \"#utility.yul\":10841:10922   */\n      sstore\n        /* \"#utility.yul\":10710:10932   */\n      pop\n        /* \"#utility.yul\":10045:10932   */\n      jump(tag_206)\n        /* \"#utility.yul\":10075:10693   */\n    tag_207:\n        /* \"#utility.yul\":10127:10131   */\n      0x1f\n        /* \"#utility.yul\":10123:10132   */\n      not\n        /* \"#utility.yul\":10115:10121   */\n      dup5\n        /* \"#utility.yul\":10111:10133   */\n      and\n        /* \"#utility.yul\":10161:10198   */\n      tag_210\n        /* \"#utility.yul\":10193:10197   */\n      dup7\n        /* \"#utility.yul\":10161:10198   */\n      tag_76\n      jump\t// in\n    tag_210:\n        /* \"#utility.yul\":10220:10221   */\n      0x00\n        /* \"#utility.yul\":10234:10442   */\n    tag_211:\n        /* \"#utility.yul\":10248:10255   */\n      dup3\n        /* \"#utility.yul\":10245:10246   */\n      dup2\n        /* \"#utility.yul\":10242:10256   */\n      lt\n        /* \"#utility.yul\":10234:10442   */\n      iszero\n      tag_213\n      jumpi\n        /* \"#utility.yul\":10327:10336   */\n      dup5\n        /* \"#utility.yul\":10322:10325   */\n      dup10\n        /* \"#utility.yul\":10318:10337   */\n      add\n        /* \"#utility.yul\":10312:10338   */\n      mload\n        /* \"#utility.yul\":10304:10310   */\n      dup3\n        /* \"#utility.yul\":10297:10339   */\n      sstore\n        /* \"#utility.yul\":10378:10379   */\n      0x01\n        /* \"#utility.yul\":10370:10376   */\n      dup3\n        /* \"#utility.yul\":10366:10380   */\n      add\n        /* \"#utility.yul\":10356:10380   */\n      swap2\n      pop\n        /* \"#utility.yul\":10425:10427   */\n      0x20\n        /* \"#utility.yul\":10414:10423   */\n      dup6\n        /* \"#utility.yul\":10410:10428   */\n      add\n        /* \"#utility.yul\":10397:10428   */\n      swap5\n      pop\n        /* \"#utility.yul\":10271:10275   */\n      0x20\n        /* \"#utility.yul\":10268:10269   */\n      dup2\n        /* \"#utility.yul\":10264:10276   */\n      add\n        /* \"#utility.yul\":10259:10276   */\n      swap1\n      pop\n        /* \"#utility.yul\":10234:10442   */\n      jump(tag_211)\n    tag_213:\n        /* \"#utility.yul\":10470:10476   */\n      dup7\n        /* \"#utility.yul\":10461:10468   */\n      dup4\n        /* \"#utility.yul\":10458:10477   */\n      lt\n        /* \"#utility.yul\":10455:10634   */\n      iszero\n      tag_214\n      jumpi\n        /* \"#utility.yul\":10528:10537   */\n      dup5\n        /* \"#utility.yul\":10523:10526   */\n      dup10\n        /* \"#utility.yul\":10519:10538   */\n      add\n        /* \"#utility.yul\":10513:10539   */\n      mload\n        /* \"#utility.yul\":10571:10619   */\n      tag_215\n        /* \"#utility.yul\":10613:10617   */\n      0x1f\n        /* \"#utility.yul\":10605:10611   */\n      dup10\n        /* \"#utility.yul\":10601:10618   */\n      and\n        /* \"#utility.yul\":10590:10599   */\n      dup3\n        /* \"#utility.yul\":10571:10619   */\n      tag_89\n      jump\t// in\n    tag_215:\n        /* \"#utility.yul\":10563:10569   */\n      dup4\n        /* \"#utility.yul\":10556:10620   */\n      sstore\n        /* \"#utility.yul\":10478:10634   */\n      pop\n        /* \"#utility.yul\":10455:10634   */\n    tag_214:\n        /* \"#utility.yul\":10680:10681   */\n      0x01\n        /* \"#utility.yul\":10676:10677   */\n      0x02\n        /* \"#utility.yul\":10668:10674   */\n      dup9\n        /* \"#utility.yul\":10664:10678   */\n      mul\n        /* \"#utility.yul\":10660:10682   */\n      add\n        /* \"#utility.yul\":10654:10658   */\n      dup9\n        /* \"#utility.yul\":10647:10683   */\n      sstore\n        /* \"#utility.yul\":10082:10693   */\n      pop\n      pop\n      pop\n        /* \"#utility.yul\":10045:10932   */\n    tag_206:\n      pop\n        /* \"#utility.yul\":9635:10938   */\n      pop\n      pop\n      pop\n        /* \"#utility.yul\":9543:10938   */\n      pop\n      pop\n      jump\t// out\n\n    auxdata: 0xa2646970667358221220c2e1f7be1c7a387d29bf7b21cae256ee5a7c1b0c0c274b8d517cb33509407f4264736f6c63430008120033\n}\n",
				"bytecode": {
					"linkReferences": {},
					"object": "608060405234801561001057600080fd5b50610ae5806100206000396000f3fe608060405234801561001057600080fd5b50600436106100415760003560e01c8063ce6d41de14610046578063d3e0aedf14610067578063e21f37ce14610083575b600080fd5b61004e6100a4565b60405161005e9493929190610547565b60405180910390f35b610081600480360381019061007c9190610716565b610271565b005b61008b6102e8565b60405161009b9493929190610547565b60405180910390f35b6060806060600080600001600060010160006002016000600301548380546100cb90610800565b80601f01602080910402602001604051908101604052809291908181526020018280546100f790610800565b80156101445780601f1061011957610100808354040283529160200191610144565b820191906000526020600020905b81548152906001019060200180831161012757829003601f168201915b5050505050935082805461015790610800565b80601f016020809104026020016040519081016040528092919081815260200182805461018390610800565b80156101d05780601f106101a5576101008083540402835291602001916101d0565b820191906000526020600020905b8154815290600101906020018083116101b357829003601f168201915b505050505092508180546101e390610800565b80601f016020809104026020016040519081016040528092919081815260200182805461020f90610800565b801561025c5780601f106102315761010080835404028352916020019161025c565b820191906000526020600020905b81548152906001019060200180831161023f57829003601f168201915b50505050509150935093509350935090919293565b6040518060800160405280858152602001848152602001838152602001828152506000808201518160000190816102a891906109dd565b5060208201518160010190816102be91906109dd565b5060408201518160020190816102d491906109dd565b506060820151816003015590505050505050565b60008060000180546102f990610800565b80601f016020809104026020016040519081016040528092919081815260200182805461032590610800565b80156103725780601f1061034757610100808354040283529160200191610372565b820191906000526020600020905b81548152906001019060200180831161035557829003601f168201915b50505050509080600101805461038790610800565b80601f01602080910402602001604051908101604052809291908181526020018280546103b390610800565b80156104005780601f106103d557610100808354040283529160200191610400565b820191906000526020600020905b8154815290600101906020018083116103e357829003601f168201915b50505050509080600201805461041590610800565b80601f016020809104026020016040519081016040528092919081815260200182805461044190610800565b801561048e5780601f106104635761010080835404028352916020019161048e565b820191906000526020600020905b81548152906001019060200180831161047157829003601f168201915b5050505050908060030154905084565b600081519050919050565b600082825260208201905092915050565b60005b838110156104d85780820151818401526020810190506104bd565b60008484015250505050565b6000601f19601f8301169050919050565b60006105008261049e565b61050a81856104a9565b935061051a8185602086016104ba565b610523816104e4565b840191505092915050565b6000819050919050565b6105418161052e565b82525050565b6000608082019050818103600083015261056181876104f5565b9050818103602083015261057581866104f5565b9050818103604083015261058981856104f5565b90506105986060830184610538565b95945050505050565b6000604051905090565b600080fd5b600080fd5b600080fd5b600080fd5b7f4e487b7100000000000000000000000000000000000000000000000000000000600052604160045260246000fd5b6105f7826104e4565b810181811067ffffffffffffffff82111715610616576106156105bf565b5b80604052505050565b60006106296105a1565b905061063582826105ee565b919050565b600067ffffffffffffffff821115610655576106546105bf565b5b61065e826104e4565b9050602081019050919050565b82818337600083830152505050565b600061068d6106888461063a565b61061f565b9050828152602081018484840111156106a9576106a86105ba565b5b6106b484828561066b565b509392505050565b600082601f8301126106d1576106d06105b5565b5b81356106e184826020860161067a565b91505092915050565b6106f38161052e565b81146106fe57600080fd5b50565b600081359050610710816106ea565b92915050565b600080600080608085870312156107305761072f6105ab565b5b600085013567ffffffffffffffff81111561074e5761074d6105b0565b5b61075a878288016106bc565b945050602085013567ffffffffffffffff81111561077b5761077a6105b0565b5b610787878288016106bc565b935050604085013567ffffffffffffffff8111156107a8576107a76105b0565b5b6107b4878288016106bc565b92505060606107c587828801610701565b91505092959194509250565b7f4e487b7100000000000000000000000000000000000000000000000000000000600052602260045260246000fd5b6000600282049050600182168061081857607f821691505b60208210810361082b5761082a6107d1565b5b50919050565b60008190508160005260206000209050919050565b60006020601f8301049050919050565b600082821b905092915050565b6000600883026108937fffffffffffffffffffffffffffffffffffffffffffffffffffffffffffffffff82610856565b61089d8683610856565b95508019841693508086168417925050509392505050565b6000819050919050565b60006108da6108d56108d08461052e565b6108b5565b61052e565b9050919050565b6000819050919050565b6108f4836108bf565b610908610900826108e1565b848454610863565b825550505050565b600090565b61091d610910565b6109288184846108eb565b505050565b5b8181101561094c57610941600082610915565b60018101905061092e565b5050565b601f8211156109915761096281610831565b61096b84610846565b8101602085101561097a578190505b61098e61098685610846565b83018261092d565b50505b505050565b600082821c905092915050565b60006109b460001984600802610996565b1980831691505092915050565b60006109cd83836109a3565b9150826002028217905092915050565b6109e68261049e565b67ffffffffffffffff8111156109ff576109fe6105bf565b5b610a098254610800565b610a14828285610950565b600060209050601f831160018114610a475760008415610a35578287015190505b610a3f85826109c1565b865550610aa7565b601f198416610a5586610831565b60005b82811015610a7d57848901518255600182019150602085019450602081019050610a58565b86831015610a9a5784890151610a96601f8916826109a3565b8355505b6001600288020188555050505b50505050505056fea2646970667358221220c2e1f7be1c7a387d29bf7b21cae256ee5a7c1b0c0c274b8d517cb33509407f4264736f6c63430008120033",
					"opcodes": "PUSH1 0x80 PUSH1 0x40 MSTORE CALLVALUE DUP1 ISZERO PUSH2 0x10 JUMPI PUSH1 0x0 DUP1 REVERT JUMPDEST POP PUSH2 0xAE5 DUP1 PUSH2 0x20 PUSH1 0x0 CODECOPY PUSH1 0x0 RETURN INVALID PUSH1 0x80 PUSH1 0x40 MSTORE CALLVALUE DUP1 ISZERO PUSH2 0x10 JUMPI PUSH1 0x0 DUP1 REVERT JUMPDEST POP PUSH1 0x4 CALLDATASIZE LT PUSH2 0x41 JUMPI PUSH1 0x0 CALLDATALOAD PUSH1 0xE0 SHR DUP1 PUSH4 0xCE6D41DE EQ PUSH2 0x46 JUMPI DUP1 PUSH4 0xD3E0AEDF EQ PUSH2 0x67 JUMPI DUP1 PUSH4 0xE21F37CE EQ PUSH2 0x83 JUMPI JUMPDEST PUSH1 0x0 DUP1 REVERT JUMPDEST PUSH2 0x4E PUSH2 0xA4 JUMP JUMPDEST PUSH1 0x40 MLOAD PUSH2 0x5E SWAP5 SWAP4 SWAP3 SWAP2 SWAP1 PUSH2 0x547 JUMP JUMPDEST PUSH1 0x40 MLOAD DUP1 SWAP2 SUB SWAP1 RETURN JUMPDEST PUSH2 0x81 PUSH1 0x4 DUP1 CALLDATASIZE SUB DUP2 ADD SWAP1 PUSH2 0x7C SWAP2 SWAP1 PUSH2 0x716 JUMP JUMPDEST PUSH2 0x271 JUMP JUMPDEST STOP JUMPDEST PUSH2 0x8B PUSH2 0x2E8 JUMP JUMPDEST PUSH1 0x40 MLOAD PUSH2 0x9B SWAP5 SWAP4 SWAP3 SWAP2 SWAP1 PUSH2 0x547 JUMP JUMPDEST PUSH1 0x40 MLOAD DUP1 SWAP2 SUB SWAP1 RETURN JUMPDEST PUSH1 0x60 DUP1 PUSH1 0x60 PUSH1 0x0 DUP1 PUSH1 0x0 ADD PUSH1 0x0 PUSH1 0x1 ADD PUSH1 0x0 PUSH1 0x2 ADD PUSH1 0x0 PUSH1 0x3 ADD SLOAD DUP4 DUP1 SLOAD PUSH2 0xCB SWAP1 PUSH2 0x800 JUMP JUMPDEST DUP1 PUSH1 0x1F ADD PUSH1 0x20 DUP1 SWAP2 DIV MUL PUSH1 0x20 ADD PUSH1 0x40 MLOAD SWAP1 DUP2 ADD PUSH1 0x40 MSTORE DUP1 SWAP3 SWAP2 SWAP1 DUP2 DUP2 MSTORE PUSH1 0x20 ADD DUP3 DUP1 SLOAD PUSH2 0xF7 SWAP1 PUSH2 0x800 JUMP JUMPDEST DUP1 ISZERO PUSH2 0x144 JUMPI DUP1 PUSH1 0x1F LT PUSH2 0x119 JUMPI PUSH2 0x100 DUP1 DUP4 SLOAD DIV MUL DUP4 MSTORE SWAP2 PUSH1 0x20 ADD SWAP2 PUSH2 0x144 JUMP JUMPDEST DUP3 ADD SWAP2 SWAP1 PUSH1 0x0 MSTORE PUSH1 0x20 PUSH1 0x0 KECCAK256 SWAP1 JUMPDEST DUP2 SLOAD DUP2 MSTORE SWAP1 PUSH1 0x1 ADD SWAP1 PUSH1 0x20 ADD DUP1 DUP4 GT PUSH2 0x127 JUMPI DUP3 SWAP1 SUB PUSH1 0x1F AND DUP3 ADD SWAP2 JUMPDEST POP POP POP POP POP SWAP4 POP DUP3 DUP1 SLOAD PUSH2 0x157 SWAP1 PUSH2 0x800 JUMP JUMPDEST DUP1 PUSH1 0x1F ADD PUSH1 0x20 DUP1 SWAP2 DIV MUL PUSH1 0x20 ADD PUSH1 0x40 MLOAD SWAP1 DUP2 ADD PUSH1 0x40 MSTORE DUP1 SWAP3 SWAP2 SWAP1 DUP2 DUP2 MSTORE PUSH1 0x20 ADD DUP3 DUP1 SLOAD PUSH2 0x183 SWAP1 PUSH2 0x800 JUMP JUMPDEST DUP1 ISZERO PUSH2 0x1D0 JUMPI DUP1 PUSH1 0x1F LT PUSH2 0x1A5 JUMPI PUSH2 0x100 DUP1 DUP4 SLOAD DIV MUL DUP4 MSTORE SWAP2 PUSH1 0x20 ADD SWAP2 PUSH2 0x1D0 JUMP JUMPDEST DUP3 ADD SWAP2 SWAP1 PUSH1 0x0 MSTORE PUSH1 0x20 PUSH1 0x0 KECCAK256 SWAP1 JUMPDEST DUP2 SLOAD DUP2 MSTORE SWAP1 PUSH1 0x1 ADD SWAP1 PUSH1 0x20 ADD DUP1 DUP4 GT PUSH2 0x1B3 JUMPI DUP3 SWAP1 SUB PUSH1 0x1F AND DUP3 ADD SWAP2 JUMPDEST POP POP POP POP POP SWAP3 POP DUP2 DUP1 SLOAD PUSH2 0x1E3 SWAP1 PUSH2 0x800 JUMP JUMPDEST DUP1 PUSH1 0x1F ADD PUSH1 0x20 DUP1 SWAP2 DIV MUL PUSH1 0x20 ADD PUSH1 0x40 MLOAD SWAP1 DUP2 ADD PUSH1 0x40 MSTORE DUP1 SWAP3 SWAP2 SWAP1 DUP2 DUP2 MSTORE PUSH1 0x20 ADD DUP3 DUP1 SLOAD PUSH2 0x20F SWAP1 PUSH2 0x800 JUMP JUMPDEST DUP1 ISZERO PUSH2 0x25C JUMPI DUP1 PUSH1 0x1F LT PUSH2 0x231 JUMPI PUSH2 0x100 DUP1 DUP4 SLOAD DIV MUL DUP4 MSTORE SWAP2 PUSH1 0x20 ADD SWAP2 PUSH2 0x25C JUMP JUMPDEST DUP3 ADD SWAP2 SWAP1 PUSH1 0x0 MSTORE PUSH1 0x20 PUSH1 0x0 KECCAK256 SWAP1 JUMPDEST DUP2 SLOAD DUP2 MSTORE SWAP1 PUSH1 0x1 ADD SWAP1 PUSH1 0x20 ADD DUP1 DUP4 GT PUSH2 0x23F JUMPI DUP3 SWAP1 SUB PUSH1 0x1F AND DUP3 ADD SWAP2 JUMPDEST POP POP POP POP POP SWAP2 POP SWAP4 POP SWAP4 POP SWAP4 POP SWAP4 POP SWAP1 SWAP2 SWAP3 SWAP4 JUMP JUMPDEST PUSH1 0x40 MLOAD DUP1 PUSH1 0x80 ADD PUSH1 0x40 MSTORE DUP1 DUP6 DUP2 MSTORE PUSH1 0x20 ADD DUP5 DUP2 MSTORE PUSH1 0x20 ADD DUP4 DUP2 MSTORE PUSH1 0x20 ADD DUP3 DUP2 MSTORE POP PUSH1 0x0 DUP1 DUP3 ADD MLOAD DUP2 PUSH1 0x0 ADD SWAP1 DUP2 PUSH2 0x2A8 SWAP2 SWAP1 PUSH2 0x9DD JUMP JUMPDEST POP PUSH1 0x20 DUP3 ADD MLOAD DUP2 PUSH1 0x1 ADD SWAP1 DUP2 PUSH2 0x2BE SWAP2 SWAP1 PUSH2 0x9DD JUMP JUMPDEST POP PUSH1 0x40 DUP3 ADD MLOAD DUP2 PUSH1 0x2 ADD SWAP1 DUP2 PUSH2 0x2D4 SWAP2 SWAP1 PUSH2 0x9DD JUMP JUMPDEST POP PUSH1 0x60 DUP3 ADD MLOAD DUP2 PUSH1 0x3 ADD SSTORE SWAP1 POP POP POP POP POP POP JUMP JUMPDEST PUSH1 0x0 DUP1 PUSH1 0x0 ADD DUP1 SLOAD PUSH2 0x2F9 SWAP1 PUSH2 0x800 JUMP JUMPDEST DUP1 PUSH1 0x1F ADD PUSH1 0x20 DUP1 SWAP2 DIV MUL PUSH1 0x20 ADD PUSH1 0x40 MLOAD SWAP1 DUP2 ADD PUSH1 0x40 MSTORE DUP1 SWAP3 SWAP2 SWAP1 DUP2 DUP2 MSTORE PUSH1 0x20 ADD DUP3 DUP1 SLOAD PUSH2 0x325 SWAP1 PUSH2 0x800 JUMP JUMPDEST DUP1 ISZERO PUSH2 0x372 JUMPI DUP1 PUSH1 0x1F LT PUSH2 0x347 JUMPI PUSH2 0x100 DUP1 DUP4 SLOAD DIV MUL DUP4 MSTORE SWAP2 PUSH1 0x20 ADD SWAP2 PUSH2 0x372 JUMP JUMPDEST DUP3 ADD SWAP2 SWAP1 PUSH1 0x0 MSTORE PUSH1 0x20 PUSH1 0x0 KECCAK256 SWAP1 JUMPDEST DUP2 SLOAD DUP2 MSTORE SWAP1 PUSH1 0x1 ADD SWAP1 PUSH1 0x20 ADD DUP1 DUP4 GT PUSH2 0x355 JUMPI DUP3 SWAP1 SUB PUSH1 0x1F AND DUP3 ADD SWAP2 JUMPDEST POP POP POP POP POP SWAP1 DUP1 PUSH1 0x1 ADD DUP1 SLOAD PUSH2 0x387 SWAP1 PUSH2 0x800 JUMP JUMPDEST DUP1 PUSH1 0x1F ADD PUSH1 0x20 DUP1 SWAP2 DIV MUL PUSH1 0x20 ADD PUSH1 0x40 MLOAD SWAP1 DUP2 ADD PUSH1 0x40 MSTORE DUP1 SWAP3 SWAP2 SWAP1 DUP2 DUP2 MSTORE PUSH1 0x20 ADD DUP3 DUP1 SLOAD PUSH2 0x3B3 SWAP1 PUSH2 0x800 JUMP JUMPDEST DUP1 ISZERO PUSH2 0x400 JUMPI DUP1 PUSH1 0x1F LT PUSH2 0x3D5 JUMPI PUSH2 0x100 DUP1 DUP4 SLOAD DIV MUL DUP4 MSTORE SWAP2 PUSH1 0x20 ADD SWAP2 PUSH2 0x400 JUMP JUMPDEST DUP3 ADD SWAP2 SWAP1 PUSH1 0x0 MSTORE PUSH1 0x20 PUSH1 0x0 KECCAK256 SWAP1 JUMPDEST DUP2 SLOAD DUP2 MSTORE SWAP1 PUSH1 0x1 ADD SWAP1 PUSH1 0x20 ADD DUP1 DUP4 GT PUSH2 0x3E3 JUMPI DUP3 SWAP1 SUB PUSH1 0x1F AND DUP3 ADD SWAP2 JUMPDEST POP POP POP POP POP SWAP1 DUP1 PUSH1 0x2 ADD DUP1 SLOAD PUSH2 0x415 SWAP1 PUSH2 0x800 JUMP JUMPDEST DUP1 PUSH1 0x1F ADD PUSH1 0x20 DUP1 SWAP2 DIV MUL PUSH1 0x20 ADD PUSH1 0x40 MLOAD SWAP1 DUP2 ADD PUSH1 0x40 MSTORE DUP1 SWAP3 SWAP2 SWAP1 DUP2 DUP2 MSTORE PUSH1 0x20 ADD DUP3 DUP1 SLOAD PUSH2 0x441 SWAP1 PUSH2 0x800 JUMP JUMPDEST DUP1 ISZERO PUSH2 0x48E JUMPI DUP1 PUSH1 0x1F LT PUSH2 0x463 JUMPI PUSH2 0x100 DUP1 DUP4 SLOAD DIV MUL DUP4 MSTORE SWAP2 PUSH1 0x20 ADD SWAP2 PUSH2 0x48E JUMP JUMPDEST DUP3 ADD SWAP2 SWAP1 PUSH1 0x0 MSTORE PUSH1 0x20 PUSH1 0x0 KECCAK256 SWAP1 JUMPDEST DUP2 SLOAD DUP2 MSTORE SWAP1 PUSH1 0x1 ADD SWAP1 PUSH1 0x20 ADD DUP1 DUP4 GT PUSH2 0x471 JUMPI DUP3 SWAP1 SUB PUSH1 0x1F AND DUP3 ADD SWAP2 JUMPDEST POP POP POP POP POP SWAP1 DUP1 PUSH1 0x3 ADD SLOAD SWAP1 POP DUP5 JUMP JUMPDEST PUSH1 0x0 DUP2 MLOAD SWAP1 POP SWAP2 SWAP1 POP JUMP JUMPDEST PUSH1 0x0 DUP3 DUP3 MSTORE PUSH1 0x20 DUP3 ADD SWAP1 POP SWAP3 SWAP2 POP POP JUMP JUMPDEST PUSH1 0x0 JUMPDEST DUP4 DUP2 LT ISZERO PUSH2 0x4D8 JUMPI DUP1 DUP3 ADD MLOAD DUP2 DUP5 ADD MSTORE PUSH1 0x20 DUP2 ADD SWAP1 POP PUSH2 0x4BD JUMP JUMPDEST PUSH1 0x0 DUP5 DUP5 ADD MSTORE POP POP POP POP JUMP JUMPDEST PUSH1 0x0 PUSH1 0x1F NOT PUSH1 0x1F DUP4 ADD AND SWAP1 POP SWAP2 SWAP1 POP JUMP JUMPDEST PUSH1 0x0 PUSH2 0x500 DUP3 PUSH2 0x49E JUMP JUMPDEST PUSH2 0x50A DUP2 DUP6 PUSH2 0x4A9 JUMP JUMPDEST SWAP4 POP PUSH2 0x51A DUP2 DUP6 PUSH1 0x20 DUP7 ADD PUSH2 0x4BA JUMP JUMPDEST PUSH2 0x523 DUP2 PUSH2 0x4E4 JUMP JUMPDEST DUP5 ADD SWAP2 POP POP SWAP3 SWAP2 POP POP JUMP JUMPDEST PUSH1 0x0 DUP2 SWAP1 POP SWAP2 SWAP1 POP JUMP JUMPDEST PUSH2 0x541 DUP2 PUSH2 0x52E JUMP JUMPDEST DUP3 MSTORE POP POP JUMP JUMPDEST PUSH1 0x0 PUSH1 0x80 DUP3 ADD SWAP1 POP DUP2 DUP2 SUB PUSH1 0x0 DUP4 ADD MSTORE PUSH2 0x561 DUP2 DUP8 PUSH2 0x4F5 JUMP JUMPDEST SWAP1 POP DUP2 DUP2 SUB PUSH1 0x20 DUP4 ADD MSTORE PUSH2 0x575 DUP2 DUP7 PUSH2 0x4F5 JUMP JUMPDEST SWAP1 POP DUP2 DUP2 SUB PUSH1 0x40 DUP4 ADD MSTORE PUSH2 0x589 DUP2 DUP6 PUSH2 0x4F5 JUMP JUMPDEST SWAP1 POP PUSH2 0x598 PUSH1 0x60 DUP4 ADD DUP5 PUSH2 0x538 JUMP JUMPDEST SWAP6 SWAP5 POP POP POP POP POP JUMP JUMPDEST PUSH1 0x0 PUSH1 0x40 MLOAD SWAP1 POP SWAP1 JUMP JUMPDEST PUSH1 0x0 DUP1 REVERT JUMPDEST PUSH1 0x0 DUP1 REVERT JUMPDEST PUSH1 0x0 DUP1 REVERT JUMPDEST PUSH1 0x0 DUP1 REVERT JUMPDEST PUSH32 0x4E487B7100000000000000000000000000000000000000000000000000000000 PUSH1 0x0 MSTORE PUSH1 0x41 PUSH1 0x4 MSTORE PUSH1 0x24 PUSH1 0x0 REVERT JUMPDEST PUSH2 0x5F7 DUP3 PUSH2 0x4E4 JUMP JUMPDEST DUP2 ADD DUP2 DUP2 LT PUSH8 0xFFFFFFFFFFFFFFFF DUP3 GT OR ISZERO PUSH2 0x616 JUMPI PUSH2 0x615 PUSH2 0x5BF JUMP JUMPDEST JUMPDEST DUP1 PUSH1 0x40 MSTORE POP POP POP JUMP JUMPDEST PUSH1 0x0 PUSH2 0x629 PUSH2 0x5A1 JUMP JUMPDEST SWAP1 POP PUSH2 0x635 DUP3 DUP3 PUSH2 0x5EE JUMP JUMPDEST SWAP2 SWAP1 POP JUMP JUMPDEST PUSH1 0x0 PUSH8 0xFFFFFFFFFFFFFFFF DUP3 GT ISZERO PUSH2 0x655 JUMPI PUSH2 0x654 PUSH2 0x5BF JUMP JUMPDEST JUMPDEST PUSH2 0x65E DUP3 PUSH2 0x4E4 JUMP JUMPDEST SWAP1 POP PUSH1 0x20 DUP2 ADD SWAP1 POP SWAP2 SWAP1 POP JUMP JUMPDEST DUP3 DUP2 DUP4 CALLDATACOPY PUSH1 0x0 DUP4 DUP4 ADD MSTORE POP POP POP JUMP JUMPDEST PUSH1 0x0 PUSH2 0x68D PUSH2 0x688 DUP5 PUSH2 0x63A JUMP JUMPDEST PUSH2 0x61F JUMP JUMPDEST SWAP1 POP DUP3 DUP2 MSTORE PUSH1 0x20 DUP2 ADD DUP5 DUP5 DUP5 ADD GT ISZERO PUSH2 0x6A9 JUMPI PUSH2 0x6A8 PUSH2 0x5BA JUMP JUMPDEST JUMPDEST PUSH2 0x6B4 DUP5 DUP3 DUP6 PUSH2 0x66B JUMP JUMPDEST POP SWAP4 SWAP3 POP POP POP JUMP JUMPDEST PUSH1 0x0 DUP3 PUSH1 0x1F DUP4 ADD SLT PUSH2 0x6D1 JUMPI PUSH2 0x6D0 PUSH2 0x5B5 JUMP JUMPDEST JUMPDEST DUP2 CALLDATALOAD PUSH2 0x6E1 DUP5 DUP3 PUSH1 0x20 DUP7 ADD PUSH2 0x67A JUMP JUMPDEST SWAP2 POP POP SWAP3 SWAP2 POP POP JUMP JUMPDEST PUSH2 0x6F3 DUP2 PUSH2 0x52E JUMP JUMPDEST DUP2 EQ PUSH2 0x6FE JUMPI PUSH1 0x0 DUP1 REVERT JUMPDEST POP JUMP JUMPDEST PUSH1 0x0 DUP2 CALLDATALOAD SWAP1 POP PUSH2 0x710 DUP2 PUSH2 0x6EA JUMP JUMPDEST SWAP3 SWAP2 POP POP JUMP JUMPDEST PUSH1 0x0 DUP1 PUSH1 0x0 DUP1 PUSH1 0x80 DUP6 DUP8 SUB SLT ISZERO PUSH2 0x730 JUMPI PUSH2 0x72F PUSH2 0x5AB JUMP JUMPDEST JUMPDEST PUSH1 0x0 DUP6 ADD CALLDATALOAD PUSH8 0xFFFFFFFFFFFFFFFF DUP2 GT ISZERO PUSH2 0x74E JUMPI PUSH2 0x74D PUSH2 0x5B0 JUMP JUMPDEST JUMPDEST PUSH2 0x75A DUP8 DUP3 DUP9 ADD PUSH2 0x6BC JUMP JUMPDEST SWAP5 POP POP PUSH1 0x20 DUP6 ADD CALLDATALOAD PUSH8 0xFFFFFFFFFFFFFFFF DUP2 GT ISZERO PUSH2 0x77B JUMPI PUSH2 0x77A PUSH2 0x5B0 JUMP JUMPDEST JUMPDEST PUSH2 0x787 DUP8 DUP3 DUP9 ADD PUSH2 0x6BC JUMP JUMPDEST SWAP4 POP POP PUSH1 0x40 DUP6 ADD CALLDATALOAD PUSH8 0xFFFFFFFFFFFFFFFF DUP2 GT ISZERO PUSH2 0x7A8 JUMPI PUSH2 0x7A7 PUSH2 0x5B0 JUMP JUMPDEST JUMPDEST PUSH2 0x7B4 DUP8 DUP3 DUP9 ADD PUSH2 0x6BC JUMP JUMPDEST SWAP3 POP POP PUSH1 0x60 PUSH2 0x7C5 DUP8 DUP3 DUP9 ADD PUSH2 0x701 JUMP JUMPDEST SWAP2 POP POP SWAP3 SWAP6 SWAP2 SWAP5 POP SWAP3 POP JUMP JUMPDEST PUSH32 0x4E487B7100000000000000000000000000000000000000000000000000000000 PUSH1 0x0 MSTORE PUSH1 0x22 PUSH1 0x4 MSTORE PUSH1 0x24 PUSH1 0x0 REVERT JUMPDEST PUSH1 0x0 PUSH1 0x2 DUP3 DIV SWAP1 POP PUSH1 0x1 DUP3 AND DUP1 PUSH2 0x818 JUMPI PUSH1 0x7F DUP3 AND SWAP2 POP JUMPDEST PUSH1 0x20 DUP3 LT DUP2 SUB PUSH2 0x82B JUMPI PUSH2 0x82A PUSH2 0x7D1 JUMP JUMPDEST JUMPDEST POP SWAP2 SWAP1 POP JUMP JUMPDEST PUSH1 0x0 DUP2 SWAP1 POP DUP2 PUSH1 0x0 MSTORE PUSH1 0x20 PUSH1 0x0 KECCAK256 SWAP1 POP SWAP2 SWAP1 POP JUMP JUMPDEST PUSH1 0x0 PUSH1 0x20 PUSH1 0x1F DUP4 ADD DIV SWAP1 POP SWAP2 SWAP1 POP JUMP JUMPDEST PUSH1 0x0 DUP3 DUP3 SHL SWAP1 POP SWAP3 SWAP2 POP POP JUMP JUMPDEST PUSH1 0x0 PUSH1 0x8 DUP4 MUL PUSH2 0x893 PUSH32 0xFFFFFFFFFFFFFFFFFFFFFFFFFFFFFFFFFFFFFFFFFFFFFFFFFFFFFFFFFFFFFFFF DUP3 PUSH2 0x856 JUMP JUMPDEST PUSH2 0x89D DUP7 DUP4 PUSH2 0x856 JUMP JUMPDEST SWAP6 POP DUP1 NOT DUP5 AND SWAP4 POP DUP1 DUP7 AND DUP5 OR SWAP3 POP POP POP SWAP4 SWAP3 POP POP POP JUMP JUMPDEST PUSH1 0x0 DUP2 SWAP1 POP SWAP2 SWAP1 POP JUMP JUMPDEST PUSH1 0x0 PUSH2 0x8DA PUSH2 0x8D5 PUSH2 0x8D0 DUP5 PUSH2 0x52E JUMP JUMPDEST PUSH2 0x8B5 JUMP JUMPDEST PUSH2 0x52E JUMP JUMPDEST SWAP1 POP SWAP2 SWAP1 POP JUMP JUMPDEST PUSH1 0x0 DUP2 SWAP1 POP SWAP2 SWAP1 POP JUMP JUMPDEST PUSH2 0x8F4 DUP4 PUSH2 0x8BF JUMP JUMPDEST PUSH2 0x908 PUSH2 0x900 DUP3 PUSH2 0x8E1 JUMP JUMPDEST DUP5 DUP5 SLOAD PUSH2 0x863 JUMP JUMPDEST DUP3 SSTORE POP POP POP POP JUMP JUMPDEST PUSH1 0x0 SWAP1 JUMP JUMPDEST PUSH2 0x91D PUSH2 0x910 JUMP JUMPDEST PUSH2 0x928 DUP2 DUP5 DUP5 PUSH2 0x8EB JUMP JUMPDEST POP POP POP JUMP JUMPDEST JUMPDEST DUP2 DUP2 LT ISZERO PUSH2 0x94C JUMPI PUSH2 0x941 PUSH1 0x0 DUP3 PUSH2 0x915 JUMP JUMPDEST PUSH1 0x1 DUP2 ADD SWAP1 POP PUSH2 0x92E JUMP JUMPDEST POP POP JUMP JUMPDEST PUSH1 0x1F DUP3 GT ISZERO PUSH2 0x991 JUMPI PUSH2 0x962 DUP2 PUSH2 0x831 JUMP JUMPDEST PUSH2 0x96B DUP5 PUSH2 0x846 JUMP JUMPDEST DUP2 ADD PUSH1 0x20 DUP6 LT ISZERO PUSH2 0x97A JUMPI DUP2 SWAP1 POP JUMPDEST PUSH2 0x98E PUSH2 0x986 DUP6 PUSH2 0x846 JUMP JUMPDEST DUP4 ADD DUP3 PUSH2 0x92D JUMP JUMPDEST POP POP JUMPDEST POP POP POP JUMP JUMPDEST PUSH1 0x0 DUP3 DUP3 SHR SWAP1 POP SWAP3 SWAP2 POP POP JUMP JUMPDEST PUSH1 0x0 PUSH2 0x9B4 PUSH1 0x0 NOT DUP5 PUSH1 0x8 MUL PUSH2 0x996 JUMP JUMPDEST NOT DUP1 DUP4 AND SWAP2 POP POP SWAP3 SWAP2 POP POP JUMP JUMPDEST PUSH1 0x0 PUSH2 0x9CD DUP4 DUP4 PUSH2 0x9A3 JUMP JUMPDEST SWAP2 POP DUP3 PUSH1 0x2 MUL DUP3 OR SWAP1 POP SWAP3 SWAP2 POP POP JUMP JUMPDEST PUSH2 0x9E6 DUP3 PUSH2 0x49E JUMP JUMPDEST PUSH8 0xFFFFFFFFFFFFFFFF DUP2 GT ISZERO PUSH2 0x9FF JUMPI PUSH2 0x9FE PUSH2 0x5BF JUMP JUMPDEST JUMPDEST PUSH2 0xA09 DUP3 SLOAD PUSH2 0x800 JUMP JUMPDEST PUSH2 0xA14 DUP3 DUP3 DUP6 PUSH2 0x950 JUMP JUMPDEST PUSH1 0x0 PUSH1 0x20 SWAP1 POP PUSH1 0x1F DUP4 GT PUSH1 0x1 DUP2 EQ PUSH2 0xA47 JUMPI PUSH1 0x0 DUP5 ISZERO PUSH2 0xA35 JUMPI DUP3 DUP8 ADD MLOAD SWAP1 POP JUMPDEST PUSH2 0xA3F DUP6 DUP3 PUSH2 0x9C1 JUMP JUMPDEST DUP7 SSTORE POP PUSH2 0xAA7 JUMP JUMPDEST PUSH1 0x1F NOT DUP5 AND PUSH2 0xA55 DUP7 PUSH2 0x831 JUMP JUMPDEST PUSH1 0x0 JUMPDEST DUP3 DUP2 LT ISZERO PUSH2 0xA7D JUMPI DUP5 DUP10 ADD MLOAD DUP3 SSTORE PUSH1 0x1 DUP3 ADD SWAP2 POP PUSH1 0x20 DUP6 ADD SWAP5 POP PUSH1 0x20 DUP2 ADD SWAP1 POP PUSH2 0xA58 JUMP JUMPDEST DUP7 DUP4 LT ISZERO PUSH2 0xA9A JUMPI DUP5 DUP10 ADD MLOAD PUSH2 0xA96 PUSH1 0x1F DUP10 AND DUP3 PUSH2 0x9A3 JUMP JUMPDEST DUP4 SSTORE POP JUMPDEST PUSH1 0x1 PUSH1 0x2 DUP9 MUL ADD DUP9 SSTORE POP POP POP JUMPDEST POP POP POP POP POP POP JUMP INVALID LOG2 PUSH5 0x6970667358 0x22 SLT KECCAK256 0xC2 0xE1 0xF7 0xBE SHR PUSH27 0x387D29BF7B21CAE256EE5A7C1B0C0C274B8D517CB33509407F4264 PUSH20 0x6F6C634300081200330000000000000000000000 "
				},
				"gasEstimates": {
					"creation": {
						"codeDepositCost": "557800",
						"executionCost": "594",
						"totalCost": "558394"
					},
					"external": {
						"getMessage()": "infinite",
						"message()": "infinite",
						"setMessage(string,string,string,uint256)": "infinite"
					}
				},
				"methodIdentifiers": {
					"getMessage()": "ce6d41de",
					"message()": "e21f37ce",
					"setMessage(string,string,string,uint256)": "d3e0aedf"
				}
			},
			"storageLayout": {
				"storage": [
					{
						"astId": 13,
						"contract": "contracts/Message.sol:Message",
						"label": "message",
						"offset": 0,
						"slot": "0",
						"type": "t_struct(MessageData)10_storage"
					}
				],
				"types": {
					"t_string_storage": {
						"encoding": "bytes",
						"label": "string",
						"numberOfBytes": "32"
					},
					"t_struct(MessageData)10_storage": {
						"encoding": "inplace",
						"label": "struct Message.MessageData",
						"members": [
							{
								"astId": 3,
								"contract": "contracts/Message.sol:Message",
								"label": "eventType",
								"offset": 0,
								"slot": "0",
								"type": "t_string_storage"
							},
							{
								"astId": 5,
								"contract": "contracts/Message.sol:Message",
								"label": "location",
								"offset": 0,
								"slot": "1",
								"type": "t_string_storage"
							},
							{
								"astId": 7,
								"contract": "contracts/Message.sol:Message",
								"label": "sourceID",
								"offset": 0,
								"slot": "2",
								"type": "t_string_storage"
							},
							{
								"astId": 9,
								"contract": "contracts/Message.sol:Message",
								"label": "distance",
								"offset": 0,
								"slot": "3",
								"type": "t_uint256"
							}
						],
						"numberOfBytes": "128"
					},
					"t_uint256": {
						"encoding": "inplace",
						"label": "uint256",
						"numberOfBytes": "32"
					}
				}
			},
			"userdoc": {
				"kind": "user",
				"methods": {},
				"version": 1
			}
		}
	}
}