{
	"contracts/LogarithmicCalculation.sol": {
		"LogarithmicMapping": {
			"abi": [
				{
					"inputs": [
						{
							"internalType": "uint256",
							"name": "x",
							"type": "uint256"
						}
					],
					"name": "ln",
					"outputs": [
						{
							"internalType": "uint256",
							"name": "",
							"type": "uint256"
						}
					],
					"stateMutability": "pure",
					"type": "function"
				},
				{
					"inputs": [
						{
							"internalType": "uint256",
							"name": "value",
							"type": "uint256"
						}
					],
					"name": "logarithmicMapping",
					"outputs": [
						{
							"internalType": "uint256",
							"name": "",
							"type": "uint256"
						}
					],
					"stateMutability": "pure",
					"type": "function"
				}
			],
			"devdoc": {
				"kind": "dev",
				"methods": {},
				"version": 1
			},
			"evm": {
				"assembly": "    /* \"contracts/LogarithmicCalculation.sol\":25:921  contract LogarithmicMapping {... */\n  mstore(0x40, 0x80)\n  callvalue\n  dup1\n  iszero\n  tag_1\n  jumpi\n  0x00\n  dup1\n  revert\ntag_1:\n  pop\n  dataSize(sub_0)\n  dup1\n  dataOffset(sub_0)\n  0x00\n  codecopy\n  0x00\n  return\nstop\n\nsub_0: assembly {\n        /* \"contracts/LogarithmicCalculation.sol\":25:921  contract LogarithmicMapping {... */\n      mstore(0x40, 0x80)\n      callvalue\n      dup1\n      iszero\n      tag_1\n      jumpi\n      0x00\n      dup1\n      revert\n    tag_1:\n      pop\n      jumpi(tag_2, lt(calldatasize, 0x04))\n      shr(0xe0, calldataload(0x00))\n      dup1\n      0x1220af03\n      eq\n      tag_3\n      jumpi\n      dup1\n      0x24d4e90a\n      eq\n      tag_4\n      jumpi\n    tag_2:\n      0x00\n      dup1\n      revert\n        /* \"contracts/LogarithmicCalculation.sol\":105:500  function logarithmicMapping(uint256 value) public pure returns (uint256) {... */\n    tag_3:\n      tag_5\n      0x04\n      dup1\n      calldatasize\n      sub\n      dup2\n      add\n      swap1\n      tag_6\n      swap2\n      swap1\n      tag_7\n      jump\t// in\n    tag_6:\n      tag_8\n      jump\t// in\n    tag_5:\n      mload(0x40)\n      tag_9\n      swap2\n      swap1\n      tag_10\n      jump\t// in\n    tag_9:\n      mload(0x40)\n      dup1\n      swap2\n      sub\n      swap1\n      return\n        /* \"contracts/LogarithmicCalculation.sol\":502:917  function ln(uint256 x) public pure returns (uint256) {... */\n    tag_4:\n      tag_11\n      0x04\n      dup1\n      calldatasize\n      sub\n      dup2\n      add\n      swap1\n      tag_12\n      swap2\n      swap1\n      tag_7\n      jump\t// in\n    tag_12:\n      tag_13\n      jump\t// in\n    tag_11:\n      mload(0x40)\n      tag_14\n      swap2\n      swap1\n      tag_10\n      jump\t// in\n    tag_14:\n      mload(0x40)\n      dup1\n      swap2\n      sub\n      swap1\n      return\n        /* \"contracts/LogarithmicCalculation.sol\":105:500  function logarithmicMapping(uint256 value) public pure returns (uint256) {... */\n    tag_8:\n        /* \"contracts/LogarithmicCalculation.sol\":169:176  uint256 */\n      0x00\n        /* \"contracts/LogarithmicCalculation.sol\":201:202  1 */\n      0x01\n        /* \"contracts/LogarithmicCalculation.sol\":192:197  value */\n      dup3\n        /* \"contracts/LogarithmicCalculation.sol\":192:202  value >= 1 */\n      lt\n      iszero\n        /* \"contracts/LogarithmicCalculation.sol\":192:219  value >= 1 && value <= 1000 */\n      dup1\n      iszero\n      tag_16\n      jumpi\n      pop\n        /* \"contracts/LogarithmicCalculation.sol\":215:219  1000 */\n      0x03e8\n        /* \"contracts/LogarithmicCalculation.sol\":206:211  value */\n      dup3\n        /* \"contracts/LogarithmicCalculation.sol\":206:219  value <= 1000 */\n      gt\n      iszero\n        /* \"contracts/LogarithmicCalculation.sol\":192:219  value >= 1 && value <= 1000 */\n    tag_16:\n        /* \"contracts/LogarithmicCalculation.sol\":184:257  require(value >= 1 && value <= 1000, \"Value must be between 1 and 1000.\") */\n      tag_17\n      jumpi\n      mload(0x40)\n      0x08c379a000000000000000000000000000000000000000000000000000000000\n      dup2\n      mstore\n      0x04\n      add\n      tag_18\n      swap1\n      tag_19\n      jump\t// in\n    tag_18:\n      mload(0x40)\n      dup1\n      swap2\n      sub\n      swap1\n      revert\n    tag_17:\n        /* \"contracts/LogarithmicCalculation.sol\":264:281  uint256 max_value */\n      0x00\n        /* \"contracts/LogarithmicCalculation.sol\":284:288  1000 */\n      0x03e8\n        /* \"contracts/LogarithmicCalculation.sol\":264:288  uint256 max_value = 1000 */\n      swap1\n      pop\n        /* \"contracts/LogarithmicCalculation.sol\":294:309  uint256 log_max */\n      0x00\n        /* \"contracts/LogarithmicCalculation.sol\":96:102  10**18 */\n      0x0de0b6b3a7640000\n        /* \"contracts/LogarithmicCalculation.sol\":312:337  ln(max_value * PRECISION) */\n      tag_20\n        /* \"contracts/LogarithmicCalculation.sol\":96:102  10**18 */\n      0x0de0b6b3a7640000\n        /* \"contracts/LogarithmicCalculation.sol\":315:324  max_value */\n      dup5\n        /* \"contracts/LogarithmicCalculation.sol\":315:336  max_value * PRECISION */\n      tag_21\n      swap2\n      swap1\n      tag_22\n      jump\t// in\n    tag_21:\n        /* \"contracts/LogarithmicCalculation.sol\":312:314  ln */\n      tag_13\n        /* \"contracts/LogarithmicCalculation.sol\":312:337  ln(max_value * PRECISION) */\n      jump\t// in\n    tag_20:\n        /* \"contracts/LogarithmicCalculation.sol\":312:349  ln(max_value * PRECISION) / PRECISION */\n      tag_23\n      swap2\n      swap1\n      tag_24\n      jump\t// in\n    tag_23:\n        /* \"contracts/LogarithmicCalculation.sol\":294:349  uint256 log_max = ln(max_value * PRECISION) / PRECISION */\n      swap1\n      pop\n        /* \"contracts/LogarithmicCalculation.sol\":356:373  uint256 log_value */\n      0x00\n        /* \"contracts/LogarithmicCalculation.sol\":96:102  10**18 */\n      0x0de0b6b3a7640000\n        /* \"contracts/LogarithmicCalculation.sol\":376:397  ln(value * PRECISION) */\n      tag_25\n        /* \"contracts/LogarithmicCalculation.sol\":96:102  10**18 */\n      0x0de0b6b3a7640000\n        /* \"contracts/LogarithmicCalculation.sol\":379:384  value */\n      dup8\n        /* \"contracts/LogarithmicCalculation.sol\":379:396  value * PRECISION */\n      tag_26\n      swap2\n      swap1\n      tag_22\n      jump\t// in\n    tag_26:\n        /* \"contracts/LogarithmicCalculation.sol\":376:378  ln */\n      tag_13\n        /* \"contracts/LogarithmicCalculation.sol\":376:397  ln(value * PRECISION) */\n      jump\t// in\n    tag_25:\n        /* \"contracts/LogarithmicCalculation.sol\":376:409  ln(value * PRECISION) / PRECISION */\n      tag_27\n      swap2\n      swap1\n      tag_24\n      jump\t// in\n    tag_27:\n        /* \"contracts/LogarithmicCalculation.sol\":356:409  uint256 log_value = ln(value * PRECISION) / PRECISION */\n      swap1\n      pop\n        /* \"contracts/LogarithmicCalculation.sol\":415:435  uint256 mapped_value */\n      0x00\n        /* \"contracts/LogarithmicCalculation.sol\":464:471  log_max */\n      dup3\n        /* \"contracts/LogarithmicCalculation.sol\":451:460  max_value */\n      dup5\n        /* \"contracts/LogarithmicCalculation.sol\":439:448  log_value */\n      dup4\n        /* \"contracts/LogarithmicCalculation.sol\":439:460  log_value * max_value */\n      tag_28\n      swap2\n      swap1\n      tag_22\n      jump\t// in\n    tag_28:\n        /* \"contracts/LogarithmicCalculation.sol\":438:471  (log_value * max_value) / log_max */\n      tag_29\n      swap2\n      swap1\n      tag_24\n      jump\t// in\n    tag_29:\n        /* \"contracts/LogarithmicCalculation.sol\":415:471  uint256 mapped_value = (log_value * max_value) / log_max */\n      swap1\n      pop\n        /* \"contracts/LogarithmicCalculation.sol\":485:497  mapped_value */\n      dup1\n        /* \"contracts/LogarithmicCalculation.sol\":478:497  return mapped_value */\n      swap5\n      pop\n      pop\n      pop\n      pop\n      pop\n        /* \"contracts/LogarithmicCalculation.sol\":105:500  function logarithmicMapping(uint256 value) public pure returns (uint256) {... */\n      swap2\n      swap1\n      pop\n      jump\t// out\n        /* \"contracts/LogarithmicCalculation.sol\":502:917  function ln(uint256 x) public pure returns (uint256) {... */\n    tag_13:\n        /* \"contracts/LogarithmicCalculation.sol\":546:553  uint256 */\n      0x00\n        /* \"contracts/LogarithmicCalculation.sol\":573:574  0 */\n      dup1\n        /* \"contracts/LogarithmicCalculation.sol\":569:570  x */\n      dup3\n        /* \"contracts/LogarithmicCalculation.sol\":569:574  x > 0 */\n      gt\n        /* \"contracts/LogarithmicCalculation.sol\":561:592  require(x > 0, \"Invalid input\") */\n      tag_31\n      jumpi\n      mload(0x40)\n      0x08c379a000000000000000000000000000000000000000000000000000000000\n      dup2\n      mstore\n      0x04\n      add\n      tag_32\n      swap1\n      tag_33\n      jump\t// in\n    tag_32:\n      mload(0x40)\n      dup1\n      swap2\n      sub\n      swap1\n      revert\n    tag_31:\n        /* \"contracts/LogarithmicCalculation.sol\":599:610  uint256 sum */\n      0x00\n        /* \"contracts/LogarithmicCalculation.sol\":620:637  uint256 precision */\n      dup1\n        /* \"contracts/LogarithmicCalculation.sol\":96:102  10**18 */\n      0x0de0b6b3a7640000\n        /* \"contracts/LogarithmicCalculation.sol\":620:649  uint256 precision = PRECISION */\n      swap1\n      pop\n        /* \"contracts/LogarithmicCalculation.sol\":655:667  uint256 term */\n      0x00\n        /* \"contracts/LogarithmicCalculation.sol\":705:714  precision */\n      dup2\n        /* \"contracts/LogarithmicCalculation.sol\":701:702  x */\n      dup6\n        /* \"contracts/LogarithmicCalculation.sol\":701:714  x + precision */\n      tag_34\n      swap2\n      swap1\n      tag_35\n      jump\t// in\n    tag_34:\n        /* \"contracts/LogarithmicCalculation.sol\":687:696  precision */\n      dup3\n        /* \"contracts/LogarithmicCalculation.sol\":683:684  x */\n      dup7\n        /* \"contracts/LogarithmicCalculation.sol\":683:696  x - precision */\n      tag_36\n      swap2\n      swap1\n      tag_37\n      jump\t// in\n    tag_36:\n        /* \"contracts/LogarithmicCalculation.sol\":670:679  precision */\n      dup4\n        /* \"contracts/LogarithmicCalculation.sol\":670:697  precision * (x - precision) */\n      tag_38\n      swap2\n      swap1\n      tag_22\n      jump\t// in\n    tag_38:\n        /* \"contracts/LogarithmicCalculation.sol\":670:715  precision * (x - precision) / (x + precision) */\n      tag_39\n      swap2\n      swap1\n      tag_24\n      jump\t// in\n    tag_39:\n        /* \"contracts/LogarithmicCalculation.sol\":655:715  uint256 term = precision * (x - precision) / (x + precision) */\n      swap1\n      pop\n        /* \"contracts/LogarithmicCalculation.sol\":721:741  uint256 current_term */\n      0x00\n        /* \"contracts/LogarithmicCalculation.sol\":744:748  term */\n      dup2\n        /* \"contracts/LogarithmicCalculation.sol\":721:748  uint256 current_term = term */\n      swap1\n      pop\n        /* \"contracts/LogarithmicCalculation.sol\":760:769  uint256 n */\n      0x00\n        /* \"contracts/LogarithmicCalculation.sol\":772:773  1 */\n      0x01\n        /* \"contracts/LogarithmicCalculation.sol\":760:773  uint256 n = 1 */\n      swap1\n      pop\n        /* \"contracts/LogarithmicCalculation.sol\":755:898  for (uint256 n = 1; current_term > 0; n++) {... */\n    tag_40:\n        /* \"contracts/LogarithmicCalculation.sol\":790:791  0 */\n      0x00\n        /* \"contracts/LogarithmicCalculation.sol\":775:787  current_term */\n      dup3\n        /* \"contracts/LogarithmicCalculation.sol\":775:791  current_term > 0 */\n      gt\n        /* \"contracts/LogarithmicCalculation.sol\":755:898  for (uint256 n = 1; current_term > 0; n++) {... */\n      iszero\n      tag_41\n      jumpi\n        /* \"contracts/LogarithmicCalculation.sol\":815:827  current_term */\n      dup2\n        /* \"contracts/LogarithmicCalculation.sol\":808:827  sum += current_term */\n      dup6\n      tag_43\n      swap2\n      swap1\n      tag_35\n      jump\t// in\n    tag_43:\n      swap5\n      pop\n        /* \"contracts/LogarithmicCalculation.sol\":881:890  precision */\n      dup4\n        /* \"contracts/LogarithmicCalculation.sol\":877:878  n */\n      dup2\n        /* \"contracts/LogarithmicCalculation.sol\":877:890  n * precision */\n      tag_44\n      swap2\n      swap1\n      tag_22\n      jump\t// in\n    tag_44:\n        /* \"contracts/LogarithmicCalculation.sol\":868:872  term */\n      dup4\n        /* \"contracts/LogarithmicCalculation.sol\":853:865  current_term */\n      dup4\n        /* \"contracts/LogarithmicCalculation.sol\":853:872  current_term * term */\n      tag_45\n      swap2\n      swap1\n      tag_22\n      jump\t// in\n    tag_45:\n        /* \"contracts/LogarithmicCalculation.sol\":852:891  (current_term * term) / (n * precision) */\n      tag_46\n      swap2\n      swap1\n      tag_24\n      jump\t// in\n    tag_46:\n        /* \"contracts/LogarithmicCalculation.sol\":837:891  current_term = (current_term * term) / (n * precision) */\n      swap2\n      pop\n        /* \"contracts/LogarithmicCalculation.sol\":793:796  n++ */\n      dup1\n      dup1\n      tag_47\n      swap1\n      tag_48\n      jump\t// in\n    tag_47:\n      swap2\n      pop\n      pop\n        /* \"contracts/LogarithmicCalculation.sol\":755:898  for (uint256 n = 1; current_term > 0; n++) {... */\n      jump(tag_40)\n    tag_41:\n      pop\n        /* \"contracts/LogarithmicCalculation.sol\":911:914  sum */\n      dup4\n        /* \"contracts/LogarithmicCalculation.sol\":904:914  return sum */\n      swap5\n      pop\n      pop\n      pop\n      pop\n      pop\n        /* \"contracts/LogarithmicCalculation.sol\":502:917  function ln(uint256 x) public pure returns (uint256) {... */\n      swap2\n      swap1\n      pop\n      jump\t// out\n        /* \"#utility.yul\":88:205   */\n    tag_50:\n        /* \"#utility.yul\":197:198   */\n      0x00\n        /* \"#utility.yul\":194:195   */\n      dup1\n        /* \"#utility.yul\":187:199   */\n      revert\n        /* \"#utility.yul\":334:411   */\n    tag_52:\n        /* \"#utility.yul\":371:378   */\n      0x00\n        /* \"#utility.yul\":400:405   */\n      dup2\n        /* \"#utility.yul\":389:405   */\n      swap1\n      pop\n        /* \"#utility.yul\":334:411   */\n      swap2\n      swap1\n      pop\n      jump\t// out\n        /* \"#utility.yul\":417:539   */\n    tag_53:\n        /* \"#utility.yul\":490:514   */\n      tag_69\n        /* \"#utility.yul\":508:513   */\n      dup2\n        /* \"#utility.yul\":490:514   */\n      tag_52\n      jump\t// in\n    tag_69:\n        /* \"#utility.yul\":483:488   */\n      dup2\n        /* \"#utility.yul\":480:515   */\n      eq\n        /* \"#utility.yul\":470:533   */\n      tag_70\n      jumpi\n        /* \"#utility.yul\":529:530   */\n      0x00\n        /* \"#utility.yul\":526:527   */\n      dup1\n        /* \"#utility.yul\":519:531   */\n      revert\n        /* \"#utility.yul\":470:533   */\n    tag_70:\n        /* \"#utility.yul\":417:539   */\n      pop\n      jump\t// out\n        /* \"#utility.yul\":545:684   */\n    tag_54:\n        /* \"#utility.yul\":591:596   */\n      0x00\n        /* \"#utility.yul\":629:635   */\n      dup2\n        /* \"#utility.yul\":616:636   */\n      calldataload\n        /* \"#utility.yul\":607:636   */\n      swap1\n      pop\n        /* \"#utility.yul\":645:678   */\n      tag_72\n        /* \"#utility.yul\":672:677   */\n      dup2\n        /* \"#utility.yul\":645:678   */\n      tag_53\n      jump\t// in\n    tag_72:\n        /* \"#utility.yul\":545:684   */\n      swap3\n      swap2\n      pop\n      pop\n      jump\t// out\n        /* \"#utility.yul\":690:1019   */\n    tag_7:\n        /* \"#utility.yul\":749:755   */\n      0x00\n        /* \"#utility.yul\":798:800   */\n      0x20\n        /* \"#utility.yul\":786:795   */\n      dup3\n        /* \"#utility.yul\":777:784   */\n      dup5\n        /* \"#utility.yul\":773:796   */\n      sub\n        /* \"#utility.yul\":769:801   */\n      slt\n        /* \"#utility.yul\":766:885   */\n      iszero\n      tag_74\n      jumpi\n        /* \"#utility.yul\":804:883   */\n      tag_75\n      tag_50\n      jump\t// in\n    tag_75:\n        /* \"#utility.yul\":766:885   */\n    tag_74:\n        /* \"#utility.yul\":924:925   */\n      0x00\n        /* \"#utility.yul\":949:1002   */\n      tag_76\n        /* \"#utility.yul\":994:1001   */\n      dup5\n        /* \"#utility.yul\":985:991   */\n      dup3\n        /* \"#utility.yul\":974:983   */\n      dup6\n        /* \"#utility.yul\":970:992   */\n      add\n        /* \"#utility.yul\":949:1002   */\n      tag_54\n      jump\t// in\n    tag_76:\n        /* \"#utility.yul\":939:1002   */\n      swap2\n      pop\n        /* \"#utility.yul\":895:1012   */\n      pop\n        /* \"#utility.yul\":690:1019   */\n      swap3\n      swap2\n      pop\n      pop\n      jump\t// out\n        /* \"#utility.yul\":1025:1143   */\n    tag_55:\n        /* \"#utility.yul\":1112:1136   */\n      tag_78\n        /* \"#utility.yul\":1130:1135   */\n      dup2\n        /* \"#utility.yul\":1112:1136   */\n      tag_52\n      jump\t// in\n    tag_78:\n        /* \"#utility.yul\":1107:1110   */\n      dup3\n        /* \"#utility.yul\":1100:1137   */\n      mstore\n        /* \"#utility.yul\":1025:1143   */\n      pop\n      pop\n      jump\t// out\n        /* \"#utility.yul\":1149:1371   */\n    tag_10:\n        /* \"#utility.yul\":1242:1246   */\n      0x00\n        /* \"#utility.yul\":1280:1282   */\n      0x20\n        /* \"#utility.yul\":1269:1278   */\n      dup3\n        /* \"#utility.yul\":1265:1283   */\n      add\n        /* \"#utility.yul\":1257:1283   */\n      swap1\n      pop\n        /* \"#utility.yul\":1293:1364   */\n      tag_80\n        /* \"#utility.yul\":1361:1362   */\n      0x00\n        /* \"#utility.yul\":1350:1359   */\n      dup4\n        /* \"#utility.yul\":1346:1363   */\n      add\n        /* \"#utility.yul\":1337:1343   */\n      dup5\n        /* \"#utility.yul\":1293:1364   */\n      tag_55\n      jump\t// in\n    tag_80:\n        /* \"#utility.yul\":1149:1371   */\n      swap3\n      swap2\n      pop\n      pop\n      jump\t// out\n        /* \"#utility.yul\":1377:1546   */\n    tag_56:\n        /* \"#utility.yul\":1461:1472   */\n      0x00\n        /* \"#utility.yul\":1495:1501   */\n      dup3\n        /* \"#utility.yul\":1490:1493   */\n      dup3\n        /* \"#utility.yul\":1483:1502   */\n      mstore\n        /* \"#utility.yul\":1535:1539   */\n      0x20\n        /* \"#utility.yul\":1530:1533   */\n      dup3\n        /* \"#utility.yul\":1526:1540   */\n      add\n        /* \"#utility.yul\":1511:1540   */\n      swap1\n      pop\n        /* \"#utility.yul\":1377:1546   */\n      swap3\n      swap2\n      pop\n      pop\n      jump\t// out\n        /* \"#utility.yul\":1552:1772   */\n    tag_57:\n        /* \"#utility.yul\":1692:1726   */\n      0x56616c7565206d757374206265206265747765656e203120616e642031303030\n        /* \"#utility.yul\":1688:1689   */\n      0x00\n        /* \"#utility.yul\":1680:1686   */\n      dup3\n        /* \"#utility.yul\":1676:1690   */\n      add\n        /* \"#utility.yul\":1669:1727   */\n      mstore\n        /* \"#utility.yul\":1761:1764   */\n      0x2e00000000000000000000000000000000000000000000000000000000000000\n        /* \"#utility.yul\":1756:1758   */\n      0x20\n        /* \"#utility.yul\":1748:1754   */\n      dup3\n        /* \"#utility.yul\":1744:1759   */\n      add\n        /* \"#utility.yul\":1737:1765   */\n      mstore\n        /* \"#utility.yul\":1552:1772   */\n      pop\n      jump\t// out\n        /* \"#utility.yul\":1778:2144   */\n    tag_58:\n        /* \"#utility.yul\":1920:1923   */\n      0x00\n        /* \"#utility.yul\":1941:2008   */\n      tag_84\n        /* \"#utility.yul\":2005:2007   */\n      0x21\n        /* \"#utility.yul\":2000:2003   */\n      dup4\n        /* \"#utility.yul\":1941:2008   */\n      tag_56\n      jump\t// in\n    tag_84:\n        /* \"#utility.yul\":1934:2008   */\n      swap2\n      pop\n        /* \"#utility.yul\":2017:2110   */\n      tag_85\n        /* \"#utility.yul\":2106:2109   */\n      dup3\n        /* \"#utility.yul\":2017:2110   */\n      tag_57\n      jump\t// in\n    tag_85:\n        /* \"#utility.yul\":2135:2137   */\n      0x40\n        /* \"#utility.yul\":2130:2133   */\n      dup3\n        /* \"#utility.yul\":2126:2138   */\n      add\n        /* \"#utility.yul\":2119:2138   */\n      swap1\n      pop\n        /* \"#utility.yul\":1778:2144   */\n      swap2\n      swap1\n      pop\n      jump\t// out\n        /* \"#utility.yul\":2150:2569   */\n    tag_19:\n        /* \"#utility.yul\":2316:2320   */\n      0x00\n        /* \"#utility.yul\":2354:2356   */\n      0x20\n        /* \"#utility.yul\":2343:2352   */\n      dup3\n        /* \"#utility.yul\":2339:2357   */\n      add\n        /* \"#utility.yul\":2331:2357   */\n      swap1\n      pop\n        /* \"#utility.yul\":2403:2412   */\n      dup2\n        /* \"#utility.yul\":2397:2401   */\n      dup2\n        /* \"#utility.yul\":2393:2413   */\n      sub\n        /* \"#utility.yul\":2389:2390   */\n      0x00\n        /* \"#utility.yul\":2378:2387   */\n      dup4\n        /* \"#utility.yul\":2374:2391   */\n      add\n        /* \"#utility.yul\":2367:2414   */\n      mstore\n        /* \"#utility.yul\":2431:2562   */\n      tag_87\n        /* \"#utility.yul\":2557:2561   */\n      dup2\n        /* \"#utility.yul\":2431:2562   */\n      tag_58\n      jump\t// in\n    tag_87:\n        /* \"#utility.yul\":2423:2562   */\n      swap1\n      pop\n        /* \"#utility.yul\":2150:2569   */\n      swap2\n      swap1\n      pop\n      jump\t// out\n        /* \"#utility.yul\":2575:2755   */\n    tag_59:\n        /* \"#utility.yul\":2623:2700   */\n      0x4e487b7100000000000000000000000000000000000000000000000000000000\n        /* \"#utility.yul\":2620:2621   */\n      0x00\n        /* \"#utility.yul\":2613:2701   */\n      mstore\n        /* \"#utility.yul\":2720:2724   */\n      0x11\n        /* \"#utility.yul\":2717:2718   */\n      0x04\n        /* \"#utility.yul\":2710:2725   */\n      mstore\n        /* \"#utility.yul\":2744:2748   */\n      0x24\n        /* \"#utility.yul\":2741:2742   */\n      0x00\n        /* \"#utility.yul\":2734:2749   */\n      revert\n        /* \"#utility.yul\":2761:3171   */\n    tag_22:\n        /* \"#utility.yul\":2801:2808   */\n      0x00\n        /* \"#utility.yul\":2824:2844   */\n      tag_90\n        /* \"#utility.yul\":2842:2843   */\n      dup3\n        /* \"#utility.yul\":2824:2844   */\n      tag_52\n      jump\t// in\n    tag_90:\n        /* \"#utility.yul\":2819:2844   */\n      swap2\n      pop\n        /* \"#utility.yul\":2858:2878   */\n      tag_91\n        /* \"#utility.yul\":2876:2877   */\n      dup4\n        /* \"#utility.yul\":2858:2878   */\n      tag_52\n      jump\t// in\n    tag_91:\n        /* \"#utility.yul\":2853:2878   */\n      swap3\n      pop\n        /* \"#utility.yul\":2913:2914   */\n      dup3\n        /* \"#utility.yul\":2910:2911   */\n      dup3\n        /* \"#utility.yul\":2906:2915   */\n      mul\n        /* \"#utility.yul\":2935:2965   */\n      tag_92\n        /* \"#utility.yul\":2953:2964   */\n      dup2\n        /* \"#utility.yul\":2935:2965   */\n      tag_52\n      jump\t// in\n    tag_92:\n        /* \"#utility.yul\":2924:2965   */\n      swap2\n      pop\n        /* \"#utility.yul\":3114:3115   */\n      dup3\n        /* \"#utility.yul\":3105:3112   */\n      dup3\n        /* \"#utility.yul\":3101:3116   */\n      div\n        /* \"#utility.yul\":3098:3099   */\n      dup5\n        /* \"#utility.yul\":3095:3117   */\n      eq\n        /* \"#utility.yul\":3075:3076   */\n      dup4\n        /* \"#utility.yul\":3068:3077   */\n      iszero\n        /* \"#utility.yul\":3048:3131   */\n      or\n        /* \"#utility.yul\":3025:3164   */\n      tag_93\n      jumpi\n        /* \"#utility.yul\":3144:3162   */\n      tag_94\n      tag_59\n      jump\t// in\n    tag_94:\n        /* \"#utility.yul\":3025:3164   */\n    tag_93:\n        /* \"#utility.yul\":2809:3171   */\n      pop\n        /* \"#utility.yul\":2761:3171   */\n      swap3\n      swap2\n      pop\n      pop\n      jump\t// out\n        /* \"#utility.yul\":3177:3357   */\n    tag_60:\n        /* \"#utility.yul\":3225:3302   */\n      0x4e487b7100000000000000000000000000000000000000000000000000000000\n        /* \"#utility.yul\":3222:3223   */\n      0x00\n        /* \"#utility.yul\":3215:3303   */\n      mstore\n        /* \"#utility.yul\":3322:3326   */\n      0x12\n        /* \"#utility.yul\":3319:3320   */\n      0x04\n        /* \"#utility.yul\":3312:3327   */\n      mstore\n        /* \"#utility.yul\":3346:3350   */\n      0x24\n        /* \"#utility.yul\":3343:3344   */\n      0x00\n        /* \"#utility.yul\":3336:3351   */\n      revert\n        /* \"#utility.yul\":3363:3548   */\n    tag_24:\n        /* \"#utility.yul\":3403:3404   */\n      0x00\n        /* \"#utility.yul\":3420:3440   */\n      tag_97\n        /* \"#utility.yul\":3438:3439   */\n      dup3\n        /* \"#utility.yul\":3420:3440   */\n      tag_52\n      jump\t// in\n    tag_97:\n        /* \"#utility.yul\":3415:3440   */\n      swap2\n      pop\n        /* \"#utility.yul\":3454:3474   */\n      tag_98\n        /* \"#utility.yul\":3472:3473   */\n      dup4\n        /* \"#utility.yul\":3454:3474   */\n      tag_52\n      jump\t// in\n    tag_98:\n        /* \"#utility.yul\":3449:3474   */\n      swap3\n      pop\n        /* \"#utility.yul\":3493:3494   */\n      dup3\n        /* \"#utility.yul\":3483:3518   */\n      tag_99\n      jumpi\n        /* \"#utility.yul\":3498:3516   */\n      tag_100\n      tag_60\n      jump\t// in\n    tag_100:\n        /* \"#utility.yul\":3483:3518   */\n    tag_99:\n        /* \"#utility.yul\":3540:3541   */\n      dup3\n        /* \"#utility.yul\":3537:3538   */\n      dup3\n        /* \"#utility.yul\":3533:3542   */\n      div\n        /* \"#utility.yul\":3528:3542   */\n      swap1\n      pop\n        /* \"#utility.yul\":3363:3548   */\n      swap3\n      swap2\n      pop\n      pop\n      jump\t// out\n        /* \"#utility.yul\":3554:3717   */\n    tag_61:\n        /* \"#utility.yul\":3694:3709   */\n      0x496e76616c696420696e70757400000000000000000000000000000000000000\n        /* \"#utility.yul\":3690:3691   */\n      0x00\n        /* \"#utility.yul\":3682:3688   */\n      dup3\n        /* \"#utility.yul\":3678:3692   */\n      add\n        /* \"#utility.yul\":3671:3710   */\n      mstore\n        /* \"#utility.yul\":3554:3717   */\n      pop\n      jump\t// out\n        /* \"#utility.yul\":3723:4089   */\n    tag_62:\n        /* \"#utility.yul\":3865:3868   */\n      0x00\n        /* \"#utility.yul\":3886:3953   */\n      tag_103\n        /* \"#utility.yul\":3950:3952   */\n      0x0d\n        /* \"#utility.yul\":3945:3948   */\n      dup4\n        /* \"#utility.yul\":3886:3953   */\n      tag_56\n      jump\t// in\n    tag_103:\n        /* \"#utility.yul\":3879:3953   */\n      swap2\n      pop\n        /* \"#utility.yul\":3962:4055   */\n      tag_104\n        /* \"#utility.yul\":4051:4054   */\n      dup3\n        /* \"#utility.yul\":3962:4055   */\n      tag_61\n      jump\t// in\n    tag_104:\n        /* \"#utility.yul\":4080:4082   */\n      0x20\n        /* \"#utility.yul\":4075:4078   */\n      dup3\n        /* \"#utility.yul\":4071:4083   */\n      add\n        /* \"#utility.yul\":4064:4083   */\n      swap1\n      pop\n        /* \"#utility.yul\":3723:4089   */\n      swap2\n      swap1\n      pop\n      jump\t// out\n        /* \"#utility.yul\":4095:4514   */\n    tag_33:\n        /* \"#utility.yul\":4261:4265   */\n      0x00\n        /* \"#utility.yul\":4299:4301   */\n      0x20\n        /* \"#utility.yul\":4288:4297   */\n      dup3\n        /* \"#utility.yul\":4284:4302   */\n      add\n        /* \"#utility.yul\":4276:4302   */\n      swap1\n      pop\n        /* \"#utility.yul\":4348:4357   */\n      dup2\n        /* \"#utility.yul\":4342:4346   */\n      dup2\n        /* \"#utility.yul\":4338:4358   */\n      sub\n        /* \"#utility.yul\":4334:4335   */\n      0x00\n        /* \"#utility.yul\":4323:4332   */\n      dup4\n        /* \"#utility.yul\":4319:4336   */\n      add\n        /* \"#utility.yul\":4312:4359   */\n      mstore\n        /* \"#utility.yul\":4376:4507   */\n      tag_106\n        /* \"#utility.yul\":4502:4506   */\n      dup2\n        /* \"#utility.yul\":4376:4507   */\n      tag_62\n      jump\t// in\n    tag_106:\n        /* \"#utility.yul\":4368:4507   */\n      swap1\n      pop\n        /* \"#utility.yul\":4095:4514   */\n      swap2\n      swap1\n      pop\n      jump\t// out\n        /* \"#utility.yul\":4520:4711   */\n    tag_35:\n        /* \"#utility.yul\":4560:4563   */\n      0x00\n        /* \"#utility.yul\":4579:4599   */\n      tag_108\n        /* \"#utility.yul\":4597:4598   */\n      dup3\n        /* \"#utility.yul\":4579:4599   */\n      tag_52\n      jump\t// in\n    tag_108:\n        /* \"#utility.yul\":4574:4599   */\n      swap2\n      pop\n        /* \"#utility.yul\":4613:4633   */\n      tag_109\n        /* \"#utility.yul\":4631:4632   */\n      dup4\n        /* \"#utility.yul\":4613:4633   */\n      tag_52\n      jump\t// in\n    tag_109:\n        /* \"#utility.yul\":4608:4633   */\n      swap3\n      pop\n        /* \"#utility.yul\":4656:4657   */\n      dup3\n        /* \"#utility.yul\":4653:4654   */\n      dup3\n        /* \"#utility.yul\":4649:4658   */\n      add\n        /* \"#utility.yul\":4642:4658   */\n      swap1\n      pop\n        /* \"#utility.yul\":4677:4680   */\n      dup1\n        /* \"#utility.yul\":4674:4675   */\n      dup3\n        /* \"#utility.yul\":4671:4681   */\n      gt\n        /* \"#utility.yul\":4668:4704   */\n      iszero\n      tag_110\n      jumpi\n        /* \"#utility.yul\":4684:4702   */\n      tag_111\n      tag_59\n      jump\t// in\n    tag_111:\n        /* \"#utility.yul\":4668:4704   */\n    tag_110:\n        /* \"#utility.yul\":4520:4711   */\n      swap3\n      swap2\n      pop\n      pop\n      jump\t// out\n        /* \"#utility.yul\":4717:4911   */\n    tag_37:\n        /* \"#utility.yul\":4757:4761   */\n      0x00\n        /* \"#utility.yul\":4777:4797   */\n      tag_113\n        /* \"#utility.yul\":4795:4796   */\n      dup3\n        /* \"#utility.yul\":4777:4797   */\n      tag_52\n      jump\t// in\n    tag_113:\n        /* \"#utility.yul\":4772:4797   */\n      swap2\n      pop\n        /* \"#utility.yul\":4811:4831   */\n      tag_114\n        /* \"#utility.yul\":4829:4830   */\n      dup4\n        /* \"#utility.yul\":4811:4831   */\n      tag_52\n      jump\t// in\n    tag_114:\n        /* \"#utility.yul\":4806:4831   */\n      swap3\n      pop\n        /* \"#utility.yul\":4855:4856   */\n      dup3\n        /* \"#utility.yul\":4852:4853   */\n      dup3\n        /* \"#utility.yul\":4848:4857   */\n      sub\n        /* \"#utility.yul\":4840:4857   */\n      swap1\n      pop\n        /* \"#utility.yul\":4879:4880   */\n      dup2\n        /* \"#utility.yul\":4873:4877   */\n      dup2\n        /* \"#utility.yul\":4870:4881   */\n      gt\n        /* \"#utility.yul\":4867:4904   */\n      iszero\n      tag_115\n      jumpi\n        /* \"#utility.yul\":4884:4902   */\n      tag_116\n      tag_59\n      jump\t// in\n    tag_116:\n        /* \"#utility.yul\":4867:4904   */\n    tag_115:\n        /* \"#utility.yul\":4717:4911   */\n      swap3\n      swap2\n      pop\n      pop\n      jump\t// out\n        /* \"#utility.yul\":4917:5150   */\n    tag_48:\n        /* \"#utility.yul\":4956:4959   */\n      0x00\n        /* \"#utility.yul\":4979:5003   */\n      tag_118\n        /* \"#utility.yul\":4997:5002   */\n      dup3\n        /* \"#utility.yul\":4979:5003   */\n      tag_52\n      jump\t// in\n    tag_118:\n        /* \"#utility.yul\":4970:5003   */\n      swap2\n      pop\n        /* \"#utility.yul\":5025:5091   */\n      0xffffffffffffffffffffffffffffffffffffffffffffffffffffffffffffffff\n        /* \"#utility.yul\":5018:5023   */\n      dup3\n        /* \"#utility.yul\":5015:5092   */\n      sub\n        /* \"#utility.yul\":5012:5115   */\n      tag_119\n      jumpi\n        /* \"#utility.yul\":5095:5113   */\n      tag_120\n      tag_59\n      jump\t// in\n    tag_120:\n        /* \"#utility.yul\":5012:5115   */\n    tag_119:\n        /* \"#utility.yul\":5142:5143   */\n      0x01\n        /* \"#utility.yul\":5135:5140   */\n      dup3\n        /* \"#utility.yul\":5131:5144   */\n      add\n        /* \"#utility.yul\":5124:5144   */\n      swap1\n      pop\n        /* \"#utility.yul\":4917:5150   */\n      swap2\n      swap1\n      pop\n      jump\t// out\n\n    auxdata: 0xa26469706673582212204e31033cf80ded7c6dd5179af6dcf23e44fa1a11d8b2c80e2d684091d7afcef564736f6c63430008120033\n}\n",
				"bytecode": {
					"linkReferences": {},
					"object": "608060405234801561001057600080fd5b506105c5806100206000396000f3fe608060405234801561001057600080fd5b50600436106100365760003560e01c80631220af031461003b57806324d4e90a1461006b575b600080fd5b610055600480360381019061005091906102a8565b61009b565b60405161006291906102e4565b60405180910390f35b610085600480360381019061008091906102a8565b610183565b60405161009291906102e4565b60405180910390f35b6000600182101580156100b057506103e88211155b6100ef576040517f08c379a00000000000000000000000000000000000000000000000000000000081526004016100e690610382565b60405180910390fd5b60006103e890506000670de0b6b3a764000061011d670de0b6b3a76400008461011891906103d1565b610183565b6101279190610442565b90506000670de0b6b3a7640000610150670de0b6b3a76400008761014b91906103d1565b610183565b61015a9190610442565b9050600082848361016b91906103d1565b6101759190610442565b905080945050505050919050565b60008082116101c7576040517f08c379a00000000000000000000000000000000000000000000000000000000081526004016101be906104bf565b60405180910390fd5b600080670de0b6b3a76400009050600081856101e391906104df565b82866101ef9190610513565b836101fa91906103d1565b6102049190610442565b905060008190506000600190505b600082111561026057818561022791906104df565b9450838161023591906103d1565b838361024191906103d1565b61024b9190610442565b9150808061025890610547565b915050610212565b5083945050505050919050565b600080fd5b6000819050919050565b61028581610272565b811461029057600080fd5b50565b6000813590506102a28161027c565b92915050565b6000602082840312156102be576102bd61026d565b5b60006102cc84828501610293565b91505092915050565b6102de81610272565b82525050565b60006020820190506102f960008301846102d5565b92915050565b600082825260208201905092915050565b7f56616c7565206d757374206265206265747765656e203120616e64203130303060008201527f2e00000000000000000000000000000000000000000000000000000000000000602082015250565b600061036c6021836102ff565b915061037782610310565b604082019050919050565b6000602082019050818103600083015261039b8161035f565b9050919050565b7f4e487b7100000000000000000000000000000000000000000000000000000000600052601160045260246000fd5b60006103dc82610272565b91506103e783610272565b92508282026103f581610272565b9150828204841483151761040c5761040b6103a2565b5b5092915050565b7f4e487b7100000000000000000000000000000000000000000000000000000000600052601260045260246000fd5b600061044d82610272565b915061045883610272565b92508261046857610467610413565b5b828204905092915050565b7f496e76616c696420696e70757400000000000000000000000000000000000000600082015250565b60006104a9600d836102ff565b91506104b482610473565b602082019050919050565b600060208201905081810360008301526104d88161049c565b9050919050565b60006104ea82610272565b91506104f583610272565b925082820190508082111561050d5761050c6103a2565b5b92915050565b600061051e82610272565b915061052983610272565b9250828203905081811115610541576105406103a2565b5b92915050565b600061055282610272565b91507fffffffffffffffffffffffffffffffffffffffffffffffffffffffffffffffff8203610584576105836103a2565b5b60018201905091905056fea26469706673582212204e31033cf80ded7c6dd5179af6dcf23e44fa1a11d8b2c80e2d684091d7afcef564736f6c63430008120033",
					"opcodes": "PUSH1 0x80 PUSH1 0x40 MSTORE CALLVALUE DUP1 ISZERO PUSH2 0x10 JUMPI PUSH1 0x0 DUP1 REVERT JUMPDEST POP PUSH2 0x5C5 DUP1 PUSH2 0x20 PUSH1 0x0 CODECOPY PUSH1 0x0 RETURN INVALID PUSH1 0x80 PUSH1 0x40 MSTORE CALLVALUE DUP1 ISZERO PUSH2 0x10 JUMPI PUSH1 0x0 DUP1 REVERT JUMPDEST POP PUSH1 0x4 CALLDATASIZE LT PUSH2 0x36 JUMPI PUSH1 0x0 CALLDATALOAD PUSH1 0xE0 SHR DUP1 PUSH4 0x1220AF03 EQ PUSH2 0x3B JUMPI DUP1 PUSH4 0x24D4E90A EQ PUSH2 0x6B JUMPI JUMPDEST PUSH1 0x0 DUP1 REVERT JUMPDEST PUSH2 0x55 PUSH1 0x4 DUP1 CALLDATASIZE SUB DUP2 ADD SWAP1 PUSH2 0x50 SWAP2 SWAP1 PUSH2 0x2A8 JUMP JUMPDEST PUSH2 0x9B JUMP JUMPDEST PUSH1 0x40 MLOAD PUSH2 0x62 SWAP2 SWAP1 PUSH2 0x2E4 JUMP JUMPDEST PUSH1 0x40 MLOAD DUP1 SWAP2 SUB SWAP1 RETURN JUMPDEST PUSH2 0x85 PUSH1 0x4 DUP1 CALLDATASIZE SUB DUP2 ADD SWAP1 PUSH2 0x80 SWAP2 SWAP1 PUSH2 0x2A8 JUMP JUMPDEST PUSH2 0x183 JUMP JUMPDEST PUSH1 0x40 MLOAD PUSH2 0x92 SWAP2 SWAP1 PUSH2 0x2E4 JUMP JUMPDEST PUSH1 0x40 MLOAD DUP1 SWAP2 SUB SWAP1 RETURN JUMPDEST PUSH1 0x0 PUSH1 0x1 DUP3 LT ISZERO DUP1 ISZERO PUSH2 0xB0 JUMPI POP PUSH2 0x3E8 DUP3 GT ISZERO JUMPDEST PUSH2 0xEF JUMPI PUSH1 0x40 MLOAD PUSH32 0x8C379A000000000000000000000000000000000000000000000000000000000 DUP2 MSTORE PUSH1 0x4 ADD PUSH2 0xE6 SWAP1 PUSH2 0x382 JUMP JUMPDEST PUSH1 0x40 MLOAD DUP1 SWAP2 SUB SWAP1 REVERT JUMPDEST PUSH1 0x0 PUSH2 0x3E8 SWAP1 POP PUSH1 0x0 PUSH8 0xDE0B6B3A7640000 PUSH2 0x11D PUSH8 0xDE0B6B3A7640000 DUP5 PUSH2 0x118 SWAP2 SWAP1 PUSH2 0x3D1 JUMP JUMPDEST PUSH2 0x183 JUMP JUMPDEST PUSH2 0x127 SWAP2 SWAP1 PUSH2 0x442 JUMP JUMPDEST SWAP1 POP PUSH1 0x0 PUSH8 0xDE0B6B3A7640000 PUSH2 0x150 PUSH8 0xDE0B6B3A7640000 DUP8 PUSH2 0x14B SWAP2 SWAP1 PUSH2 0x3D1 JUMP JUMPDEST PUSH2 0x183 JUMP JUMPDEST PUSH2 0x15A SWAP2 SWAP1 PUSH2 0x442 JUMP JUMPDEST SWAP1 POP PUSH1 0x0 DUP3 DUP5 DUP4 PUSH2 0x16B SWAP2 SWAP1 PUSH2 0x3D1 JUMP JUMPDEST PUSH2 0x175 SWAP2 SWAP1 PUSH2 0x442 JUMP JUMPDEST SWAP1 POP DUP1 SWAP5 POP POP POP POP POP SWAP2 SWAP1 POP JUMP JUMPDEST PUSH1 0x0 DUP1 DUP3 GT PUSH2 0x1C7 JUMPI PUSH1 0x40 MLOAD PUSH32 0x8C379A000000000000000000000000000000000000000000000000000000000 DUP2 MSTORE PUSH1 0x4 ADD PUSH2 0x1BE SWAP1 PUSH2 0x4BF JUMP JUMPDEST PUSH1 0x40 MLOAD DUP1 SWAP2 SUB SWAP1 REVERT JUMPDEST PUSH1 0x0 DUP1 PUSH8 0xDE0B6B3A7640000 SWAP1 POP PUSH1 0x0 DUP2 DUP6 PUSH2 0x1E3 SWAP2 SWAP1 PUSH2 0x4DF JUMP JUMPDEST DUP3 DUP7 PUSH2 0x1EF SWAP2 SWAP1 PUSH2 0x513 JUMP JUMPDEST DUP4 PUSH2 0x1FA SWAP2 SWAP1 PUSH2 0x3D1 JUMP JUMPDEST PUSH2 0x204 SWAP2 SWAP1 PUSH2 0x442 JUMP JUMPDEST SWAP1 POP PUSH1 0x0 DUP2 SWAP1 POP PUSH1 0x0 PUSH1 0x1 SWAP1 POP JUMPDEST PUSH1 0x0 DUP3 GT ISZERO PUSH2 0x260 JUMPI DUP2 DUP6 PUSH2 0x227 SWAP2 SWAP1 PUSH2 0x4DF JUMP JUMPDEST SWAP5 POP DUP4 DUP2 PUSH2 0x235 SWAP2 SWAP1 PUSH2 0x3D1 JUMP JUMPDEST DUP4 DUP4 PUSH2 0x241 SWAP2 SWAP1 PUSH2 0x3D1 JUMP JUMPDEST PUSH2 0x24B SWAP2 SWAP1 PUSH2 0x442 JUMP JUMPDEST SWAP2 POP DUP1 DUP1 PUSH2 0x258 SWAP1 PUSH2 0x547 JUMP JUMPDEST SWAP2 POP POP PUSH2 0x212 JUMP JUMPDEST POP DUP4 SWAP5 POP POP POP POP POP SWAP2 SWAP1 POP JUMP JUMPDEST PUSH1 0x0 DUP1 REVERT JUMPDEST PUSH1 0x0 DUP2 SWAP1 POP SWAP2 SWAP1 POP JUMP JUMPDEST PUSH2 0x285 DUP2 PUSH2 0x272 JUMP JUMPDEST DUP2 EQ PUSH2 0x290 JUMPI PUSH1 0x0 DUP1 REVERT JUMPDEST POP JUMP JUMPDEST PUSH1 0x0 DUP2 CALLDATALOAD SWAP1 POP PUSH2 0x2A2 DUP2 PUSH2 0x27C JUMP JUMPDEST SWAP3 SWAP2 POP POP JUMP JUMPDEST PUSH1 0x0 PUSH1 0x20 DUP3 DUP5 SUB SLT ISZERO PUSH2 0x2BE JUMPI PUSH2 0x2BD PUSH2 0x26D JUMP JUMPDEST JUMPDEST PUSH1 0x0 PUSH2 0x2CC DUP5 DUP3 DUP6 ADD PUSH2 0x293 JUMP JUMPDEST SWAP2 POP POP SWAP3 SWAP2 POP POP JUMP JUMPDEST PUSH2 0x2DE DUP2 PUSH2 0x272 JUMP JUMPDEST DUP3 MSTORE POP POP JUMP JUMPDEST PUSH1 0x0 PUSH1 0x20 DUP3 ADD SWAP1 POP PUSH2 0x2F9 PUSH1 0x0 DUP4 ADD DUP5 PUSH2 0x2D5 JUMP JUMPDEST SWAP3 SWAP2 POP POP JUMP JUMPDEST PUSH1 0x0 DUP3 DUP3 MSTORE PUSH1 0x20 DUP3 ADD SWAP1 POP SWAP3 SWAP2 POP POP JUMP JUMPDEST PUSH32 0x56616C7565206D757374206265206265747765656E203120616E642031303030 PUSH1 0x0 DUP3 ADD MSTORE PUSH32 0x2E00000000000000000000000000000000000000000000000000000000000000 PUSH1 0x20 DUP3 ADD MSTORE POP JUMP JUMPDEST PUSH1 0x0 PUSH2 0x36C PUSH1 0x21 DUP4 PUSH2 0x2FF JUMP JUMPDEST SWAP2 POP PUSH2 0x377 DUP3 PUSH2 0x310 JUMP JUMPDEST PUSH1 0x40 DUP3 ADD SWAP1 POP SWAP2 SWAP1 POP JUMP JUMPDEST PUSH1 0x0 PUSH1 0x20 DUP3 ADD SWAP1 POP DUP2 DUP2 SUB PUSH1 0x0 DUP4 ADD MSTORE PUSH2 0x39B DUP2 PUSH2 0x35F JUMP JUMPDEST SWAP1 POP SWAP2 SWAP1 POP JUMP JUMPDEST PUSH32 0x4E487B7100000000000000000000000000000000000000000000000000000000 PUSH1 0x0 MSTORE PUSH1 0x11 PUSH1 0x4 MSTORE PUSH1 0x24 PUSH1 0x0 REVERT JUMPDEST PUSH1 0x0 PUSH2 0x3DC DUP3 PUSH2 0x272 JUMP JUMPDEST SWAP2 POP PUSH2 0x3E7 DUP4 PUSH2 0x272 JUMP JUMPDEST SWAP3 POP DUP3 DUP3 MUL PUSH2 0x3F5 DUP2 PUSH2 0x272 JUMP JUMPDEST SWAP2 POP DUP3 DUP3 DIV DUP5 EQ DUP4 ISZERO OR PUSH2 0x40C JUMPI PUSH2 0x40B PUSH2 0x3A2 JUMP JUMPDEST JUMPDEST POP SWAP3 SWAP2 POP POP JUMP JUMPDEST PUSH32 0x4E487B7100000000000000000000000000000000000000000000000000000000 PUSH1 0x0 MSTORE PUSH1 0x12 PUSH1 0x4 MSTORE PUSH1 0x24 PUSH1 0x0 REVERT JUMPDEST PUSH1 0x0 PUSH2 0x44D DUP3 PUSH2 0x272 JUMP JUMPDEST SWAP2 POP PUSH2 0x458 DUP4 PUSH2 0x272 JUMP JUMPDEST SWAP3 POP DUP3 PUSH2 0x468 JUMPI PUSH2 0x467 PUSH2 0x413 JUMP JUMPDEST JUMPDEST DUP3 DUP3 DIV SWAP1 POP SWAP3 SWAP2 POP POP JUMP JUMPDEST PUSH32 0x496E76616C696420696E70757400000000000000000000000000000000000000 PUSH1 0x0 DUP3 ADD MSTORE POP JUMP JUMPDEST PUSH1 0x0 PUSH2 0x4A9 PUSH1 0xD DUP4 PUSH2 0x2FF JUMP JUMPDEST SWAP2 POP PUSH2 0x4B4 DUP3 PUSH2 0x473 JUMP JUMPDEST PUSH1 0x20 DUP3 ADD SWAP1 POP SWAP2 SWAP1 POP JUMP JUMPDEST PUSH1 0x0 PUSH1 0x20 DUP3 ADD SWAP1 POP DUP2 DUP2 SUB PUSH1 0x0 DUP4 ADD MSTORE PUSH2 0x4D8 DUP2 PUSH2 0x49C JUMP JUMPDEST SWAP1 POP SWAP2 SWAP1 POP JUMP JUMPDEST PUSH1 0x0 PUSH2 0x4EA DUP3 PUSH2 0x272 JUMP JUMPDEST SWAP2 POP PUSH2 0x4F5 DUP4 PUSH2 0x272 JUMP JUMPDEST SWAP3 POP DUP3 DUP3 ADD SWAP1 POP DUP1 DUP3 GT ISZERO PUSH2 0x50D JUMPI PUSH2 0x50C PUSH2 0x3A2 JUMP JUMPDEST JUMPDEST SWAP3 SWAP2 POP POP JUMP JUMPDEST PUSH1 0x0 PUSH2 0x51E DUP3 PUSH2 0x272 JUMP JUMPDEST SWAP2 POP PUSH2 0x529 DUP4 PUSH2 0x272 JUMP JUMPDEST SWAP3 POP DUP3 DUP3 SUB SWAP1 POP DUP2 DUP2 GT ISZERO PUSH2 0x541 JUMPI PUSH2 0x540 PUSH2 0x3A2 JUMP JUMPDEST JUMPDEST SWAP3 SWAP2 POP POP JUMP JUMPDEST PUSH1 0x0 PUSH2 0x552 DUP3 PUSH2 0x272 JUMP JUMPDEST SWAP2 POP PUSH32 0xFFFFFFFFFFFFFFFFFFFFFFFFFFFFFFFFFFFFFFFFFFFFFFFFFFFFFFFFFFFFFFFF DUP3 SUB PUSH2 0x584 JUMPI PUSH2 0x583 PUSH2 0x3A2 JUMP JUMPDEST JUMPDEST PUSH1 0x1 DUP3 ADD SWAP1 POP SWAP2 SWAP1 POP JUMP INVALID LOG2 PUSH5 0x6970667358 0x22 SLT KECCAK256 0x4E BALANCE SUB EXTCODECOPY 0xF8 0xD 0xED PUSH29 0x6DD5179AF6DCF23E44FA1A11D8B2C80E2D684091D7AFCEF564736F6C63 NUMBER STOP ADDMOD SLT STOP CALLER "
				},
				"gasEstimates": {
					"creation": {
						"codeDepositCost": "295400",
						"executionCost": "337",
						"totalCost": "295737"
					},
					"external": {
						"ln(uint256)": "infinite",
						"logarithmicMapping(uint256)": "infinite"
					}
				},
				"methodIdentifiers": {
					"ln(uint256)": "24d4e90a",
					"logarithmicMapping(uint256)": "1220af03"
				}
			},
			"storageLayout": {
				"storage": [],
				"types": null
			},
			"userdoc": {
				"kind": "user",
				"methods": {},
				"version": 1
			}
		}
	}
}