{
	"data": {
		"bytecode": {
			"linkReferences": {},
			"object": "608060405234801561001057600080fd5b506102b5806100206000396000f3fe608060405234801561001057600080fd5b506004361061002b5760003560e01c8063de429c1a14610030575b600080fd5b61004a60048036038101906100459190610110565b610060565b604051610057919061015f565b60405180910390f35b6000808290506000600290506000818661007a91906101d8565b90506000818461008a9190610209565b9050600060018761009b9190610209565b670de0b6b3a76400006001846100b19190610209565b6100bb919061023d565b6100c591906101d8565b9050809550505050505092915050565b600080fd5b6000819050919050565b6100ed816100da565b81146100f857600080fd5b50565b60008135905061010a816100e4565b92915050565b60008060408385031215610127576101266100d5565b5b6000610135858286016100fb565b9250506020610146858286016100fb565b9150509250929050565b610159816100da565b82525050565b60006020820190506101746000830184610150565b92915050565b7f4e487b7100000000000000000000000000000000000000000000000000000000600052601260045260246000fd5b7f4e487b7100000000000000000000000000000000000000000000000000000000600052601160045260246000fd5b60006101e3826100da565b91506101ee836100da565b9250826101fe576101fd61017a565b5b828204905092915050565b6000610214826100da565b915061021f836100da565b9250828203905081811115610237576102366101a9565b5b92915050565b6000610248826100da565b9150610253836100da565b9250828202610261816100da565b91508282048414831517610278576102776101a9565b5b509291505056fea26469706673582212200679c2703e542906ce7a149d64251c8c63d077f9a380d3a7ba57c121ca28e79364736f6c63430008120033",
			"opcodes": "PUSH1 0x80 PUSH1 0x40 MSTORE CALLVALUE DUP1 ISZERO PUSH2 0x10 JUMPI PUSH1 0x0 DUP1 REVERT JUMPDEST POP PUSH2 0x2B5 DUP1 PUSH2 0x20 PUSH1 0x0 CODECOPY PUSH1 0x0 RETURN INVALID PUSH1 0x80 PUSH1 0x40 MSTORE CALLVALUE DUP1 ISZERO PUSH2 0x10 JUMPI PUSH1 0x0 DUP1 REVERT JUMPDEST POP PUSH1 0x4 CALLDATASIZE LT PUSH2 0x2B JUMPI PUSH1 0x0 CALLDATALOAD PUSH1 0xE0 SHR DUP1 PUSH4 0xDE429C1A EQ PUSH2 0x30 JUMPI JUMPDEST PUSH1 0x0 DUP1 REVERT JUMPDEST PUSH2 0x4A PUSH1 0x4 DUP1 CALLDATASIZE SUB DUP2 ADD SWAP1 PUSH2 0x45 SWAP2 SWAP1 PUSH2 0x110 JUMP JUMPDEST PUSH2 0x60 JUMP JUMPDEST PUSH1 0x40 MLOAD PUSH2 0x57 SWAP2 SWAP1 PUSH2 0x15F JUMP JUMPDEST PUSH1 0x40 MLOAD DUP1 SWAP2 SUB SWAP1 RETURN JUMPDEST PUSH1 0x0 DUP1 DUP3 SWAP1 POP PUSH1 0x0 PUSH1 0x2 SWAP1 POP PUSH1 0x0 DUP2 DUP7 PUSH2 0x7A SWAP2 SWAP1 PUSH2 0x1D8 JUMP JUMPDEST SWAP1 POP PUSH1 0x0 DUP2 DUP5 PUSH2 0x8A SWAP2 SWAP1 PUSH2 0x209 JUMP JUMPDEST SWAP1 POP PUSH1 0x0 PUSH1 0x1 DUP8 PUSH2 0x9B SWAP2 SWAP1 PUSH2 0x209 JUMP JUMPDEST PUSH8 0xDE0B6B3A7640000 PUSH1 0x1 DUP5 PUSH2 0xB1 SWAP2 SWAP1 PUSH2 0x209 JUMP JUMPDEST PUSH2 0xBB SWAP2 SWAP1 PUSH2 0x23D JUMP JUMPDEST PUSH2 0xC5 SWAP2 SWAP1 PUSH2 0x1D8 JUMP JUMPDEST SWAP1 POP DUP1 SWAP6 POP POP POP POP POP POP SWAP3 SWAP2 POP POP JUMP JUMPDEST PUSH1 0x0 DUP1 REVERT JUMPDEST PUSH1 0x0 DUP2 SWAP1 POP SWAP2 SWAP1 POP JUMP JUMPDEST PUSH2 0xED DUP2 PUSH2 0xDA JUMP JUMPDEST DUP2 EQ PUSH2 0xF8 JUMPI PUSH1 0x0 DUP1 REVERT JUMPDEST POP JUMP JUMPDEST PUSH1 0x0 DUP2 CALLDATALOAD SWAP1 POP PUSH2 0x10A DUP2 PUSH2 0xE4 JUMP JUMPDEST SWAP3 SWAP2 POP POP JUMP JUMPDEST PUSH1 0x0 DUP1 PUSH1 0x40 DUP4 DUP6 SUB SLT ISZERO PUSH2 0x127 JUMPI PUSH2 0x126 PUSH2 0xD5 JUMP JUMPDEST JUMPDEST PUSH1 0x0 PUSH2 0x135 DUP6 DUP3 DUP7 ADD PUSH2 0xFB JUMP JUMPDEST SWAP3 POP POP PUSH1 0x20 PUSH2 0x146 DUP6 DUP3 DUP7 ADD PUSH2 0xFB JUMP JUMPDEST SWAP2 POP POP SWAP3 POP SWAP3 SWAP1 POP JUMP JUMPDEST PUSH2 0x159 DUP2 PUSH2 0xDA JUMP JUMPDEST DUP3 MSTORE POP POP JUMP JUMPDEST PUSH1 0x0 PUSH1 0x20 DUP3 ADD SWAP1 POP PUSH2 0x174 PUSH1 0x0 DUP4 ADD DUP5 PUSH2 0x150 JUMP JUMPDEST SWAP3 SWAP2 POP POP JUMP JUMPDEST PUSH32 0x4E487B7100000000000000000000000000000000000000000000000000000000 PUSH1 0x0 MSTORE PUSH1 0x12 PUSH1 0x4 MSTORE PUSH1 0x24 PUSH1 0x0 REVERT JUMPDEST PUSH32 0x4E487B7100000000000000000000000000000000000000000000000000000000 PUSH1 0x0 MSTORE PUSH1 0x11 PUSH1 0x4 MSTORE PUSH1 0x24 PUSH1 0x0 REVERT JUMPDEST PUSH1 0x0 PUSH2 0x1E3 DUP3 PUSH2 0xDA JUMP JUMPDEST SWAP2 POP PUSH2 0x1EE DUP4 PUSH2 0xDA JUMP JUMPDEST SWAP3 POP DUP3 PUSH2 0x1FE JUMPI PUSH2 0x1FD PUSH2 0x17A JUMP JUMPDEST JUMPDEST DUP3 DUP3 DIV SWAP1 POP SWAP3 SWAP2 POP POP JUMP JUMPDEST PUSH1 0x0 PUSH2 0x214 DUP3 PUSH2 0xDA JUMP JUMPDEST SWAP2 POP PUSH2 0x21F DUP4 PUSH2 0xDA JUMP JUMPDEST SWAP3 POP DUP3 DUP3 SUB SWAP1 POP DUP2 DUP2 GT ISZERO PUSH2 0x237 JUMPI PUSH2 0x236 PUSH2 0x1A9 JUMP JUMPDEST JUMPDEST SWAP3 SWAP2 POP POP JUMP JUMPDEST PUSH1 0x0 PUSH2 0x248 DUP3 PUSH2 0xDA JUMP JUMPDEST SWAP2 POP PUSH2 0x253 DUP4 PUSH2 0xDA JUMP JUMPDEST SWAP3 POP DUP3 DUP3 MUL PUSH2 0x261 DUP2 PUSH2 0xDA JUMP JUMPDEST SWAP2 POP DUP3 DUP3 DIV DUP5 EQ DUP4 ISZERO OR PUSH2 0x278 JUMPI PUSH2 0x277 PUSH2 0x1A9 JUMP JUMPDEST JUMPDEST POP SWAP3 SWAP2 POP POP JUMP INVALID LOG2 PUSH5 0x6970667358 0x22 SLT KECCAK256 MOD PUSH26 0xC2703E542906CE7A149D64251C8C63D077F9A380D3A7BA57C121 0xCA 0x28 0xE7 SWAP4 PUSH5 0x736F6C6343 STOP ADDMOD SLT STOP CALLER "
		},
		"gasEstimates": {
			"creation": {
				"codeDepositCost": "138600",
				"executionCost": "183",
				"totalCost": "138783"
			},
			"external": {
				"dynamic_trust_cal(uint256,uint256)": "infinite"
			}
		},
		"methodIdentifiers": {
			"dynamic_trust_cal(uint256,uint256)": "de429c1a"
		}
	},
	"abi": [
		{
			"inputs": [
				{
					"internalType": "uint256",
					"name": "distance",
					"type": "uint256"
				},
				{
					"internalType": "uint256",
					"name": "no_of_zones_affected",
					"type": "uint256"
				}
			],
			"name": "dynamic_trust_cal",
			"outputs": [
				{
					"internalType": "uint256",
					"name": "",
					"type": "uint256"
				}
			],
			"stateMutability": "pure",
			"type": "function"
		}
	]
}